{
  "contractName": "AgenteFederado",
  "abi": [
    {
      "inputs": [],
      "stateMutability": "nonpayable",
      "type": "constructor"
    },
    {
      "inputs": [
        {
          "internalType": "address",
          "name": "owner",
          "type": "address"
        },
        {
          "internalType": "bool",
          "name": "isOwner",
          "type": "bool"
        }
      ],
      "name": "setOwner",
      "outputs": [],
      "stateMutability": "nonpayable",
      "type": "function"
    },
    {
      "inputs": [
        {
          "components": [
            {
              "internalType": "uint256",
              "name": "dataCadastro",
              "type": "uint256"
            },
            {
              "internalType": "string",
              "name": "uf",
              "type": "string"
            },
            {
              "internalType": "string",
              "name": "descricao",
              "type": "string"
            },
            {
              "internalType": "address",
              "name": "enderecoCarteira",
              "type": "address"
            },
            {
              "internalType": "bool",
              "name": "cadastrado",
              "type": "bool"
            }
          ],
          "internalType": "struct AgenteFederadoInfo",
          "name": "agenteFederado",
          "type": "tuple"
        }
      ],
      "name": "cadastrarAgenteFederado",
      "outputs": [],
      "stateMutability": "nonpayable",
      "type": "function"
    },
    {
      "inputs": [
        {
          "components": [
            {
              "internalType": "uint256",
              "name": "dataCadastro",
              "type": "uint256"
            },
            {
              "internalType": "address",
              "name": "agenteFederado",
              "type": "address"
            },
            {
              "internalType": "string",
              "name": "descricao",
              "type": "string"
            },
            {
              "internalType": "address",
              "name": "enderecoCarteira",
              "type": "address"
            },
            {
              "internalType": "bool",
              "name": "cadastrado",
              "type": "bool"
            }
          ],
          "internalType": "struct SecretariaInfo",
          "name": "secretaria",
          "type": "tuple"
        }
      ],
      "name": "cadastrarSecretaria",
      "outputs": [],
      "stateMutability": "nonpayable",
      "type": "function"
    },
    {
      "inputs": [],
      "name": "listarAgentesFederados",
      "outputs": [
        {
          "components": [
            {
              "internalType": "uint256",
              "name": "dataCadastro",
              "type": "uint256"
            },
            {
              "internalType": "string",
              "name": "uf",
              "type": "string"
            },
            {
              "internalType": "string",
              "name": "descricao",
              "type": "string"
            },
            {
              "internalType": "address",
              "name": "enderecoCarteira",
              "type": "address"
            },
            {
              "internalType": "bool",
              "name": "cadastrado",
              "type": "bool"
            }
          ],
          "internalType": "struct AgenteFederadoInfo[]",
          "name": "",
          "type": "tuple[]"
        }
      ],
      "stateMutability": "view",
      "type": "function",
      "constant": true
    },
    {
      "inputs": [],
      "name": "listarSecretarias",
      "outputs": [
        {
          "components": [
            {
              "internalType": "uint256",
              "name": "dataCadastro",
              "type": "uint256"
            },
            {
              "internalType": "address",
              "name": "agenteFederado",
              "type": "address"
            },
            {
              "internalType": "string",
              "name": "descricao",
              "type": "string"
            },
            {
              "internalType": "address",
              "name": "enderecoCarteira",
              "type": "address"
            },
            {
              "internalType": "bool",
              "name": "cadastrado",
              "type": "bool"
            }
          ],
          "internalType": "struct SecretariaInfo[]",
          "name": "",
          "type": "tuple[]"
        }
      ],
      "stateMutability": "view",
      "type": "function",
      "constant": true
    },
    {
      "inputs": [
        {
          "internalType": "address",
          "name": "endereco",
          "type": "address"
        }
      ],
      "name": "listarSecretariasAgenteFederado",
      "outputs": [
        {
          "components": [
            {
              "internalType": "uint256",
              "name": "dataCadastro",
              "type": "uint256"
            },
            {
              "internalType": "address",
              "name": "agenteFederado",
              "type": "address"
            },
            {
              "internalType": "string",
              "name": "descricao",
              "type": "string"
            },
            {
              "internalType": "address",
              "name": "enderecoCarteira",
              "type": "address"
            },
            {
              "internalType": "bool",
              "name": "cadastrado",
              "type": "bool"
            }
          ],
          "internalType": "struct SecretariaInfo[]",
          "name": "",
          "type": "tuple[]"
        }
      ],
      "stateMutability": "view",
      "type": "function",
      "constant": true
    },
    {
      "inputs": [
        {
          "internalType": "address",
          "name": "endereco",
          "type": "address"
        }
      ],
      "name": "obterAgenteFederado",
      "outputs": [
        {
          "components": [
            {
              "internalType": "uint256",
              "name": "dataCadastro",
              "type": "uint256"
            },
            {
              "internalType": "string",
              "name": "uf",
              "type": "string"
            },
            {
              "internalType": "string",
              "name": "descricao",
              "type": "string"
            },
            {
              "internalType": "address",
              "name": "enderecoCarteira",
              "type": "address"
            },
            {
              "internalType": "bool",
              "name": "cadastrado",
              "type": "bool"
            }
          ],
          "internalType": "struct AgenteFederadoInfo",
          "name": "",
          "type": "tuple"
        }
      ],
      "stateMutability": "view",
      "type": "function",
      "constant": true
    },
    {
      "inputs": [
        {
          "internalType": "address",
          "name": "endereco",
          "type": "address"
        }
      ],
      "name": "obterSecretaria",
      "outputs": [
        {
          "components": [
            {
              "internalType": "uint256",
              "name": "dataCadastro",
              "type": "uint256"
            },
            {
              "internalType": "address",
              "name": "agenteFederado",
              "type": "address"
            },
            {
              "internalType": "string",
              "name": "descricao",
              "type": "string"
            },
            {
              "internalType": "address",
              "name": "enderecoCarteira",
              "type": "address"
            },
            {
              "internalType": "bool",
              "name": "cadastrado",
              "type": "bool"
            }
          ],
          "internalType": "struct SecretariaInfo",
          "name": "",
          "type": "tuple"
        }
      ],
      "stateMutability": "view",
      "type": "function",
      "constant": true
    },
    {
      "inputs": [
        {
          "internalType": "address",
          "name": "endereco",
          "type": "address"
        },
        {
          "components": [
            {
              "internalType": "uint256",
              "name": "data",
              "type": "uint256"
            },
            {
              "internalType": "string",
              "name": "descricao",
              "type": "string"
            },
            {
              "internalType": "uint256",
              "name": "valor",
              "type": "uint256"
            },
            {
              "internalType": "string",
              "name": "creditoDebito",
              "type": "string"
            },
            {
              "internalType": "address",
              "name": "origem",
              "type": "address"
            },
            {
              "internalType": "address",
              "name": "destino",
              "type": "address"
            },
            {
              "internalType": "string",
              "name": "simboloToken",
              "type": "string"
            }
          ],
          "internalType": "struct ExtratoInfo",
          "name": "extrato",
          "type": "tuple"
        }
      ],
      "name": "incluirLinhaExtrato",
      "outputs": [],
      "stateMutability": "nonpayable",
      "type": "function"
    },
    {
      "inputs": [
        {
          "internalType": "address",
          "name": "endereco",
          "type": "address"
        }
      ],
      "name": "consultarExtrato",
      "outputs": [
        {
          "components": [
            {
              "internalType": "uint256",
              "name": "data",
              "type": "uint256"
            },
            {
              "internalType": "string",
              "name": "descricao",
              "type": "string"
            },
            {
              "internalType": "uint256",
              "name": "valor",
              "type": "uint256"
            },
            {
              "internalType": "string",
              "name": "creditoDebito",
              "type": "string"
            },
            {
              "internalType": "address",
              "name": "origem",
              "type": "address"
            },
            {
              "internalType": "address",
              "name": "destino",
              "type": "address"
            },
            {
              "internalType": "string",
              "name": "simboloToken",
              "type": "string"
            }
          ],
          "internalType": "struct ExtratoInfo[]",
          "name": "",
          "type": "tuple[]"
        }
      ],
      "stateMutability": "view",
      "type": "function",
      "constant": true
    }
  ],
  "bytecode": "0x608060405234801561001057600080fd5b506001600760003373ffffffffffffffffffffffffffffffffffffffff1673ffffffffffffffffffffffffffffffffffffffff16815260200190815260200160002060006101000a81548160ff021916908315150217905550612acf806100786000396000f3fe608060405234801561001057600080fd5b506004361061009e5760003560e01c8063780409b311610066578063780409b31461015757806378905bc21461018757806391a85dd6146101a3578063e2b0e611146101c1578063f88ccf74146101f15761009e565b806308944790146100a357806326d3e71a146100d357806350fde3cb146100ef578063516c731c1461011f57806374fbc0cf1461013b575b600080fd5b6100bd60048036038101906100b89190611a01565b61020f565b6040516100ca9190611b77565b60405180910390f35b6100ed60048036038101906100e89190611df4565b6103cb565b005b61010960048036038101906101049190611a01565b6105c2565b6040516101169190611f75565b60405180910390f35b61013960048036038101906101349190611f97565b6107c3565b005b6101556004803603810190610150919061207f565b6108aa565b005b610171600480360381019061016c9190611a01565b610c46565b60405161017e9190612234565b60405180910390f35b6101a1600480360381019061019c919061235e565b610f5a565b005b6101ab611192565b6040516101b89190611f75565b60405180910390f35b6101db60048036038101906101d69190611a01565b611425565b6040516101e89190612437565b60405180910390f35b6101f961161d565b6040516102069190612598565b60405180910390f35b6102176118eb565b600560008373ffffffffffffffffffffffffffffffffffffffff1673ffffffffffffffffffffffffffffffffffffffff1681526020019081526020016000206040518060a0016040529081600082015481526020016001820160009054906101000a900473ffffffffffffffffffffffffffffffffffffffff1673ffffffffffffffffffffffffffffffffffffffff1673ffffffffffffffffffffffffffffffffffffffff1681526020016002820180546102d1906125e9565b80601f01602080910402602001604051908101604052809291908181526020018280546102fd906125e9565b801561034a5780601f1061031f5761010080835404028352916020019161034a565b820191906000526020600020905b81548152906001019060200180831161032d57829003601f168201915b505050505081526020016003820160009054906101000a900473ffffffffffffffffffffffffffffffffffffffff1673ffffffffffffffffffffffffffffffffffffffff1673ffffffffffffffffffffffffffffffffffffffff1681526020016003820160149054906101000a900460ff1615151515815250509050919050565b600760003373ffffffffffffffffffffffffffffffffffffffff1673ffffffffffffffffffffffffffffffffffffffff16815260200190815260200160002060009054906101000a900460ff16610457576040517f08c379a000000000000000000000000000000000000000000000000000000000815260040161044e906126c3565b60405180910390fd5b60018160800190151590811515815250508060026000836060015173ffffffffffffffffffffffffffffffffffffffff1673ffffffffffffffffffffffffffffffffffffffff1681526020019081526020016000206000820151816000015560208201518160010190816104cb919061288f565b5060408201518160020190816104e1919061288f565b5060608201518160030160006101000a81548173ffffffffffffffffffffffffffffffffffffffff021916908373ffffffffffffffffffffffffffffffffffffffff16021790555060808201518160030160146101000a81548160ff021916908315150217905550905050600181606001519080600181540180825580915050600190039060005260206000200160009091909190916101000a81548173ffffffffffffffffffffffffffffffffffffffff021916908373ffffffffffffffffffffffffffffffffffffffff16021790555060018054905060008190555050565b6060600660008373ffffffffffffffffffffffffffffffffffffffff1673ffffffffffffffffffffffffffffffffffffffff168152602001908152602001600020805480602002602001604051908101604052809291908181526020016000905b828210156107b857838290600052602060002090600402016040518060a0016040529081600082015481526020016001820160009054906101000a900473ffffffffffffffffffffffffffffffffffffffff1673ffffffffffffffffffffffffffffffffffffffff1673ffffffffffffffffffffffffffffffffffffffff1681526020016002820180546106b6906125e9565b80601f01602080910402602001604051908101604052809291908181526020018280546106e2906125e9565b801561072f5780601f106107045761010080835404028352916020019161072f565b820191906000526020600020905b81548152906001019060200180831161071257829003601f168201915b505050505081526020016003820160009054906101000a900473ffffffffffffffffffffffffffffffffffffffff1673ffffffffffffffffffffffffffffffffffffffff1673ffffffffffffffffffffffffffffffffffffffff1681526020016003820160149054906101000a900460ff16151515158152505081526020019060010190610623565b505050509050919050565b600760003373ffffffffffffffffffffffffffffffffffffffff1673ffffffffffffffffffffffffffffffffffffffff16815260200190815260200160002060009054906101000a900460ff1661084f576040517f08c379a0000000000000000000000000000000000000000000000000000000008152600401610846906126c3565b60405180910390fd5b80600760008473ffffffffffffffffffffffffffffffffffffffff1673ffffffffffffffffffffffffffffffffffffffff16815260200190815260200160002060006101000a81548160ff0219169083151502179055505050565b600260003373ffffffffffffffffffffffffffffffffffffffff1673ffffffffffffffffffffffffffffffffffffffff16815260200190815260200160002060030160149054906101000a900460ff16610939576040517f08c379a0000000000000000000000000000000000000000000000000000000008152600401610930906129d3565b60405180910390fd5b33816020019073ffffffffffffffffffffffffffffffffffffffff16908173ffffffffffffffffffffffffffffffffffffffff168152505060018160800190151590811515815250508060056000836060015173ffffffffffffffffffffffffffffffffffffffff1673ffffffffffffffffffffffffffffffffffffffff1681526020019081526020016000206000820151816000015560208201518160010160006101000a81548173ffffffffffffffffffffffffffffffffffffffff021916908373ffffffffffffffffffffffffffffffffffffffff1602179055506040820151816002019081610a2c919061288f565b5060608201518160030160006101000a81548173ffffffffffffffffffffffffffffffffffffffff021916908373ffffffffffffffffffffffffffffffffffffffff16021790555060808201518160030160146101000a81548160ff021916908315150217905550905050600481606001519080600181540180825580915050600190039060005260206000200160009091909190916101000a81548173ffffffffffffffffffffffffffffffffffffffff021916908373ffffffffffffffffffffffffffffffffffffffff160217905550600480549050600381905550600660003373ffffffffffffffffffffffffffffffffffffffff1673ffffffffffffffffffffffffffffffffffffffff1681526020019081526020016000208190806001815401808255809150506001900390600052602060002090600402016000909190919091506000820151816000015560208201518160010160006101000a81548173ffffffffffffffffffffffffffffffffffffffff021916908373ffffffffffffffffffffffffffffffffffffffff1602179055506040820151816002019081610bd9919061288f565b5060608201518160030160006101000a81548173ffffffffffffffffffffffffffffffffffffffff021916908373ffffffffffffffffffffffffffffffffffffffff16021790555060808201518160030160146101000a81548160ff021916908315150217905550505050565b6060600860008373ffffffffffffffffffffffffffffffffffffffff1673ffffffffffffffffffffffffffffffffffffffff168152602001908152602001600020805480602002602001604051908101604052809291908181526020016000905b82821015610f4f57838290600052602060002090600702016040518060e001604052908160008201548152602001600182018054610ce4906125e9565b80601f0160208091040260200160405190810160405280929190818152602001828054610d10906125e9565b8015610d5d5780601f10610d3257610100808354040283529160200191610d5d565b820191906000526020600020905b815481529060010190602001808311610d4057829003601f168201915b5050505050815260200160028201548152602001600382018054610d80906125e9565b80601f0160208091040260200160405190810160405280929190818152602001828054610dac906125e9565b8015610df95780601f10610dce57610100808354040283529160200191610df9565b820191906000526020600020905b815481529060010190602001808311610ddc57829003601f168201915b505050505081526020016004820160009054906101000a900473ffffffffffffffffffffffffffffffffffffffff1673ffffffffffffffffffffffffffffffffffffffff1673ffffffffffffffffffffffffffffffffffffffff1681526020016005820160009054906101000a900473ffffffffffffffffffffffffffffffffffffffff1673ffffffffffffffffffffffffffffffffffffffff1673ffffffffffffffffffffffffffffffffffffffff168152602001600682018054610ebe906125e9565b80601f0160208091040260200160405190810160405280929190818152602001828054610eea906125e9565b8015610f375780601f10610f0c57610100808354040283529160200191610f37565b820191906000526020600020905b815481529060010190602001808311610f1a57829003601f168201915b50505050508152505081526020019060010190610ca7565b505050509050919050565b600760003373ffffffffffffffffffffffffffffffffffffffff1673ffffffffffffffffffffffffffffffffffffffff16815260200190815260200160002060009054906101000a900460ff16610fe6576040517f08c379a0000000000000000000000000000000000000000000000000000000008152600401610fdd906126c3565b60405180910390fd5b600560008373ffffffffffffffffffffffffffffffffffffffff1673ffffffffffffffffffffffffffffffffffffffff16815260200190815260200160002060030160149054906101000a900460ff1661103f57600080fd5b600860008373ffffffffffffffffffffffffffffffffffffffff1673ffffffffffffffffffffffffffffffffffffffff1681526020019081526020016000208190806001815401808255809150506001900390600052602060002090600702016000909190919091506000820151816000015560208201518160010190816110c7919061288f565b506040820151816002015560608201518160030190816110e7919061288f565b5060808201518160040160006101000a81548173ffffffffffffffffffffffffffffffffffffffff021916908373ffffffffffffffffffffffffffffffffffffffff16021790555060a08201518160050160006101000a81548173ffffffffffffffffffffffffffffffffffffffff021916908373ffffffffffffffffffffffffffffffffffffffff16021790555060c082015181600601908161118b919061288f565b5050505050565b6060600060035467ffffffffffffffff8111156111b2576111b1611b9e565b5b6040519080825280602002602001820160405280156111eb57816020015b6111d86118eb565b8152602001906001900390816111d05790505b50905060005b60035481101561141d57600060048281548110611211576112106129f3565b5b9060005260206000200160009054906101000a900473ffffffffffffffffffffffffffffffffffffffff169050600560008273ffffffffffffffffffffffffffffffffffffffff1673ffffffffffffffffffffffffffffffffffffffff1681526020019081526020016000206040518060a0016040529081600082015481526020016001820160009054906101000a900473ffffffffffffffffffffffffffffffffffffffff1673ffffffffffffffffffffffffffffffffffffffff1673ffffffffffffffffffffffffffffffffffffffff1681526020016002820180546112f8906125e9565b80601f0160208091040260200160405190810160405280929190818152602001828054611324906125e9565b80156113715780601f1061134657610100808354040283529160200191611371565b820191906000526020600020905b81548152906001019060200180831161135457829003601f168201915b505050505081526020016003820160009054906101000a900473ffffffffffffffffffffffffffffffffffffffff1673ffffffffffffffffffffffffffffffffffffffff1673ffffffffffffffffffffffffffffffffffffffff1681526020016003820160149054906101000a900460ff1615151515815250508383815181106113fe576113fd6129f3565b5b602002602001018190525050808061141590612a51565b9150506111f1565b508091505090565b61142d611948565b600260008373ffffffffffffffffffffffffffffffffffffffff1673ffffffffffffffffffffffffffffffffffffffff1681526020019081526020016000206040518060a001604052908160008201548152602001600182018054611491906125e9565b80601f01602080910402602001604051908101604052809291908181526020018280546114bd906125e9565b801561150a5780601f106114df5761010080835404028352916020019161150a565b820191906000526020600020905b8154815290600101906020018083116114ed57829003601f168201915b50505050508152602001600282018054611523906125e9565b80601f016020809104026020016040519081016040528092919081815260200182805461154f906125e9565b801561159c5780601f106115715761010080835404028352916020019161159c565b820191906000526020600020905b81548152906001019060200180831161157f57829003601f168201915b505050505081526020016003820160009054906101000a900473ffffffffffffffffffffffffffffffffffffffff1673ffffffffffffffffffffffffffffffffffffffff1673ffffffffffffffffffffffffffffffffffffffff1681526020016003820160149054906101000a900460ff1615151515815250509050919050565b60606000805467ffffffffffffffff81111561163c5761163b611b9e565b5b60405190808252806020026020018201604052801561167557816020015b611662611948565b81526020019060019003908161165a5790505b50905060005b6000548110156118e35760006001828154811061169b5761169a6129f3565b5b9060005260206000200160009054906101000a900473ffffffffffffffffffffffffffffffffffffffff169050600260008273ffffffffffffffffffffffffffffffffffffffff1673ffffffffffffffffffffffffffffffffffffffff1681526020019081526020016000206040518060a00160405290816000820154815260200160018201805461172c906125e9565b80601f0160208091040260200160405190810160405280929190818152602001828054611758906125e9565b80156117a55780601f1061177a576101008083540402835291602001916117a5565b820191906000526020600020905b81548152906001019060200180831161178857829003601f168201915b505050505081526020016002820180546117be906125e9565b80601f01602080910402602001604051908101604052809291908181526020018280546117ea906125e9565b80156118375780601f1061180c57610100808354040283529160200191611837565b820191906000526020600020905b81548152906001019060200180831161181a57829003601f168201915b505050505081526020016003820160009054906101000a900473ffffffffffffffffffffffffffffffffffffffff1673ffffffffffffffffffffffffffffffffffffffff1673ffffffffffffffffffffffffffffffffffffffff1681526020016003820160149054906101000a900460ff1615151515815250508383815181106118c4576118c36129f3565b5b60200260200101819052505080806118db90612a51565b91505061167b565b508091505090565b6040518060a0016040528060008152602001600073ffffffffffffffffffffffffffffffffffffffff16815260200160608152602001600073ffffffffffffffffffffffffffffffffffffffff1681526020016000151581525090565b6040518060a00160405280600081526020016060815260200160608152602001600073ffffffffffffffffffffffffffffffffffffffff1681526020016000151581525090565b6000604051905090565b600080fd5b600080fd5b600073ffffffffffffffffffffffffffffffffffffffff82169050919050565b60006119ce826119a3565b9050919050565b6119de816119c3565b81146119e957600080fd5b50565b6000813590506119fb816119d5565b92915050565b600060208284031215611a1757611a16611999565b5b6000611a25848285016119ec565b91505092915050565b6000819050919050565b611a4181611a2e565b82525050565b611a50816119c3565b82525050565b600081519050919050565b600082825260208201905092915050565b60005b83811015611a90578082015181840152602081019050611a75565b60008484015250505050565b6000601f19601f8301169050919050565b6000611ab882611a56565b611ac28185611a61565b9350611ad2818560208601611a72565b611adb81611a9c565b840191505092915050565b60008115159050919050565b611afb81611ae6565b82525050565b600060a083016000830151611b196000860182611a38565b506020830151611b2c6020860182611a47565b5060408301518482036040860152611b448282611aad565b9150506060830151611b596060860182611a47565b506080830151611b6c6080860182611af2565b508091505092915050565b60006020820190508181036000830152611b918184611b01565b905092915050565b600080fd5b7f4e487b7100000000000000000000000000000000000000000000000000000000600052604160045260246000fd5b611bd682611a9c565b810181811067ffffffffffffffff82111715611bf557611bf4611b9e565b5b80604052505050565b6000611c0861198f565b9050611c148282611bcd565b919050565b600080fd5b611c2781611a2e565b8114611c3257600080fd5b50565b600081359050611c4481611c1e565b92915050565b600080fd5b600080fd5b600067ffffffffffffffff821115611c6f57611c6e611b9e565b5b611c7882611a9c565b9050602081019050919050565b82818337600083830152505050565b6000611ca7611ca284611c54565b611bfe565b905082815260208101848484011115611cc357611cc2611c4f565b5b611cce848285611c85565b509392505050565b600082601f830112611ceb57611cea611c4a565b5b8135611cfb848260208601611c94565b91505092915050565b611d0d81611ae6565b8114611d1857600080fd5b50565b600081359050611d2a81611d04565b92915050565b600060a08284031215611d4657611d45611b99565b5b611d5060a0611bfe565b90506000611d6084828501611c35565b600083015250602082013567ffffffffffffffff811115611d8457611d83611c19565b5b611d9084828501611cd6565b602083015250604082013567ffffffffffffffff811115611db457611db3611c19565b5b611dc084828501611cd6565b6040830152506060611dd4848285016119ec565b6060830152506080611de884828501611d1b565b60808301525092915050565b600060208284031215611e0a57611e09611999565b5b600082013567ffffffffffffffff811115611e2857611e2761199e565b5b611e3484828501611d30565b91505092915050565b600081519050919050565b600082825260208201905092915050565b6000819050602082019050919050565b600060a083016000830151611e816000860182611a38565b506020830151611e946020860182611a47565b5060408301518482036040860152611eac8282611aad565b9150506060830151611ec16060860182611a47565b506080830151611ed46080860182611af2565b508091505092915050565b6000611eeb8383611e69565b905092915050565b6000602082019050919050565b6000611f0b82611e3d565b611f158185611e48565b935083602082028501611f2785611e59565b8060005b85811015611f635784840389528151611f448582611edf565b9450611f4f83611ef3565b925060208a01995050600181019050611f2b565b50829750879550505050505092915050565b60006020820190508181036000830152611f8f8184611f00565b905092915050565b60008060408385031215611fae57611fad611999565b5b6000611fbc858286016119ec565b9250506020611fcd85828601611d1b565b9150509250929050565b600060a08284031215611fed57611fec611b99565b5b611ff760a0611bfe565b9050600061200784828501611c35565b600083015250602061201b848285016119ec565b602083015250604082013567ffffffffffffffff81111561203f5761203e611c19565b5b61204b84828501611cd6565b604083015250606061205f848285016119ec565b606083015250608061207384828501611d1b565b60808301525092915050565b60006020828403121561209557612094611999565b5b600082013567ffffffffffffffff8111156120b3576120b261199e565b5b6120bf84828501611fd7565b91505092915050565b600081519050919050565b600082825260208201905092915050565b6000819050602082019050919050565b600060e08301600083015161210c6000860182611a38565b50602083015184820360208601526121248282611aad565b91505060408301516121396040860182611a38565b50606083015184820360608601526121518282611aad565b91505060808301516121666080860182611a47565b5060a083015161217960a0860182611a47565b5060c083015184820360c08601526121918282611aad565b9150508091505092915050565b60006121aa83836120f4565b905092915050565b6000602082019050919050565b60006121ca826120c8565b6121d481856120d3565b9350836020820285016121e6856120e4565b8060005b858110156122225784840389528151612203858261219e565b945061220e836121b2565b925060208a019950506001810190506121ea565b50829750879550505050505092915050565b6000602082019050818103600083015261224e81846121bf565b905092915050565b600060e0828403121561226c5761226b611b99565b5b61227660e0611bfe565b9050600061228684828501611c35565b600083015250602082013567ffffffffffffffff8111156122aa576122a9611c19565b5b6122b684828501611cd6565b60208301525060406122ca84828501611c35565b604083015250606082013567ffffffffffffffff8111156122ee576122ed611c19565b5b6122fa84828501611cd6565b606083015250608061230e848285016119ec565b60808301525060a0612322848285016119ec565b60a08301525060c082013567ffffffffffffffff81111561234657612345611c19565b5b61235284828501611cd6565b60c08301525092915050565b6000806040838503121561237557612374611999565b5b6000612383858286016119ec565b925050602083013567ffffffffffffffff8111156123a4576123a361199e565b5b6123b085828601612256565b9150509250929050565b600060a0830160008301516123d26000860182611a38565b50602083015184820360208601526123ea8282611aad565b915050604083015184820360408601526124048282611aad565b91505060608301516124196060860182611a47565b50608083015161242c6080860182611af2565b508091505092915050565b6000602082019050818103600083015261245181846123ba565b905092915050565b600081519050919050565b600082825260208201905092915050565b6000819050602082019050919050565b600060a08301600083015161249d6000860182611a38565b50602083015184820360208601526124b58282611aad565b915050604083015184820360408601526124cf8282611aad565b91505060608301516124e46060860182611a47565b5060808301516124f76080860182611af2565b508091505092915050565b600061250e8383612485565b905092915050565b6000602082019050919050565b600061252e82612459565b6125388185612464565b93508360208202850161254a85612475565b8060005b8581101561258657848403895281516125678582612502565b945061257283612516565b925060208a0199505060018101905061254e565b50829750879550505050505092915050565b600060208201905081810360008301526125b28184612523565b905092915050565b7f4e487b7100000000000000000000000000000000000000000000000000000000600052602260045260246000fd5b6000600282049050600182168061260157607f821691505b602082108103612614576126136125ba565b5b50919050565b600082825260208201905092915050565b7f536f6d656e7465206f7320726573706f73c3a1766569732070656c6f20636f6e60008201527f747261746f206465204167656e746520466564657261646f20706f64656d207260208201527f65616c697a61722065737361206f70657261c3a7c3a36f2e0000000000000000604082015250565b60006126ad60588361261a565b91506126b88261262b565b606082019050919050565b600060208201905081810360008301526126dc816126a0565b9050919050565b60008190508160005260206000209050919050565b60006020601f8301049050919050565b600082821b905092915050565b6000600883026127457fffffffffffffffffffffffffffffffffffffffffffffffffffffffffffffffff82612708565b61274f8683612708565b95508019841693508086168417925050509392505050565b6000819050919050565b600061278c61278761278284611a2e565b612767565b611a2e565b9050919050565b6000819050919050565b6127a683612771565b6127ba6127b282612793565b848454612715565b825550505050565b600090565b6127cf6127c2565b6127da81848461279d565b505050565b5b818110156127fe576127f36000826127c7565b6001810190506127e0565b5050565b601f82111561284357612814816126e3565b61281d846126f8565b8101602085101561282c578190505b612840612838856126f8565b8301826127df565b50505b505050565b600082821c905092915050565b600061286660001984600802612848565b1980831691505092915050565b600061287f8383612855565b9150826002028217905092915050565b61289882611a56565b67ffffffffffffffff8111156128b1576128b0611b9e565b5b6128bb82546125e9565b6128c6828285612802565b600060209050601f8311600181146128f957600084156128e7578287015190505b6128f18582612873565b865550612959565b601f198416612907866126e3565b60005b8281101561292f5784890151825560018201915060208501945060208101905061290a565b8683101561294c5784890151612948601f891682612855565b8355505b6001600288020188555050505b505050505050565b7f536f6d656e746520756d206167656e746520666564657261646f20706f64652060008201527f7265616c697a61722065737361206f70657261c3a7c3a36f2e00000000000000602082015250565b60006129bd60398361261a565b91506129c882612961565b604082019050919050565b600060208201905081810360008301526129ec816129b0565b9050919050565b7f4e487b7100000000000000000000000000000000000000000000000000000000600052603260045260246000fd5b7f4e487b7100000000000000000000000000000000000000000000000000000000600052601160045260246000fd5b6000612a5c82611a2e565b91507fffffffffffffffffffffffffffffffffffffffffffffffffffffffffffffffff8203612a8e57612a8d612a22565b5b60018201905091905056fea26469706673582212203c9bf7df6da14b8725ad29dca85d7a787804d2f69a50905fe9c768c65e239d7b64736f6c63430008130033",
  "immutableReferences": {},
  "source": "// SPDX-License-Identifier: MIT\r\npragma solidity ^0.8.0;\r\n\r\nimport \"./TiposComuns.sol\";\r\n\r\ncontract AgenteFederado {\r\n    //Propriedades\r\n\r\n    uint256 private _qtdAgentesFederados;\r\n    address[] private _enderecosAgentesFederados;\r\n    mapping(address => AgenteFederadoInfo) private _agentesFederados;\r\n\r\n    uint256 private _qtdSecretarias;\r\n    address[] private _enderecosSecretarias;\r\n    mapping(address => SecretariaInfo) private _secretarias;\r\n    mapping(address => SecretariaInfo[]) private _secretariasAgenteFederado;\r\n\r\n    mapping(address => bool) private _owners;\r\n    mapping(address => ExtratoInfo[]) private _extrato;\r\n\r\n    //Construtores\r\n    constructor() {\r\n        _owners[msg.sender] = true;\r\n    }\r\n\r\n    //Modificadores\r\n    modifier onlyOwner() {\r\n        require(\r\n            _owners[msg.sender],\r\n            unicode\"Somente os resposveis pelo contrato de Agente Federado podem realizar essa operao.\"\r\n        );\r\n        _;\r\n    }\r\n\r\n    modifier onlyFederated() {\r\n        require(\r\n            _agentesFederados[msg.sender].cadastrado,\r\n            unicode\"Somente um agente federado pode realizar essa operao.\"\r\n        );\r\n        _;\r\n    }\r\n\r\n    //Funes\r\n    function setOwner(address owner, bool isOwner) public onlyOwner {\r\n        _owners[owner] = isOwner;\r\n    }\r\n\r\n    function cadastrarAgenteFederado(AgenteFederadoInfo memory agenteFederado)\r\n        public\r\n        onlyOwner\r\n    {\r\n        agenteFederado.cadastrado = true;\r\n        _agentesFederados[agenteFederado.enderecoCarteira] = agenteFederado;\r\n        _enderecosAgentesFederados.push(agenteFederado.enderecoCarteira);\r\n        _qtdAgentesFederados = _enderecosAgentesFederados.length;\r\n    }\r\n\r\n    function cadastrarSecretaria(SecretariaInfo memory secretaria)\r\n        public\r\n        onlyFederated\r\n    {\r\n        secretaria.agenteFederado = msg.sender;\r\n        secretaria.cadastrado = true;\r\n        _secretarias[secretaria.enderecoCarteira] = secretaria;\r\n        _enderecosSecretarias.push(secretaria.enderecoCarteira);\r\n        _qtdSecretarias = _enderecosSecretarias.length;\r\n\r\n        _secretariasAgenteFederado[msg.sender].push(secretaria);\r\n    }\r\n\r\n    function listarAgentesFederados()\r\n        public\r\n        view\r\n        returns (AgenteFederadoInfo[] memory)\r\n    {\r\n        AgenteFederadoInfo[] memory agentesFederados = new AgenteFederadoInfo[](\r\n            _qtdAgentesFederados\r\n        );\r\n\r\n        for (uint256 i = 0; i < _qtdAgentesFederados; i++) {\r\n            address endereco = _enderecosAgentesFederados[i];\r\n            agentesFederados[i] = _agentesFederados[endereco];\r\n        }\r\n\r\n        return agentesFederados;\r\n    }\r\n\r\n    function listarSecretarias() public view returns (SecretariaInfo[] memory) {\r\n        SecretariaInfo[] memory secretarias = new SecretariaInfo[](\r\n            _qtdSecretarias\r\n        );\r\n\r\n        for (uint256 i = 0; i < _qtdSecretarias; i++) {\r\n            address endereco = _enderecosSecretarias[i];\r\n            secretarias[i] = _secretarias[endereco];\r\n        }\r\n\r\n        return secretarias;\r\n    }\r\n\r\n    function listarSecretariasAgenteFederado(address endereco)\r\n        public\r\n        view\r\n        returns (SecretariaInfo[] memory)\r\n    {\r\n        return _secretariasAgenteFederado[endereco];\r\n    }\r\n\r\n    function obterAgenteFederado(address endereco)\r\n        public\r\n        view\r\n        returns (AgenteFederadoInfo memory)\r\n    {\r\n        return _agentesFederados[endereco];\r\n    }\r\n\r\n    function obterSecretaria(address endereco)\r\n        public\r\n        view\r\n        returns (SecretariaInfo memory)\r\n    {\r\n        return _secretarias[endereco];\r\n    }\r\n\r\n    function incluirLinhaExtrato(address endereco, ExtratoInfo memory extrato)\r\n        public\r\n        onlyOwner\r\n    {\r\n        require(_secretarias[endereco].cadastrado);\r\n        _extrato[endereco].push(extrato);\r\n    }\r\n\r\n    function consultarExtrato(address endereco)\r\n        public\r\n        view\r\n        returns (ExtratoInfo[] memory)\r\n    {\r\n        return _extrato[endereco];\r\n    }\r\n}\r\n",
  "sourcePath": "/govtoken/Contratos/AgenteFederado.sol",
  "compiler": {
    "name": "solc",
    "version": "0.8.19+commit.7dd6d404.Emscripten.clang"
  },
  "schemaVersion": "3.4.8",
  "updatedAt": "2023-03-15T21:58:54.617Z",
  "networkType": "ethereum",
  "devdoc": {
    "kind": "dev",
    "methods": {},
    "version": 1
  },
  "userdoc": {
    "kind": "user",
    "methods": {},
    "version": 1
  }
}