{
  "contractName": "AgenteFederado",
  "abi": [
    {
      "inputs": [],
      "stateMutability": "nonpayable",
      "type": "constructor"
    },
    {
      "inputs": [
        {
          "internalType": "address",
          "name": "owner",
          "type": "address"
        },
        {
          "internalType": "bool",
          "name": "isOwner",
          "type": "bool"
        }
      ],
      "name": "setOwner",
      "outputs": [],
      "stateMutability": "nonpayable",
      "type": "function"
    },
    {
      "inputs": [
        {
          "components": [
            {
              "internalType": "uint256",
              "name": "dataCadastro",
              "type": "uint256"
            },
            {
              "internalType": "string",
              "name": "uf",
              "type": "string"
            },
            {
              "internalType": "string",
              "name": "descricao",
              "type": "string"
            },
            {
              "internalType": "address",
              "name": "enderecoCarteira",
              "type": "address"
            },
            {
              "internalType": "bool",
              "name": "cadastrado",
              "type": "bool"
            }
          ],
          "internalType": "struct AgenteFederadoInfo",
          "name": "agenteFederado",
          "type": "tuple"
        }
      ],
      "name": "cadastrarAgenteFederado",
      "outputs": [],
      "stateMutability": "nonpayable",
      "type": "function"
    },
    {
      "inputs": [],
      "name": "listarAgentesFederados",
      "outputs": [
        {
          "components": [
            {
              "internalType": "uint256",
              "name": "dataCadastro",
              "type": "uint256"
            },
            {
              "internalType": "string",
              "name": "uf",
              "type": "string"
            },
            {
              "internalType": "string",
              "name": "descricao",
              "type": "string"
            },
            {
              "internalType": "address",
              "name": "enderecoCarteira",
              "type": "address"
            },
            {
              "internalType": "bool",
              "name": "cadastrado",
              "type": "bool"
            }
          ],
          "internalType": "struct AgenteFederadoInfo[]",
          "name": "",
          "type": "tuple[]"
        }
      ],
      "stateMutability": "view",
      "type": "function",
      "constant": true
    },
    {
      "inputs": [
        {
          "internalType": "address",
          "name": "endereco",
          "type": "address"
        }
      ],
      "name": "obterAgenteFederado",
      "outputs": [
        {
          "components": [
            {
              "internalType": "uint256",
              "name": "dataCadastro",
              "type": "uint256"
            },
            {
              "internalType": "string",
              "name": "uf",
              "type": "string"
            },
            {
              "internalType": "string",
              "name": "descricao",
              "type": "string"
            },
            {
              "internalType": "address",
              "name": "enderecoCarteira",
              "type": "address"
            },
            {
              "internalType": "bool",
              "name": "cadastrado",
              "type": "bool"
            }
          ],
          "internalType": "struct AgenteFederadoInfo",
          "name": "",
          "type": "tuple"
        }
      ],
      "stateMutability": "view",
      "type": "function",
      "constant": true
    },
    {
      "inputs": [
        {
          "internalType": "address",
          "name": "endereco",
          "type": "address"
        },
        {
          "components": [
            {
              "internalType": "uint256",
              "name": "data",
              "type": "uint256"
            },
            {
              "internalType": "string",
              "name": "descricao",
              "type": "string"
            },
            {
              "internalType": "uint256",
              "name": "valor",
              "type": "uint256"
            },
            {
              "internalType": "string",
              "name": "creditoDebito",
              "type": "string"
            },
            {
              "internalType": "address",
              "name": "origem",
              "type": "address"
            },
            {
              "internalType": "address",
              "name": "destino",
              "type": "address"
            },
            {
              "internalType": "string",
              "name": "simboloToken",
              "type": "string"
            }
          ],
          "internalType": "struct Extrato",
          "name": "extrato",
          "type": "tuple"
        }
      ],
      "name": "incluirLinhaExtrato",
      "outputs": [],
      "stateMutability": "nonpayable",
      "type": "function"
    },
    {
      "inputs": [
        {
          "internalType": "address",
          "name": "endereco",
          "type": "address"
        }
      ],
      "name": "consultarExtrato",
      "outputs": [
        {
          "components": [
            {
              "internalType": "uint256",
              "name": "data",
              "type": "uint256"
            },
            {
              "internalType": "string",
              "name": "descricao",
              "type": "string"
            },
            {
              "internalType": "uint256",
              "name": "valor",
              "type": "uint256"
            },
            {
              "internalType": "string",
              "name": "creditoDebito",
              "type": "string"
            },
            {
              "internalType": "address",
              "name": "origem",
              "type": "address"
            },
            {
              "internalType": "address",
              "name": "destino",
              "type": "address"
            },
            {
              "internalType": "string",
              "name": "simboloToken",
              "type": "string"
            }
          ],
          "internalType": "struct Extrato[]",
          "name": "",
          "type": "tuple[]"
        }
      ],
      "stateMutability": "view",
      "type": "function",
      "constant": true
    }
  ],
  "bytecode": "0x608060405234801561001057600080fd5b506001600360003373ffffffffffffffffffffffffffffffffffffffff1673ffffffffffffffffffffffffffffffffffffffff16815260200190815260200160002060006101000a81548160ff021916908315150217905550611ae5806100786000396000f3fe608060405234801561001057600080fd5b50600436106100625760003560e01c806326d3e71a14610067578063516c731c14610083578063780409b31461009f57806378905bc2146100cf578063e2b0e611146100eb578063f88ccf741461011b575b600080fd5b610081600480360381019061007c91906110d7565b610139565b005b61009d60048036038101906100989190611120565b610301565b005b6100b960048036038101906100b49190611160565b6103b9565b6040516100c69190611396565b60405180910390f35b6100e960048036038101906100e491906114c0565b6106cd565b005b61010560048036038101906101009190611160565b6108d6565b60405161011291906115a8565b60405180910390f35b610123610ace565b6040516101309190611709565b60405180910390f35b60011515600360003373ffffffffffffffffffffffffffffffffffffffff1673ffffffffffffffffffffffffffffffffffffffff16815260200190815260200160002060009054906101000a900460ff1615151461019657600080fd5b60018160800190151590811515815250508060026000836060015173ffffffffffffffffffffffffffffffffffffffff1673ffffffffffffffffffffffffffffffffffffffff16815260200190815260200160002060008201518160000155602082015181600101908161020a9190611937565b5060408201518160020190816102209190611937565b5060608201518160030160006101000a81548173ffffffffffffffffffffffffffffffffffffffff021916908373ffffffffffffffffffffffffffffffffffffffff16021790555060808201518160030160146101000a81548160ff021916908315150217905550905050600181606001519080600181540180825580915050600190039060005260206000200160009091909190916101000a81548173ffffffffffffffffffffffffffffffffffffffff021916908373ffffffffffffffffffffffffffffffffffffffff16021790555060018054905060008190555050565b60011515600360003373ffffffffffffffffffffffffffffffffffffffff1673ffffffffffffffffffffffffffffffffffffffff16815260200190815260200160002060009054906101000a900460ff1615151461035e57600080fd5b80600360008473ffffffffffffffffffffffffffffffffffffffff1673ffffffffffffffffffffffffffffffffffffffff16815260200190815260200160002060006101000a81548160ff0219169083151502179055505050565b6060600460008373ffffffffffffffffffffffffffffffffffffffff1673ffffffffffffffffffffffffffffffffffffffff168152602001908152602001600020805480602002602001604051908101604052809291908181526020016000905b828210156106c257838290600052602060002090600702016040518060e0016040529081600082015481526020016001820180546104579061175a565b80601f01602080910402602001604051908101604052809291908181526020018280546104839061175a565b80156104d05780601f106104a5576101008083540402835291602001916104d0565b820191906000526020600020905b8154815290600101906020018083116104b357829003601f168201915b50505050508152602001600282015481526020016003820180546104f39061175a565b80601f016020809104026020016040519081016040528092919081815260200182805461051f9061175a565b801561056c5780601f106105415761010080835404028352916020019161056c565b820191906000526020600020905b81548152906001019060200180831161054f57829003601f168201915b505050505081526020016004820160009054906101000a900473ffffffffffffffffffffffffffffffffffffffff1673ffffffffffffffffffffffffffffffffffffffff1673ffffffffffffffffffffffffffffffffffffffff1681526020016005820160009054906101000a900473ffffffffffffffffffffffffffffffffffffffff1673ffffffffffffffffffffffffffffffffffffffff1673ffffffffffffffffffffffffffffffffffffffff1681526020016006820180546106319061175a565b80601f016020809104026020016040519081016040528092919081815260200182805461065d9061175a565b80156106aa5780601f1061067f576101008083540402835291602001916106aa565b820191906000526020600020905b81548152906001019060200180831161068d57829003601f168201915b5050505050815250508152602001906001019061041a565b505050509050919050565b60011515600360003373ffffffffffffffffffffffffffffffffffffffff1673ffffffffffffffffffffffffffffffffffffffff16815260200190815260200160002060009054906101000a900460ff1615151461072a57600080fd5b600260008373ffffffffffffffffffffffffffffffffffffffff1673ffffffffffffffffffffffffffffffffffffffff16815260200190815260200160002060030160149054906101000a900460ff1661078357600080fd5b600460008373ffffffffffffffffffffffffffffffffffffffff1673ffffffffffffffffffffffffffffffffffffffff16815260200190815260200160002081908060018154018082558091505060019003906000526020600020906007020160009091909190915060008201518160000155602082015181600101908161080b9190611937565b5060408201518160020155606082015181600301908161082b9190611937565b5060808201518160040160006101000a81548173ffffffffffffffffffffffffffffffffffffffff021916908373ffffffffffffffffffffffffffffffffffffffff16021790555060a08201518160050160006101000a81548173ffffffffffffffffffffffffffffffffffffffff021916908373ffffffffffffffffffffffffffffffffffffffff16021790555060c08201518160060190816108cf9190611937565b5050505050565b6108de610d9c565b600260008373ffffffffffffffffffffffffffffffffffffffff1673ffffffffffffffffffffffffffffffffffffffff1681526020019081526020016000206040518060a0016040529081600082015481526020016001820180546109429061175a565b80601f016020809104026020016040519081016040528092919081815260200182805461096e9061175a565b80156109bb5780601f10610990576101008083540402835291602001916109bb565b820191906000526020600020905b81548152906001019060200180831161099e57829003601f168201915b505050505081526020016002820180546109d49061175a565b80601f0160208091040260200160405190810160405280929190818152602001828054610a009061175a565b8015610a4d5780601f10610a2257610100808354040283529160200191610a4d565b820191906000526020600020905b815481529060010190602001808311610a3057829003601f168201915b505050505081526020016003820160009054906101000a900473ffffffffffffffffffffffffffffffffffffffff1673ffffffffffffffffffffffffffffffffffffffff1673ffffffffffffffffffffffffffffffffffffffff1681526020016003820160149054906101000a900460ff1615151515815250509050919050565b60606000805467ffffffffffffffff811115610aed57610aec610e0d565b5b604051908082528060200260200182016040528015610b2657816020015b610b13610d9c565b815260200190600190039081610b0b5790505b50905060005b600054811015610d9457600060018281548110610b4c57610b4b611a09565b5b9060005260206000200160009054906101000a900473ffffffffffffffffffffffffffffffffffffffff169050600260008273ffffffffffffffffffffffffffffffffffffffff1673ffffffffffffffffffffffffffffffffffffffff1681526020019081526020016000206040518060a001604052908160008201548152602001600182018054610bdd9061175a565b80601f0160208091040260200160405190810160405280929190818152602001828054610c099061175a565b8015610c565780601f10610c2b57610100808354040283529160200191610c56565b820191906000526020600020905b815481529060010190602001808311610c3957829003601f168201915b50505050508152602001600282018054610c6f9061175a565b80601f0160208091040260200160405190810160405280929190818152602001828054610c9b9061175a565b8015610ce85780601f10610cbd57610100808354040283529160200191610ce8565b820191906000526020600020905b815481529060010190602001808311610ccb57829003601f168201915b505050505081526020016003820160009054906101000a900473ffffffffffffffffffffffffffffffffffffffff1673ffffffffffffffffffffffffffffffffffffffff1673ffffffffffffffffffffffffffffffffffffffff1681526020016003820160149054906101000a900460ff161515151581525050838381518110610d7557610d74611a09565b5b6020026020010181905250508080610d8c90611a67565b915050610b2c565b508091505090565b6040518060a00160405280600081526020016060815260200160608152602001600073ffffffffffffffffffffffffffffffffffffffff1681526020016000151581525090565b6000604051905090565b600080fd5b600080fd5b600080fd5b6000601f19601f8301169050919050565b7f4e487b7100000000000000000000000000000000000000000000000000000000600052604160045260246000fd5b610e4582610dfc565b810181811067ffffffffffffffff82111715610e6457610e63610e0d565b5b80604052505050565b6000610e77610de3565b9050610e838282610e3c565b919050565b600080fd5b6000819050919050565b610ea081610e8d565b8114610eab57600080fd5b50565b600081359050610ebd81610e97565b92915050565b600080fd5b600080fd5b600067ffffffffffffffff821115610ee857610ee7610e0d565b5b610ef182610dfc565b9050602081019050919050565b82818337600083830152505050565b6000610f20610f1b84610ecd565b610e6d565b905082815260208101848484011115610f3c57610f3b610ec8565b5b610f47848285610efe565b509392505050565b600082601f830112610f6457610f63610ec3565b5b8135610f74848260208601610f0d565b91505092915050565b600073ffffffffffffffffffffffffffffffffffffffff82169050919050565b6000610fa882610f7d565b9050919050565b610fb881610f9d565b8114610fc357600080fd5b50565b600081359050610fd581610faf565b92915050565b60008115159050919050565b610ff081610fdb565b8114610ffb57600080fd5b50565b60008135905061100d81610fe7565b92915050565b600060a0828403121561102957611028610df7565b5b61103360a0610e6d565b9050600061104384828501610eae565b600083015250602082013567ffffffffffffffff81111561106757611066610e88565b5b61107384828501610f4f565b602083015250604082013567ffffffffffffffff81111561109757611096610e88565b5b6110a384828501610f4f565b60408301525060606110b784828501610fc6565b60608301525060806110cb84828501610ffe565b60808301525092915050565b6000602082840312156110ed576110ec610ded565b5b600082013567ffffffffffffffff81111561110b5761110a610df2565b5b61111784828501611013565b91505092915050565b6000806040838503121561113757611136610ded565b5b600061114585828601610fc6565b925050602061115685828601610ffe565b9150509250929050565b60006020828403121561117657611175610ded565b5b600061118484828501610fc6565b91505092915050565b600081519050919050565b600082825260208201905092915050565b6000819050602082019050919050565b6111c281610e8d565b82525050565b600081519050919050565b600082825260208201905092915050565b60005b838110156112025780820151818401526020810190506111e7565b60008484015250505050565b6000611219826111c8565b61122381856111d3565b93506112338185602086016111e4565b61123c81610dfc565b840191505092915050565b61125081610f9d565b82525050565b600060e08301600083015161126e60008601826111b9565b5060208301518482036020860152611286828261120e565b915050604083015161129b60408601826111b9565b50606083015184820360608601526112b3828261120e565b91505060808301516112c86080860182611247565b5060a08301516112db60a0860182611247565b5060c083015184820360c08601526112f3828261120e565b9150508091505092915050565b600061130c8383611256565b905092915050565b6000602082019050919050565b600061132c8261118d565b6113368185611198565b935083602082028501611348856111a9565b8060005b8581101561138457848403895281516113658582611300565b945061137083611314565b925060208a0199505060018101905061134c565b50829750879550505050505092915050565b600060208201905081810360008301526113b08184611321565b905092915050565b600060e082840312156113ce576113cd610df7565b5b6113d860e0610e6d565b905060006113e884828501610eae565b600083015250602082013567ffffffffffffffff81111561140c5761140b610e88565b5b61141884828501610f4f565b602083015250604061142c84828501610eae565b604083015250606082013567ffffffffffffffff8111156114505761144f610e88565b5b61145c84828501610f4f565b606083015250608061147084828501610fc6565b60808301525060a061148484828501610fc6565b60a08301525060c082013567ffffffffffffffff8111156114a8576114a7610e88565b5b6114b484828501610f4f565b60c08301525092915050565b600080604083850312156114d7576114d6610ded565b5b60006114e585828601610fc6565b925050602083013567ffffffffffffffff81111561150657611505610df2565b5b611512858286016113b8565b9150509250929050565b61152581610fdb565b82525050565b600060a08301600083015161154360008601826111b9565b506020830151848203602086015261155b828261120e565b91505060408301518482036040860152611575828261120e565b915050606083015161158a6060860182611247565b50608083015161159d608086018261151c565b508091505092915050565b600060208201905081810360008301526115c2818461152b565b905092915050565b600081519050919050565b600082825260208201905092915050565b6000819050602082019050919050565b600060a08301600083015161160e60008601826111b9565b5060208301518482036020860152611626828261120e565b91505060408301518482036040860152611640828261120e565b91505060608301516116556060860182611247565b506080830151611668608086018261151c565b508091505092915050565b600061167f83836115f6565b905092915050565b6000602082019050919050565b600061169f826115ca565b6116a981856115d5565b9350836020820285016116bb856115e6565b8060005b858110156116f757848403895281516116d88582611673565b94506116e383611687565b925060208a019950506001810190506116bf565b50829750879550505050505092915050565b600060208201905081810360008301526117238184611694565b905092915050565b7f4e487b7100000000000000000000000000000000000000000000000000000000600052602260045260246000fd5b6000600282049050600182168061177257607f821691505b6020821081036117855761178461172b565b5b50919050565b60008190508160005260206000209050919050565b60006020601f8301049050919050565b600082821b905092915050565b6000600883026117ed7fffffffffffffffffffffffffffffffffffffffffffffffffffffffffffffffff826117b0565b6117f786836117b0565b95508019841693508086168417925050509392505050565b6000819050919050565b600061183461182f61182a84610e8d565b61180f565b610e8d565b9050919050565b6000819050919050565b61184e83611819565b61186261185a8261183b565b8484546117bd565b825550505050565b600090565b61187761186a565b611882818484611845565b505050565b5b818110156118a65761189b60008261186f565b600181019050611888565b5050565b601f8211156118eb576118bc8161178b565b6118c5846117a0565b810160208510156118d4578190505b6118e86118e0856117a0565b830182611887565b50505b505050565b600082821c905092915050565b600061190e600019846008026118f0565b1980831691505092915050565b600061192783836118fd565b9150826002028217905092915050565b611940826111c8565b67ffffffffffffffff81111561195957611958610e0d565b5b611963825461175a565b61196e8282856118aa565b600060209050601f8311600181146119a1576000841561198f578287015190505b611999858261191b565b865550611a01565b601f1984166119af8661178b565b60005b828110156119d7578489015182556001820191506020850194506020810190506119b2565b868310156119f457848901516119f0601f8916826118fd565b8355505b6001600288020188555050505b505050505050565b7f4e487b7100000000000000000000000000000000000000000000000000000000600052603260045260246000fd5b7f4e487b7100000000000000000000000000000000000000000000000000000000600052601160045260246000fd5b6000611a7282610e8d565b91507fffffffffffffffffffffffffffffffffffffffffffffffffffffffffffffffff8203611aa457611aa3611a38565b5b60018201905091905056fea26469706673582212204132b1861cbbe1ba219471e91243fc50a08f06a44af23777bf447c6c5871f96a64736f6c63430008130033",
  "immutableReferences": {},
  "source": "// SPDX-License-Identifier: MIT\r\npragma solidity ^0.8.0;\r\n\r\nimport \"./TiposComuns.sol\";\r\n\r\ncontract AgenteFederado {\r\n    //Propriedades\r\n    uint256 private _qtdAgentesFederados;\r\n    address[] private _enderecosAgentesFederados;\r\n    mapping(address => AgenteFederadoInfo) private _agentesFederados;\r\n\r\n    mapping(address => bool) private _owners;\r\n    mapping(address => Extrato[]) private _extrato;\r\n\r\n    //Construtores\r\n    constructor() {\r\n        _owners[msg.sender] = true;\r\n    }\r\n\r\n    //Modificadores\r\n    modifier onlyOwner() {\r\n        require(_owners[msg.sender] == true);\r\n        _;\r\n    }\r\n\r\n    //Funes\r\n    function setOwner(address owner, bool isOwner) public onlyOwner {\r\n        _owners[owner] = isOwner;\r\n    }\r\n\r\n    function cadastrarAgenteFederado(AgenteFederadoInfo memory agenteFederado)\r\n        public\r\n        onlyOwner\r\n    {\r\n        agenteFederado.cadastrado = true;\r\n        _agentesFederados[agenteFederado.enderecoCarteira] = agenteFederado;\r\n        _enderecosAgentesFederados.push(agenteFederado.enderecoCarteira);\r\n        _qtdAgentesFederados = _enderecosAgentesFederados.length;\r\n    }\r\n\r\n    function listarAgentesFederados()\r\n        public\r\n        view\r\n        returns (AgenteFederadoInfo[] memory)\r\n    {\r\n        AgenteFederadoInfo[] memory agentesFederados = new AgenteFederadoInfo[](\r\n            _qtdAgentesFederados\r\n        );\r\n\r\n        for (uint256 i = 0; i < _qtdAgentesFederados; i++) {\r\n            address endereco = _enderecosAgentesFederados[i];\r\n            agentesFederados[i] = _agentesFederados[endereco];\r\n        }\r\n\r\n        return agentesFederados;\r\n    }\r\n\r\n    function obterAgenteFederado(address endereco)\r\n        public\r\n        view\r\n        returns (AgenteFederadoInfo memory)\r\n    {\r\n        return _agentesFederados[endereco];\r\n    }\r\n\r\n    function incluirLinhaExtrato(address endereco, Extrato memory extrato)\r\n        public\r\n        onlyOwner\r\n    {\r\n        require(_agentesFederados[endereco].cadastrado);\r\n        _extrato[endereco].push(extrato);\r\n    }\r\n\r\n    function consultarExtrato(address endereco)\r\n        public\r\n        view\r\n        returns (Extrato[] memory)\r\n    {\r\n        return _extrato[endereco];\r\n    }\r\n}\r\n",
  "sourcePath": "/govtoken/Contratos/AgenteFederado.sol",
  "compiler": {
    "name": "solc",
    "version": "0.8.19+commit.7dd6d404.Emscripten.clang"
  },
  "schemaVersion": "3.4.8",
  "updatedAt": "2023-03-13T04:41:41.594Z",
  "networkType": "ethereum",
  "devdoc": {
    "kind": "dev",
    "methods": {},
    "version": 1
  },
  "userdoc": {
    "kind": "user",
    "methods": {},
    "version": 1
  }
}