{
  "contractName": "AgenteFederado",
  "abi": [
    {
      "inputs": [],
      "stateMutability": "nonpayable",
      "type": "constructor"
    },
    {
      "inputs": [
        {
          "internalType": "address",
          "name": "owner",
          "type": "address"
        },
        {
          "internalType": "bool",
          "name": "isOwner",
          "type": "bool"
        }
      ],
      "name": "setOwner",
      "outputs": [],
      "stateMutability": "nonpayable",
      "type": "function"
    },
    {
      "inputs": [
        {
          "components": [
            {
              "internalType": "uint256",
              "name": "dataCadastro",
              "type": "uint256"
            },
            {
              "internalType": "string",
              "name": "uf",
              "type": "string"
            },
            {
              "internalType": "string",
              "name": "descricao",
              "type": "string"
            },
            {
              "internalType": "address",
              "name": "enderecoCarteira",
              "type": "address"
            },
            {
              "internalType": "bool",
              "name": "cadastrado",
              "type": "bool"
            }
          ],
          "internalType": "struct AgenteFederadoInfo",
          "name": "agenteFederado",
          "type": "tuple"
        }
      ],
      "name": "cadastrarAgenteFederado",
      "outputs": [],
      "stateMutability": "nonpayable",
      "type": "function"
    },
    {
      "inputs": [
        {
          "components": [
            {
              "internalType": "uint256",
              "name": "dataCadastro",
              "type": "uint256"
            },
            {
              "internalType": "address",
              "name": "enderecoAgenteFederado",
              "type": "address"
            },
            {
              "internalType": "string",
              "name": "descricao",
              "type": "string"
            },
            {
              "internalType": "address",
              "name": "enderecoCarteira",
              "type": "address"
            },
            {
              "internalType": "bool",
              "name": "cadastrado",
              "type": "bool"
            }
          ],
          "internalType": "struct SecretariaInfo",
          "name": "secretaria",
          "type": "tuple"
        }
      ],
      "name": "cadastrarSecretaria",
      "outputs": [],
      "stateMutability": "nonpayable",
      "type": "function"
    },
    {
      "inputs": [],
      "name": "listarAgentesFederados",
      "outputs": [
        {
          "components": [
            {
              "internalType": "uint256",
              "name": "dataCadastro",
              "type": "uint256"
            },
            {
              "internalType": "string",
              "name": "uf",
              "type": "string"
            },
            {
              "internalType": "string",
              "name": "descricao",
              "type": "string"
            },
            {
              "internalType": "address",
              "name": "enderecoCarteira",
              "type": "address"
            },
            {
              "internalType": "bool",
              "name": "cadastrado",
              "type": "bool"
            }
          ],
          "internalType": "struct AgenteFederadoInfo[]",
          "name": "",
          "type": "tuple[]"
        }
      ],
      "stateMutability": "view",
      "type": "function",
      "constant": true
    },
    {
      "inputs": [],
      "name": "listarSecretarias",
      "outputs": [
        {
          "components": [
            {
              "internalType": "uint256",
              "name": "dataCadastro",
              "type": "uint256"
            },
            {
              "internalType": "address",
              "name": "enderecoAgenteFederado",
              "type": "address"
            },
            {
              "internalType": "string",
              "name": "descricao",
              "type": "string"
            },
            {
              "internalType": "address",
              "name": "enderecoCarteira",
              "type": "address"
            },
            {
              "internalType": "bool",
              "name": "cadastrado",
              "type": "bool"
            }
          ],
          "internalType": "struct SecretariaInfo[]",
          "name": "",
          "type": "tuple[]"
        }
      ],
      "stateMutability": "view",
      "type": "function",
      "constant": true
    },
    {
      "inputs": [
        {
          "internalType": "address",
          "name": "endereco",
          "type": "address"
        }
      ],
      "name": "listarSecretariasAgenteFederado",
      "outputs": [
        {
          "components": [
            {
              "internalType": "uint256",
              "name": "dataCadastro",
              "type": "uint256"
            },
            {
              "internalType": "address",
              "name": "enderecoAgenteFederado",
              "type": "address"
            },
            {
              "internalType": "string",
              "name": "descricao",
              "type": "string"
            },
            {
              "internalType": "address",
              "name": "enderecoCarteira",
              "type": "address"
            },
            {
              "internalType": "bool",
              "name": "cadastrado",
              "type": "bool"
            }
          ],
          "internalType": "struct SecretariaInfo[]",
          "name": "",
          "type": "tuple[]"
        }
      ],
      "stateMutability": "view",
      "type": "function",
      "constant": true
    },
    {
      "inputs": [
        {
          "internalType": "address",
          "name": "endereco",
          "type": "address"
        }
      ],
      "name": "obterAgenteFederado",
      "outputs": [
        {
          "components": [
            {
              "internalType": "uint256",
              "name": "dataCadastro",
              "type": "uint256"
            },
            {
              "internalType": "string",
              "name": "uf",
              "type": "string"
            },
            {
              "internalType": "string",
              "name": "descricao",
              "type": "string"
            },
            {
              "internalType": "address",
              "name": "enderecoCarteira",
              "type": "address"
            },
            {
              "internalType": "bool",
              "name": "cadastrado",
              "type": "bool"
            }
          ],
          "internalType": "struct AgenteFederadoInfo",
          "name": "",
          "type": "tuple"
        }
      ],
      "stateMutability": "view",
      "type": "function",
      "constant": true
    },
    {
      "inputs": [
        {
          "internalType": "address",
          "name": "endereco",
          "type": "address"
        }
      ],
      "name": "obterSecretaria",
      "outputs": [
        {
          "components": [
            {
              "internalType": "uint256",
              "name": "dataCadastro",
              "type": "uint256"
            },
            {
              "internalType": "address",
              "name": "enderecoAgenteFederado",
              "type": "address"
            },
            {
              "internalType": "string",
              "name": "descricao",
              "type": "string"
            },
            {
              "internalType": "address",
              "name": "enderecoCarteira",
              "type": "address"
            },
            {
              "internalType": "bool",
              "name": "cadastrado",
              "type": "bool"
            }
          ],
          "internalType": "struct SecretariaInfo",
          "name": "",
          "type": "tuple"
        }
      ],
      "stateMutability": "view",
      "type": "function",
      "constant": true
    },
    {
      "inputs": [
        {
          "internalType": "address",
          "name": "endereco",
          "type": "address"
        },
        {
          "components": [
            {
              "internalType": "uint256",
              "name": "data",
              "type": "uint256"
            },
            {
              "internalType": "string",
              "name": "descricao",
              "type": "string"
            },
            {
              "internalType": "uint256",
              "name": "valor",
              "type": "uint256"
            },
            {
              "internalType": "string",
              "name": "creditoDebito",
              "type": "string"
            },
            {
              "internalType": "address",
              "name": "origem",
              "type": "address"
            },
            {
              "internalType": "address",
              "name": "destino",
              "type": "address"
            },
            {
              "internalType": "string",
              "name": "simboloToken",
              "type": "string"
            }
          ],
          "internalType": "struct ExtratoInfo",
          "name": "extrato",
          "type": "tuple"
        }
      ],
      "name": "incluirLinhaExtrato",
      "outputs": [],
      "stateMutability": "nonpayable",
      "type": "function"
    },
    {
      "inputs": [
        {
          "internalType": "address",
          "name": "endereco",
          "type": "address"
        }
      ],
      "name": "consultarExtrato",
      "outputs": [
        {
          "components": [
            {
              "internalType": "uint256",
              "name": "data",
              "type": "uint256"
            },
            {
              "internalType": "string",
              "name": "descricao",
              "type": "string"
            },
            {
              "internalType": "uint256",
              "name": "valor",
              "type": "uint256"
            },
            {
              "internalType": "string",
              "name": "creditoDebito",
              "type": "string"
            },
            {
              "internalType": "address",
              "name": "origem",
              "type": "address"
            },
            {
              "internalType": "address",
              "name": "destino",
              "type": "address"
            },
            {
              "internalType": "string",
              "name": "simboloToken",
              "type": "string"
            }
          ],
          "internalType": "struct ExtratoInfo[]",
          "name": "",
          "type": "tuple[]"
        }
      ],
      "stateMutability": "view",
      "type": "function",
      "constant": true
    }
  ],
  "bytecode": "0x608060405234801561001057600080fd5b506001600760003373ffffffffffffffffffffffffffffffffffffffff1673ffffffffffffffffffffffffffffffffffffffff16815260200190815260200160002060006101000a81548160ff021916908315150217905550612c07806100786000396000f3fe608060405234801561001057600080fd5b506004361061009e5760003560e01c8063780409b311610066578063780409b31461015757806378905bc21461018757806391a85dd6146101a3578063e2b0e611146101c1578063f88ccf74146101f15761009e565b806308944790146100a357806326d3e71a146100d357806350fde3cb146100ef578063516c731c1461011f57806374fbc0cf1461013b575b600080fd5b6100bd60048036038101906100b89190611a65565b61020f565b6040516100ca9190611bdb565b60405180910390f35b6100ed60048036038101906100e89190611e58565b6103cb565b005b61010960048036038101906101049190611a65565b6105d9565b6040516101169190611fd9565b60405180910390f35b61013960048036038101906101349190611ffb565b6107da565b005b610155600480360381019061015091906120e3565b6108c1565b005b610171600480360381019061016c9190611a65565b610c74565b60405161017e9190612298565b60405180910390f35b6101a1600480360381019061019c91906123c2565b610f88565b005b6101ab6111f6565b6040516101b89190611fd9565b60405180910390f35b6101db60048036038101906101d69190611a65565b611489565b6040516101e8919061249b565b60405180910390f35b6101f9611681565b60405161020691906125fc565b60405180910390f35b61021761194f565b600560008373ffffffffffffffffffffffffffffffffffffffff1673ffffffffffffffffffffffffffffffffffffffff1681526020019081526020016000206040518060a0016040529081600082015481526020016001820160009054906101000a900473ffffffffffffffffffffffffffffffffffffffff1673ffffffffffffffffffffffffffffffffffffffff1673ffffffffffffffffffffffffffffffffffffffff1681526020016002820180546102d19061264d565b80601f01602080910402602001604051908101604052809291908181526020018280546102fd9061264d565b801561034a5780601f1061031f5761010080835404028352916020019161034a565b820191906000526020600020905b81548152906001019060200180831161032d57829003601f168201915b505050505081526020016003820160009054906101000a900473ffffffffffffffffffffffffffffffffffffffff1673ffffffffffffffffffffffffffffffffffffffff1673ffffffffffffffffffffffffffffffffffffffff1681526020016003820160149054906101000a900460ff1615151515815250509050919050565b600760003373ffffffffffffffffffffffffffffffffffffffff1673ffffffffffffffffffffffffffffffffffffffff16815260200190815260200160002060009054906101000a900460ff16610457576040517f08c379a000000000000000000000000000000000000000000000000000000000815260040161044e90612727565b60405180910390fd5b6103e8426104659190612776565b81600001818152505060018160800190151590811515815250508060026000836060015173ffffffffffffffffffffffffffffffffffffffff1673ffffffffffffffffffffffffffffffffffffffff1681526020019081526020016000206000820151816000015560208201518160010190816104e29190612964565b5060408201518160020190816104f89190612964565b5060608201518160030160006101000a81548173ffffffffffffffffffffffffffffffffffffffff021916908373ffffffffffffffffffffffffffffffffffffffff16021790555060808201518160030160146101000a81548160ff021916908315150217905550905050600181606001519080600181540180825580915050600190039060005260206000200160009091909190916101000a81548173ffffffffffffffffffffffffffffffffffffffff021916908373ffffffffffffffffffffffffffffffffffffffff16021790555060018054905060008190555050565b6060600660008373ffffffffffffffffffffffffffffffffffffffff1673ffffffffffffffffffffffffffffffffffffffff168152602001908152602001600020805480602002602001604051908101604052809291908181526020016000905b828210156107cf57838290600052602060002090600402016040518060a0016040529081600082015481526020016001820160009054906101000a900473ffffffffffffffffffffffffffffffffffffffff1673ffffffffffffffffffffffffffffffffffffffff1673ffffffffffffffffffffffffffffffffffffffff1681526020016002820180546106cd9061264d565b80601f01602080910402602001604051908101604052809291908181526020018280546106f99061264d565b80156107465780601f1061071b57610100808354040283529160200191610746565b820191906000526020600020905b81548152906001019060200180831161072957829003601f168201915b505050505081526020016003820160009054906101000a900473ffffffffffffffffffffffffffffffffffffffff1673ffffffffffffffffffffffffffffffffffffffff1673ffffffffffffffffffffffffffffffffffffffff1681526020016003820160149054906101000a900460ff1615151515815250508152602001906001019061063a565b505050509050919050565b600760003373ffffffffffffffffffffffffffffffffffffffff1673ffffffffffffffffffffffffffffffffffffffff16815260200190815260200160002060009054906101000a900460ff16610866576040517f08c379a000000000000000000000000000000000000000000000000000000000815260040161085d90612727565b60405180910390fd5b80600760008473ffffffffffffffffffffffffffffffffffffffff1673ffffffffffffffffffffffffffffffffffffffff16815260200190815260200160002060006101000a81548160ff0219169083151502179055505050565b600260003373ffffffffffffffffffffffffffffffffffffffff1673ffffffffffffffffffffffffffffffffffffffff16815260200190815260200160002060030160149054906101000a900460ff16610950576040517f08c379a000000000000000000000000000000000000000000000000000000000815260040161094790612aa8565b60405180910390fd5b6103e84261095e9190612776565b81600001818152505033816020019073ffffffffffffffffffffffffffffffffffffffff16908173ffffffffffffffffffffffffffffffffffffffff168152505060018160800190151590811515815250508060056000836060015173ffffffffffffffffffffffffffffffffffffffff1673ffffffffffffffffffffffffffffffffffffffff1681526020019081526020016000206000820151816000015560208201518160010160006101000a81548173ffffffffffffffffffffffffffffffffffffffff021916908373ffffffffffffffffffffffffffffffffffffffff1602179055506040820151816002019081610a5a9190612964565b5060608201518160030160006101000a81548173ffffffffffffffffffffffffffffffffffffffff021916908373ffffffffffffffffffffffffffffffffffffffff16021790555060808201518160030160146101000a81548160ff021916908315150217905550905050600481606001519080600181540180825580915050600190039060005260206000200160009091909190916101000a81548173ffffffffffffffffffffffffffffffffffffffff021916908373ffffffffffffffffffffffffffffffffffffffff160217905550600480549050600381905550600660003373ffffffffffffffffffffffffffffffffffffffff1673ffffffffffffffffffffffffffffffffffffffff1681526020019081526020016000208190806001815401808255809150506001900390600052602060002090600402016000909190919091506000820151816000015560208201518160010160006101000a81548173ffffffffffffffffffffffffffffffffffffffff021916908373ffffffffffffffffffffffffffffffffffffffff1602179055506040820151816002019081610c079190612964565b5060608201518160030160006101000a81548173ffffffffffffffffffffffffffffffffffffffff021916908373ffffffffffffffffffffffffffffffffffffffff16021790555060808201518160030160146101000a81548160ff021916908315150217905550505050565b6060600860008373ffffffffffffffffffffffffffffffffffffffff1673ffffffffffffffffffffffffffffffffffffffff168152602001908152602001600020805480602002602001604051908101604052809291908181526020016000905b82821015610f7d57838290600052602060002090600702016040518060e001604052908160008201548152602001600182018054610d129061264d565b80601f0160208091040260200160405190810160405280929190818152602001828054610d3e9061264d565b8015610d8b5780601f10610d6057610100808354040283529160200191610d8b565b820191906000526020600020905b815481529060010190602001808311610d6e57829003601f168201915b5050505050815260200160028201548152602001600382018054610dae9061264d565b80601f0160208091040260200160405190810160405280929190818152602001828054610dda9061264d565b8015610e275780601f10610dfc57610100808354040283529160200191610e27565b820191906000526020600020905b815481529060010190602001808311610e0a57829003601f168201915b505050505081526020016004820160009054906101000a900473ffffffffffffffffffffffffffffffffffffffff1673ffffffffffffffffffffffffffffffffffffffff1673ffffffffffffffffffffffffffffffffffffffff1681526020016005820160009054906101000a900473ffffffffffffffffffffffffffffffffffffffff1673ffffffffffffffffffffffffffffffffffffffff1673ffffffffffffffffffffffffffffffffffffffff168152602001600682018054610eec9061264d565b80601f0160208091040260200160405190810160405280929190818152602001828054610f189061264d565b8015610f655780601f10610f3a57610100808354040283529160200191610f65565b820191906000526020600020905b815481529060010190602001808311610f4857829003601f168201915b50505050508152505081526020019060010190610cd5565b505050509050919050565b600760003373ffffffffffffffffffffffffffffffffffffffff1673ffffffffffffffffffffffffffffffffffffffff16815260200190815260200160002060009054906101000a900460ff16611014576040517f08c379a000000000000000000000000000000000000000000000000000000000815260040161100b90612727565b60405180910390fd5b600560008373ffffffffffffffffffffffffffffffffffffffff1673ffffffffffffffffffffffffffffffffffffffff16815260200190815260200160002060030160149054906101000a900460ff166110a3576040517f08c379a000000000000000000000000000000000000000000000000000000000815260040161109a90612b3a565b60405180910390fd5b600860008373ffffffffffffffffffffffffffffffffffffffff1673ffffffffffffffffffffffffffffffffffffffff16815260200190815260200160002081908060018154018082558091505060019003906000526020600020906007020160009091909190915060008201518160000155602082015181600101908161112b9190612964565b5060408201518160020155606082015181600301908161114b9190612964565b5060808201518160040160006101000a81548173ffffffffffffffffffffffffffffffffffffffff021916908373ffffffffffffffffffffffffffffffffffffffff16021790555060a08201518160050160006101000a81548173ffffffffffffffffffffffffffffffffffffffff021916908373ffffffffffffffffffffffffffffffffffffffff16021790555060c08201518160060190816111ef9190612964565b5050505050565b6060600060035467ffffffffffffffff81111561121657611215611c02565b5b60405190808252806020026020018201604052801561124f57816020015b61123c61194f565b8152602001906001900390816112345790505b50905060005b6003548110156114815760006004828154811061127557611274612b5a565b5b9060005260206000200160009054906101000a900473ffffffffffffffffffffffffffffffffffffffff169050600560008273ffffffffffffffffffffffffffffffffffffffff1673ffffffffffffffffffffffffffffffffffffffff1681526020019081526020016000206040518060a0016040529081600082015481526020016001820160009054906101000a900473ffffffffffffffffffffffffffffffffffffffff1673ffffffffffffffffffffffffffffffffffffffff1673ffffffffffffffffffffffffffffffffffffffff16815260200160028201805461135c9061264d565b80601f01602080910402602001604051908101604052809291908181526020018280546113889061264d565b80156113d55780601f106113aa576101008083540402835291602001916113d5565b820191906000526020600020905b8154815290600101906020018083116113b857829003601f168201915b505050505081526020016003820160009054906101000a900473ffffffffffffffffffffffffffffffffffffffff1673ffffffffffffffffffffffffffffffffffffffff1673ffffffffffffffffffffffffffffffffffffffff1681526020016003820160149054906101000a900460ff16151515158152505083838151811061146257611461612b5a565b5b602002602001018190525050808061147990612b89565b915050611255565b508091505090565b6114916119ac565b600260008373ffffffffffffffffffffffffffffffffffffffff1673ffffffffffffffffffffffffffffffffffffffff1681526020019081526020016000206040518060a0016040529081600082015481526020016001820180546114f59061264d565b80601f01602080910402602001604051908101604052809291908181526020018280546115219061264d565b801561156e5780601f106115435761010080835404028352916020019161156e565b820191906000526020600020905b81548152906001019060200180831161155157829003601f168201915b505050505081526020016002820180546115879061264d565b80601f01602080910402602001604051908101604052809291908181526020018280546115b39061264d565b80156116005780601f106115d557610100808354040283529160200191611600565b820191906000526020600020905b8154815290600101906020018083116115e357829003601f168201915b505050505081526020016003820160009054906101000a900473ffffffffffffffffffffffffffffffffffffffff1673ffffffffffffffffffffffffffffffffffffffff1673ffffffffffffffffffffffffffffffffffffffff1681526020016003820160149054906101000a900460ff1615151515815250509050919050565b60606000805467ffffffffffffffff8111156116a05761169f611c02565b5b6040519080825280602002602001820160405280156116d957816020015b6116c66119ac565b8152602001906001900390816116be5790505b50905060005b600054811015611947576000600182815481106116ff576116fe612b5a565b5b9060005260206000200160009054906101000a900473ffffffffffffffffffffffffffffffffffffffff169050600260008273ffffffffffffffffffffffffffffffffffffffff1673ffffffffffffffffffffffffffffffffffffffff1681526020019081526020016000206040518060a0016040529081600082015481526020016001820180546117909061264d565b80601f01602080910402602001604051908101604052809291908181526020018280546117bc9061264d565b80156118095780601f106117de57610100808354040283529160200191611809565b820191906000526020600020905b8154815290600101906020018083116117ec57829003601f168201915b505050505081526020016002820180546118229061264d565b80601f016020809104026020016040519081016040528092919081815260200182805461184e9061264d565b801561189b5780601f106118705761010080835404028352916020019161189b565b820191906000526020600020905b81548152906001019060200180831161187e57829003601f168201915b505050505081526020016003820160009054906101000a900473ffffffffffffffffffffffffffffffffffffffff1673ffffffffffffffffffffffffffffffffffffffff1673ffffffffffffffffffffffffffffffffffffffff1681526020016003820160149054906101000a900460ff16151515158152505083838151811061192857611927612b5a565b5b602002602001018190525050808061193f90612b89565b9150506116df565b508091505090565b6040518060a0016040528060008152602001600073ffffffffffffffffffffffffffffffffffffffff16815260200160608152602001600073ffffffffffffffffffffffffffffffffffffffff1681526020016000151581525090565b6040518060a00160405280600081526020016060815260200160608152602001600073ffffffffffffffffffffffffffffffffffffffff1681526020016000151581525090565b6000604051905090565b600080fd5b600080fd5b600073ffffffffffffffffffffffffffffffffffffffff82169050919050565b6000611a3282611a07565b9050919050565b611a4281611a27565b8114611a4d57600080fd5b50565b600081359050611a5f81611a39565b92915050565b600060208284031215611a7b57611a7a6119fd565b5b6000611a8984828501611a50565b91505092915050565b6000819050919050565b611aa581611a92565b82525050565b611ab481611a27565b82525050565b600081519050919050565b600082825260208201905092915050565b60005b83811015611af4578082015181840152602081019050611ad9565b60008484015250505050565b6000601f19601f8301169050919050565b6000611b1c82611aba565b611b268185611ac5565b9350611b36818560208601611ad6565b611b3f81611b00565b840191505092915050565b60008115159050919050565b611b5f81611b4a565b82525050565b600060a083016000830151611b7d6000860182611a9c565b506020830151611b906020860182611aab565b5060408301518482036040860152611ba88282611b11565b9150506060830151611bbd6060860182611aab565b506080830151611bd06080860182611b56565b508091505092915050565b60006020820190508181036000830152611bf58184611b65565b905092915050565b600080fd5b7f4e487b7100000000000000000000000000000000000000000000000000000000600052604160045260246000fd5b611c3a82611b00565b810181811067ffffffffffffffff82111715611c5957611c58611c02565b5b80604052505050565b6000611c6c6119f3565b9050611c788282611c31565b919050565b600080fd5b611c8b81611a92565b8114611c9657600080fd5b50565b600081359050611ca881611c82565b92915050565b600080fd5b600080fd5b600067ffffffffffffffff821115611cd357611cd2611c02565b5b611cdc82611b00565b9050602081019050919050565b82818337600083830152505050565b6000611d0b611d0684611cb8565b611c62565b905082815260208101848484011115611d2757611d26611cb3565b5b611d32848285611ce9565b509392505050565b600082601f830112611d4f57611d4e611cae565b5b8135611d5f848260208601611cf8565b91505092915050565b611d7181611b4a565b8114611d7c57600080fd5b50565b600081359050611d8e81611d68565b92915050565b600060a08284031215611daa57611da9611bfd565b5b611db460a0611c62565b90506000611dc484828501611c99565b600083015250602082013567ffffffffffffffff811115611de857611de7611c7d565b5b611df484828501611d3a565b602083015250604082013567ffffffffffffffff811115611e1857611e17611c7d565b5b611e2484828501611d3a565b6040830152506060611e3884828501611a50565b6060830152506080611e4c84828501611d7f565b60808301525092915050565b600060208284031215611e6e57611e6d6119fd565b5b600082013567ffffffffffffffff811115611e8c57611e8b611a02565b5b611e9884828501611d94565b91505092915050565b600081519050919050565b600082825260208201905092915050565b6000819050602082019050919050565b600060a083016000830151611ee56000860182611a9c565b506020830151611ef86020860182611aab565b5060408301518482036040860152611f108282611b11565b9150506060830151611f256060860182611aab565b506080830151611f386080860182611b56565b508091505092915050565b6000611f4f8383611ecd565b905092915050565b6000602082019050919050565b6000611f6f82611ea1565b611f798185611eac565b935083602082028501611f8b85611ebd565b8060005b85811015611fc75784840389528151611fa88582611f43565b9450611fb383611f57565b925060208a01995050600181019050611f8f565b50829750879550505050505092915050565b60006020820190508181036000830152611ff38184611f64565b905092915050565b60008060408385031215612012576120116119fd565b5b600061202085828601611a50565b925050602061203185828601611d7f565b9150509250929050565b600060a0828403121561205157612050611bfd565b5b61205b60a0611c62565b9050600061206b84828501611c99565b600083015250602061207f84828501611a50565b602083015250604082013567ffffffffffffffff8111156120a3576120a2611c7d565b5b6120af84828501611d3a565b60408301525060606120c384828501611a50565b60608301525060806120d784828501611d7f565b60808301525092915050565b6000602082840312156120f9576120f86119fd565b5b600082013567ffffffffffffffff81111561211757612116611a02565b5b6121238482850161203b565b91505092915050565b600081519050919050565b600082825260208201905092915050565b6000819050602082019050919050565b600060e0830160008301516121706000860182611a9c565b50602083015184820360208601526121888282611b11565b915050604083015161219d6040860182611a9c565b50606083015184820360608601526121b58282611b11565b91505060808301516121ca6080860182611aab565b5060a08301516121dd60a0860182611aab565b5060c083015184820360c08601526121f58282611b11565b9150508091505092915050565b600061220e8383612158565b905092915050565b6000602082019050919050565b600061222e8261212c565b6122388185612137565b93508360208202850161224a85612148565b8060005b8581101561228657848403895281516122678582612202565b945061227283612216565b925060208a0199505060018101905061224e565b50829750879550505050505092915050565b600060208201905081810360008301526122b28184612223565b905092915050565b600060e082840312156122d0576122cf611bfd565b5b6122da60e0611c62565b905060006122ea84828501611c99565b600083015250602082013567ffffffffffffffff81111561230e5761230d611c7d565b5b61231a84828501611d3a565b602083015250604061232e84828501611c99565b604083015250606082013567ffffffffffffffff81111561235257612351611c7d565b5b61235e84828501611d3a565b606083015250608061237284828501611a50565b60808301525060a061238684828501611a50565b60a08301525060c082013567ffffffffffffffff8111156123aa576123a9611c7d565b5b6123b684828501611d3a565b60c08301525092915050565b600080604083850312156123d9576123d86119fd565b5b60006123e785828601611a50565b925050602083013567ffffffffffffffff81111561240857612407611a02565b5b612414858286016122ba565b9150509250929050565b600060a0830160008301516124366000860182611a9c565b506020830151848203602086015261244e8282611b11565b915050604083015184820360408601526124688282611b11565b915050606083015161247d6060860182611aab565b5060808301516124906080860182611b56565b508091505092915050565b600060208201905081810360008301526124b5818461241e565b905092915050565b600081519050919050565b600082825260208201905092915050565b6000819050602082019050919050565b600060a0830160008301516125016000860182611a9c565b50602083015184820360208601526125198282611b11565b915050604083015184820360408601526125338282611b11565b91505060608301516125486060860182611aab565b50608083015161255b6080860182611b56565b508091505092915050565b600061257283836124e9565b905092915050565b6000602082019050919050565b6000612592826124bd565b61259c81856124c8565b9350836020820285016125ae856124d9565b8060005b858110156125ea57848403895281516125cb8582612566565b94506125d68361257a565b925060208a019950506001810190506125b2565b50829750879550505050505092915050565b600060208201905081810360008301526126168184612587565b905092915050565b7f4e487b7100000000000000000000000000000000000000000000000000000000600052602260045260246000fd5b6000600282049050600182168061266557607f821691505b6020821081036126785761267761261e565b5b50919050565b600082825260208201905092915050565b7f536f6d656e7465206f7320726573706f73c3a1766569732070656c6f20636f6e60008201527f747261746f206465204167656e746520466564657261646f20706f64656d207260208201527f65616c697a61722065737361206f70657261c3a7c3a36f2e0000000000000000604082015250565b600061271160588361267e565b915061271c8261268f565b606082019050919050565b6000602082019050818103600083015261274081612704565b9050919050565b7f4e487b7100000000000000000000000000000000000000000000000000000000600052601160045260246000fd5b600061278182611a92565b915061278c83611a92565b925082820261279a81611a92565b915082820484148315176127b1576127b0612747565b5b5092915050565b60008190508160005260206000209050919050565b60006020601f8301049050919050565b600082821b905092915050565b60006008830261281a7fffffffffffffffffffffffffffffffffffffffffffffffffffffffffffffffff826127dd565b61282486836127dd565b95508019841693508086168417925050509392505050565b6000819050919050565b600061286161285c61285784611a92565b61283c565b611a92565b9050919050565b6000819050919050565b61287b83612846565b61288f61288782612868565b8484546127ea565b825550505050565b600090565b6128a4612897565b6128af818484612872565b505050565b5b818110156128d3576128c860008261289c565b6001810190506128b5565b5050565b601f821115612918576128e9816127b8565b6128f2846127cd565b81016020851015612901578190505b61291561290d856127cd565b8301826128b4565b50505b505050565b600082821c905092915050565b600061293b6000198460080261291d565b1980831691505092915050565b6000612954838361292a565b9150826002028217905092915050565b61296d82611aba565b67ffffffffffffffff81111561298657612985611c02565b5b612990825461264d565b61299b8282856128d7565b600060209050601f8311600181146129ce57600084156129bc578287015190505b6129c68582612948565b865550612a2e565b601f1984166129dc866127b8565b60005b82811015612a04578489015182556001820191506020850194506020810190506129df565b86831015612a215784890151612a1d601f89168261292a565b8355505b6001600288020188555050505b505050505050565b7f536f6d656e746520756d206167656e746520666564657261646f20706f64652060008201527f7265616c697a61722065737361206f70657261c3a7c3a36f2e00000000000000602082015250565b6000612a9260398361267e565b9150612a9d82612a36565b604082019050919050565b60006020820190508181036000830152612ac181612a85565b9050919050565b7f4120636172746569726120646f206578747261746f206465766520736572206460008201527f6520756d6120736563726574617269612e000000000000000000000000000000602082015250565b6000612b2460318361267e565b9150612b2f82612ac8565b604082019050919050565b60006020820190508181036000830152612b5381612b17565b9050919050565b7f4e487b7100000000000000000000000000000000000000000000000000000000600052603260045260246000fd5b6000612b9482611a92565b91507fffffffffffffffffffffffffffffffffffffffffffffffffffffffffffffffff8203612bc657612bc5612747565b5b60018201905091905056fea2646970667358221220f851028ce04aa5101345478cb396c96a552ce3a01d48d1423766876438e3cdfd64736f6c63430008130033",
  "immutableReferences": {},
  "source": "// SPDX-License-Identifier: MIT\r\npragma solidity ^0.8.0;\r\n\r\nimport \"./TiposComuns.sol\";\r\n\r\ncontract AgenteFederado {\r\n    //Propriedades\r\n\r\n    uint256 private _qtdAgentesFederados;\r\n    address[] private _enderecosAgentesFederados;\r\n    mapping(address => AgenteFederadoInfo) private _agentesFederados;\r\n\r\n    uint256 private _qtdSecretarias;\r\n    address[] private _enderecosSecretarias;\r\n    mapping(address => SecretariaInfo) private _secretarias;\r\n    mapping(address => SecretariaInfo[]) private _secretariasAgenteFederado;\r\n\r\n    mapping(address => bool) private _owners;\r\n    mapping(address => ExtratoInfo[]) private _extrato;\r\n\r\n    //Construtores\r\n    constructor() {\r\n        _owners[msg.sender] = true;\r\n    }\r\n\r\n    //Modificadores\r\n    modifier onlyOwner() {\r\n        require(\r\n            _owners[msg.sender],\r\n            unicode\"Somente os resposveis pelo contrato de Agente Federado podem realizar essa operao.\"\r\n        );\r\n        _;\r\n    }\r\n\r\n    modifier onlyFederated() {\r\n        require(\r\n            _agentesFederados[msg.sender].cadastrado,\r\n            unicode\"Somente um agente federado pode realizar essa operao.\"\r\n        );\r\n        _;\r\n    }\r\n\r\n    //Funes\r\n    function setOwner(address owner, bool isOwner) public onlyOwner {\r\n        _owners[owner] = isOwner;\r\n    }\r\n\r\n    function cadastrarAgenteFederado(\r\n        AgenteFederadoInfo memory agenteFederado\r\n    ) public onlyOwner {\r\n        agenteFederado.dataCadastro = block.timestamp * 1000;\r\n        agenteFederado.cadastrado = true;\r\n        _agentesFederados[agenteFederado.enderecoCarteira] = agenteFederado;\r\n        _enderecosAgentesFederados.push(agenteFederado.enderecoCarteira);\r\n        _qtdAgentesFederados = _enderecosAgentesFederados.length;\r\n    }\r\n\r\n    function cadastrarSecretaria(\r\n        SecretariaInfo memory secretaria\r\n    ) public onlyFederated {\r\n        secretaria.dataCadastro = block.timestamp * 1000;\r\n        secretaria.enderecoAgenteFederado = msg.sender;\r\n        secretaria.cadastrado = true;\r\n        _secretarias[secretaria.enderecoCarteira] = secretaria;\r\n        _enderecosSecretarias.push(secretaria.enderecoCarteira);\r\n        _qtdSecretarias = _enderecosSecretarias.length;\r\n\r\n        _secretariasAgenteFederado[msg.sender].push(secretaria);\r\n    }\r\n\r\n    function listarAgentesFederados()\r\n        public\r\n        view\r\n        returns (AgenteFederadoInfo[] memory)\r\n    {\r\n        AgenteFederadoInfo[] memory agentesFederados = new AgenteFederadoInfo[](\r\n            _qtdAgentesFederados\r\n        );\r\n\r\n        for (uint256 i = 0; i < _qtdAgentesFederados; i++) {\r\n            address endereco = _enderecosAgentesFederados[i];\r\n            agentesFederados[i] = _agentesFederados[endereco];\r\n        }\r\n\r\n        return agentesFederados;\r\n    }\r\n\r\n    function listarSecretarias() public view returns (SecretariaInfo[] memory) {\r\n        SecretariaInfo[] memory secretarias = new SecretariaInfo[](\r\n            _qtdSecretarias\r\n        );\r\n\r\n        for (uint256 i = 0; i < _qtdSecretarias; i++) {\r\n            address endereco = _enderecosSecretarias[i];\r\n            secretarias[i] = _secretarias[endereco];\r\n        }\r\n\r\n        return secretarias;\r\n    }\r\n\r\n    function listarSecretariasAgenteFederado(\r\n        address endereco\r\n    ) public view returns (SecretariaInfo[] memory) {\r\n        return _secretariasAgenteFederado[endereco];\r\n    }\r\n\r\n    function obterAgenteFederado(\r\n        address endereco\r\n    ) public view returns (AgenteFederadoInfo memory) {\r\n        return _agentesFederados[endereco];\r\n    }\r\n\r\n    function obterSecretaria(\r\n        address endereco\r\n    ) public view returns (SecretariaInfo memory) {\r\n        return _secretarias[endereco];\r\n    }\r\n\r\n    function incluirLinhaExtrato(\r\n        address endereco,\r\n        ExtratoInfo memory extrato\r\n    ) public onlyOwner {\r\n        require(\r\n            _secretarias[endereco].cadastrado,\r\n            \"A carteira do extrato deve ser de uma secretaria.\"\r\n        );\r\n        _extrato[endereco].push(extrato);\r\n    }\r\n\r\n    function consultarExtrato(\r\n        address endereco\r\n    ) public view returns (ExtratoInfo[] memory) {\r\n        return _extrato[endereco];\r\n    }\r\n}\r\n",
  "sourcePath": "/govtoken/Contratos/AgenteFederado.sol",
  "compiler": {
    "name": "solc",
    "version": "0.8.19+commit.7dd6d404.Emscripten.clang"
  },
  "schemaVersion": "3.4.8",
  "updatedAt": "2023-03-21T01:48:59.796Z",
  "networkType": "ethereum",
  "devdoc": {
    "kind": "dev",
    "methods": {},
    "version": 1
  },
  "userdoc": {
    "kind": "user",
    "methods": {},
    "version": 1
  }
}