{
  "contractName": "ContaLastro",
  "abi": [
    {
      "inputs": [
        {
          "internalType": "contract GovToken",
          "name": "govToken",
          "type": "address"
        },
        {
          "internalType": "contract AgenteFederado",
          "name": "agenteFederado",
          "type": "address"
        },
        {
          "internalType": "contract PainelServico",
          "name": "painelServico",
          "type": "address"
        }
      ],
      "stateMutability": "nonpayable",
      "type": "constructor"
    },
    {
      "anonymous": false,
      "inputs": [
        {
          "indexed": false,
          "internalType": "address",
          "name": "sender",
          "type": "address"
        },
        {
          "indexed": false,
          "internalType": "uint256",
          "name": "data",
          "type": "uint256"
        },
        {
          "indexed": false,
          "internalType": "uint256",
          "name": "valor",
          "type": "uint256"
        }
      ],
      "name": "depositoRealizado",
      "type": "event"
    },
    {
      "anonymous": false,
      "inputs": [
        {
          "indexed": false,
          "internalType": "address",
          "name": "fornecedor",
          "type": "address"
        },
        {
          "indexed": false,
          "internalType": "uint256",
          "name": "data",
          "type": "uint256"
        },
        {
          "indexed": false,
          "internalType": "uint256",
          "name": "valor",
          "type": "uint256"
        },
        {
          "indexed": false,
          "internalType": "uint256",
          "name": "idServico",
          "type": "uint256"
        }
      ],
      "name": "solicitacaoRepasseRealizada",
      "type": "event"
    },
    {
      "anonymous": false,
      "inputs": [
        {
          "indexed": false,
          "internalType": "address",
          "name": "sender",
          "type": "address"
        },
        {
          "indexed": false,
          "internalType": "address",
          "name": "enderecoAgenteFederado",
          "type": "address"
        },
        {
          "indexed": false,
          "internalType": "uint256",
          "name": "data",
          "type": "uint256"
        },
        {
          "indexed": false,
          "internalType": "uint256",
          "name": "valor",
          "type": "uint256"
        }
      ],
      "name": "transferenciaRealizada",
      "type": "event"
    },
    {
      "inputs": [
        {
          "internalType": "address",
          "name": "owner",
          "type": "address"
        },
        {
          "internalType": "bool",
          "name": "isOwner",
          "type": "bool"
        }
      ],
      "name": "setOwner",
      "outputs": [],
      "stateMutability": "nonpayable",
      "type": "function"
    },
    {
      "inputs": [],
      "name": "consultarExtrato",
      "outputs": [
        {
          "components": [
            {
              "internalType": "uint256",
              "name": "data",
              "type": "uint256"
            },
            {
              "internalType": "string",
              "name": "descricao",
              "type": "string"
            },
            {
              "internalType": "uint256",
              "name": "valor",
              "type": "uint256"
            },
            {
              "internalType": "string",
              "name": "creditoDebito",
              "type": "string"
            },
            {
              "internalType": "address",
              "name": "origem",
              "type": "address"
            },
            {
              "internalType": "address",
              "name": "destino",
              "type": "address"
            },
            {
              "internalType": "string",
              "name": "simboloToken",
              "type": "string"
            }
          ],
          "internalType": "struct ExtratoInfo[]",
          "name": "",
          "type": "tuple[]"
        }
      ],
      "stateMutability": "view",
      "type": "function",
      "constant": true
    },
    {
      "inputs": [
        {
          "internalType": "uint256",
          "name": "data",
          "type": "uint256"
        },
        {
          "internalType": "uint256",
          "name": "valor",
          "type": "uint256"
        }
      ],
      "name": "realizarDeposito",
      "outputs": [],
      "stateMutability": "nonpayable",
      "type": "function"
    },
    {
      "inputs": [
        {
          "internalType": "address",
          "name": "enderecoSecretaria",
          "type": "address"
        },
        {
          "internalType": "uint256",
          "name": "data",
          "type": "uint256"
        },
        {
          "internalType": "uint256",
          "name": "valor",
          "type": "uint256"
        }
      ],
      "name": "transferirToken",
      "outputs": [],
      "stateMutability": "nonpayable",
      "type": "function"
    },
    {
      "inputs": [
        {
          "internalType": "address",
          "name": "enderecoFornecedor",
          "type": "address"
        },
        {
          "internalType": "uint256",
          "name": "idServico",
          "type": "uint256"
        },
        {
          "internalType": "uint256",
          "name": "data",
          "type": "uint256"
        },
        {
          "internalType": "uint256",
          "name": "valor",
          "type": "uint256"
        }
      ],
      "name": "solicitarRepasse",
      "outputs": [],
      "stateMutability": "nonpayable",
      "type": "function"
    }
  ],
  "bytecode": "0x60806040523480156200001157600080fd5b5060405162002cf838038062002cf8833981810160405281019062000037919062000262565b60016000803373ffffffffffffffffffffffffffffffffffffffff1673ffffffffffffffffffffffffffffffffffffffff16815260200190815260200160002060006101000a81548160ff02191690831515021790555082600160006101000a81548173ffffffffffffffffffffffffffffffffffffffff021916908373ffffffffffffffffffffffffffffffffffffffff16021790555081600260006101000a81548173ffffffffffffffffffffffffffffffffffffffff021916908373ffffffffffffffffffffffffffffffffffffffff16021790555080600360006101000a81548173ffffffffffffffffffffffffffffffffffffffff021916908373ffffffffffffffffffffffffffffffffffffffff160217905550505050620002be565b600080fd5b600073ffffffffffffffffffffffffffffffffffffffff82169050919050565b60006200018c826200015f565b9050919050565b6000620001a0826200017f565b9050919050565b620001b28162000193565b8114620001be57600080fd5b50565b600081519050620001d281620001a7565b92915050565b6000620001e5826200017f565b9050919050565b620001f781620001d8565b81146200020357600080fd5b50565b6000815190506200021781620001ec565b92915050565b60006200022a826200017f565b9050919050565b6200023c816200021d565b81146200024857600080fd5b50565b6000815190506200025c8162000231565b92915050565b6000806000606084860312156200027e576200027d6200015a565b5b60006200028e86828701620001c1565b9350506020620002a18682870162000206565b9250506040620002b4868287016200024b565b9150509250925092565b612a2a80620002ce6000396000f3fe608060405234801561001057600080fd5b50600436106100575760003560e01c8063036ec3c41461005c578063516c731c146100785780636da52311146100945780639cbd2723146100b2578063e53ee170146100ce575b600080fd5b61007660048036038101906100719190611c4b565b6100ea565b005b610092600480360381019061008d9190611cd6565b610838565b005b61009c61091d565b6040516100a99190611f30565b60405180910390f35b6100cc60048036038101906100c79190611f52565b610bf2565b005b6100e860048036038101906100e39190611fb9565b6115ca565b005b6000803373ffffffffffffffffffffffffffffffffffffffff1673ffffffffffffffffffffffffffffffffffffffff16815260200190815260200160002060009054906101000a900460ff16610175576040517f08c379a000000000000000000000000000000000000000000000000000000000815260040161016c906120a2565b60405180910390fd5b600260009054906101000a900473ffffffffffffffffffffffffffffffffffffffff1673ffffffffffffffffffffffffffffffffffffffff166308944790846040518263ffffffff1660e01b81526004016101d091906120d1565b600060405180830381865afa1580156101ed573d6000803e3d6000fd5b505050506040513d6000823e3d601f19601f820116820180604052508101906102169190612303565b60800151610259576040517f08c379a0000000000000000000000000000000000000000000000000000000008152600401610250906123be565b60405180910390fd5b600160009054906101000a900473ffffffffffffffffffffffffffffffffffffffff1673ffffffffffffffffffffffffffffffffffffffff1663095ea7b330836040518363ffffffff1660e01b81526004016102b69291906123ed565b6020604051808303816000875af11580156102d5573d6000803e3d6000fd5b505050506040513d601f19601f820116820180604052508101906102f99190612416565b50600160009054906101000a900473ffffffffffffffffffffffffffffffffffffffff1673ffffffffffffffffffffffffffffffffffffffff1663a9059cbb84836040518363ffffffff1660e01b81526004016103579291906123ed565b6020604051808303816000875af1158015610376573d6000803e3d6000fd5b505050506040513d601f19601f8201168201806040525081019061039a9190612416565b5060046040518060e001604052808481526020016040518060400160405280600e81526020017f5472616e73666572c3aa6e63696100000000000000000000000000000000000081525081526020018381526020016040518060400160405280600181526020017f440000000000000000000000000000000000000000000000000000000000000081525081526020013073ffffffffffffffffffffffffffffffffffffffff1681526020018573ffffffffffffffffffffffffffffffffffffffff168152602001600160009054906101000a900473ffffffffffffffffffffffffffffffffffffffff1673ffffffffffffffffffffffffffffffffffffffff166395d89b416040518163ffffffff1660e01b8152600401600060405180830381865afa1580156104cf573d6000803e3d6000fd5b505050506040513d6000823e3d601f19601f820116820180604052508101906104f89190612443565b81525090806001815401808255809150506001900390600052602060002090600702016000909190919091506000820151816000015560208201518160010190816105439190612698565b506040820151816002015560608201518160030190816105639190612698565b5060808201518160040160006101000a81548173ffffffffffffffffffffffffffffffffffffffff021916908373ffffffffffffffffffffffffffffffffffffffff16021790555060a08201518160050160006101000a81548173ffffffffffffffffffffffffffffffffffffffff021916908373ffffffffffffffffffffffffffffffffffffffff16021790555060c08201518160060190816106079190612698565b505050600260009054906101000a900473ffffffffffffffffffffffffffffffffffffffff1673ffffffffffffffffffffffffffffffffffffffff166378905bc2846040518060e001604052808681526020016040518060400160405280600981526020017f446570c3b37369746f000000000000000000000000000000000000000000000081525081526020018581526020016040518060400160405280600181526020017f430000000000000000000000000000000000000000000000000000000000000081525081526020013073ffffffffffffffffffffffffffffffffffffffff1681526020018773ffffffffffffffffffffffffffffffffffffffff168152602001600160009054906101000a900473ffffffffffffffffffffffffffffffffffffffff1673ffffffffffffffffffffffffffffffffffffffff166395d89b416040518163ffffffff1660e01b8152600401600060405180830381865afa15801561077b573d6000803e3d6000fd5b505050506040513d6000823e3d601f19601f820116820180604052508101906107a49190612443565b8152506040518363ffffffff1660e01b81526004016107c4929190612814565b600060405180830381600087803b1580156107de57600080fd5b505af11580156107f2573d6000803e3d6000fd5b505050507f84ab5b9da0c9f713409211eddd9c42ca07b48d00daf1845440b271a29aff45183384848460405161082b9493929190612844565b60405180910390a1505050565b6000803373ffffffffffffffffffffffffffffffffffffffff1673ffffffffffffffffffffffffffffffffffffffff16815260200190815260200160002060009054906101000a900460ff166108c3576040517f08c379a00000000000000000000000000000000000000000000000000000000081526004016108ba906120a2565b60405180910390fd5b806000808473ffffffffffffffffffffffffffffffffffffffff1673ffffffffffffffffffffffffffffffffffffffff16815260200190815260200160002060006101000a81548160ff0219169083151502179055505050565b60606004805480602002602001604051908101604052809291908181526020016000905b82821015610be957838290600052602060002090600702016040518060e00160405290816000820154815260200160018201805461097e906124bb565b80601f01602080910402602001604051908101604052809291908181526020018280546109aa906124bb565b80156109f75780601f106109cc576101008083540402835291602001916109f7565b820191906000526020600020905b8154815290600101906020018083116109da57829003601f168201915b5050505050815260200160028201548152602001600382018054610a1a906124bb565b80601f0160208091040260200160405190810160405280929190818152602001828054610a46906124bb565b8015610a935780601f10610a6857610100808354040283529160200191610a93565b820191906000526020600020905b815481529060010190602001808311610a7657829003601f168201915b505050505081526020016004820160009054906101000a900473ffffffffffffffffffffffffffffffffffffffff1673ffffffffffffffffffffffffffffffffffffffff1673ffffffffffffffffffffffffffffffffffffffff1681526020016005820160009054906101000a900473ffffffffffffffffffffffffffffffffffffffff1673ffffffffffffffffffffffffffffffffffffffff1673ffffffffffffffffffffffffffffffffffffffff168152602001600682018054610b58906124bb565b80601f0160208091040260200160405190810160405280929190818152602001828054610b84906124bb565b8015610bd15780601f10610ba657610100808354040283529160200191610bd1565b820191906000526020600020905b815481529060010190602001808311610bb457829003601f168201915b50505050508152505081526020019060010190610941565b50505050905090565b600360009054906101000a900473ffffffffffffffffffffffffffffffffffffffff1673ffffffffffffffffffffffffffffffffffffffff163373ffffffffffffffffffffffffffffffffffffffff1614610c82576040517f08c379a0000000000000000000000000000000000000000000000000000000008152600401610c7990612921565b60405180910390fd5b600160009054906101000a900473ffffffffffffffffffffffffffffffffffffffff1673ffffffffffffffffffffffffffffffffffffffff166323b872dd600360009054906101000a900473ffffffffffffffffffffffffffffffffffffffff1630846040518463ffffffff1660e01b8152600401610d0393929190612941565b6020604051808303816000875af1158015610d22573d6000803e3d6000fd5b505050506040513d601f19601f82011682018060405250810190610d469190612416565b50600160009054906101000a900473ffffffffffffffffffffffffffffffffffffffff1673ffffffffffffffffffffffffffffffffffffffff1663095ea7b330836040518363ffffffff1660e01b8152600401610da49291906123ed565b6020604051808303816000875af1158015610dc3573d6000803e3d6000fd5b505050506040513d601f19601f82011682018060405250810190610de79190612416565b50600160009054906101000a900473ffffffffffffffffffffffffffffffffffffffff1673ffffffffffffffffffffffffffffffffffffffff166379cc679030836040518363ffffffff1660e01b8152600401610e459291906123ed565b600060405180830381600087803b158015610e5f57600080fd5b505af1158015610e73573d6000803e3d6000fd5b5050505060046040518060e001604052808481526020016040518060400160405280601581526020017f536f6c6963697461c3a7c3a36f2052657061737365000000000000000000000081525081526020018381526020016040518060400160405280600181526020017f43000000000000000000000000000000000000000000000000000000000000008152508152602001600360009054906101000a900473ffffffffffffffffffffffffffffffffffffffff1673ffffffffffffffffffffffffffffffffffffffff1681526020013073ffffffffffffffffffffffffffffffffffffffff168152602001600160009054906101000a900473ffffffffffffffffffffffffffffffffffffffff1673ffffffffffffffffffffffffffffffffffffffff166395d89b416040518163ffffffff1660e01b8152600401600060405180830381865afa158015610fcd573d6000803e3d6000fd5b505050506040513d6000823e3d601f19601f82011682018060405250810190610ff69190612443565b81525090806001815401808255809150506001900390600052602060002090600702016000909190919091506000820151816000015560208201518160010190816110419190612698565b506040820151816002015560608201518160030190816110619190612698565b5060808201518160040160006101000a81548173ffffffffffffffffffffffffffffffffffffffff021916908373ffffffffffffffffffffffffffffffffffffffff16021790555060a08201518160050160006101000a81548173ffffffffffffffffffffffffffffffffffffffff021916908373ffffffffffffffffffffffffffffffffffffffff16021790555060c08201518160060190816111059190612698565b50505060046040518060e001604052808481526020016040518060400160405280600c81526020017f517565696d6120546f6b656e000000000000000000000000000000000000000081525081526020018381526020016040518060400160405280600181526020017f440000000000000000000000000000000000000000000000000000000000000081525081526020013073ffffffffffffffffffffffffffffffffffffffff168152602001600073ffffffffffffffffffffffffffffffffffffffff168152602001600160009054906101000a900473ffffffffffffffffffffffffffffffffffffffff1673ffffffffffffffffffffffffffffffffffffffff166395d89b416040518163ffffffff1660e01b8152600401600060405180830381865afa15801561123d573d6000803e3d6000fd5b505050506040513d6000823e3d601f19601f820116820180604052508101906112669190612443565b81525090806001815401808255809150506001900390600052602060002090600702016000909190919091506000820151816000015560208201518160010190816112b19190612698565b506040820151816002015560608201518160030190816112d19190612698565b5060808201518160040160006101000a81548173ffffffffffffffffffffffffffffffffffffffff021916908373ffffffffffffffffffffffffffffffffffffffff16021790555060a08201518160050160006101000a81548173ffffffffffffffffffffffffffffffffffffffff021916908373ffffffffffffffffffffffffffffffffffffffff16021790555060c08201518160060190816113759190612698565b50505060046040518060e001604052808481526020016040518060400160405280600781526020017f526570617373650000000000000000000000000000000000000000000000000081525081526020018381526020016040518060400160405280600181526020017f440000000000000000000000000000000000000000000000000000000000000081525081526020013073ffffffffffffffffffffffffffffffffffffffff1681526020018673ffffffffffffffffffffffffffffffffffffffff1681526020016040518060400160405280600281526020017f522400000000000000000000000000000000000000000000000000000000000081525081525090806001815401808255809150506001900390600052602060002090600702016000909190919091506000820151816000015560208201518160010190816114c09190612698565b506040820151816002015560608201518160030190816114e09190612698565b5060808201518160040160006101000a81548173ffffffffffffffffffffffffffffffffffffffff021916908373ffffffffffffffffffffffffffffffffffffffff16021790555060a08201518160050160006101000a81548173ffffffffffffffffffffffffffffffffffffffff021916908373ffffffffffffffffffffffffffffffffffffffff16021790555060c08201518160060190816115849190612698565b5050507fbc3043bd3fa820c57237316328b804d3108aafc9dd42f1a8bc719d031d1d28fc848383866040516115bc9493929190612978565b60405180910390a150505050565b6000803373ffffffffffffffffffffffffffffffffffffffff1673ffffffffffffffffffffffffffffffffffffffff16815260200190815260200160002060009054906101000a900460ff16611655576040517f08c379a000000000000000000000000000000000000000000000000000000000815260040161164c906120a2565b60405180910390fd5b600160009054906101000a900473ffffffffffffffffffffffffffffffffffffffff1673ffffffffffffffffffffffffffffffffffffffff166340c10f1930836040518363ffffffff1660e01b81526004016116b29291906123ed565b600060405180830381600087803b1580156116cc57600080fd5b505af11580156116e0573d6000803e3d6000fd5b5050505060046040518060e001604052808481526020016040518060400160405280600981526020017f446570c3b37369746f000000000000000000000000000000000000000000000081525081526020018381526020016040518060400160405280600181526020017f43000000000000000000000000000000000000000000000000000000000000008152508152602001600073ffffffffffffffffffffffffffffffffffffffff1681526020013073ffffffffffffffffffffffffffffffffffffffff1681526020016040518060400160405280600281526020017f5224000000000000000000000000000000000000000000000000000000000000815250815250908060018154018082558091505060019003906000526020600020906007020160009091909190915060008201518160000155602082015181600101908161182d9190612698565b5060408201518160020155606082015181600301908161184d9190612698565b5060808201518160040160006101000a81548173ffffffffffffffffffffffffffffffffffffffff021916908373ffffffffffffffffffffffffffffffffffffffff16021790555060a08201518160050160006101000a81548173ffffffffffffffffffffffffffffffffffffffff021916908373ffffffffffffffffffffffffffffffffffffffff16021790555060c08201518160060190816118f19190612698565b50505060046040518060e001604052808481526020016040518060400160405280600a81526020017f4d696e7420546f6b656e0000000000000000000000000000000000000000000081525081526020018381526020016040518060400160405280600181526020017f43000000000000000000000000000000000000000000000000000000000000008152508152602001600073ffffffffffffffffffffffffffffffffffffffff1681526020013073ffffffffffffffffffffffffffffffffffffffff168152602001600160009054906101000a900473ffffffffffffffffffffffffffffffffffffffff1673ffffffffffffffffffffffffffffffffffffffff166395d89b416040518163ffffffff1660e01b8152600401600060405180830381865afa158015611a29573d6000803e3d6000fd5b505050506040513d6000823e3d601f19601f82011682018060405250810190611a529190612443565b8152509080600181540180825580915050600190039060005260206000209060070201600090919091909150600082015181600001556020820151816001019081611a9d9190612698565b50604082015181600201556060820151816003019081611abd9190612698565b5060808201518160040160006101000a81548173ffffffffffffffffffffffffffffffffffffffff021916908373ffffffffffffffffffffffffffffffffffffffff16021790555060a08201518160050160006101000a81548173ffffffffffffffffffffffffffffffffffffffff021916908373ffffffffffffffffffffffffffffffffffffffff16021790555060c0820151816006019081611b619190612698565b5050507f41a2ab1ce036886b25a16e7e14b07ca8dba8ca5e38d137ce6764a0036201d832338383604051611b97939291906129bd565b60405180910390a15050565b6000604051905090565b600080fd5b600080fd5b600073ffffffffffffffffffffffffffffffffffffffff82169050919050565b6000611be282611bb7565b9050919050565b611bf281611bd7565b8114611bfd57600080fd5b50565b600081359050611c0f81611be9565b92915050565b6000819050919050565b611c2881611c15565b8114611c3357600080fd5b50565b600081359050611c4581611c1f565b92915050565b600080600060608486031215611c6457611c63611bad565b5b6000611c7286828701611c00565b9350506020611c8386828701611c36565b9250506040611c9486828701611c36565b9150509250925092565b60008115159050919050565b611cb381611c9e565b8114611cbe57600080fd5b50565b600081359050611cd081611caa565b92915050565b60008060408385031215611ced57611cec611bad565b5b6000611cfb85828601611c00565b9250506020611d0c85828601611cc1565b9150509250929050565b600081519050919050565b600082825260208201905092915050565b6000819050602082019050919050565b611d4b81611c15565b82525050565b600081519050919050565b600082825260208201905092915050565b60005b83811015611d8b578082015181840152602081019050611d70565b60008484015250505050565b6000601f19601f8301169050919050565b6000611db382611d51565b611dbd8185611d5c565b9350611dcd818560208601611d6d565b611dd681611d97565b840191505092915050565b611dea81611bd7565b82525050565b600060e083016000830151611e086000860182611d42565b5060208301518482036020860152611e208282611da8565b9150506040830151611e356040860182611d42565b5060608301518482036060860152611e4d8282611da8565b9150506080830151611e626080860182611de1565b5060a0830151611e7560a0860182611de1565b5060c083015184820360c0860152611e8d8282611da8565b9150508091505092915050565b6000611ea68383611df0565b905092915050565b6000602082019050919050565b6000611ec682611d16565b611ed08185611d21565b935083602082028501611ee285611d32565b8060005b85811015611f1e5784840389528151611eff8582611e9a565b9450611f0a83611eae565b925060208a01995050600181019050611ee6565b50829750879550505050505092915050565b60006020820190508181036000830152611f4a8184611ebb565b905092915050565b60008060008060808587031215611f6c57611f6b611bad565b5b6000611f7a87828801611c00565b9450506020611f8b87828801611c36565b9350506040611f9c87828801611c36565b9250506060611fad87828801611c36565b91505092959194509250565b60008060408385031215611fd057611fcf611bad565b5b6000611fde85828601611c36565b9250506020611fef85828601611c36565b9150509250929050565b600082825260208201905092915050565b7f536f6d656e7465206f7320726573706f73c3a1766569732070656c6f20636f6e60008201527f747261746f20646120436f6e7461204c617374726f20706f64656d207265616c60208201527f697a61722065737361206f70657261c3a7c3a36f2e0000000000000000000000604082015250565b600061208c605583611ff9565b91506120978261200a565b606082019050919050565b600060208201905081810360008301526120bb8161207f565b9050919050565b6120cb81611bd7565b82525050565b60006020820190506120e660008301846120c2565b92915050565b600080fd5b7f4e487b7100000000000000000000000000000000000000000000000000000000600052604160045260246000fd5b61212982611d97565b810181811067ffffffffffffffff82111715612148576121476120f1565b5b80604052505050565b600061215b611ba3565b90506121678282612120565b919050565b600080fd5b60008151905061218081611c1f565b92915050565b60008151905061219581611be9565b92915050565b600080fd5b600080fd5b600067ffffffffffffffff8211156121c0576121bf6120f1565b5b6121c982611d97565b9050602081019050919050565b60006121e96121e4846121a5565b612151565b905082815260208101848484011115612205576122046121a0565b5b612210848285611d6d565b509392505050565b600082601f83011261222d5761222c61219b565b5b815161223d8482602086016121d6565b91505092915050565b60008151905061225581611caa565b92915050565b600060a08284031215612271576122706120ec565b5b61227b60a0612151565b9050600061228b84828501612171565b600083015250602061229f84828501612186565b602083015250604082015167ffffffffffffffff8111156122c3576122c261216c565b5b6122cf84828501612218565b60408301525060606122e384828501612186565b60608301525060806122f784828501612246565b60808301525092915050565b60006020828403121561231957612318611bad565b5b600082015167ffffffffffffffff81111561233757612336611bb2565b5b6123438482850161225b565b91505092915050565b7f4f20656e64657265c3a76f20696e666f726d61646f206465766520736572206f60008201527f20646520756d6120736563726574617269612e00000000000000000000000000602082015250565b60006123a8603383611ff9565b91506123b38261234c565b604082019050919050565b600060208201905081810360008301526123d78161239b565b9050919050565b6123e781611c15565b82525050565b600060408201905061240260008301856120c2565b61240f60208301846123de565b9392505050565b60006020828403121561242c5761242b611bad565b5b600061243a84828501612246565b91505092915050565b60006020828403121561245957612458611bad565b5b600082015167ffffffffffffffff81111561247757612476611bb2565b5b61248384828501612218565b91505092915050565b7f4e487b7100000000000000000000000000000000000000000000000000000000600052602260045260246000fd5b600060028204905060018216806124d357607f821691505b6020821081036124e6576124e561248c565b5b50919050565b60008190508160005260206000209050919050565b60006020601f8301049050919050565b600082821b905092915050565b60006008830261254e7fffffffffffffffffffffffffffffffffffffffffffffffffffffffffffffffff82612511565b6125588683612511565b95508019841693508086168417925050509392505050565b6000819050919050565b600061259561259061258b84611c15565b612570565b611c15565b9050919050565b6000819050919050565b6125af8361257a565b6125c36125bb8261259c565b84845461251e565b825550505050565b600090565b6125d86125cb565b6125e38184846125a6565b505050565b5b81811015612607576125fc6000826125d0565b6001810190506125e9565b5050565b601f82111561264c5761261d816124ec565b61262684612501565b81016020851015612635578190505b61264961264185612501565b8301826125e8565b50505b505050565b600082821c905092915050565b600061266f60001984600802612651565b1980831691505092915050565b6000612688838361265e565b9150826002028217905092915050565b6126a182611d51565b67ffffffffffffffff8111156126ba576126b96120f1565b5b6126c482546124bb565b6126cf82828561260b565b600060209050601f83116001811461270257600084156126f0578287015190505b6126fa858261267c565b865550612762565b601f198416612710866124ec565b60005b8281101561273857848901518255600182019150602085019450602081019050612713565b868310156127555784890151612751601f89168261265e565b8355505b6001600288020188555050505b505050505050565b600060e0830160008301516127826000860182611d42565b506020830151848203602086015261279a8282611da8565b91505060408301516127af6040860182611d42565b50606083015184820360608601526127c78282611da8565b91505060808301516127dc6080860182611de1565b5060a08301516127ef60a0860182611de1565b5060c083015184820360c08601526128078282611da8565b9150508091505092915050565b600060408201905061282960008301856120c2565b818103602083015261283b818461276a565b90509392505050565b600060808201905061285960008301876120c2565b61286660208301866120c2565b61287360408301856123de565b61288060608301846123de565b95945050505050565b7f536f6d656e7465206f20636f6e747261746f20646f207061696e656c2064652060008201527f7365727669c3a76f20706f6465207265616c697a61722065737361206f70657260208201527f61c3a7c3a36f2e00000000000000000000000000000000000000000000000000604082015250565b600061290b604783611ff9565b915061291682612889565b606082019050919050565b6000602082019050818103600083015261293a816128fe565b9050919050565b600060608201905061295660008301866120c2565b61296360208301856120c2565b61297060408301846123de565b949350505050565b600060808201905061298d60008301876120c2565b61299a60208301866123de565b6129a760408301856123de565b6129b460608301846123de565b95945050505050565b60006060820190506129d260008301866120c2565b6129df60208301856123de565b6129ec60408301846123de565b94935050505056fea264697066735822122099d7c0365b6bbacc9a0dcb4a79ddaaad9f3ca418ba366828c853f34b7f591c4c64736f6c63430008130033",
  "immutableReferences": {},
  "source": "// SPDX-License-Identifier: MIT\r\npragma solidity ^0.8.0;\r\n\r\nimport \"./GovToken.sol\";\r\nimport \"./AgenteFederado.sol\";\r\nimport \"./PainelServico.sol\";\r\nimport \"./TiposComuns.sol\";\r\n\r\ncontract ContaLastro {\r\n    //Propriedades\r\n    mapping(address => bool) private _owners;\r\n\r\n    GovToken private _govToken;\r\n    AgenteFederado private _agenteFederado;\r\n    PainelServico private _painelServico;\r\n\r\n    ExtratoInfo[] private _extrato;\r\n\r\n    //Construtores\r\n    constructor(\r\n        GovToken govToken,\r\n        AgenteFederado agenteFederado,\r\n        PainelServico painelServico\r\n    ) {\r\n        _owners[msg.sender] = true;\r\n        _govToken = govToken;\r\n        _agenteFederado = agenteFederado;\r\n        _painelServico = painelServico;\r\n    }\r\n\r\n    //Modificadores\r\n    modifier onlyOwner() {\r\n        require(\r\n            _owners[msg.sender],\r\n            unicode\"Somente os resposveis pelo contrato da Conta Lastro podem realizar essa operao.\"\r\n        );\r\n        _;\r\n    }\r\n\r\n    modifier onlyServicePanel() {\r\n        require(\r\n            msg.sender == address(_painelServico),\r\n            unicode\"Somente o contrato do painel de servio pode realizar essa operao.\"\r\n        );\r\n        _;\r\n    }\r\n\r\n    //Eventos\r\n    event depositoRealizado(address sender, uint256 data, uint256 valor);\r\n    event transferenciaRealizada(\r\n        address sender,\r\n        address enderecoAgenteFederado,\r\n        uint256 data,\r\n        uint256 valor\r\n    );\r\n    event solicitacaoRepasseRealizada(\r\n        address fornecedor,\r\n        uint256 data,\r\n        uint256 valor,\r\n        uint256 idServico\r\n    );\r\n\r\n    //Funes\r\n    function setOwner(address owner, bool isOwner) public onlyOwner {\r\n        _owners[owner] = isOwner;\r\n    }\r\n\r\n    function consultarExtrato() public view returns (ExtratoInfo[] memory) {\r\n        return _extrato;\r\n    }\r\n\r\n    function realizarDeposito(uint256 data, uint256 valor) public onlyOwner {\r\n        _govToken.mint(address(this), valor);\r\n\r\n        _extrato.push(\r\n            ExtratoInfo(\r\n                data,\r\n                unicode\"Depsito\",\r\n                valor,\r\n                \"C\",\r\n                address(0),\r\n                address(this),\r\n                \"R$\"\r\n            )\r\n        );\r\n\r\n        _extrato.push(\r\n            ExtratoInfo(\r\n                data,\r\n                unicode\"Mint Token\",\r\n                valor,\r\n                \"C\",\r\n                address(0),\r\n                address(this),\r\n                _govToken.symbol()\r\n            )\r\n        );\r\n\r\n        emit depositoRealizado(msg.sender, data, valor);\r\n    }\r\n\r\n    function transferirToken(\r\n        address enderecoSecretaria,\r\n        uint256 data,\r\n        uint256 valor\r\n    ) public onlyOwner {\r\n        require(\r\n            _agenteFederado.obterSecretaria(enderecoSecretaria).cadastrado,\r\n            unicode\"O endereo informado deve ser o de uma secretaria.\"\r\n        );\r\n\r\n        _govToken.approve(address(this), valor);\r\n        _govToken.transfer(enderecoSecretaria, valor);\r\n\r\n        _extrato.push(\r\n            ExtratoInfo(\r\n                data,\r\n                unicode\"Transferncia\",\r\n                valor,\r\n                \"D\",\r\n                address(this),\r\n                enderecoSecretaria,\r\n                _govToken.symbol()\r\n            )\r\n        );\r\n\r\n        _agenteFederado.incluirLinhaExtrato(\r\n            enderecoSecretaria,\r\n            ExtratoInfo(\r\n                data,\r\n                unicode\"Depsito\",\r\n                valor,\r\n                \"C\",\r\n                address(this),\r\n                enderecoSecretaria,\r\n                _govToken.symbol()\r\n            )\r\n        );\r\n\r\n        emit transferenciaRealizada(\r\n            msg.sender,\r\n            enderecoSecretaria,\r\n            data,\r\n            valor\r\n        );\r\n    }\r\n\r\n    function solicitarRepasse(\r\n        address enderecoFornecedor,\r\n        uint256 idServico,\r\n        uint256 data,\r\n        uint256 valor\r\n    ) public onlyServicePanel {\r\n        _govToken.transferFrom(address(_painelServico), address(this), valor);\r\n\r\n        _govToken.approve(address(this), valor);\r\n        _govToken.burnFrom(address(this), valor);\r\n\r\n        _extrato.push(\r\n            ExtratoInfo(\r\n                data,\r\n                unicode\"Solicitao Repasse\",\r\n                valor,\r\n                \"C\",\r\n                address(_painelServico),\r\n                address(this),\r\n                _govToken.symbol()\r\n            )\r\n        );\r\n\r\n        _extrato.push(\r\n            ExtratoInfo(\r\n                data,\r\n                unicode\"Queima Token\",\r\n                valor,\r\n                \"D\",\r\n                address(this),\r\n                address(0),\r\n                _govToken.symbol()\r\n            )\r\n        );\r\n\r\n        _extrato.push(\r\n            ExtratoInfo(\r\n                data,\r\n                unicode\"Repasse\",\r\n                valor,\r\n                \"D\",\r\n                address(this),\r\n                enderecoFornecedor,\r\n                \"R$\"\r\n            )\r\n        );\r\n\r\n        emit solicitacaoRepasseRealizada(\r\n            enderecoFornecedor,\r\n            data,\r\n            valor,\r\n            idServico\r\n        );\r\n    }\r\n}\r\n",
  "sourcePath": "/govtoken/Contratos/ContaLastro.sol",
  "compiler": {
    "name": "solc",
    "version": "0.8.19+commit.7dd6d404.Emscripten.clang"
  },
  "schemaVersion": "3.4.8",
  "updatedAt": "2023-03-16T21:24:16.348Z",
  "networkType": "ethereum",
  "devdoc": {
    "kind": "dev",
    "methods": {},
    "version": 1
  },
  "userdoc": {
    "kind": "user",
    "methods": {},
    "version": 1
  }
}