{
  "contractName": "ContaLastro",
  "abi": [
    {
      "inputs": [
        {
          "internalType": "contract GovEducacaoToken",
          "name": "educToken",
          "type": "address"
        },
        {
          "internalType": "contract GovSaudeToken",
          "name": "saudeToken",
          "type": "address"
        }
      ],
      "stateMutability": "nonpayable",
      "type": "constructor"
    },
    {
      "anonymous": false,
      "inputs": [
        {
          "indexed": false,
          "internalType": "address",
          "name": "sender",
          "type": "address"
        },
        {
          "indexed": false,
          "internalType": "uint256",
          "name": "data",
          "type": "uint256"
        },
        {
          "indexed": false,
          "internalType": "uint256",
          "name": "valor",
          "type": "uint256"
        }
      ],
      "name": "depositoEducacaoRealizado",
      "type": "event"
    },
    {
      "anonymous": false,
      "inputs": [
        {
          "indexed": false,
          "internalType": "address",
          "name": "sender",
          "type": "address"
        },
        {
          "indexed": false,
          "internalType": "uint256",
          "name": "data",
          "type": "uint256"
        },
        {
          "indexed": false,
          "internalType": "uint256",
          "name": "valor",
          "type": "uint256"
        }
      ],
      "name": "depositoSaudeRealizado",
      "type": "event"
    },
    {
      "inputs": [
        {
          "internalType": "uint256",
          "name": "",
          "type": "uint256"
        }
      ],
      "name": "_extratoEducacao",
      "outputs": [
        {
          "internalType": "uint256",
          "name": "data",
          "type": "uint256"
        },
        {
          "internalType": "string",
          "name": "descricao",
          "type": "string"
        },
        {
          "internalType": "uint256",
          "name": "valor",
          "type": "uint256"
        },
        {
          "internalType": "string",
          "name": "creditoDebito",
          "type": "string"
        },
        {
          "internalType": "address",
          "name": "origem",
          "type": "address"
        }
      ],
      "stateMutability": "view",
      "type": "function",
      "constant": true
    },
    {
      "inputs": [
        {
          "internalType": "uint256",
          "name": "",
          "type": "uint256"
        }
      ],
      "name": "_extratoSaude",
      "outputs": [
        {
          "internalType": "uint256",
          "name": "data",
          "type": "uint256"
        },
        {
          "internalType": "string",
          "name": "descricao",
          "type": "string"
        },
        {
          "internalType": "uint256",
          "name": "valor",
          "type": "uint256"
        },
        {
          "internalType": "string",
          "name": "creditoDebito",
          "type": "string"
        },
        {
          "internalType": "address",
          "name": "origem",
          "type": "address"
        }
      ],
      "stateMutability": "view",
      "type": "function",
      "constant": true
    },
    {
      "inputs": [],
      "name": "extratoEducacaoCount",
      "outputs": [
        {
          "internalType": "uint256",
          "name": "",
          "type": "uint256"
        }
      ],
      "stateMutability": "view",
      "type": "function",
      "constant": true
    },
    {
      "inputs": [],
      "name": "extratoSaudeCount",
      "outputs": [
        {
          "internalType": "uint256",
          "name": "",
          "type": "uint256"
        }
      ],
      "stateMutability": "view",
      "type": "function",
      "constant": true
    },
    {
      "inputs": [
        {
          "internalType": "address",
          "name": "owner",
          "type": "address"
        },
        {
          "internalType": "bool",
          "name": "isOwner",
          "type": "bool"
        }
      ],
      "name": "setOwner",
      "outputs": [],
      "stateMutability": "nonpayable",
      "type": "function"
    },
    {
      "inputs": [
        {
          "internalType": "uint256",
          "name": "data",
          "type": "uint256"
        },
        {
          "internalType": "uint256",
          "name": "valor",
          "type": "uint256"
        }
      ],
      "name": "realizarDepositoSaude",
      "outputs": [],
      "stateMutability": "nonpayable",
      "type": "function"
    },
    {
      "inputs": [
        {
          "internalType": "uint256",
          "name": "data",
          "type": "uint256"
        },
        {
          "internalType": "uint256",
          "name": "valor",
          "type": "uint256"
        }
      ],
      "name": "realizarDepositoEducacao",
      "outputs": [],
      "stateMutability": "nonpayable",
      "type": "function"
    }
  ],
  "bytecode": "0x6080604052600060035560006005553480156200001b57600080fd5b50604051620012d2380380620012d28339818101604052810190620000419190620001e5565b60016000803373ffffffffffffffffffffffffffffffffffffffff1673ffffffffffffffffffffffffffffffffffffffff16815260200190815260200160002060006101000a81548160ff02191690831515021790555081600160006101000a81548173ffffffffffffffffffffffffffffffffffffffff021916908373ffffffffffffffffffffffffffffffffffffffff16021790555080600260006101000a81548173ffffffffffffffffffffffffffffffffffffffff021916908373ffffffffffffffffffffffffffffffffffffffff16021790555050506200022c565b600080fd5b600073ffffffffffffffffffffffffffffffffffffffff82169050919050565b6000620001548262000127565b9050919050565b6000620001688262000147565b9050919050565b6200017a816200015b565b81146200018657600080fd5b50565b6000815190506200019a816200016f565b92915050565b6000620001ad8262000147565b9050919050565b620001bf81620001a0565b8114620001cb57600080fd5b50565b600081519050620001df81620001b4565b92915050565b60008060408385031215620001ff57620001fe62000122565b5b60006200020f8582860162000189565b92505060206200022285828601620001ce565b9150509250929050565b611096806200023c6000396000f3fe608060405234801561001057600080fd5b506004361061007c5760003560e01c8063516c731c1161005b578063516c731c1461010757806393f9238114610123578063bd1322a214610141578063d68b4c651461015d5761007c565b80626bdbb8146100815780631ede9453146100b55780631efc910f146100e9575b600080fd5b61009b60048036038101906100969190610a86565b610179565b6040516100ac959493929190610b93565b60405180910390f35b6100cf60048036038101906100ca9190610a86565b6102ef565b6040516100e0959493929190610b93565b60405180910390f35b6100f1610465565b6040516100fe9190610bf4565b60405180910390f35b610121600480360381019061011c9190610c73565b61046b565b005b61012b610521565b6040516101389190610bf4565b60405180910390f35b61015b60048036038101906101569190610cb3565b610527565b005b61017760048036038101906101729190610cb3565b6107b9565b005b6004818154811061018957600080fd5b90600052602060002090600502016000915090508060000154908060010180546101b290610d22565b80601f01602080910402602001604051908101604052809291908181526020018280546101de90610d22565b801561022b5780601f106102005761010080835404028352916020019161022b565b820191906000526020600020905b81548152906001019060200180831161020e57829003601f168201915b50505050509080600201549080600301805461024690610d22565b80601f016020809104026020016040519081016040528092919081815260200182805461027290610d22565b80156102bf5780601f10610294576101008083540402835291602001916102bf565b820191906000526020600020905b8154815290600101906020018083116102a257829003601f168201915b5050505050908060040160009054906101000a900473ffffffffffffffffffffffffffffffffffffffff16905085565b600681815481106102ff57600080fd5b906000526020600020906005020160009150905080600001549080600101805461032890610d22565b80601f016020809104026020016040519081016040528092919081815260200182805461035490610d22565b80156103a15780601f10610376576101008083540402835291602001916103a1565b820191906000526020600020905b81548152906001019060200180831161038457829003601f168201915b5050505050908060020154908060030180546103bc90610d22565b80601f01602080910402602001604051908101604052809291908181526020018280546103e890610d22565b80156104355780601f1061040a57610100808354040283529160200191610435565b820191906000526020600020905b81548152906001019060200180831161041857829003601f168201915b5050505050908060040160009054906101000a900473ffffffffffffffffffffffffffffffffffffffff16905085565b60035481565b600115156000803373ffffffffffffffffffffffffffffffffffffffff1673ffffffffffffffffffffffffffffffffffffffff16815260200190815260200160002060009054906101000a900460ff161515146104c757600080fd5b806000808473ffffffffffffffffffffffffffffffffffffffff1673ffffffffffffffffffffffffffffffffffffffff16815260200190815260200160002060006101000a81548160ff0219169083151502179055505050565b60055481565b600115156000803373ffffffffffffffffffffffffffffffffffffffff1673ffffffffffffffffffffffffffffffffffffffff16815260200190815260200160002060009054906101000a900460ff1615151461058357600080fd5b60066040518060a001604052808481526020016040518060400160405280600981526020017f446570c3b37369746f000000000000000000000000000000000000000000000081525081526020018381526020016040518060400160405280600181526020017f43000000000000000000000000000000000000000000000000000000000000008152508152602001600073ffffffffffffffffffffffffffffffffffffffff1681525090806001815401808255809150506001900390600052602060002090600502016000909190919091506000820151816000015560208201518160010190816106759190610f2e565b506040820151816002015560608201518160030190816106959190610f2e565b5060808201518160040160006101000a81548173ffffffffffffffffffffffffffffffffffffffff021916908373ffffffffffffffffffffffffffffffffffffffff1602179055505050600680549050600581905550600160009054906101000a900473ffffffffffffffffffffffffffffffffffffffff1673ffffffffffffffffffffffffffffffffffffffff166340c10f1930836040518363ffffffff1660e01b8152600401610748929190611000565b600060405180830381600087803b15801561076257600080fd5b505af1158015610776573d6000803e3d6000fd5b505050507ffa0fb82216d8af718b1157e71e0094db1bb5e75ba8033c21ef400b537ba7f88b3383836040516107ad93929190611029565b60405180910390a15050565b600115156000803373ffffffffffffffffffffffffffffffffffffffff1673ffffffffffffffffffffffffffffffffffffffff16815260200190815260200160002060009054906101000a900460ff1615151461081557600080fd5b60046040518060a001604052808481526020016040518060400160405280600981526020017f446570c3b37369746f000000000000000000000000000000000000000000000081525081526020018381526020016040518060400160405280600181526020017f43000000000000000000000000000000000000000000000000000000000000008152508152602001600073ffffffffffffffffffffffffffffffffffffffff1681525090806001815401808255809150506001900390600052602060002090600502016000909190919091506000820151816000015560208201518160010190816109079190610f2e565b506040820151816002015560608201518160030190816109279190610f2e565b5060808201518160040160006101000a81548173ffffffffffffffffffffffffffffffffffffffff021916908373ffffffffffffffffffffffffffffffffffffffff1602179055505050600480549050600381905550600260009054906101000a900473ffffffffffffffffffffffffffffffffffffffff1673ffffffffffffffffffffffffffffffffffffffff166340c10f1930836040518363ffffffff1660e01b81526004016109da929190611000565b600060405180830381600087803b1580156109f457600080fd5b505af1158015610a08573d6000803e3d6000fd5b505050507fe6bda46dddde5345da00a6bcdfc87aab73fd1c6cb47104cefd679ccaf69c30b8338383604051610a3f93929190611029565b60405180910390a15050565b600080fd5b6000819050919050565b610a6381610a50565b8114610a6e57600080fd5b50565b600081359050610a8081610a5a565b92915050565b600060208284031215610a9c57610a9b610a4b565b5b6000610aaa84828501610a71565b91505092915050565b610abc81610a50565b82525050565b600081519050919050565b600082825260208201905092915050565b60005b83811015610afc578082015181840152602081019050610ae1565b60008484015250505050565b6000601f19601f8301169050919050565b6000610b2482610ac2565b610b2e8185610acd565b9350610b3e818560208601610ade565b610b4781610b08565b840191505092915050565b600073ffffffffffffffffffffffffffffffffffffffff82169050919050565b6000610b7d82610b52565b9050919050565b610b8d81610b72565b82525050565b600060a082019050610ba86000830188610ab3565b8181036020830152610bba8187610b19565b9050610bc96040830186610ab3565b8181036060830152610bdb8185610b19565b9050610bea6080830184610b84565b9695505050505050565b6000602082019050610c096000830184610ab3565b92915050565b610c1881610b72565b8114610c2357600080fd5b50565b600081359050610c3581610c0f565b92915050565b60008115159050919050565b610c5081610c3b565b8114610c5b57600080fd5b50565b600081359050610c6d81610c47565b92915050565b60008060408385031215610c8a57610c89610a4b565b5b6000610c9885828601610c26565b9250506020610ca985828601610c5e565b9150509250929050565b60008060408385031215610cca57610cc9610a4b565b5b6000610cd885828601610a71565b9250506020610ce985828601610a71565b9150509250929050565b7f4e487b7100000000000000000000000000000000000000000000000000000000600052602260045260246000fd5b60006002820490506001821680610d3a57607f821691505b602082108103610d4d57610d4c610cf3565b5b50919050565b7f4e487b7100000000000000000000000000000000000000000000000000000000600052604160045260246000fd5b60008190508160005260206000209050919050565b60006020601f8301049050919050565b600082821b905092915050565b600060088302610de47fffffffffffffffffffffffffffffffffffffffffffffffffffffffffffffffff82610da7565b610dee8683610da7565b95508019841693508086168417925050509392505050565b6000819050919050565b6000610e2b610e26610e2184610a50565b610e06565b610a50565b9050919050565b6000819050919050565b610e4583610e10565b610e59610e5182610e32565b848454610db4565b825550505050565b600090565b610e6e610e61565b610e79818484610e3c565b505050565b5b81811015610e9d57610e92600082610e66565b600181019050610e7f565b5050565b601f821115610ee257610eb381610d82565b610ebc84610d97565b81016020851015610ecb578190505b610edf610ed785610d97565b830182610e7e565b50505b505050565b600082821c905092915050565b6000610f0560001984600802610ee7565b1980831691505092915050565b6000610f1e8383610ef4565b9150826002028217905092915050565b610f3782610ac2565b67ffffffffffffffff811115610f5057610f4f610d53565b5b610f5a8254610d22565b610f65828285610ea1565b600060209050601f831160018114610f985760008415610f86578287015190505b610f908582610f12565b865550610ff8565b601f198416610fa686610d82565b60005b82811015610fce57848901518255600182019150602085019450602081019050610fa9565b86831015610feb5784890151610fe7601f891682610ef4565b8355505b6001600288020188555050505b505050505050565b60006040820190506110156000830185610b84565b6110226020830184610ab3565b9392505050565b600060608201905061103e6000830186610b84565b61104b6020830185610ab3565b6110586040830184610ab3565b94935050505056fea2646970667358221220b617ef7bd9b3729c6142d081baf2d3a7386c5648b8664ece659f0864e548783264736f6c63430008130033",
  "immutableReferences": {},
  "source": "// SPDX-License-Identifier: MIT\r\npragma solidity ^0.8.0;\r\n\r\nimport \"./GovEducacaoToken.sol\";\r\nimport \"./GovSaudeToken.sol\";\r\n\r\ncontract ContaLastro {\r\n    mapping(address => bool) private _owner;\r\n    GovEducacaoToken private _educToken;\r\n    GovSaudeToken private _saudeToken;\r\n\r\n    uint256 public extratoSaudeCount = 0;\r\n    Extrato[] public _extratoSaude;\r\n\r\n    uint256 public extratoEducacaoCount = 0;\r\n    Extrato[] public _extratoEducacao;\r\n\r\n    struct Extrato {\r\n        uint256 data;\r\n        string descricao;\r\n        uint256 valor;\r\n        string creditoDebito;\r\n        address origem;\r\n    }\r\n\r\n    constructor(GovEducacaoToken educToken, GovSaudeToken saudeToken) {\r\n        _owner[msg.sender] = true;\r\n        _educToken = educToken;\r\n        _saudeToken = saudeToken;\r\n    }\r\n\r\n    modifier onlyOwner() {\r\n        require(_owner[msg.sender] == true);\r\n        _;\r\n    }\r\n\r\n    function setOwner(address owner, bool isOwner) public onlyOwner {\r\n        _owner[owner] = isOwner;\r\n    }\r\n\r\n    event depositoSaudeRealizado(address sender, uint256 data, uint256 valor);\r\n    event depositoEducacaoRealizado(\r\n        address sender,\r\n        uint256 data,\r\n        uint256 valor\r\n    );\r\n\r\n    function realizarDepositoSaude(uint256 data, uint256 valor)\r\n        public\r\n        onlyOwner\r\n    {\r\n        _extratoSaude.push(\r\n            Extrato(data, unicode\"Depsito\", valor, \"C\", address(0))\r\n        );\r\n        extratoSaudeCount = _extratoSaude.length;\r\n\r\n        _saudeToken.mint(address(this), valor);\r\n\r\n        emit depositoSaudeRealizado(msg.sender, data, valor);\r\n    }\r\n\r\n    function realizarDepositoEducacao(uint256 data, uint256 valor)\r\n        public\r\n        onlyOwner\r\n    {\r\n        _extratoEducacao.push(\r\n            Extrato(data, unicode\"Depsito\", valor, \"C\", address(0))\r\n        );\r\n        extratoEducacaoCount = _extratoEducacao.length;\r\n\r\n        _educToken.mint(address(this), valor);\r\n\r\n        emit depositoEducacaoRealizado(msg.sender, data, valor);\r\n    }\r\n}\r\n",
  "sourcePath": "/govtoken/Contratos/ContaLastro.sol",
  "compiler": {
    "name": "solc",
    "version": "0.8.19+commit.7dd6d404.Emscripten.clang"
  },
  "schemaVersion": "3.4.8",
  "updatedAt": "2023-03-03T18:40:03.081Z",
  "networkType": "ethereum",
  "devdoc": {
    "kind": "dev",
    "methods": {},
    "version": 1
  },
  "userdoc": {
    "kind": "user",
    "methods": {},
    "version": 1
  }
}