{
  "contractName": "ContaLastro",
  "abi": [
    {
      "inputs": [
        {
          "internalType": "contract GovEducacaoToken",
          "name": "educToken",
          "type": "address"
        },
        {
          "internalType": "contract GovSaudeToken",
          "name": "saudeToken",
          "type": "address"
        }
      ],
      "stateMutability": "nonpayable",
      "type": "constructor"
    },
    {
      "inputs": [
        {
          "internalType": "uint256",
          "name": "",
          "type": "uint256"
        }
      ],
      "name": "_extratoEducacao",
      "outputs": [
        {
          "internalType": "uint256",
          "name": "data",
          "type": "uint256"
        },
        {
          "internalType": "string",
          "name": "descricao",
          "type": "string"
        },
        {
          "internalType": "uint256",
          "name": "valor",
          "type": "uint256"
        },
        {
          "internalType": "string",
          "name": "creditoDebito",
          "type": "string"
        },
        {
          "internalType": "address",
          "name": "origem",
          "type": "address"
        }
      ],
      "stateMutability": "view",
      "type": "function",
      "constant": true
    },
    {
      "inputs": [
        {
          "internalType": "uint256",
          "name": "",
          "type": "uint256"
        }
      ],
      "name": "_extratoSaude",
      "outputs": [
        {
          "internalType": "uint256",
          "name": "data",
          "type": "uint256"
        },
        {
          "internalType": "string",
          "name": "descricao",
          "type": "string"
        },
        {
          "internalType": "uint256",
          "name": "valor",
          "type": "uint256"
        },
        {
          "internalType": "string",
          "name": "creditoDebito",
          "type": "string"
        },
        {
          "internalType": "address",
          "name": "origem",
          "type": "address"
        }
      ],
      "stateMutability": "view",
      "type": "function",
      "constant": true
    },
    {
      "inputs": [],
      "name": "_owner",
      "outputs": [
        {
          "internalType": "address",
          "name": "",
          "type": "address"
        }
      ],
      "stateMutability": "view",
      "type": "function",
      "constant": true
    },
    {
      "inputs": [],
      "name": "extratoEducacaoCount",
      "outputs": [
        {
          "internalType": "uint256",
          "name": "",
          "type": "uint256"
        }
      ],
      "stateMutability": "view",
      "type": "function",
      "constant": true
    },
    {
      "inputs": [],
      "name": "extratoSaudeCount",
      "outputs": [
        {
          "internalType": "uint256",
          "name": "",
          "type": "uint256"
        }
      ],
      "stateMutability": "view",
      "type": "function",
      "constant": true
    },
    {
      "inputs": [
        {
          "internalType": "uint256",
          "name": "data",
          "type": "uint256"
        },
        {
          "internalType": "uint256",
          "name": "valor",
          "type": "uint256"
        }
      ],
      "name": "realizarDepositoSaude",
      "outputs": [],
      "stateMutability": "nonpayable",
      "type": "function"
    },
    {
      "inputs": [
        {
          "internalType": "uint256",
          "name": "data",
          "type": "uint256"
        },
        {
          "internalType": "uint256",
          "name": "valor",
          "type": "uint256"
        }
      ],
      "name": "realizarDepositoEducacao",
      "outputs": [],
      "stateMutability": "nonpayable",
      "type": "function"
    }
  ],
  "bytecode": "0x6080604052600060035560006005553480156200001b57600080fd5b50604051620010ed380380620010ed8339818101604052810190620000419190620001ce565b336000806101000a81548173ffffffffffffffffffffffffffffffffffffffff021916908373ffffffffffffffffffffffffffffffffffffffff16021790555081600160006101000a81548173ffffffffffffffffffffffffffffffffffffffff021916908373ffffffffffffffffffffffffffffffffffffffff16021790555080600260006101000a81548173ffffffffffffffffffffffffffffffffffffffff021916908373ffffffffffffffffffffffffffffffffffffffff160217905550505062000215565b600080fd5b600073ffffffffffffffffffffffffffffffffffffffff82169050919050565b60006200013d8262000110565b9050919050565b6000620001518262000130565b9050919050565b620001638162000144565b81146200016f57600080fd5b50565b600081519050620001838162000158565b92915050565b6000620001968262000130565b9050919050565b620001a88162000189565b8114620001b457600080fd5b50565b600081519050620001c8816200019d565b92915050565b60008060408385031215620001e857620001e76200010b565b5b6000620001f88582860162000172565b92505060206200020b85828601620001b7565b9150509250929050565b610ec880620002256000396000f3fe608060405234801561001057600080fd5b506004361061007c5760003560e01c806393f923811161005b57806393f9238114610107578063b2bdfa7b14610125578063bd1322a214610143578063d68b4c651461015f5761007c565b80626bdbb8146100815780631ede9453146100b55780631efc910f146100e9575b600080fd5b61009b60048036038101906100969190610978565b61017b565b6040516100ac959493929190610a85565b60405180910390f35b6100cf60048036038101906100ca9190610978565b6102f1565b6040516100e0959493929190610a85565b60405180910390f35b6100f1610467565b6040516100fe9190610ae6565b60405180910390f35b61010f61046d565b60405161011c9190610ae6565b60405180910390f35b61012d610473565b60405161013a9190610b01565b60405180910390f35b61015d60048036038101906101589190610b1c565b610497565b005b61017960048036038101906101749190610b1c565b6106ea565b005b6004818154811061018b57600080fd5b90600052602060002090600502016000915090508060000154908060010180546101b490610b8b565b80601f01602080910402602001604051908101604052809291908181526020018280546101e090610b8b565b801561022d5780601f106102025761010080835404028352916020019161022d565b820191906000526020600020905b81548152906001019060200180831161021057829003601f168201915b50505050509080600201549080600301805461024890610b8b565b80601f016020809104026020016040519081016040528092919081815260200182805461027490610b8b565b80156102c15780601f10610296576101008083540402835291602001916102c1565b820191906000526020600020905b8154815290600101906020018083116102a457829003601f168201915b5050505050908060040160009054906101000a900473ffffffffffffffffffffffffffffffffffffffff16905085565b6006818154811061030157600080fd5b906000526020600020906005020160009150905080600001549080600101805461032a90610b8b565b80601f016020809104026020016040519081016040528092919081815260200182805461035690610b8b565b80156103a35780601f10610378576101008083540402835291602001916103a3565b820191906000526020600020905b81548152906001019060200180831161038657829003601f168201915b5050505050908060020154908060030180546103be90610b8b565b80601f01602080910402602001604051908101604052809291908181526020018280546103ea90610b8b565b80156104375780601f1061040c57610100808354040283529160200191610437565b820191906000526020600020905b81548152906001019060200180831161041a57829003601f168201915b5050505050908060040160009054906101000a900473ffffffffffffffffffffffffffffffffffffffff16905085565b60035481565b60055481565b60008054906101000a900473ffffffffffffffffffffffffffffffffffffffff1681565b60008054906101000a900473ffffffffffffffffffffffffffffffffffffffff1673ffffffffffffffffffffffffffffffffffffffff163373ffffffffffffffffffffffffffffffffffffffff16146104ef57600080fd5b60066040518060a001604052808481526020016040518060400160405280600981526020017f446570c3b37369746f000000000000000000000000000000000000000000000081525081526020018381526020016040518060400160405280600181526020017f43000000000000000000000000000000000000000000000000000000000000008152508152602001600073ffffffffffffffffffffffffffffffffffffffff1681525090806001815401808255809150506001900390600052602060002090600502016000909190919091506000820151816000015560208201518160010190816105e19190610d97565b506040820151816002015560608201518160030190816106019190610d97565b5060808201518160040160006101000a81548173ffffffffffffffffffffffffffffffffffffffff021916908373ffffffffffffffffffffffffffffffffffffffff1602179055505050600160009054906101000a900473ffffffffffffffffffffffffffffffffffffffff1673ffffffffffffffffffffffffffffffffffffffff166340c10f1930836040518363ffffffff1660e01b81526004016106a8929190610e69565b600060405180830381600087803b1580156106c257600080fd5b505af11580156106d6573d6000803e3d6000fd5b505050506006805490506005819055505050565b60008054906101000a900473ffffffffffffffffffffffffffffffffffffffff1673ffffffffffffffffffffffffffffffffffffffff163373ffffffffffffffffffffffffffffffffffffffff161461074257600080fd5b60046040518060a001604052808481526020016040518060400160405280600981526020017f446570c3b37369746f000000000000000000000000000000000000000000000081525081526020018381526020016040518060400160405280600181526020017f43000000000000000000000000000000000000000000000000000000000000008152508152602001600073ffffffffffffffffffffffffffffffffffffffff1681525090806001815401808255809150506001900390600052602060002090600502016000909190919091506000820151816000015560208201518160010190816108349190610d97565b506040820151816002015560608201518160030190816108549190610d97565b5060808201518160040160006101000a81548173ffffffffffffffffffffffffffffffffffffffff021916908373ffffffffffffffffffffffffffffffffffffffff1602179055505050600260009054906101000a900473ffffffffffffffffffffffffffffffffffffffff1673ffffffffffffffffffffffffffffffffffffffff166340c10f1930836040518363ffffffff1660e01b81526004016108fb929190610e69565b600060405180830381600087803b15801561091557600080fd5b505af1158015610929573d6000803e3d6000fd5b505050506004805490506003819055505050565b600080fd5b6000819050919050565b61095581610942565b811461096057600080fd5b50565b6000813590506109728161094c565b92915050565b60006020828403121561098e5761098d61093d565b5b600061099c84828501610963565b91505092915050565b6109ae81610942565b82525050565b600081519050919050565b600082825260208201905092915050565b60005b838110156109ee5780820151818401526020810190506109d3565b60008484015250505050565b6000601f19601f8301169050919050565b6000610a16826109b4565b610a2081856109bf565b9350610a308185602086016109d0565b610a39816109fa565b840191505092915050565b600073ffffffffffffffffffffffffffffffffffffffff82169050919050565b6000610a6f82610a44565b9050919050565b610a7f81610a64565b82525050565b600060a082019050610a9a60008301886109a5565b8181036020830152610aac8187610a0b565b9050610abb60408301866109a5565b8181036060830152610acd8185610a0b565b9050610adc6080830184610a76565b9695505050505050565b6000602082019050610afb60008301846109a5565b92915050565b6000602082019050610b166000830184610a76565b92915050565b60008060408385031215610b3357610b3261093d565b5b6000610b4185828601610963565b9250506020610b5285828601610963565b9150509250929050565b7f4e487b7100000000000000000000000000000000000000000000000000000000600052602260045260246000fd5b60006002820490506001821680610ba357607f821691505b602082108103610bb657610bb5610b5c565b5b50919050565b7f4e487b7100000000000000000000000000000000000000000000000000000000600052604160045260246000fd5b60008190508160005260206000209050919050565b60006020601f8301049050919050565b600082821b905092915050565b600060088302610c4d7fffffffffffffffffffffffffffffffffffffffffffffffffffffffffffffffff82610c10565b610c578683610c10565b95508019841693508086168417925050509392505050565b6000819050919050565b6000610c94610c8f610c8a84610942565b610c6f565b610942565b9050919050565b6000819050919050565b610cae83610c79565b610cc2610cba82610c9b565b848454610c1d565b825550505050565b600090565b610cd7610cca565b610ce2818484610ca5565b505050565b5b81811015610d0657610cfb600082610ccf565b600181019050610ce8565b5050565b601f821115610d4b57610d1c81610beb565b610d2584610c00565b81016020851015610d34578190505b610d48610d4085610c00565b830182610ce7565b50505b505050565b600082821c905092915050565b6000610d6e60001984600802610d50565b1980831691505092915050565b6000610d878383610d5d565b9150826002028217905092915050565b610da0826109b4565b67ffffffffffffffff811115610db957610db8610bbc565b5b610dc38254610b8b565b610dce828285610d0a565b600060209050601f831160018114610e015760008415610def578287015190505b610df98582610d7b565b865550610e61565b601f198416610e0f86610beb565b60005b82811015610e3757848901518255600182019150602085019450602081019050610e12565b86831015610e545784890151610e50601f891682610d5d565b8355505b6001600288020188555050505b505050505050565b6000604082019050610e7e6000830185610a76565b610e8b60208301846109a5565b939250505056fea2646970667358221220282a3bbe02c3ed36d20b06ecb1195211f34d407848555532dd9e470596f9358564736f6c63430008130033",
  "immutableReferences": {},
  "source": "// SPDX-License-Identifier: MIT\r\npragma solidity ^0.8.0;\r\n\r\nimport \"./GovEducacaoToken.sol\";\r\nimport \"./GovSaudeToken.sol\";\r\n\r\ncontract ContaLastro {\r\n    address public _owner;\r\n    GovEducacaoToken private _educToken;\r\n    GovSaudeToken private _saudeToken;\r\n    \r\n    uint public extratoSaudeCount = 0;\r\n    Extrato[] public _extratoSaude;\r\n\r\n    uint public extratoEducacaoCount = 0;\r\n    Extrato[] public _extratoEducacao;\r\n\r\n    struct Extrato {\r\n        uint data;\r\n        string descricao;\r\n        uint valor;\r\n        string creditoDebito;\r\n        address origem;\r\n    }\r\n\r\n    constructor(GovEducacaoToken educToken, GovSaudeToken saudeToken) {\r\n        _owner = msg.sender;\r\n        _educToken = educToken;\r\n        _saudeToken = saudeToken;\r\n    }\r\n\r\n    modifier onlyOwner {\r\n        require(msg.sender == _owner);\r\n        _;\r\n    }\r\n\r\n    function realizarDepositoSaude(uint data, uint valor) public onlyOwner {     \r\n        _extratoSaude.push(Extrato(data, unicode\"Depsito\", valor, \"C\", address(0)));\r\n        _saudeToken.mint(address(this), valor);\r\n        extratoSaudeCount = _extratoSaude.length;\r\n    }\r\n\r\n    function realizarDepositoEducacao(uint data, uint valor) public onlyOwner {     \r\n        _extratoEducacao.push(Extrato(data, unicode\"Depsito\", valor, \"C\", address(0)));\r\n        _educToken.mint(address(this), valor);\r\n        extratoEducacaoCount = _extratoEducacao.length;\r\n    }\r\n}",
  "sourcePath": "/govtoken/Contratos/ContaLastro.sol",
  "compiler": {
    "name": "solc",
    "version": "0.8.19+commit.7dd6d404.Emscripten.clang"
  },
  "schemaVersion": "3.4.8",
  "updatedAt": "2023-03-02T02:29:07.599Z",
  "networkType": "ethereum",
  "devdoc": {
    "kind": "dev",
    "methods": {},
    "version": 1
  },
  "userdoc": {
    "kind": "user",
    "methods": {},
    "version": 1
  }
}