{
  "contractName": "ContaLastro",
  "abi": [
    {
      "inputs": [
        {
          "internalType": "contract GovToken",
          "name": "govToken",
          "type": "address"
        },
        {
          "internalType": "contract AgenteFederado",
          "name": "agenteFederado",
          "type": "address"
        },
        {
          "internalType": "contract PainelServico",
          "name": "painelServico",
          "type": "address"
        }
      ],
      "stateMutability": "nonpayable",
      "type": "constructor"
    },
    {
      "anonymous": false,
      "inputs": [
        {
          "indexed": false,
          "internalType": "address",
          "name": "sender",
          "type": "address"
        },
        {
          "indexed": false,
          "internalType": "uint256",
          "name": "data",
          "type": "uint256"
        },
        {
          "indexed": false,
          "internalType": "uint256",
          "name": "valor",
          "type": "uint256"
        }
      ],
      "name": "depositoRealizado",
      "type": "event"
    },
    {
      "anonymous": false,
      "inputs": [
        {
          "indexed": false,
          "internalType": "address",
          "name": "fornecedor",
          "type": "address"
        },
        {
          "indexed": false,
          "internalType": "uint256",
          "name": "data",
          "type": "uint256"
        },
        {
          "indexed": false,
          "internalType": "uint256",
          "name": "valor",
          "type": "uint256"
        },
        {
          "indexed": false,
          "internalType": "uint256",
          "name": "idServico",
          "type": "uint256"
        }
      ],
      "name": "solicitacaoRepasseRealizada",
      "type": "event"
    },
    {
      "anonymous": false,
      "inputs": [
        {
          "indexed": false,
          "internalType": "address",
          "name": "sender",
          "type": "address"
        },
        {
          "indexed": false,
          "internalType": "address",
          "name": "enderecoAgenteFederado",
          "type": "address"
        },
        {
          "indexed": false,
          "internalType": "uint256",
          "name": "data",
          "type": "uint256"
        },
        {
          "indexed": false,
          "internalType": "uint256",
          "name": "valor",
          "type": "uint256"
        }
      ],
      "name": "transferenciaRealizada",
      "type": "event"
    },
    {
      "inputs": [
        {
          "internalType": "address",
          "name": "owner",
          "type": "address"
        },
        {
          "internalType": "bool",
          "name": "isOwner",
          "type": "bool"
        }
      ],
      "name": "setOwner",
      "outputs": [],
      "stateMutability": "nonpayable",
      "type": "function"
    },
    {
      "inputs": [],
      "name": "consultarExtrato",
      "outputs": [
        {
          "components": [
            {
              "internalType": "uint256",
              "name": "data",
              "type": "uint256"
            },
            {
              "internalType": "string",
              "name": "descricao",
              "type": "string"
            },
            {
              "internalType": "uint256",
              "name": "valor",
              "type": "uint256"
            },
            {
              "internalType": "string",
              "name": "creditoDebito",
              "type": "string"
            },
            {
              "internalType": "address",
              "name": "origem",
              "type": "address"
            },
            {
              "internalType": "address",
              "name": "destino",
              "type": "address"
            },
            {
              "internalType": "string",
              "name": "simboloToken",
              "type": "string"
            }
          ],
          "internalType": "struct ExtratoInfo[]",
          "name": "",
          "type": "tuple[]"
        }
      ],
      "stateMutability": "view",
      "type": "function",
      "constant": true
    },
    {
      "inputs": [
        {
          "internalType": "uint256",
          "name": "valor",
          "type": "uint256"
        }
      ],
      "name": "realizarDeposito",
      "outputs": [],
      "stateMutability": "nonpayable",
      "type": "function"
    },
    {
      "inputs": [
        {
          "internalType": "address",
          "name": "enderecoSecretaria",
          "type": "address"
        },
        {
          "internalType": "uint256",
          "name": "valor",
          "type": "uint256"
        }
      ],
      "name": "transferirToken",
      "outputs": [],
      "stateMutability": "nonpayable",
      "type": "function"
    },
    {
      "inputs": [
        {
          "internalType": "address",
          "name": "enderecoFornecedor",
          "type": "address"
        },
        {
          "internalType": "uint256",
          "name": "idServico",
          "type": "uint256"
        },
        {
          "internalType": "uint256",
          "name": "valor",
          "type": "uint256"
        }
      ],
      "name": "solicitarRepasse",
      "outputs": [],
      "stateMutability": "nonpayable",
      "type": "function"
    }
  ],
  "bytecode": "0x60806040523480156200001157600080fd5b5060405162002d6538038062002d65833981810160405281019062000037919062000262565b60016000803373ffffffffffffffffffffffffffffffffffffffff1673ffffffffffffffffffffffffffffffffffffffff16815260200190815260200160002060006101000a81548160ff02191690831515021790555082600160006101000a81548173ffffffffffffffffffffffffffffffffffffffff021916908373ffffffffffffffffffffffffffffffffffffffff16021790555081600260006101000a81548173ffffffffffffffffffffffffffffffffffffffff021916908373ffffffffffffffffffffffffffffffffffffffff16021790555080600360006101000a81548173ffffffffffffffffffffffffffffffffffffffff021916908373ffffffffffffffffffffffffffffffffffffffff160217905550505050620002be565b600080fd5b600073ffffffffffffffffffffffffffffffffffffffff82169050919050565b60006200018c826200015f565b9050919050565b6000620001a0826200017f565b9050919050565b620001b28162000193565b8114620001be57600080fd5b50565b600081519050620001d281620001a7565b92915050565b6000620001e5826200017f565b9050919050565b620001f781620001d8565b81146200020357600080fd5b50565b6000815190506200021781620001ec565b92915050565b60006200022a826200017f565b9050919050565b6200023c816200021d565b81146200024857600080fd5b50565b6000815190506200025c8162000231565b92915050565b6000806000606084860312156200027e576200027d6200015a565b5b60006200028e86828701620001c1565b9350506020620002a18682870162000206565b9250506040620002b4868287016200024b565b9150509250925092565b612a9780620002ce6000396000f3fe608060405234801561001057600080fd5b50600436106100575760003560e01c80630de586c11461005c5780631439a4a514610078578063516c731c146100945780636da52311146100b05780638e128ed4146100ce575b600080fd5b61007660048036038101906100719190611c81565b6100ea565b005b610092600480360381019061008d9190611cd4565b610ad4565b005b6100ae60048036038101906100a99190611d4c565b611234565b005b6100b8611319565b6040516100c59190611fa6565b60405180910390f35b6100e860048036038101906100e39190611fc8565b6115ee565b005b600360009054906101000a900473ffffffffffffffffffffffffffffffffffffffff1673ffffffffffffffffffffffffffffffffffffffff163373ffffffffffffffffffffffffffffffffffffffff161461017a576040517f08c379a00000000000000000000000000000000000000000000000000000000081526004016101719061209e565b60405180910390fd5b60006103e84261018a91906120ed565b9050600160009054906101000a900473ffffffffffffffffffffffffffffffffffffffff1673ffffffffffffffffffffffffffffffffffffffff166323b872dd600360009054906101000a900473ffffffffffffffffffffffffffffffffffffffff1630856040518463ffffffff1660e01b815260040161020d9392919061214d565b6020604051808303816000875af115801561022c573d6000803e3d6000fd5b505050506040513d601f19601f820116820180604052508101906102509190612199565b50600160009054906101000a900473ffffffffffffffffffffffffffffffffffffffff1673ffffffffffffffffffffffffffffffffffffffff1663095ea7b330846040518363ffffffff1660e01b81526004016102ae9291906121c6565b6020604051808303816000875af11580156102cd573d6000803e3d6000fd5b505050506040513d601f19601f820116820180604052508101906102f19190612199565b50600160009054906101000a900473ffffffffffffffffffffffffffffffffffffffff1673ffffffffffffffffffffffffffffffffffffffff166379cc679030846040518363ffffffff1660e01b815260040161034f9291906121c6565b600060405180830381600087803b15801561036957600080fd5b505af115801561037d573d6000803e3d6000fd5b5050505060046040518060e001604052808381526020016040518060400160405280601581526020017f536f6c6963697461c3a7c3a36f2052657061737365000000000000000000000081525081526020018481526020016040518060400160405280600181526020017f43000000000000000000000000000000000000000000000000000000000000008152508152602001600360009054906101000a900473ffffffffffffffffffffffffffffffffffffffff1673ffffffffffffffffffffffffffffffffffffffff1681526020013073ffffffffffffffffffffffffffffffffffffffff168152602001600160009054906101000a900473ffffffffffffffffffffffffffffffffffffffff1673ffffffffffffffffffffffffffffffffffffffff166395d89b416040518163ffffffff1660e01b8152600401600060405180830381865afa1580156104d7573d6000803e3d6000fd5b505050506040513d6000823e3d601f19601f820116820180604052508101906105009190612315565b815250908060018154018082558091505060019003906000526020600020906007020160009091909190915060008201518160000155602082015181600101908161054b919061256a565b5060408201518160020155606082015181600301908161056b919061256a565b5060808201518160040160006101000a81548173ffffffffffffffffffffffffffffffffffffffff021916908373ffffffffffffffffffffffffffffffffffffffff16021790555060a08201518160050160006101000a81548173ffffffffffffffffffffffffffffffffffffffff021916908373ffffffffffffffffffffffffffffffffffffffff16021790555060c082015181600601908161060f919061256a565b50505060046040518060e001604052808381526020016040518060400160405280600c81526020017f517565696d6120546f6b656e000000000000000000000000000000000000000081525081526020018481526020016040518060400160405280600181526020017f440000000000000000000000000000000000000000000000000000000000000081525081526020013073ffffffffffffffffffffffffffffffffffffffff168152602001600073ffffffffffffffffffffffffffffffffffffffff168152602001600160009054906101000a900473ffffffffffffffffffffffffffffffffffffffff1673ffffffffffffffffffffffffffffffffffffffff166395d89b416040518163ffffffff1660e01b8152600401600060405180830381865afa158015610747573d6000803e3d6000fd5b505050506040513d6000823e3d601f19601f820116820180604052508101906107709190612315565b81525090806001815401808255809150506001900390600052602060002090600702016000909190919091506000820151816000015560208201518160010190816107bb919061256a565b506040820151816002015560608201518160030190816107db919061256a565b5060808201518160040160006101000a81548173ffffffffffffffffffffffffffffffffffffffff021916908373ffffffffffffffffffffffffffffffffffffffff16021790555060a08201518160050160006101000a81548173ffffffffffffffffffffffffffffffffffffffff021916908373ffffffffffffffffffffffffffffffffffffffff16021790555060c082015181600601908161087f919061256a565b50505060046040518060e001604052808381526020016040518060400160405280600781526020017f526570617373650000000000000000000000000000000000000000000000000081525081526020018481526020016040518060400160405280600181526020017f440000000000000000000000000000000000000000000000000000000000000081525081526020013073ffffffffffffffffffffffffffffffffffffffff1681526020018673ffffffffffffffffffffffffffffffffffffffff1681526020016040518060400160405280600281526020017f522400000000000000000000000000000000000000000000000000000000000081525081525090806001815401808255809150506001900390600052602060002090600702016000909190919091506000820151816000015560208201518160010190816109ca919061256a565b506040820151816002015560608201518160030190816109ea919061256a565b5060808201518160040160006101000a81548173ffffffffffffffffffffffffffffffffffffffff021916908373ffffffffffffffffffffffffffffffffffffffff16021790555060a08201518160050160006101000a81548173ffffffffffffffffffffffffffffffffffffffff021916908373ffffffffffffffffffffffffffffffffffffffff16021790555060c0820151816006019081610a8e919061256a565b5050507fbc3043bd3fa820c57237316328b804d3108aafc9dd42f1a8bc719d031d1d28fc84828486604051610ac6949392919061263c565b60405180910390a150505050565b6000803373ffffffffffffffffffffffffffffffffffffffff1673ffffffffffffffffffffffffffffffffffffffff16815260200190815260200160002060009054906101000a900460ff16610b5f576040517f08c379a0000000000000000000000000000000000000000000000000000000008152600401610b5690612719565b60405180910390fd5b600260009054906101000a900473ffffffffffffffffffffffffffffffffffffffff1673ffffffffffffffffffffffffffffffffffffffff166308944790836040518263ffffffff1660e01b8152600401610bba9190612739565b600060405180830381865afa158015610bd7573d6000803e3d6000fd5b505050506040513d6000823e3d601f19601f82011682018060405250810190610c009190612830565b60800151610c43576040517f08c379a0000000000000000000000000000000000000000000000000000000008152600401610c3a906128eb565b60405180910390fd5b60006103e842610c5391906120ed565b9050600160009054906101000a900473ffffffffffffffffffffffffffffffffffffffff1673ffffffffffffffffffffffffffffffffffffffff1663095ea7b330846040518363ffffffff1660e01b8152600401610cb29291906121c6565b6020604051808303816000875af1158015610cd1573d6000803e3d6000fd5b505050506040513d601f19601f82011682018060405250810190610cf59190612199565b50600160009054906101000a900473ffffffffffffffffffffffffffffffffffffffff1673ffffffffffffffffffffffffffffffffffffffff1663a9059cbb84846040518363ffffffff1660e01b8152600401610d539291906121c6565b6020604051808303816000875af1158015610d72573d6000803e3d6000fd5b505050506040513d601f19601f82011682018060405250810190610d969190612199565b5060046040518060e001604052808381526020016040518060400160405280600e81526020017f5472616e73666572c3aa6e63696100000000000000000000000000000000000081525081526020018481526020016040518060400160405280600181526020017f440000000000000000000000000000000000000000000000000000000000000081525081526020013073ffffffffffffffffffffffffffffffffffffffff1681526020018573ffffffffffffffffffffffffffffffffffffffff168152602001600160009054906101000a900473ffffffffffffffffffffffffffffffffffffffff1673ffffffffffffffffffffffffffffffffffffffff166395d89b416040518163ffffffff1660e01b8152600401600060405180830381865afa158015610ecb573d6000803e3d6000fd5b505050506040513d6000823e3d601f19601f82011682018060405250810190610ef49190612315565b8152509080600181540180825580915050600190039060005260206000209060070201600090919091909150600082015181600001556020820151816001019081610f3f919061256a565b50604082015181600201556060820151816003019081610f5f919061256a565b5060808201518160040160006101000a81548173ffffffffffffffffffffffffffffffffffffffff021916908373ffffffffffffffffffffffffffffffffffffffff16021790555060a08201518160050160006101000a81548173ffffffffffffffffffffffffffffffffffffffff021916908373ffffffffffffffffffffffffffffffffffffffff16021790555060c0820151816006019081611003919061256a565b505050600260009054906101000a900473ffffffffffffffffffffffffffffffffffffffff1673ffffffffffffffffffffffffffffffffffffffff166378905bc2846040518060e001604052808581526020016040518060400160405280600981526020017f446570c3b37369746f000000000000000000000000000000000000000000000081525081526020018681526020016040518060400160405280600181526020017f430000000000000000000000000000000000000000000000000000000000000081525081526020013073ffffffffffffffffffffffffffffffffffffffff1681526020018773ffffffffffffffffffffffffffffffffffffffff168152602001600160009054906101000a900473ffffffffffffffffffffffffffffffffffffffff1673ffffffffffffffffffffffffffffffffffffffff166395d89b416040518163ffffffff1660e01b8152600401600060405180830381865afa158015611177573d6000803e3d6000fd5b505050506040513d6000823e3d601f19601f820116820180604052508101906111a09190612315565b8152506040518363ffffffff1660e01b81526004016111c09291906129b5565b600060405180830381600087803b1580156111da57600080fd5b505af11580156111ee573d6000803e3d6000fd5b505050507f84ab5b9da0c9f713409211eddd9c42ca07b48d00daf1845440b271a29aff45183384838560405161122794939291906129e5565b60405180910390a1505050565b6000803373ffffffffffffffffffffffffffffffffffffffff1673ffffffffffffffffffffffffffffffffffffffff16815260200190815260200160002060009054906101000a900460ff166112bf576040517f08c379a00000000000000000000000000000000000000000000000000000000081526004016112b690612719565b60405180910390fd5b806000808473ffffffffffffffffffffffffffffffffffffffff1673ffffffffffffffffffffffffffffffffffffffff16815260200190815260200160002060006101000a81548160ff0219169083151502179055505050565b60606004805480602002602001604051908101604052809291908181526020016000905b828210156115e557838290600052602060002090600702016040518060e00160405290816000820154815260200160018201805461137a9061238d565b80601f01602080910402602001604051908101604052809291908181526020018280546113a69061238d565b80156113f35780601f106113c8576101008083540402835291602001916113f3565b820191906000526020600020905b8154815290600101906020018083116113d657829003601f168201915b50505050508152602001600282015481526020016003820180546114169061238d565b80601f01602080910402602001604051908101604052809291908181526020018280546114429061238d565b801561148f5780601f106114645761010080835404028352916020019161148f565b820191906000526020600020905b81548152906001019060200180831161147257829003601f168201915b505050505081526020016004820160009054906101000a900473ffffffffffffffffffffffffffffffffffffffff1673ffffffffffffffffffffffffffffffffffffffff1673ffffffffffffffffffffffffffffffffffffffff1681526020016005820160009054906101000a900473ffffffffffffffffffffffffffffffffffffffff1673ffffffffffffffffffffffffffffffffffffffff1673ffffffffffffffffffffffffffffffffffffffff1681526020016006820180546115549061238d565b80601f01602080910402602001604051908101604052809291908181526020018280546115809061238d565b80156115cd5780601f106115a2576101008083540402835291602001916115cd565b820191906000526020600020905b8154815290600101906020018083116115b057829003601f168201915b5050505050815250508152602001906001019061133d565b50505050905090565b6000803373ffffffffffffffffffffffffffffffffffffffff1673ffffffffffffffffffffffffffffffffffffffff16815260200190815260200160002060009054906101000a900460ff16611679576040517f08c379a000000000000000000000000000000000000000000000000000000000815260040161167090612719565b60405180910390fd5b60006103e84261168991906120ed565b9050600160009054906101000a900473ffffffffffffffffffffffffffffffffffffffff1673ffffffffffffffffffffffffffffffffffffffff166340c10f1930846040518363ffffffff1660e01b81526004016116e89291906121c6565b600060405180830381600087803b15801561170257600080fd5b505af1158015611716573d6000803e3d6000fd5b5050505060046040518060e001604052808381526020016040518060400160405280600981526020017f446570c3b37369746f000000000000000000000000000000000000000000000081525081526020018481526020016040518060400160405280600181526020017f43000000000000000000000000000000000000000000000000000000000000008152508152602001600073ffffffffffffffffffffffffffffffffffffffff1681526020013073ffffffffffffffffffffffffffffffffffffffff1681526020016040518060400160405280600281526020017f52240000000000000000000000000000000000000000000000000000000000008152508152509080600181540180825580915050600190039060005260206000209060070201600090919091909150600082015181600001556020820151816001019081611863919061256a565b50604082015181600201556060820151816003019081611883919061256a565b5060808201518160040160006101000a81548173ffffffffffffffffffffffffffffffffffffffff021916908373ffffffffffffffffffffffffffffffffffffffff16021790555060a08201518160050160006101000a81548173ffffffffffffffffffffffffffffffffffffffff021916908373ffffffffffffffffffffffffffffffffffffffff16021790555060c0820151816006019081611927919061256a565b50505060046040518060e001604052808381526020016040518060400160405280600a81526020017f4d696e7420546f6b656e0000000000000000000000000000000000000000000081525081526020018481526020016040518060400160405280600181526020017f43000000000000000000000000000000000000000000000000000000000000008152508152602001600073ffffffffffffffffffffffffffffffffffffffff1681526020013073ffffffffffffffffffffffffffffffffffffffff168152602001600160009054906101000a900473ffffffffffffffffffffffffffffffffffffffff1673ffffffffffffffffffffffffffffffffffffffff166395d89b416040518163ffffffff1660e01b8152600401600060405180830381865afa158015611a5f573d6000803e3d6000fd5b505050506040513d6000823e3d601f19601f82011682018060405250810190611a889190612315565b8152509080600181540180825580915050600190039060005260206000209060070201600090919091909150600082015181600001556020820151816001019081611ad3919061256a565b50604082015181600201556060820151816003019081611af3919061256a565b5060808201518160040160006101000a81548173ffffffffffffffffffffffffffffffffffffffff021916908373ffffffffffffffffffffffffffffffffffffffff16021790555060a08201518160050160006101000a81548173ffffffffffffffffffffffffffffffffffffffff021916908373ffffffffffffffffffffffffffffffffffffffff16021790555060c0820151816006019081611b97919061256a565b5050507f41a2ab1ce036886b25a16e7e14b07ca8dba8ca5e38d137ce6764a0036201d832338284604051611bcd93929190612a2a565b60405180910390a15050565b6000604051905090565b600080fd5b600080fd5b600073ffffffffffffffffffffffffffffffffffffffff82169050919050565b6000611c1882611bed565b9050919050565b611c2881611c0d565b8114611c3357600080fd5b50565b600081359050611c4581611c1f565b92915050565b6000819050919050565b611c5e81611c4b565b8114611c6957600080fd5b50565b600081359050611c7b81611c55565b92915050565b600080600060608486031215611c9a57611c99611be3565b5b6000611ca886828701611c36565b9350506020611cb986828701611c6c565b9250506040611cca86828701611c6c565b9150509250925092565b60008060408385031215611ceb57611cea611be3565b5b6000611cf985828601611c36565b9250506020611d0a85828601611c6c565b9150509250929050565b60008115159050919050565b611d2981611d14565b8114611d3457600080fd5b50565b600081359050611d4681611d20565b92915050565b60008060408385031215611d6357611d62611be3565b5b6000611d7185828601611c36565b9250506020611d8285828601611d37565b9150509250929050565b600081519050919050565b600082825260208201905092915050565b6000819050602082019050919050565b611dc181611c4b565b82525050565b600081519050919050565b600082825260208201905092915050565b60005b83811015611e01578082015181840152602081019050611de6565b60008484015250505050565b6000601f19601f8301169050919050565b6000611e2982611dc7565b611e338185611dd2565b9350611e43818560208601611de3565b611e4c81611e0d565b840191505092915050565b611e6081611c0d565b82525050565b600060e083016000830151611e7e6000860182611db8565b5060208301518482036020860152611e968282611e1e565b9150506040830151611eab6040860182611db8565b5060608301518482036060860152611ec38282611e1e565b9150506080830151611ed86080860182611e57565b5060a0830151611eeb60a0860182611e57565b5060c083015184820360c0860152611f038282611e1e565b9150508091505092915050565b6000611f1c8383611e66565b905092915050565b6000602082019050919050565b6000611f3c82611d8c565b611f468185611d97565b935083602082028501611f5885611da8565b8060005b85811015611f945784840389528151611f758582611f10565b9450611f8083611f24565b925060208a01995050600181019050611f5c565b50829750879550505050505092915050565b60006020820190508181036000830152611fc08184611f31565b905092915050565b600060208284031215611fde57611fdd611be3565b5b6000611fec84828501611c6c565b91505092915050565b600082825260208201905092915050565b7f536f6d656e7465206f20636f6e747261746f20646f207061696e656c2064652060008201527f7365727669c3a76f20706f6465207265616c697a61722065737361206f70657260208201527f61c3a7c3a36f2e00000000000000000000000000000000000000000000000000604082015250565b6000612088604783611ff5565b915061209382612006565b606082019050919050565b600060208201905081810360008301526120b78161207b565b9050919050565b7f4e487b7100000000000000000000000000000000000000000000000000000000600052601160045260246000fd5b60006120f882611c4b565b915061210383611c4b565b925082820261211181611c4b565b91508282048414831517612128576121276120be565b5b5092915050565b61213881611c0d565b82525050565b61214781611c4b565b82525050565b6000606082019050612162600083018661212f565b61216f602083018561212f565b61217c604083018461213e565b949350505050565b60008151905061219381611d20565b92915050565b6000602082840312156121af576121ae611be3565b5b60006121bd84828501612184565b91505092915050565b60006040820190506121db600083018561212f565b6121e8602083018461213e565b9392505050565b600080fd5b600080fd5b7f4e487b7100000000000000000000000000000000000000000000000000000000600052604160045260246000fd5b61223182611e0d565b810181811067ffffffffffffffff821117156122505761224f6121f9565b5b80604052505050565b6000612263611bd9565b905061226f8282612228565b919050565b600067ffffffffffffffff82111561228f5761228e6121f9565b5b61229882611e0d565b9050602081019050919050565b60006122b86122b384612274565b612259565b9050828152602081018484840111156122d4576122d36121f4565b5b6122df848285611de3565b509392505050565b600082601f8301126122fc576122fb6121ef565b5b815161230c8482602086016122a5565b91505092915050565b60006020828403121561232b5761232a611be3565b5b600082015167ffffffffffffffff81111561234957612348611be8565b5b612355848285016122e7565b91505092915050565b7f4e487b7100000000000000000000000000000000000000000000000000000000600052602260045260246000fd5b600060028204905060018216806123a557607f821691505b6020821081036123b8576123b761235e565b5b50919050565b60008190508160005260206000209050919050565b60006020601f8301049050919050565b600082821b905092915050565b6000600883026124207fffffffffffffffffffffffffffffffffffffffffffffffffffffffffffffffff826123e3565b61242a86836123e3565b95508019841693508086168417925050509392505050565b6000819050919050565b600061246761246261245d84611c4b565b612442565b611c4b565b9050919050565b6000819050919050565b6124818361244c565b61249561248d8261246e565b8484546123f0565b825550505050565b600090565b6124aa61249d565b6124b5818484612478565b505050565b5b818110156124d9576124ce6000826124a2565b6001810190506124bb565b5050565b601f82111561251e576124ef816123be565b6124f8846123d3565b81016020851015612507578190505b61251b612513856123d3565b8301826124ba565b50505b505050565b600082821c905092915050565b600061254160001984600802612523565b1980831691505092915050565b600061255a8383612530565b9150826002028217905092915050565b61257382611dc7565b67ffffffffffffffff81111561258c5761258b6121f9565b5b612596825461238d565b6125a18282856124dd565b600060209050601f8311600181146125d457600084156125c2578287015190505b6125cc858261254e565b865550612634565b601f1984166125e2866123be565b60005b8281101561260a578489015182556001820191506020850194506020810190506125e5565b868310156126275784890151612623601f891682612530565b8355505b6001600288020188555050505b505050505050565b6000608082019050612651600083018761212f565b61265e602083018661213e565b61266b604083018561213e565b612678606083018461213e565b95945050505050565b7f536f6d656e7465206f7320726573706f73c3a1766569732070656c6f20636f6e60008201527f747261746f20646120436f6e7461204c617374726f20706f64656d207265616c60208201527f697a61722065737361206f70657261c3a7c3a36f2e0000000000000000000000604082015250565b6000612703605583611ff5565b915061270e82612681565b606082019050919050565b60006020820190508181036000830152612732816126f6565b9050919050565b600060208201905061274e600083018461212f565b92915050565b600080fd5b600080fd5b60008151905061276d81611c55565b92915050565b60008151905061278281611c1f565b92915050565b600060a0828403121561279e5761279d612754565b5b6127a860a0612259565b905060006127b88482850161275e565b60008301525060206127cc84828501612773565b602083015250604082015167ffffffffffffffff8111156127f0576127ef612759565b5b6127fc848285016122e7565b604083015250606061281084828501612773565b606083015250608061282484828501612184565b60808301525092915050565b60006020828403121561284657612845611be3565b5b600082015167ffffffffffffffff81111561286457612863611be8565b5b61287084828501612788565b91505092915050565b7f4f20656e64657265c3a76f20696e666f726d61646f206465766520736572206f60008201527f20646520756d6120736563726574617269612e00000000000000000000000000602082015250565b60006128d5603383611ff5565b91506128e082612879565b604082019050919050565b60006020820190508181036000830152612904816128c8565b9050919050565b600060e0830160008301516129236000860182611db8565b506020830151848203602086015261293b8282611e1e565b91505060408301516129506040860182611db8565b50606083015184820360608601526129688282611e1e565b915050608083015161297d6080860182611e57565b5060a083015161299060a0860182611e57565b5060c083015184820360c08601526129a88282611e1e565b9150508091505092915050565b60006040820190506129ca600083018561212f565b81810360208301526129dc818461290b565b90509392505050565b60006080820190506129fa600083018761212f565b612a07602083018661212f565b612a14604083018561213e565b612a21606083018461213e565b95945050505050565b6000606082019050612a3f600083018661212f565b612a4c602083018561213e565b612a59604083018461213e565b94935050505056fea2646970667358221220dd46f25a52ecfbd3ae99e47a8d8d4960e93084ceb679f04f5e1fb1d198472a1864736f6c63430008130033",
  "immutableReferences": {},
  "source": "// SPDX-License-Identifier: MIT\r\npragma solidity ^0.8.0;\r\n\r\nimport \"./GovToken.sol\";\r\nimport \"./AgenteFederado.sol\";\r\nimport \"./PainelServico.sol\";\r\nimport \"./TiposComuns.sol\";\r\n\r\ncontract ContaLastro {\r\n    //Propriedades\r\n    mapping(address => bool) private _owners;\r\n\r\n    GovToken private _govToken;\r\n    AgenteFederado private _agenteFederado;\r\n    PainelServico private _painelServico;\r\n\r\n    ExtratoInfo[] private _extrato;\r\n\r\n    //Construtores\r\n    constructor(\r\n        GovToken govToken,\r\n        AgenteFederado agenteFederado,\r\n        PainelServico painelServico\r\n    ) {\r\n        _owners[msg.sender] = true;\r\n        _govToken = govToken;\r\n        _agenteFederado = agenteFederado;\r\n        _painelServico = painelServico;\r\n    }\r\n\r\n    //Modificadores\r\n    modifier onlyOwner() {\r\n        require(\r\n            _owners[msg.sender],\r\n            unicode\"Somente os resposveis pelo contrato da Conta Lastro podem realizar essa operao.\"\r\n        );\r\n        _;\r\n    }\r\n\r\n    modifier onlyServicePanel() {\r\n        require(\r\n            msg.sender == address(_painelServico),\r\n            unicode\"Somente o contrato do painel de servio pode realizar essa operao.\"\r\n        );\r\n        _;\r\n    }\r\n\r\n    //Eventos\r\n    event depositoRealizado(address sender, uint256 data, uint256 valor);\r\n    event transferenciaRealizada(\r\n        address sender,\r\n        address enderecoAgenteFederado,\r\n        uint256 data,\r\n        uint256 valor\r\n    );\r\n    event solicitacaoRepasseRealizada(\r\n        address fornecedor,\r\n        uint256 data,\r\n        uint256 valor,\r\n        uint256 idServico\r\n    );\r\n\r\n    //Funes\r\n    function setOwner(address owner, bool isOwner) public onlyOwner {\r\n        _owners[owner] = isOwner;\r\n    }\r\n\r\n    function consultarExtrato() public view returns (ExtratoInfo[] memory) {\r\n        return _extrato;\r\n    }\r\n\r\n    function realizarDeposito(uint256 valor) public onlyOwner {\r\n        uint256 data = block.timestamp * 1000;\r\n\r\n        _govToken.mint(address(this), valor);\r\n\r\n        _extrato.push(\r\n            ExtratoInfo(\r\n                data,\r\n                unicode\"Depsito\",\r\n                valor,\r\n                \"C\",\r\n                address(0),\r\n                address(this),\r\n                \"R$\"\r\n            )\r\n        );\r\n\r\n        _extrato.push(\r\n            ExtratoInfo(\r\n                data,\r\n                unicode\"Mint Token\",\r\n                valor,\r\n                \"C\",\r\n                address(0),\r\n                address(this),\r\n                _govToken.symbol()\r\n            )\r\n        );\r\n\r\n        emit depositoRealizado(msg.sender, data, valor);\r\n    }\r\n\r\n    function transferirToken(\r\n        address enderecoSecretaria,\r\n        uint256 valor\r\n    ) public onlyOwner {\r\n        require(\r\n            _agenteFederado.obterSecretaria(enderecoSecretaria).cadastrado,\r\n            unicode\"O endereo informado deve ser o de uma secretaria.\"\r\n        );\r\n\r\n        uint256 data = block.timestamp * 1000;\r\n\r\n        _govToken.approve(address(this), valor);\r\n        _govToken.transfer(enderecoSecretaria, valor);\r\n\r\n        _extrato.push(\r\n            ExtratoInfo(\r\n                data,\r\n                unicode\"Transferncia\",\r\n                valor,\r\n                \"D\",\r\n                address(this),\r\n                enderecoSecretaria,\r\n                _govToken.symbol()\r\n            )\r\n        );\r\n\r\n        _agenteFederado.incluirLinhaExtrato(\r\n            enderecoSecretaria,\r\n            ExtratoInfo(\r\n                data,\r\n                unicode\"Depsito\",\r\n                valor,\r\n                \"C\",\r\n                address(this),\r\n                enderecoSecretaria,\r\n                _govToken.symbol()\r\n            )\r\n        );\r\n\r\n        emit transferenciaRealizada(\r\n            msg.sender,\r\n            enderecoSecretaria,\r\n            data,\r\n            valor\r\n        );\r\n    }\r\n\r\n    function solicitarRepasse(\r\n        address enderecoFornecedor,\r\n        uint256 idServico,\r\n        uint256 valor\r\n    ) public onlyServicePanel {\r\n        uint256 data = block.timestamp * 1000;\r\n\r\n        _govToken.transferFrom(address(_painelServico), address(this), valor);\r\n\r\n        _govToken.approve(address(this), valor);\r\n        _govToken.burnFrom(address(this), valor);\r\n\r\n        _extrato.push(\r\n            ExtratoInfo(\r\n                data,\r\n                unicode\"Solicitao Repasse\",\r\n                valor,\r\n                \"C\",\r\n                address(_painelServico),\r\n                address(this),\r\n                _govToken.symbol()\r\n            )\r\n        );\r\n\r\n        _extrato.push(\r\n            ExtratoInfo(\r\n                data,\r\n                unicode\"Queima Token\",\r\n                valor,\r\n                \"D\",\r\n                address(this),\r\n                address(0),\r\n                _govToken.symbol()\r\n            )\r\n        );\r\n\r\n        _extrato.push(\r\n            ExtratoInfo(\r\n                data,\r\n                unicode\"Repasse\",\r\n                valor,\r\n                \"D\",\r\n                address(this),\r\n                enderecoFornecedor,\r\n                \"R$\"\r\n            )\r\n        );\r\n\r\n        emit solicitacaoRepasseRealizada(\r\n            enderecoFornecedor,\r\n            data,\r\n            valor,\r\n            idServico\r\n        );\r\n    }\r\n}\r\n",
  "sourcePath": "/govtoken/Contratos/ContaLastro.sol",
  "compiler": {
    "name": "solc",
    "version": "0.8.19+commit.7dd6d404.Emscripten.clang"
  },
  "schemaVersion": "3.4.8",
  "updatedAt": "2023-03-17T19:29:25.732Z",
  "networkType": "ethereum",
  "devdoc": {
    "kind": "dev",
    "methods": {},
    "version": 1
  },
  "userdoc": {
    "kind": "user",
    "methods": {},
    "version": 1
  }
}