{
  "contractName": "ContaLastro",
  "abi": [
    {
      "inputs": [
        {
          "internalType": "contract GovToken",
          "name": "govToken",
          "type": "address"
        },
        {
          "internalType": "contract AgenteFederado",
          "name": "agenteFederado",
          "type": "address"
        },
        {
          "internalType": "contract PainelServico",
          "name": "painelServico",
          "type": "address"
        },
        {
          "internalType": "contract Fornecedor",
          "name": "fornecedor",
          "type": "address"
        }
      ],
      "stateMutability": "nonpayable",
      "type": "constructor"
    },
    {
      "anonymous": false,
      "inputs": [
        {
          "indexed": false,
          "internalType": "address",
          "name": "sender",
          "type": "address"
        },
        {
          "indexed": false,
          "internalType": "uint256",
          "name": "data",
          "type": "uint256"
        },
        {
          "indexed": false,
          "internalType": "uint256",
          "name": "valor",
          "type": "uint256"
        }
      ],
      "name": "depositoRealizado",
      "type": "event"
    },
    {
      "anonymous": false,
      "inputs": [
        {
          "indexed": false,
          "internalType": "address",
          "name": "fornecedor",
          "type": "address"
        },
        {
          "indexed": false,
          "internalType": "uint256",
          "name": "data",
          "type": "uint256"
        },
        {
          "indexed": false,
          "internalType": "uint256",
          "name": "valor",
          "type": "uint256"
        },
        {
          "indexed": false,
          "internalType": "uint256",
          "name": "idServico",
          "type": "uint256"
        }
      ],
      "name": "solicitacaoRepasseRealizada",
      "type": "event"
    },
    {
      "anonymous": false,
      "inputs": [
        {
          "indexed": false,
          "internalType": "address",
          "name": "sender",
          "type": "address"
        },
        {
          "indexed": false,
          "internalType": "address",
          "name": "enderecoAgenteFederado",
          "type": "address"
        },
        {
          "indexed": false,
          "internalType": "uint256",
          "name": "data",
          "type": "uint256"
        },
        {
          "indexed": false,
          "internalType": "uint256",
          "name": "valor",
          "type": "uint256"
        }
      ],
      "name": "transferenciaRealizada",
      "type": "event"
    },
    {
      "inputs": [
        {
          "internalType": "address",
          "name": "owner",
          "type": "address"
        },
        {
          "internalType": "bool",
          "name": "isOwner",
          "type": "bool"
        }
      ],
      "name": "setOwner",
      "outputs": [],
      "stateMutability": "nonpayable",
      "type": "function"
    },
    {
      "inputs": [],
      "name": "consultarExtrato",
      "outputs": [
        {
          "components": [
            {
              "internalType": "uint256",
              "name": "data",
              "type": "uint256"
            },
            {
              "internalType": "string",
              "name": "descricao",
              "type": "string"
            },
            {
              "internalType": "uint256",
              "name": "valor",
              "type": "uint256"
            },
            {
              "internalType": "string",
              "name": "creditoDebito",
              "type": "string"
            },
            {
              "internalType": "address",
              "name": "origem",
              "type": "address"
            },
            {
              "internalType": "address",
              "name": "destino",
              "type": "address"
            },
            {
              "internalType": "string",
              "name": "simboloToken",
              "type": "string"
            }
          ],
          "internalType": "struct ExtratoInfo[]",
          "name": "",
          "type": "tuple[]"
        }
      ],
      "stateMutability": "view",
      "type": "function",
      "constant": true
    },
    {
      "inputs": [],
      "name": "consultarSaldo",
      "outputs": [
        {
          "internalType": "uint256",
          "name": "",
          "type": "uint256"
        }
      ],
      "stateMutability": "view",
      "type": "function",
      "constant": true
    },
    {
      "inputs": [
        {
          "internalType": "uint256",
          "name": "valor",
          "type": "uint256"
        }
      ],
      "name": "realizarDeposito",
      "outputs": [],
      "stateMutability": "nonpayable",
      "type": "function"
    },
    {
      "inputs": [
        {
          "internalType": "address",
          "name": "enderecoSecretaria",
          "type": "address"
        },
        {
          "internalType": "uint256",
          "name": "valor",
          "type": "uint256"
        }
      ],
      "name": "transferirToken",
      "outputs": [],
      "stateMutability": "nonpayable",
      "type": "function"
    },
    {
      "inputs": [
        {
          "internalType": "address",
          "name": "enderecoFornecedor",
          "type": "address"
        },
        {
          "internalType": "uint256",
          "name": "idServico",
          "type": "uint256"
        },
        {
          "internalType": "uint256",
          "name": "valor",
          "type": "uint256"
        }
      ],
      "name": "solicitarRepasse",
      "outputs": [],
      "stateMutability": "nonpayable",
      "type": "function"
    }
  ],
  "bytecode": "0x60806040523480156200001157600080fd5b5060405162003901380380620039018339818101604052810190620000379190620002f1565b60016000803373ffffffffffffffffffffffffffffffffffffffff1673ffffffffffffffffffffffffffffffffffffffff16815260200190815260200160002060006101000a81548160ff02191690831515021790555083600160006101000a81548173ffffffffffffffffffffffffffffffffffffffff021916908373ffffffffffffffffffffffffffffffffffffffff16021790555082600260006101000a81548173ffffffffffffffffffffffffffffffffffffffff021916908373ffffffffffffffffffffffffffffffffffffffff16021790555081600360006101000a81548173ffffffffffffffffffffffffffffffffffffffff021916908373ffffffffffffffffffffffffffffffffffffffff16021790555080600460006101000a81548173ffffffffffffffffffffffffffffffffffffffff021916908373ffffffffffffffffffffffffffffffffffffffff16021790555060006006819055505050505062000363565b600080fd5b600073ffffffffffffffffffffffffffffffffffffffff82169050919050565b6000620001d682620001a9565b9050919050565b6000620001ea82620001c9565b9050919050565b620001fc81620001dd565b81146200020857600080fd5b50565b6000815190506200021c81620001f1565b92915050565b60006200022f82620001c9565b9050919050565b620002418162000222565b81146200024d57600080fd5b50565b600081519050620002618162000236565b92915050565b60006200027482620001c9565b9050919050565b620002868162000267565b81146200029257600080fd5b50565b600081519050620002a6816200027b565b92915050565b6000620002b982620001c9565b9050919050565b620002cb81620002ac565b8114620002d757600080fd5b50565b600081519050620002eb81620002c0565b92915050565b600080600080608085870312156200030e576200030d620001a4565b5b60006200031e878288016200020b565b9450506020620003318782880162000250565b9350506040620003448782880162000295565b92505060606200035787828801620002da565b91505092959194509250565b61358e80620003736000396000f3fe608060405234801561001057600080fd5b50600436106100625760003560e01c80630de586c1146100675780631439a4a514610083578063516c731c1461009f5780636da52311146100bb5780638e128ed4146100d9578063d6f033fd146100f5575b600080fd5b610081600480360381019061007c9190612052565b610113565b005b61009d600480360381019061009891906120a5565b610d94565b005b6100b960048036038101906100b4919061211d565b6115ff565b005b6100c36116e4565b6040516100d09190612377565b60405180910390f35b6100f360048036038101906100ee9190612399565b6119b9565b005b6100fd611fa0565b60405161010a91906123d5565b60405180910390f35b600360009054906101000a900473ffffffffffffffffffffffffffffffffffffffff1673ffffffffffffffffffffffffffffffffffffffff163373ffffffffffffffffffffffffffffffffffffffff16146101a3576040517f08c379a000000000000000000000000000000000000000000000000000000000815260040161019a90612499565b60405180910390fd5b60006103e8426101b391906124e8565b9050600160009054906101000a900473ffffffffffffffffffffffffffffffffffffffff1673ffffffffffffffffffffffffffffffffffffffff166323b872dd600360009054906101000a900473ffffffffffffffffffffffffffffffffffffffff1630856040518463ffffffff1660e01b815260040161023693929190612539565b6020604051808303816000875af1158015610255573d6000803e3d6000fd5b505050506040513d601f19601f820116820180604052508101906102799190612585565b50600160009054906101000a900473ffffffffffffffffffffffffffffffffffffffff1673ffffffffffffffffffffffffffffffffffffffff1663095ea7b330846040518363ffffffff1660e01b81526004016102d79291906125b2565b6020604051808303816000875af11580156102f6573d6000803e3d6000fd5b505050506040513d601f19601f8201168201806040525081019061031a9190612585565b50600160009054906101000a900473ffffffffffffffffffffffffffffffffffffffff1673ffffffffffffffffffffffffffffffffffffffff166379cc679030846040518363ffffffff1660e01b81526004016103789291906125b2565b600060405180830381600087803b15801561039257600080fd5b505af11580156103a6573d6000803e3d6000fd5b505050506000600360009054906101000a900473ffffffffffffffffffffffffffffffffffffffff1673ffffffffffffffffffffffffffffffffffffffff1663d6f8aa3c856040518263ffffffff1660e01b815260040161040791906123d5565b600060405180830381865afa158015610424573d6000803e3d6000fd5b505050506040513d6000823e3d601f19601f8201168201806040525081019061044d9190612b2c565b90506000600460009054906101000a900473ffffffffffffffffffffffffffffffffffffffff1673ffffffffffffffffffffffffffffffffffffffff166334803e3a8360c001516040518263ffffffff1660e01b81526004016104b09190612b75565b600060405180830381865afa1580156104cd573d6000803e3d6000fd5b505050506040513d6000823e3d601f19601f820116820180604052508101906104f69190612b90565b905060006040518060600160405280603181526020016134c960319139905080836040015160405160200161052c929190612c15565b60405160208183030381529060405290508060405160200161054e9190612c5f565b6040516020818303038152906040529050808260400151604051602001610576929190612c15565b604051602081830303815290604052905060056040518060e001604052808681526020018381526020018781526020016040518060400160405280600181526020017f43000000000000000000000000000000000000000000000000000000000000008152508152602001600360009054906101000a900473ffffffffffffffffffffffffffffffffffffffff1673ffffffffffffffffffffffffffffffffffffffff1681526020013073ffffffffffffffffffffffffffffffffffffffff168152602001600160009054906101000a900473ffffffffffffffffffffffffffffffffffffffff1673ffffffffffffffffffffffffffffffffffffffff166395d89b416040518163ffffffff1660e01b8152600401600060405180830381865afa1580156106a8573d6000803e3d6000fd5b505050506040513d6000823e3d601f19601f820116820180604052508101906106d19190612c85565b815250908060018154018082558091505060019003906000526020600020906007020160009091909190915060008201518160000155602082015181600101908161071c9190612eda565b5060408201518160020155606082015181600301908161073c9190612eda565b5060808201518160040160006101000a81548173ffffffffffffffffffffffffffffffffffffffff021916908373ffffffffffffffffffffffffffffffffffffffff16021790555060a08201518160050160006101000a81548173ffffffffffffffffffffffffffffffffffffffff021916908373ffffffffffffffffffffffffffffffffffffffff16021790555060c08201518160060190816107e09190612eda565b50505060006040518060600160405280603981526020016134fa603991399050808460400151604051602001610817929190612c15565b6040516020818303038152906040529050806040516020016108399190612c5f565b6040516020818303038152906040529050808360400151604051602001610861929190612c15565b604051602081830303815290604052905060056040518060e001604052808781526020018381526020018881526020016040518060400160405280600181526020017f440000000000000000000000000000000000000000000000000000000000000081525081526020013073ffffffffffffffffffffffffffffffffffffffff168152602001600073ffffffffffffffffffffffffffffffffffffffff168152602001600160009054906101000a900473ffffffffffffffffffffffffffffffffffffffff1673ffffffffffffffffffffffffffffffffffffffff166395d89b416040518163ffffffff1660e01b8152600401600060405180830381865afa158015610972573d6000803e3d6000fd5b505050506040513d6000823e3d601f19601f8201168201806040525081019061099b9190612c85565b81525090806001815401808255809150506001900390600052602060002090600702016000909190919091506000820151816000015560208201518160010190816109e69190612eda565b50604082015181600201556060820151816003019081610a069190612eda565b5060808201518160040160006101000a81548173ffffffffffffffffffffffffffffffffffffffff021916908373ffffffffffffffffffffffffffffffffffffffff16021790555060a08201518160050160006101000a81548173ffffffffffffffffffffffffffffffffffffffff021916908373ffffffffffffffffffffffffffffffffffffffff16021790555060c0820151816006019081610aaa9190612eda565b50505060006040518060400160405280601481526020017f52657061737365207c205365727669c3a76f3a200000000000000000000000008152509050808560400151604051602001610afe929190612c15565b604051602081830303815290604052905080604051602001610b209190612c5f565b6040516020818303038152906040529050808460400151604051602001610b48929190612c15565b604051602081830303815290604052905060056040518060e001604052808881526020018381526020018981526020016040518060400160405280600181526020017f440000000000000000000000000000000000000000000000000000000000000081525081526020013073ffffffffffffffffffffffffffffffffffffffff1681526020018b73ffffffffffffffffffffffffffffffffffffffff1681526020016040518060400160405280600281526020017f52240000000000000000000000000000000000000000000000000000000000008152508152509080600181540180825580915050600190039060005260206000209060070201600090919091909150600082015181600001556020820151816001019081610c6c9190612eda565b50604082015181600201556060820151816003019081610c8c9190612eda565b5060808201518160040160006101000a81548173ffffffffffffffffffffffffffffffffffffffff021916908373ffffffffffffffffffffffffffffffffffffffff16021790555060a08201518160050160006101000a81548173ffffffffffffffffffffffffffffffffffffffff021916908373ffffffffffffffffffffffffffffffffffffffff16021790555060c0820151816006019081610d309190612eda565b5050508660066000828254610d459190612fac565b925050819055507fbc3043bd3fa820c57237316328b804d3108aafc9dd42f1a8bc719d031d1d28fc8987898b604051610d819493929190612fe0565b60405180910390a1505050505050505050565b6000803373ffffffffffffffffffffffffffffffffffffffff1673ffffffffffffffffffffffffffffffffffffffff16815260200190815260200160002060009054906101000a900460ff16610e1f576040517f08c379a0000000000000000000000000000000000000000000000000000000008152600401610e16906130bd565b60405180910390fd5b6000600260009054906101000a900473ffffffffffffffffffffffffffffffffffffffff1673ffffffffffffffffffffffffffffffffffffffff166308944790846040518263ffffffff1660e01b8152600401610e7c9190612b75565b600060405180830381865afa158015610e99573d6000803e3d6000fd5b505050506040513d6000823e3d601f19601f82011682018060405250810190610ec291906130dd565b90508060800151610f08576040517f08c379a0000000000000000000000000000000000000000000000000000000008152600401610eff90613198565b60405180910390fd5b6000600260009054906101000a900473ffffffffffffffffffffffffffffffffffffffff1673ffffffffffffffffffffffffffffffffffffffff1663e2b0e61183602001516040518263ffffffff1660e01b8152600401610f699190612b75565b600060405180830381865afa158015610f86573d6000803e3d6000fd5b505050506040513d6000823e3d601f19601f82011682018060405250810190610faf919061327c565b905060006103e842610fc191906124e8565b9050600160009054906101000a900473ffffffffffffffffffffffffffffffffffffffff1673ffffffffffffffffffffffffffffffffffffffff1663095ea7b330866040518363ffffffff1660e01b81526004016110209291906125b2565b6020604051808303816000875af115801561103f573d6000803e3d6000fd5b505050506040513d601f19601f820116820180604052508101906110639190612585565b50600160009054906101000a900473ffffffffffffffffffffffffffffffffffffffff1673ffffffffffffffffffffffffffffffffffffffff1663a9059cbb86866040518363ffffffff1660e01b81526004016110c19291906125b2565b6020604051808303816000875af11580156110e0573d6000803e3d6000fd5b505050506040513d601f19601f820116820180604052508101906111049190612585565b5060006040518060400160405280601181526020017f5472616e73666572c3aa6e636961202d200000000000000000000000000000008152509050808360400151604051602001611156929190612c15565b60405160208183030381529060405290508060405160200161117891906132eb565b60405160208183030381529060405290508084604001516040516020016111a0929190612c15565b604051602081830303815290604052905060056040518060e001604052808481526020018381526020018781526020016040518060400160405280600181526020017f440000000000000000000000000000000000000000000000000000000000000081525081526020013073ffffffffffffffffffffffffffffffffffffffff1681526020018873ffffffffffffffffffffffffffffffffffffffff168152602001600160009054906101000a900473ffffffffffffffffffffffffffffffffffffffff1673ffffffffffffffffffffffffffffffffffffffff166395d89b416040518163ffffffff1660e01b8152600401600060405180830381865afa1580156112b0573d6000803e3d6000fd5b505050506040513d6000823e3d601f19601f820116820180604052508101906112d99190612c85565b81525090806001815401808255809150506001900390600052602060002090600702016000909190919091506000820151816000015560208201518160010190816113249190612eda565b506040820151816002015560608201518160030190816113449190612eda565b5060808201518160040160006101000a81548173ffffffffffffffffffffffffffffffffffffffff021916908373ffffffffffffffffffffffffffffffffffffffff16021790555060a08201518160050160006101000a81548173ffffffffffffffffffffffffffffffffffffffff021916908373ffffffffffffffffffffffffffffffffffffffff16021790555060c08201518160060190816113e89190612eda565b505050600260009054906101000a900473ffffffffffffffffffffffffffffffffffffffff1673ffffffffffffffffffffffffffffffffffffffff166378905bc2876040518060e001604052808681526020016040518060600160405280602d815260200161349c602d913981526020018981526020016040518060400160405280600181526020017f430000000000000000000000000000000000000000000000000000000000000081525081526020013073ffffffffffffffffffffffffffffffffffffffff1681526020018a73ffffffffffffffffffffffffffffffffffffffff168152602001600160009054906101000a900473ffffffffffffffffffffffffffffffffffffffff1673ffffffffffffffffffffffffffffffffffffffff166395d89b416040518163ffffffff1660e01b8152600401600060405180830381865afa15801561153f573d6000803e3d6000fd5b505050506040513d6000823e3d601f19601f820116820180604052508101906115689190612c85565b8152506040518363ffffffff1660e01b81526004016115889291906133bb565b600060405180830381600087803b1580156115a257600080fd5b505af11580156115b6573d6000803e3d6000fd5b505050507f84ab5b9da0c9f713409211eddd9c42ca07b48d00daf1845440b271a29aff4518338784886040516115ef94939291906133eb565b60405180910390a1505050505050565b6000803373ffffffffffffffffffffffffffffffffffffffff1673ffffffffffffffffffffffffffffffffffffffff16815260200190815260200160002060009054906101000a900460ff1661168a576040517f08c379a0000000000000000000000000000000000000000000000000000000008152600401611681906130bd565b60405180910390fd5b806000808473ffffffffffffffffffffffffffffffffffffffff1673ffffffffffffffffffffffffffffffffffffffff16815260200190815260200160002060006101000a81548160ff0219169083151502179055505050565b60606005805480602002602001604051908101604052809291908181526020016000905b828210156119b057838290600052602060002090600702016040518060e00160405290816000820154815260200160018201805461174590612cfd565b80601f016020809104026020016040519081016040528092919081815260200182805461177190612cfd565b80156117be5780601f10611793576101008083540402835291602001916117be565b820191906000526020600020905b8154815290600101906020018083116117a157829003601f168201915b50505050508152602001600282015481526020016003820180546117e190612cfd565b80601f016020809104026020016040519081016040528092919081815260200182805461180d90612cfd565b801561185a5780601f1061182f5761010080835404028352916020019161185a565b820191906000526020600020905b81548152906001019060200180831161183d57829003601f168201915b505050505081526020016004820160009054906101000a900473ffffffffffffffffffffffffffffffffffffffff1673ffffffffffffffffffffffffffffffffffffffff1673ffffffffffffffffffffffffffffffffffffffff1681526020016005820160009054906101000a900473ffffffffffffffffffffffffffffffffffffffff1673ffffffffffffffffffffffffffffffffffffffff1673ffffffffffffffffffffffffffffffffffffffff16815260200160068201805461191f90612cfd565b80601f016020809104026020016040519081016040528092919081815260200182805461194b90612cfd565b80156119985780601f1061196d57610100808354040283529160200191611998565b820191906000526020600020905b81548152906001019060200180831161197b57829003601f168201915b50505050508152505081526020019060010190611708565b50505050905090565b6000803373ffffffffffffffffffffffffffffffffffffffff1673ffffffffffffffffffffffffffffffffffffffff16815260200190815260200160002060009054906101000a900460ff16611a44576040517f08c379a0000000000000000000000000000000000000000000000000000000008152600401611a3b906130bd565b60405180910390fd5b60006103e842611a5491906124e8565b9050600160009054906101000a900473ffffffffffffffffffffffffffffffffffffffff1673ffffffffffffffffffffffffffffffffffffffff166340c10f1930846040518363ffffffff1660e01b8152600401611ab39291906125b2565b600060405180830381600087803b158015611acd57600080fd5b505af1158015611ae1573d6000803e3d6000fd5b5050505060056040518060e001604052808381526020016040518060400160405280601981526020017f446570c3b37369746f206e6120436f6e7461204c617374726f0000000000000081525081526020018481526020016040518060400160405280600181526020017f43000000000000000000000000000000000000000000000000000000000000008152508152602001600073ffffffffffffffffffffffffffffffffffffffff1681526020013073ffffffffffffffffffffffffffffffffffffffff1681526020016040518060400160405280600281526020017f52240000000000000000000000000000000000000000000000000000000000008152508152509080600181540180825580915050600190039060005260206000209060070201600090919091909150600082015181600001556020820151816001019081611c2e9190612eda565b50604082015181600201556060820151816003019081611c4e9190612eda565b5060808201518160040160006101000a81548173ffffffffffffffffffffffffffffffffffffffff021916908373ffffffffffffffffffffffffffffffffffffffff16021790555060a08201518160050160006101000a81548173ffffffffffffffffffffffffffffffffffffffff021916908373ffffffffffffffffffffffffffffffffffffffff16021790555060c0820151816006019081611cf29190612eda565b50505060056040518060e001604052808381526020016040518060600160405280602681526020016135336026913981526020018481526020016040518060400160405280600181526020017f43000000000000000000000000000000000000000000000000000000000000008152508152602001600073ffffffffffffffffffffffffffffffffffffffff1681526020013073ffffffffffffffffffffffffffffffffffffffff168152602001600160009054906101000a900473ffffffffffffffffffffffffffffffffffffffff1673ffffffffffffffffffffffffffffffffffffffff166395d89b416040518163ffffffff1660e01b8152600401600060405180830381865afa158015611e0d573d6000803e3d6000fd5b505050506040513d6000823e3d601f19601f82011682018060405250810190611e369190612c85565b8152509080600181540180825580915050600190039060005260206000209060070201600090919091909150600082015181600001556020820151816001019081611e819190612eda565b50604082015181600201556060820151816003019081611ea19190612eda565b5060808201518160040160006101000a81548173ffffffffffffffffffffffffffffffffffffffff021916908373ffffffffffffffffffffffffffffffffffffffff16021790555060a08201518160050160006101000a81548173ffffffffffffffffffffffffffffffffffffffff021916908373ffffffffffffffffffffffffffffffffffffffff16021790555060c0820151816006019081611f459190612eda565b5050508160066000828254611f5a9190613430565b925050819055507f41a2ab1ce036886b25a16e7e14b07ca8dba8ca5e38d137ce6764a0036201d832338284604051611f9493929190613464565b60405180910390a15050565b6000600654905090565b6000604051905090565b600080fd5b600080fd5b600073ffffffffffffffffffffffffffffffffffffffff82169050919050565b6000611fe982611fbe565b9050919050565b611ff981611fde565b811461200457600080fd5b50565b60008135905061201681611ff0565b92915050565b6000819050919050565b61202f8161201c565b811461203a57600080fd5b50565b60008135905061204c81612026565b92915050565b60008060006060848603121561206b5761206a611fb4565b5b600061207986828701612007565b935050602061208a8682870161203d565b925050604061209b8682870161203d565b9150509250925092565b600080604083850312156120bc576120bb611fb4565b5b60006120ca85828601612007565b92505060206120db8582860161203d565b9150509250929050565b60008115159050919050565b6120fa816120e5565b811461210557600080fd5b50565b600081359050612117816120f1565b92915050565b6000806040838503121561213457612133611fb4565b5b600061214285828601612007565b925050602061215385828601612108565b9150509250929050565b600081519050919050565b600082825260208201905092915050565b6000819050602082019050919050565b6121928161201c565b82525050565b600081519050919050565b600082825260208201905092915050565b60005b838110156121d25780820151818401526020810190506121b7565b60008484015250505050565b6000601f19601f8301169050919050565b60006121fa82612198565b61220481856121a3565b93506122148185602086016121b4565b61221d816121de565b840191505092915050565b61223181611fde565b82525050565b600060e08301600083015161224f6000860182612189565b506020830151848203602086015261226782826121ef565b915050604083015161227c6040860182612189565b506060830151848203606086015261229482826121ef565b91505060808301516122a96080860182612228565b5060a08301516122bc60a0860182612228565b5060c083015184820360c08601526122d482826121ef565b9150508091505092915050565b60006122ed8383612237565b905092915050565b6000602082019050919050565b600061230d8261215d565b6123178185612168565b93508360208202850161232985612179565b8060005b85811015612365578484038952815161234685826122e1565b9450612351836122f5565b925060208a0199505060018101905061232d565b50829750879550505050505092915050565b600060208201905081810360008301526123918184612302565b905092915050565b6000602082840312156123af576123ae611fb4565b5b60006123bd8482850161203d565b91505092915050565b6123cf8161201c565b82525050565b60006020820190506123ea60008301846123c6565b92915050565b600082825260208201905092915050565b7f536f6d656e7465206f20636f6e747261746f20646f207061696e656c2064652060008201527f7365727669c3a76f20706f6465207265616c697a61722065737361206f70657260208201527f61c3a7c3a36f2e00000000000000000000000000000000000000000000000000604082015250565b60006124836047836123f0565b915061248e82612401565b606082019050919050565b600060208201905081810360008301526124b281612476565b9050919050565b7f4e487b7100000000000000000000000000000000000000000000000000000000600052601160045260246000fd5b60006124f38261201c565b91506124fe8361201c565b925082820261250c8161201c565b91508282048414831517612523576125226124b9565b5b5092915050565b61253381611fde565b82525050565b600060608201905061254e600083018661252a565b61255b602083018561252a565b61256860408301846123c6565b949350505050565b60008151905061257f816120f1565b92915050565b60006020828403121561259b5761259a611fb4565b5b60006125a984828501612570565b91505092915050565b60006040820190506125c7600083018561252a565b6125d460208301846123c6565b9392505050565b600080fd5b7f4e487b7100000000000000000000000000000000000000000000000000000000600052604160045260246000fd5b612618826121de565b810181811067ffffffffffffffff82111715612637576126366125e0565b5b80604052505050565b600061264a611faa565b9050612656828261260f565b919050565b600080fd5b60008151905061266f81612026565b92915050565b600080fd5b600080fd5b600067ffffffffffffffff82111561269a576126996125e0565b5b6126a3826121de565b9050602081019050919050565b60006126c36126be8461267f565b612640565b9050828152602081018484840111156126df576126de61267a565b5b6126ea8482856121b4565b509392505050565b600082601f83011261270757612706612675565b5b81516127178482602086016126b0565b91505092915050565b60008151905061272f81611ff0565b92915050565b6004811061274257600080fd5b50565b60008151905061275481612735565b92915050565b600060a082840312156127705761276f6125db565b5b61277a60a0612640565b9050600061278a84828501612660565b600083015250602061279e84828501612720565b602083015250604082015167ffffffffffffffff8111156127c2576127c161265b565b5b6127ce848285016126f2565b60408301525060606127e284828501612720565b60608301525060806127f684828501612570565b60808301525092915050565b600060e08284031215612818576128176125db565b5b61282260e0612640565b9050600061283284828501612660565b600083015250602082015167ffffffffffffffff8111156128565761285561265b565b5b612862848285016126f2565b602083015250604082015167ffffffffffffffff8111156128865761288561265b565b5b612892848285016126f2565b60408301525060606128a684828501612720565b60608301525060806128ba84828501612570565b60808301525060a06128ce84828501612570565b60a08301525060c06128e284828501612660565b60c08301525092915050565b60006102008284031215612905576129046125db565b5b612910610200612640565b9050600061292084828501612660565b600083015250602061293484828501612660565b602083015250604082015167ffffffffffffffff8111156129585761295761265b565b5b612964848285016126f2565b604083015250606082015167ffffffffffffffff8111156129885761298761265b565b5b612994848285016126f2565b60608301525060806129a884828501612660565b60808301525060a06129bc84828501612720565b60a08301525060c06129d084828501612720565b60c08301525060e082015167ffffffffffffffff8111156129f4576129f361265b565b5b612a00848285016126f2565b60e08301525061010082015167ffffffffffffffff811115612a2557612a2461265b565b5b612a31848285016126f2565b6101008301525061012082015167ffffffffffffffff811115612a5757612a5661265b565b5b612a63848285016126f2565b61012083015250610140612a7984828501612570565b61014083015250610160612a8f84828501612745565b6101608301525061018082015167ffffffffffffffff811115612ab557612ab461265b565b5b612ac18482850161275a565b610180830152506101a082015167ffffffffffffffff811115612ae757612ae661265b565b5b612af384828501612802565b6101a0830152506101c0612b0984828501612570565b6101c0830152506101e0612b1f84828501612570565b6101e08301525092915050565b600060208284031215612b4257612b41611fb4565b5b600082015167ffffffffffffffff811115612b6057612b5f611fb9565b5b612b6c848285016128ee565b91505092915050565b6000602082019050612b8a600083018461252a565b92915050565b600060208284031215612ba657612ba5611fb4565b5b600082015167ffffffffffffffff811115612bc457612bc3611fb9565b5b612bd084828501612802565b91505092915050565b600081905092915050565b6000612bef82612198565b612bf98185612bd9565b9350612c098185602086016121b4565b80840191505092915050565b6000612c218285612be4565b9150612c2d8284612be4565b91508190509392505050565b7f207c204578656375746f723a2000000000000000000000000000000000000000815250565b6000612c6b8284612be4565b9150612c7682612c39565b600d8201915081905092915050565b600060208284031215612c9b57612c9a611fb4565b5b600082015167ffffffffffffffff811115612cb957612cb8611fb9565b5b612cc5848285016126f2565b91505092915050565b7f4e487b7100000000000000000000000000000000000000000000000000000000600052602260045260246000fd5b60006002820490506001821680612d1557607f821691505b602082108103612d2857612d27612cce565b5b50919050565b60008190508160005260206000209050919050565b60006020601f8301049050919050565b600082821b905092915050565b600060088302612d907fffffffffffffffffffffffffffffffffffffffffffffffffffffffffffffffff82612d53565b612d9a8683612d53565b95508019841693508086168417925050509392505050565b6000819050919050565b6000612dd7612dd2612dcd8461201c565b612db2565b61201c565b9050919050565b6000819050919050565b612df183612dbc565b612e05612dfd82612dde565b848454612d60565b825550505050565b600090565b612e1a612e0d565b612e25818484612de8565b505050565b5b81811015612e4957612e3e600082612e12565b600181019050612e2b565b5050565b601f821115612e8e57612e5f81612d2e565b612e6884612d43565b81016020851015612e77578190505b612e8b612e8385612d43565b830182612e2a565b50505b505050565b600082821c905092915050565b6000612eb160001984600802612e93565b1980831691505092915050565b6000612eca8383612ea0565b9150826002028217905092915050565b612ee382612198565b67ffffffffffffffff811115612efc57612efb6125e0565b5b612f068254612cfd565b612f11828285612e4d565b600060209050601f831160018114612f445760008415612f32578287015190505b612f3c8582612ebe565b865550612fa4565b601f198416612f5286612d2e565b60005b82811015612f7a57848901518255600182019150602085019450602081019050612f55565b86831015612f975784890151612f93601f891682612ea0565b8355505b6001600288020188555050505b505050505050565b6000612fb78261201c565b9150612fc28361201c565b9250828203905081811115612fda57612fd96124b9565b5b92915050565b6000608082019050612ff5600083018761252a565b61300260208301866123c6565b61300f60408301856123c6565b61301c60608301846123c6565b95945050505050565b7f536f6d656e7465206f7320726573706f73c3a1766569732070656c6f20636f6e60008201527f747261746f20646120436f6e7461204c617374726f20706f64656d207265616c60208201527f697a61722065737361206f70657261c3a7c3a36f2e0000000000000000000000604082015250565b60006130a76055836123f0565b91506130b282613025565b606082019050919050565b600060208201905081810360008301526130d68161309a565b9050919050565b6000602082840312156130f3576130f2611fb4565b5b600082015167ffffffffffffffff81111561311157613110611fb9565b5b61311d8482850161275a565b91505092915050565b7f4f20656e64657265c3a76f20696e666f726d61646f206465766520736572206f60008201527f20646520756d6120736563726574617269612e00000000000000000000000000602082015250565b60006131826033836123f0565b915061318d82613126565b604082019050919050565b600060208201905081810360008301526131b181613175565b9050919050565b600060a082840312156131ce576131cd6125db565b5b6131d860a0612640565b905060006131e884828501612660565b600083015250602082015167ffffffffffffffff81111561320c5761320b61265b565b5b613218848285016126f2565b602083015250604082015167ffffffffffffffff81111561323c5761323b61265b565b5b613248848285016126f2565b604083015250606061325c84828501612720565b606083015250608061327084828501612570565b60808301525092915050565b60006020828403121561329257613291611fb4565b5b600082015167ffffffffffffffff8111156132b0576132af611fb9565b5b6132bc848285016131b8565b91505092915050565b7f202d200000000000000000000000000000000000000000000000000000000000815250565b60006132f78284612be4565b9150613302826132c5565b60038201915081905092915050565b600060e0830160008301516133296000860182612189565b506020830151848203602086015261334182826121ef565b91505060408301516133566040860182612189565b506060830151848203606086015261336e82826121ef565b91505060808301516133836080860182612228565b5060a083015161339660a0860182612228565b5060c083015184820360c08601526133ae82826121ef565b9150508091505092915050565b60006040820190506133d0600083018561252a565b81810360208301526133e28184613311565b90509392505050565b6000608082019050613400600083018761252a565b61340d602083018661252a565b61341a60408301856123c6565b61342760608301846123c6565b95945050505050565b600061343b8261201c565b91506134468361201c565b925082820190508082111561345e5761345d6124b9565b5b92915050565b6000606082019050613479600083018661252a565b61348660208301856123c6565b61349360408301846123c6565b94935050505056fe5265636562696d656e746f206465205665726261202d20436f6e7461204c617374726f20646120556e69c3a36f536f6c6963697461c3a7c3a36f2064652052657061737365206465205365727669c3a76f207c205365727669c3a76f3a20517565696d6120646520546f6b656e2070617261205265616c697a61c3a7c3a36f2064652052657061737365207c205365727669c3a76f3a20446570c3b37369746f206e6120436f6e7461204c617374726f202d204d696e7420546f6b656ea264697066735822122025c1cd82bebcbe609055d7fec33bf70a5331b1005db16b49d1043a9a3a9446a264736f6c63430008130033",
  "immutableReferences": {},
  "source": "// SPDX-License-Identifier: MIT\r\npragma solidity ^0.8.0;\r\n\r\nimport \"./GovToken.sol\";\r\nimport \"./AgenteFederado.sol\";\r\nimport \"./PainelServico.sol\";\r\nimport \"./TiposComuns.sol\";\r\n\r\ncontract ContaLastro {\r\n    //Propriedades\r\n    mapping(address => bool) private _owners;\r\n\r\n    GovToken private _govToken;\r\n    AgenteFederado private _agenteFederado;\r\n    PainelServico private _painelServico;\r\n    Fornecedor private _fornecedor;\r\n\r\n    ExtratoInfo[] private _extrato;\r\n    uint256 private _saldo;\r\n\r\n    //Construtores\r\n    constructor(\r\n        GovToken govToken,\r\n        AgenteFederado agenteFederado,\r\n        PainelServico painelServico,\r\n        Fornecedor fornecedor\r\n    ) {\r\n        _owners[msg.sender] = true;\r\n        _govToken = govToken;\r\n        _agenteFederado = agenteFederado;\r\n        _painelServico = painelServico;\r\n        _fornecedor = fornecedor;\r\n        _saldo = 0;\r\n    }\r\n\r\n    //Modificadores\r\n    modifier onlyOwner() {\r\n        require(\r\n            _owners[msg.sender],\r\n            unicode\"Somente os resposveis pelo contrato da Conta Lastro podem realizar essa operao.\"\r\n        );\r\n        _;\r\n    }\r\n\r\n    modifier onlyServicePanel() {\r\n        require(\r\n            msg.sender == address(_painelServico),\r\n            unicode\"Somente o contrato do painel de servio pode realizar essa operao.\"\r\n        );\r\n        _;\r\n    }\r\n\r\n    //Eventos\r\n    event depositoRealizado(address sender, uint256 data, uint256 valor);\r\n    event transferenciaRealizada(\r\n        address sender,\r\n        address enderecoAgenteFederado,\r\n        uint256 data,\r\n        uint256 valor\r\n    );\r\n    event solicitacaoRepasseRealizada(\r\n        address fornecedor,\r\n        uint256 data,\r\n        uint256 valor,\r\n        uint256 idServico\r\n    );\r\n\r\n    //Funes\r\n    function setOwner(address owner, bool isOwner) public onlyOwner {\r\n        _owners[owner] = isOwner;\r\n    }\r\n\r\n    function consultarExtrato() public view returns (ExtratoInfo[] memory) {\r\n        return _extrato;\r\n    }\r\n\r\n    function consultarSaldo() public view returns (uint256) {\r\n        return _saldo;\r\n    }\r\n\r\n    function realizarDeposito(uint256 valor) public onlyOwner {\r\n        uint256 data = block.timestamp * 1000;\r\n\r\n        _govToken.mint(address(this), valor);\r\n\r\n        _extrato.push(\r\n            ExtratoInfo(\r\n                data,\r\n                unicode\"Depsito na Conta Lastro\",\r\n                valor,\r\n                \"C\",\r\n                address(0),\r\n                address(this),\r\n                \"R$\"\r\n            )\r\n        );\r\n\r\n        _extrato.push(\r\n            ExtratoInfo(\r\n                data,\r\n                unicode\"Depsito na Conta Lastro - Mint Token\",\r\n                valor,\r\n                \"C\",\r\n                address(0),\r\n                address(this),\r\n                _govToken.symbol()\r\n            )\r\n        );\r\n\r\n        _saldo += valor;\r\n\r\n        emit depositoRealizado(msg.sender, data, valor);\r\n    }\r\n\r\n    function transferirToken(\r\n        address enderecoSecretaria,\r\n        uint256 valor\r\n    ) public onlyOwner {\r\n        SecretariaInfo memory secretaria = _agenteFederado.obterSecretaria(\r\n            enderecoSecretaria\r\n        );\r\n\r\n        require(\r\n            secretaria.cadastrado,\r\n            unicode\"O endereo informado deve ser o de uma secretaria.\"\r\n        );\r\n\r\n        AgenteFederadoInfo memory agenteFederado = _agenteFederado\r\n            .obterAgenteFederado(secretaria.enderecoAgenteFederado);\r\n\r\n        uint256 data = block.timestamp * 1000;\r\n\r\n        _govToken.approve(address(this), valor);\r\n        _govToken.transfer(enderecoSecretaria, valor);\r\n\r\n        string memory descricaoExtrato = unicode\"Transferncia - \";\r\n        descricaoExtrato = string.concat(\r\n            descricaoExtrato,\r\n            agenteFederado.descricao\r\n        );\r\n        descricaoExtrato = string.concat(descricaoExtrato, \" - \");\r\n        descricaoExtrato = string.concat(\r\n            descricaoExtrato,\r\n            secretaria.descricao\r\n        );\r\n\r\n        _extrato.push(\r\n            ExtratoInfo(\r\n                data,\r\n                descricaoExtrato,\r\n                valor,\r\n                \"D\",\r\n                address(this),\r\n                enderecoSecretaria,\r\n                _govToken.symbol()\r\n            )\r\n        );\r\n\r\n        _agenteFederado.incluirLinhaExtrato(\r\n            enderecoSecretaria,\r\n            ExtratoInfo(\r\n                data,\r\n                unicode\"Recebimento de Verba - Conta Lastro da Unio\",\r\n                valor,\r\n                \"C\",\r\n                address(this),\r\n                enderecoSecretaria,\r\n                _govToken.symbol()\r\n            )\r\n        );\r\n\r\n        emit transferenciaRealizada(\r\n            msg.sender,\r\n            enderecoSecretaria,\r\n            data,\r\n            valor\r\n        );\r\n    }\r\n\r\n    function solicitarRepasse(\r\n        address enderecoFornecedor,\r\n        uint256 idServico,\r\n        uint256 valor\r\n    ) public onlyServicePanel {\r\n        uint256 data = block.timestamp * 1000;\r\n\r\n        _govToken.transferFrom(address(_painelServico), address(this), valor);\r\n\r\n        _govToken.approve(address(this), valor);\r\n        _govToken.burnFrom(address(this), valor);\r\n\r\n        ServicoInfo memory servico = _painelServico.obterServico(idServico);\r\n        FornecedorInfo memory fornecedor = _fornecedor.obterFornecedor(\r\n            servico.executor\r\n        );\r\n\r\n        string\r\n            memory descricaoExtrato = unicode\"Solicitao de Repasse de Servio | Servio: \";\r\n        descricaoExtrato = string.concat(\r\n            descricaoExtrato,\r\n            servico.descricaoResumida\r\n        );\r\n        descricaoExtrato = string.concat(descricaoExtrato, \" | Executor: \");\r\n        descricaoExtrato = string.concat(descricaoExtrato, fornecedor.nome);\r\n\r\n        _extrato.push(\r\n            ExtratoInfo(\r\n                data,\r\n                descricaoExtrato,\r\n                valor,\r\n                \"C\",\r\n                address(_painelServico),\r\n                address(this),\r\n                _govToken.symbol()\r\n            )\r\n        );\r\n\r\n        string\r\n            memory descricaoExtrato2 = unicode\"Queima de Token para Realizao de Repasse | Servio: \";\r\n        descricaoExtrato2 = string.concat(\r\n            descricaoExtrato2,\r\n            servico.descricaoResumida\r\n        );\r\n        descricaoExtrato2 = string.concat(descricaoExtrato2, \" | Executor: \");\r\n        descricaoExtrato2 = string.concat(descricaoExtrato2, fornecedor.nome);\r\n\r\n        _extrato.push(\r\n            ExtratoInfo(\r\n                data,\r\n                descricaoExtrato2,\r\n                valor,\r\n                \"D\",\r\n                address(this),\r\n                address(0),\r\n                _govToken.symbol()\r\n            )\r\n        );\r\n\r\n        string memory descricaoExtrato3 = unicode\"Repasse | Servio: \";\r\n        descricaoExtrato3 = string.concat(\r\n            descricaoExtrato3,\r\n            servico.descricaoResumida\r\n        );\r\n        descricaoExtrato3 = string.concat(descricaoExtrato3, \" | Executor: \");\r\n        descricaoExtrato3 = string.concat(descricaoExtrato3, fornecedor.nome);\r\n\r\n        _extrato.push(\r\n            ExtratoInfo(\r\n                data,\r\n                descricaoExtrato3,\r\n                valor,\r\n                \"D\",\r\n                address(this),\r\n                enderecoFornecedor,\r\n                \"R$\"\r\n            )\r\n        );\r\n\r\n        _saldo -= valor;\r\n\r\n        emit solicitacaoRepasseRealizada(\r\n            enderecoFornecedor,\r\n            data,\r\n            valor,\r\n            idServico\r\n        );\r\n    }\r\n}\r\n",
  "sourcePath": "/govtoken/Contratos/ContaLastro.sol",
  "compiler": {
    "name": "solc",
    "version": "0.8.19+commit.7dd6d404.Emscripten.clang"
  },
  "schemaVersion": "3.4.8",
  "updatedAt": "2023-03-21T01:49:00.134Z",
  "networkType": "ethereum",
  "devdoc": {
    "kind": "dev",
    "methods": {},
    "version": 1
  },
  "userdoc": {
    "kind": "user",
    "methods": {},
    "version": 1
  }
}