{
  "contractName": "ContaLastro",
  "abi": [
    {
      "inputs": [
        {
          "internalType": "contract GovToken",
          "name": "govToken",
          "type": "address"
        },
        {
          "internalType": "contract GovEducacaoToken",
          "name": "educToken",
          "type": "address"
        },
        {
          "internalType": "contract GovSaudeToken",
          "name": "saudeToken",
          "type": "address"
        },
        {
          "internalType": "contract AgenteFederado",
          "name": "agenteFederado",
          "type": "address"
        }
      ],
      "stateMutability": "nonpayable",
      "type": "constructor"
    },
    {
      "anonymous": false,
      "inputs": [
        {
          "indexed": false,
          "internalType": "address",
          "name": "sender",
          "type": "address"
        },
        {
          "indexed": false,
          "internalType": "uint256",
          "name": "data",
          "type": "uint256"
        },
        {
          "indexed": false,
          "internalType": "uint256",
          "name": "valor",
          "type": "uint256"
        }
      ],
      "name": "depositoRealizado",
      "type": "event"
    },
    {
      "anonymous": false,
      "inputs": [
        {
          "indexed": false,
          "internalType": "address",
          "name": "sender",
          "type": "address"
        },
        {
          "indexed": false,
          "internalType": "address",
          "name": "enderecoAgenteFederado",
          "type": "address"
        },
        {
          "indexed": false,
          "internalType": "uint256",
          "name": "data",
          "type": "uint256"
        },
        {
          "indexed": false,
          "internalType": "uint256",
          "name": "valor",
          "type": "uint256"
        }
      ],
      "name": "transferenciaRealizada",
      "type": "event"
    },
    {
      "inputs": [
        {
          "internalType": "address",
          "name": "owner",
          "type": "address"
        },
        {
          "internalType": "bool",
          "name": "isOwner",
          "type": "bool"
        }
      ],
      "name": "setOwner",
      "outputs": [],
      "stateMutability": "nonpayable",
      "type": "function"
    },
    {
      "inputs": [],
      "name": "consultarExtrato",
      "outputs": [
        {
          "components": [
            {
              "internalType": "uint256",
              "name": "data",
              "type": "uint256"
            },
            {
              "internalType": "string",
              "name": "descricao",
              "type": "string"
            },
            {
              "internalType": "uint256",
              "name": "valor",
              "type": "uint256"
            },
            {
              "internalType": "string",
              "name": "creditoDebito",
              "type": "string"
            },
            {
              "internalType": "address",
              "name": "origem",
              "type": "address"
            },
            {
              "internalType": "address",
              "name": "destino",
              "type": "address"
            },
            {
              "internalType": "string",
              "name": "simboloToken",
              "type": "string"
            }
          ],
          "internalType": "struct Extrato[]",
          "name": "",
          "type": "tuple[]"
        }
      ],
      "stateMutability": "view",
      "type": "function",
      "constant": true
    },
    {
      "inputs": [
        {
          "internalType": "uint256",
          "name": "data",
          "type": "uint256"
        },
        {
          "internalType": "uint256",
          "name": "valor",
          "type": "uint256"
        }
      ],
      "name": "realizarDeposito",
      "outputs": [],
      "stateMutability": "nonpayable",
      "type": "function"
    },
    {
      "inputs": [
        {
          "internalType": "address",
          "name": "enderecoAgenteFederado",
          "type": "address"
        },
        {
          "internalType": "uint256",
          "name": "data",
          "type": "uint256"
        },
        {
          "internalType": "uint256",
          "name": "valor",
          "type": "uint256"
        },
        {
          "internalType": "enum TipoSecretaria",
          "name": "tipoSecretaria",
          "type": "uint8"
        }
      ],
      "name": "transferirToken",
      "outputs": [],
      "stateMutability": "nonpayable",
      "type": "function"
    }
  ],
  "bytecode": "0x608060405260006005553480156200001657600080fd5b506040516200207c3803806200207c83398181016040528101906200003c9190620002ee565b60016000803373ffffffffffffffffffffffffffffffffffffffff1673ffffffffffffffffffffffffffffffffffffffff16815260200190815260200160002060006101000a81548160ff02191690831515021790555083600160006101000a81548173ffffffffffffffffffffffffffffffffffffffff021916908373ffffffffffffffffffffffffffffffffffffffff16021790555082600260006101000a81548173ffffffffffffffffffffffffffffffffffffffff021916908373ffffffffffffffffffffffffffffffffffffffff16021790555081600360006101000a81548173ffffffffffffffffffffffffffffffffffffffff021916908373ffffffffffffffffffffffffffffffffffffffff16021790555080600460006101000a81548173ffffffffffffffffffffffffffffffffffffffff021916908373ffffffffffffffffffffffffffffffffffffffff1602179055505050505062000360565b600080fd5b600073ffffffffffffffffffffffffffffffffffffffff82169050919050565b6000620001d382620001a6565b9050919050565b6000620001e782620001c6565b9050919050565b620001f981620001da565b81146200020557600080fd5b50565b6000815190506200021981620001ee565b92915050565b60006200022c82620001c6565b9050919050565b6200023e816200021f565b81146200024a57600080fd5b50565b6000815190506200025e8162000233565b92915050565b60006200027182620001c6565b9050919050565b620002838162000264565b81146200028f57600080fd5b50565b600081519050620002a38162000278565b92915050565b6000620002b682620001c6565b9050919050565b620002c881620002a9565b8114620002d457600080fd5b50565b600081519050620002e881620002bd565b92915050565b600080600080608085870312156200030b576200030a620001a1565b5b60006200031b8782880162000208565b94505060206200032e878288016200024d565b9350506040620003418782880162000292565b92505060606200035487828801620002d7565b91505092959194509250565b611d0c80620003706000396000f3fe608060405234801561001057600080fd5b506004361061004c5760003560e01c8063516c731c146100515780636da523111461006d578063cc138f701461008b578063e53ee170146100a7575b600080fd5b61006b600480360381019061006691906112fd565b6100c3565b005b610075610172565b6040516100829190611561565b60405180910390f35b6100a560048036038101906100a091906115d4565b610447565b005b6100c160048036038101906100bc919061163b565b610f14565b005b6000803373ffffffffffffffffffffffffffffffffffffffff1673ffffffffffffffffffffffffffffffffffffffff16815260200190815260200160002060009054906101000a900460ff1661011857600080fd5b806000808473ffffffffffffffffffffffffffffffffffffffff1673ffffffffffffffffffffffffffffffffffffffff16815260200190815260200160002060006101000a81548160ff0219169083151502179055505050565b60606006805480602002602001604051908101604052809291908181526020016000905b8282101561043e57838290600052602060002090600702016040518060e0016040529081600082015481526020016001820180546101d3906116aa565b80601f01602080910402602001604051908101604052809291908181526020018280546101ff906116aa565b801561024c5780601f106102215761010080835404028352916020019161024c565b820191906000526020600020905b81548152906001019060200180831161022f57829003601f168201915b505050505081526020016002820154815260200160038201805461026f906116aa565b80601f016020809104026020016040519081016040528092919081815260200182805461029b906116aa565b80156102e85780601f106102bd576101008083540402835291602001916102e8565b820191906000526020600020905b8154815290600101906020018083116102cb57829003601f168201915b505050505081526020016004820160009054906101000a900473ffffffffffffffffffffffffffffffffffffffff1673ffffffffffffffffffffffffffffffffffffffff1673ffffffffffffffffffffffffffffffffffffffff1681526020016005820160009054906101000a900473ffffffffffffffffffffffffffffffffffffffff1673ffffffffffffffffffffffffffffffffffffffff1673ffffffffffffffffffffffffffffffffffffffff1681526020016006820180546103ad906116aa565b80601f01602080910402602001604051908101604052809291908181526020018280546103d9906116aa565b80156104265780601f106103fb57610100808354040283529160200191610426565b820191906000526020600020905b81548152906001019060200180831161040957829003601f168201915b50505050508152505081526020019060010190610196565b50505050905090565b6000803373ffffffffffffffffffffffffffffffffffffffff1673ffffffffffffffffffffffffffffffffffffffff16815260200190815260200160002060009054906101000a900460ff1661049c57600080fd5b6060600160009054906101000a900473ffffffffffffffffffffffffffffffffffffffff1673ffffffffffffffffffffffffffffffffffffffff1663095ea7b330856040518363ffffffff1660e01b81526004016104fb9291906116f9565b6020604051808303816000875af115801561051a573d6000803e3d6000fd5b505050506040513d601f19601f8201168201806040525081019061053e9190611737565b50600160009054906101000a900473ffffffffffffffffffffffffffffffffffffffff1673ffffffffffffffffffffffffffffffffffffffff166379cc679030856040518363ffffffff1660e01b815260040161059c9291906116f9565b600060405180830381600087803b1580156105b657600080fd5b505af11580156105ca573d6000803e3d6000fd5b50505050600060018111156105e2576105e1611764565b5b8260018111156105f5576105f4611764565b5b0361086857600360009054906101000a900473ffffffffffffffffffffffffffffffffffffffff1673ffffffffffffffffffffffffffffffffffffffff166340c10f1930856040518363ffffffff1660e01b81526004016106579291906116f9565b600060405180830381600087803b15801561067157600080fd5b505af1158015610685573d6000803e3d6000fd5b50505050600360009054906101000a900473ffffffffffffffffffffffffffffffffffffffff1673ffffffffffffffffffffffffffffffffffffffff1663095ea7b386856040518363ffffffff1660e01b81526004016106e69291906116f9565b6020604051808303816000875af1158015610705573d6000803e3d6000fd5b505050506040513d601f19601f820116820180604052508101906107299190611737565b50600360009054906101000a900473ffffffffffffffffffffffffffffffffffffffff1673ffffffffffffffffffffffffffffffffffffffff1663a9059cbb86856040518363ffffffff1660e01b81526004016107879291906116f9565b6020604051808303816000875af11580156107a6573d6000803e3d6000fd5b505050506040513d601f19601f820116820180604052508101906107ca9190611737565b50600360009054906101000a900473ffffffffffffffffffffffffffffffffffffffff1673ffffffffffffffffffffffffffffffffffffffff166395d89b416040518163ffffffff1660e01b8152600401600060405180830381865afa158015610838573d6000803e3d6000fd5b505050506040513d6000823e3d601f19601f8201168201806040525081019061086191906118b9565b9050610afe565b60018081111561087b5761087a611764565b5b82600181111561088e5761088d611764565b5b03610afd57600260009054906101000a900473ffffffffffffffffffffffffffffffffffffffff1673ffffffffffffffffffffffffffffffffffffffff166340c10f1930856040518363ffffffff1660e01b81526004016108f09291906116f9565b600060405180830381600087803b15801561090a57600080fd5b505af115801561091e573d6000803e3d6000fd5b50505050600260009054906101000a900473ffffffffffffffffffffffffffffffffffffffff1673ffffffffffffffffffffffffffffffffffffffff1663095ea7b386856040518363ffffffff1660e01b815260040161097f9291906116f9565b6020604051808303816000875af115801561099e573d6000803e3d6000fd5b505050506040513d601f19601f820116820180604052508101906109c29190611737565b50600260009054906101000a900473ffffffffffffffffffffffffffffffffffffffff1673ffffffffffffffffffffffffffffffffffffffff1663a9059cbb86856040518363ffffffff1660e01b8152600401610a209291906116f9565b6020604051808303816000875af1158015610a3f573d6000803e3d6000fd5b505050506040513d601f19601f82011682018060405250810190610a639190611737565b50600260009054906101000a900473ffffffffffffffffffffffffffffffffffffffff1673ffffffffffffffffffffffffffffffffffffffff166395d89b416040518163ffffffff1660e01b8152600401600060405180830381865afa158015610ad1573d6000803e3d6000fd5b505050506040513d6000823e3d601f19601f82011682018060405250810190610afa91906118b9565b90505b5b60066040518060e001604052808681526020016040518060400160405280600e81526020017f5472616e73666572c3aa6e63696100000000000000000000000000000000000081525081526020018581526020016040518060400160405280600181526020017f440000000000000000000000000000000000000000000000000000000000000081525081526020013073ffffffffffffffffffffffffffffffffffffffff1681526020018773ffffffffffffffffffffffffffffffffffffffff168152602001600160009054906101000a900473ffffffffffffffffffffffffffffffffffffffff1673ffffffffffffffffffffffffffffffffffffffff166395d89b416040518163ffffffff1660e01b8152600401600060405180830381865afa158015610c32573d6000803e3d6000fd5b505050506040513d6000823e3d601f19601f82011682018060405250810190610c5b91906118b9565b8152509080600181540180825580915050600190039060005260206000209060070201600090919091909150600082015181600001556020820151816001019081610ca69190611aae565b50604082015181600201556060820151816003019081610cc69190611aae565b5060808201518160040160006101000a81548173ffffffffffffffffffffffffffffffffffffffff021916908373ffffffffffffffffffffffffffffffffffffffff16021790555060a08201518160050160006101000a81548173ffffffffffffffffffffffffffffffffffffffff021916908373ffffffffffffffffffffffffffffffffffffffff16021790555060c0820151816006019081610d6a9190611aae565b505050600680549050600581905550600460009054906101000a900473ffffffffffffffffffffffffffffffffffffffff1673ffffffffffffffffffffffffffffffffffffffff166378905bc2866040518060e001604052808881526020016040518060400160405280600981526020017f446570c3b37369746f000000000000000000000000000000000000000000000081525081526020018781526020016040518060400160405280600181526020017f430000000000000000000000000000000000000000000000000000000000000081525081526020013073ffffffffffffffffffffffffffffffffffffffff1681526020018973ffffffffffffffffffffffffffffffffffffffff168152602001858152506040518363ffffffff1660e01b8152600401610e9e929190611c2a565b600060405180830381600087803b158015610eb857600080fd5b505af1158015610ecc573d6000803e3d6000fd5b505050507f84ab5b9da0c9f713409211eddd9c42ca07b48d00daf1845440b271a29aff451833868686604051610f059493929190611c5a565b60405180910390a15050505050565b6000803373ffffffffffffffffffffffffffffffffffffffff1673ffffffffffffffffffffffffffffffffffffffff16815260200190815260200160002060009054906101000a900460ff16610f6957600080fd5b600160009054906101000a900473ffffffffffffffffffffffffffffffffffffffff1673ffffffffffffffffffffffffffffffffffffffff166340c10f1930836040518363ffffffff1660e01b8152600401610fc69291906116f9565b600060405180830381600087803b158015610fe057600080fd5b505af1158015610ff4573d6000803e3d6000fd5b5050505060066040518060e001604052808481526020016040518060400160405280600981526020017f446570c3b37369746f000000000000000000000000000000000000000000000081525081526020018381526020016040518060400160405280600181526020017f43000000000000000000000000000000000000000000000000000000000000008152508152602001600073ffffffffffffffffffffffffffffffffffffffff1681526020013073ffffffffffffffffffffffffffffffffffffffff1681526020016040518060400160405280600281526020017f522400000000000000000000000000000000000000000000000000000000000081525081525090806001815401808255809150506001900390600052602060002090600702016000909190919091506000820151816000015560208201518160010190816111419190611aae565b506040820151816002015560608201518160030190816111619190611aae565b5060808201518160040160006101000a81548173ffffffffffffffffffffffffffffffffffffffff021916908373ffffffffffffffffffffffffffffffffffffffff16021790555060a08201518160050160006101000a81548173ffffffffffffffffffffffffffffffffffffffff021916908373ffffffffffffffffffffffffffffffffffffffff16021790555060c08201518160060190816112059190611aae565b5050506006805490506005819055507f41a2ab1ce036886b25a16e7e14b07ca8dba8ca5e38d137ce6764a0036201d83233838360405161124793929190611c9f565b60405180910390a15050565b6000604051905090565b600080fd5b600080fd5b600073ffffffffffffffffffffffffffffffffffffffff82169050919050565b600061129282611267565b9050919050565b6112a281611287565b81146112ad57600080fd5b50565b6000813590506112bf81611299565b92915050565b60008115159050919050565b6112da816112c5565b81146112e557600080fd5b50565b6000813590506112f7816112d1565b92915050565b600080604083850312156113145761131361125d565b5b6000611322858286016112b0565b9250506020611333858286016112e8565b9150509250929050565b600081519050919050565b600082825260208201905092915050565b6000819050602082019050919050565b6000819050919050565b61137c81611369565b82525050565b600081519050919050565b600082825260208201905092915050565b60005b838110156113bc5780820151818401526020810190506113a1565b60008484015250505050565b6000601f19601f8301169050919050565b60006113e482611382565b6113ee818561138d565b93506113fe81856020860161139e565b611407816113c8565b840191505092915050565b61141b81611287565b82525050565b600060e0830160008301516114396000860182611373565b506020830151848203602086015261145182826113d9565b91505060408301516114666040860182611373565b506060830151848203606086015261147e82826113d9565b91505060808301516114936080860182611412565b5060a08301516114a660a0860182611412565b5060c083015184820360c08601526114be82826113d9565b9150508091505092915050565b60006114d78383611421565b905092915050565b6000602082019050919050565b60006114f78261133d565b6115018185611348565b93508360208202850161151385611359565b8060005b8581101561154f578484038952815161153085826114cb565b945061153b836114df565b925060208a01995050600181019050611517565b50829750879550505050505092915050565b6000602082019050818103600083015261157b81846114ec565b905092915050565b61158c81611369565b811461159757600080fd5b50565b6000813590506115a981611583565b92915050565b600281106115bc57600080fd5b50565b6000813590506115ce816115af565b92915050565b600080600080608085870312156115ee576115ed61125d565b5b60006115fc878288016112b0565b945050602061160d8782880161159a565b935050604061161e8782880161159a565b925050606061162f878288016115bf565b91505092959194509250565b600080604083850312156116525761165161125d565b5b60006116608582860161159a565b92505060206116718582860161159a565b9150509250929050565b7f4e487b7100000000000000000000000000000000000000000000000000000000600052602260045260246000fd5b600060028204905060018216806116c257607f821691505b6020821081036116d5576116d461167b565b5b50919050565b6116e481611287565b82525050565b6116f381611369565b82525050565b600060408201905061170e60008301856116db565b61171b60208301846116ea565b9392505050565b600081519050611731816112d1565b92915050565b60006020828403121561174d5761174c61125d565b5b600061175b84828501611722565b91505092915050565b7f4e487b7100000000000000000000000000000000000000000000000000000000600052602160045260246000fd5b600080fd5b600080fd5b7f4e487b7100000000000000000000000000000000000000000000000000000000600052604160045260246000fd5b6117d5826113c8565b810181811067ffffffffffffffff821117156117f4576117f361179d565b5b80604052505050565b6000611807611253565b905061181382826117cc565b919050565b600067ffffffffffffffff8211156118335761183261179d565b5b61183c826113c8565b9050602081019050919050565b600061185c61185784611818565b6117fd565b90508281526020810184848401111561187857611877611798565b5b61188384828561139e565b509392505050565b600082601f8301126118a05761189f611793565b5b81516118b0848260208601611849565b91505092915050565b6000602082840312156118cf576118ce61125d565b5b600082015167ffffffffffffffff8111156118ed576118ec611262565b5b6118f98482850161188b565b91505092915050565b60008190508160005260206000209050919050565b60006020601f8301049050919050565b600082821b905092915050565b6000600883026119647fffffffffffffffffffffffffffffffffffffffffffffffffffffffffffffffff82611927565b61196e8683611927565b95508019841693508086168417925050509392505050565b6000819050919050565b60006119ab6119a66119a184611369565b611986565b611369565b9050919050565b6000819050919050565b6119c583611990565b6119d96119d1826119b2565b848454611934565b825550505050565b600090565b6119ee6119e1565b6119f98184846119bc565b505050565b5b81811015611a1d57611a126000826119e6565b6001810190506119ff565b5050565b601f821115611a6257611a3381611902565b611a3c84611917565b81016020851015611a4b578190505b611a5f611a5785611917565b8301826119fe565b50505b505050565b600082821c905092915050565b6000611a8560001984600802611a67565b1980831691505092915050565b6000611a9e8383611a74565b9150826002028217905092915050565b611ab782611382565b67ffffffffffffffff811115611ad057611acf61179d565b5b611ada82546116aa565b611ae5828285611a21565b600060209050601f831160018114611b185760008415611b06578287015190505b611b108582611a92565b865550611b78565b601f198416611b2686611902565b60005b82811015611b4e57848901518255600182019150602085019450602081019050611b29565b86831015611b6b5784890151611b67601f891682611a74565b8355505b6001600288020188555050505b505050505050565b600060e083016000830151611b986000860182611373565b5060208301518482036020860152611bb082826113d9565b9150506040830151611bc56040860182611373565b5060608301518482036060860152611bdd82826113d9565b9150506080830151611bf26080860182611412565b5060a0830151611c0560a0860182611412565b5060c083015184820360c0860152611c1d82826113d9565b9150508091505092915050565b6000604082019050611c3f60008301856116db565b8181036020830152611c518184611b80565b90509392505050565b6000608082019050611c6f60008301876116db565b611c7c60208301866116db565b611c8960408301856116ea565b611c9660608301846116ea565b95945050505050565b6000606082019050611cb460008301866116db565b611cc160208301856116ea565b611cce60408301846116ea565b94935050505056fea264697066735822122029078ad994ff9c4cb96a9c1f25da927455ee605d9fcb8fca0a7d88b19661a71564736f6c63430008130033",
  "immutableReferences": {},
  "source": "// SPDX-License-Identifier: MIT\r\npragma solidity ^0.8.0;\r\n\r\nimport \"./GovToken.sol\";\r\nimport \"./GovEducacaoToken.sol\";\r\nimport \"./GovSaudeToken.sol\";\r\nimport \"./AgenteFederado.sol\";\r\nimport \"./TiposComuns.sol\";\r\n\r\ncontract ContaLastro {\r\n    //Propriedades\r\n    mapping(address => bool) private _owners;\r\n\r\n    GovToken private _govToken;\r\n    GovEducacaoToken private _educToken;\r\n    GovSaudeToken private _saudeToken;\r\n    AgenteFederado private _agenteFederado;\r\n\r\n    uint256 private _qtdLinhasExtrato = 0;\r\n    Extrato[] private _extrato;\r\n\r\n    //Construtores\r\n    constructor(\r\n        GovToken govToken,\r\n        GovEducacaoToken educToken,\r\n        GovSaudeToken saudeToken,\r\n        AgenteFederado agenteFederado\r\n    ) {\r\n        _owners[msg.sender] = true;\r\n        _govToken = govToken;\r\n        _educToken = educToken;\r\n        _saudeToken = saudeToken;\r\n        _agenteFederado = agenteFederado;\r\n    }\r\n\r\n    //Modificadores\r\n    modifier onlyOwner() {\r\n        require(_owners[msg.sender]);\r\n        _;\r\n    }\r\n\r\n    modifier verificarAgenteFederado(address endereco) {\r\n        require(_agenteFederado.obterAgenteFederado(endereco).cadastrado);\r\n        _;\r\n    }\r\n\r\n    //Eventos\r\n    event depositoRealizado(address sender, uint256 data, uint256 valor);\r\n    event transferenciaRealizada(\r\n        address sender,\r\n        address enderecoAgenteFederado,\r\n        uint256 data,\r\n        uint256 valor\r\n    );\r\n\r\n    //Funes\r\n    function setOwner(address owner, bool isOwner) public onlyOwner {\r\n        _owners[owner] = isOwner;\r\n    }\r\n\r\n    function consultarExtrato() public view returns (Extrato[] memory) {\r\n        return _extrato;\r\n    }\r\n\r\n    function realizarDeposito(uint256 data, uint256 valor) public onlyOwner {\r\n        _govToken.mint(address(this), valor);\r\n\r\n        _extrato.push(\r\n            Extrato(\r\n                data,\r\n                unicode\"Depsito\",\r\n                valor,\r\n                \"C\",\r\n                address(0),\r\n                address(this),\r\n                \"R$\"\r\n            )\r\n        );\r\n        _qtdLinhasExtrato = _extrato.length;\r\n\r\n        emit depositoRealizado(msg.sender, data, valor);\r\n    }\r\n\r\n    function transferirToken(\r\n        address enderecoAgenteFederado,\r\n        uint256 data,\r\n        uint256 valor,\r\n        TipoSecretaria tipoSecretaria\r\n    ) public onlyOwner {\r\n        string memory simboloToken;\r\n\r\n        _govToken.approve(address(this), valor);\r\n        _govToken.burnFrom(address(this), valor);\r\n\r\n        if (tipoSecretaria == TipoSecretaria.Saude) {\r\n            _saudeToken.mint(address(this), valor);\r\n\r\n            _saudeToken.approve(enderecoAgenteFederado, valor);\r\n            _saudeToken.transfer(enderecoAgenteFederado, valor);\r\n            simboloToken = _saudeToken.symbol();\r\n        } else if (tipoSecretaria == TipoSecretaria.Educacao) {\r\n            _educToken.mint(address(this), valor);\r\n\r\n            _educToken.approve(enderecoAgenteFederado, valor);\r\n            _educToken.transfer(enderecoAgenteFederado, valor);\r\n            simboloToken = _educToken.symbol();\r\n        }\r\n\r\n        _extrato.push(\r\n            Extrato(\r\n                data,\r\n                unicode\"Transferncia\",\r\n                valor,\r\n                \"D\",\r\n                address(this),\r\n                enderecoAgenteFederado,\r\n                _govToken.symbol()\r\n            )\r\n        );\r\n        _qtdLinhasExtrato = _extrato.length;\r\n\r\n        _agenteFederado.incluirLinhaExtrato(\r\n            enderecoAgenteFederado,\r\n            Extrato(\r\n                data,\r\n                unicode\"Depsito\",\r\n                valor,\r\n                \"C\",\r\n                address(this),\r\n                enderecoAgenteFederado,\r\n                simboloToken\r\n            )\r\n        );\r\n\r\n        emit transferenciaRealizada(\r\n            msg.sender,\r\n            enderecoAgenteFederado,\r\n            data,\r\n            valor\r\n        );\r\n    }\r\n}\r\n",
  "sourcePath": "/govtoken/Contratos/ContaLastro.sol",
  "compiler": {
    "name": "solc",
    "version": "0.8.19+commit.7dd6d404.Emscripten.clang"
  },
  "schemaVersion": "3.4.8",
  "updatedAt": "2023-03-06T00:24:38.449Z",
  "networkType": "ethereum",
  "devdoc": {
    "kind": "dev",
    "methods": {},
    "version": 1
  },
  "userdoc": {
    "kind": "user",
    "methods": {},
    "version": 1
  }
}