{
  "contractName": "ContaLastro",
  "abi": [
    {
      "inputs": [
        {
          "internalType": "contract GovToken",
          "name": "govToken",
          "type": "address"
        },
        {
          "internalType": "contract AgenteFederado",
          "name": "agenteFederado",
          "type": "address"
        }
      ],
      "stateMutability": "nonpayable",
      "type": "constructor"
    },
    {
      "anonymous": false,
      "inputs": [
        {
          "indexed": false,
          "internalType": "address",
          "name": "sender",
          "type": "address"
        },
        {
          "indexed": false,
          "internalType": "uint256",
          "name": "data",
          "type": "uint256"
        },
        {
          "indexed": false,
          "internalType": "uint256",
          "name": "valor",
          "type": "uint256"
        }
      ],
      "name": "depositoRealizado",
      "type": "event"
    },
    {
      "anonymous": false,
      "inputs": [
        {
          "indexed": false,
          "internalType": "address",
          "name": "sender",
          "type": "address"
        },
        {
          "indexed": false,
          "internalType": "address",
          "name": "enderecoAgenteFederado",
          "type": "address"
        },
        {
          "indexed": false,
          "internalType": "uint256",
          "name": "data",
          "type": "uint256"
        },
        {
          "indexed": false,
          "internalType": "uint256",
          "name": "valor",
          "type": "uint256"
        }
      ],
      "name": "transferenciaRealizada",
      "type": "event"
    },
    {
      "inputs": [
        {
          "internalType": "address",
          "name": "owner",
          "type": "address"
        },
        {
          "internalType": "bool",
          "name": "isOwner",
          "type": "bool"
        }
      ],
      "name": "setOwner",
      "outputs": [],
      "stateMutability": "nonpayable",
      "type": "function"
    },
    {
      "inputs": [],
      "name": "consultarExtrato",
      "outputs": [
        {
          "components": [
            {
              "internalType": "uint256",
              "name": "data",
              "type": "uint256"
            },
            {
              "internalType": "string",
              "name": "descricao",
              "type": "string"
            },
            {
              "internalType": "uint256",
              "name": "valor",
              "type": "uint256"
            },
            {
              "internalType": "string",
              "name": "creditoDebito",
              "type": "string"
            },
            {
              "internalType": "address",
              "name": "origem",
              "type": "address"
            },
            {
              "internalType": "address",
              "name": "destino",
              "type": "address"
            },
            {
              "internalType": "string",
              "name": "simboloToken",
              "type": "string"
            }
          ],
          "internalType": "struct ExtratoInfo[]",
          "name": "",
          "type": "tuple[]"
        }
      ],
      "stateMutability": "view",
      "type": "function",
      "constant": true
    },
    {
      "inputs": [
        {
          "internalType": "uint256",
          "name": "data",
          "type": "uint256"
        },
        {
          "internalType": "uint256",
          "name": "valor",
          "type": "uint256"
        }
      ],
      "name": "realizarDeposito",
      "outputs": [],
      "stateMutability": "nonpayable",
      "type": "function"
    },
    {
      "inputs": [
        {
          "internalType": "address",
          "name": "enderecoSecretaria",
          "type": "address"
        },
        {
          "internalType": "uint256",
          "name": "data",
          "type": "uint256"
        },
        {
          "internalType": "uint256",
          "name": "valor",
          "type": "uint256"
        }
      ],
      "name": "transferirToken",
      "outputs": [],
      "stateMutability": "nonpayable",
      "type": "function"
    }
  ],
  "bytecode": "0x608060405260006003553480156200001657600080fd5b5060405162001e6f38038062001e6f83398181016040528101906200003c9190620001e0565b60016000803373ffffffffffffffffffffffffffffffffffffffff1673ffffffffffffffffffffffffffffffffffffffff16815260200190815260200160002060006101000a81548160ff02191690831515021790555081600160006101000a81548173ffffffffffffffffffffffffffffffffffffffff021916908373ffffffffffffffffffffffffffffffffffffffff16021790555080600260006101000a81548173ffffffffffffffffffffffffffffffffffffffff021916908373ffffffffffffffffffffffffffffffffffffffff160217905550505062000227565b600080fd5b600073ffffffffffffffffffffffffffffffffffffffff82169050919050565b60006200014f8262000122565b9050919050565b6000620001638262000142565b9050919050565b620001758162000156565b81146200018157600080fd5b50565b60008151905062000195816200016a565b92915050565b6000620001a88262000142565b9050919050565b620001ba816200019b565b8114620001c657600080fd5b50565b600081519050620001da81620001af565b92915050565b60008060408385031215620001fa57620001f96200011d565b5b60006200020a8582860162000184565b92505060206200021d85828601620001c9565b9150509250929050565b611c3880620002376000396000f3fe608060405234801561001057600080fd5b506004361061004c5760003560e01c8063036ec3c414610051578063516c731c1461006d5780636da5231114610089578063e53ee170146100a7575b600080fd5b61006b60048036038101906100669190610ff4565b6100c3565b005b6100876004803603810190610082919061107f565b61081d565b005b610091610902565b60405161009e91906112d9565b60405180910390f35b6100c160048036038101906100bc91906112fb565b610bd7565b005b6000803373ffffffffffffffffffffffffffffffffffffffff1673ffffffffffffffffffffffffffffffffffffffff16815260200190815260200160002060009054906101000a900460ff1661014e576040517f08c379a0000000000000000000000000000000000000000000000000000000008152600401610145906113e4565b60405180910390fd5b600260009054906101000a900473ffffffffffffffffffffffffffffffffffffffff1673ffffffffffffffffffffffffffffffffffffffff166308944790846040518263ffffffff1660e01b81526004016101a99190611413565b600060405180830381865afa1580156101c6573d6000803e3d6000fd5b505050506040513d6000823e3d601f19601f820116820180604052508101906101ef9190611645565b60800151610232576040517f08c379a000000000000000000000000000000000000000000000000000000000815260040161022990611700565b60405180910390fd5b600160009054906101000a900473ffffffffffffffffffffffffffffffffffffffff1673ffffffffffffffffffffffffffffffffffffffff1663095ea7b330836040518363ffffffff1660e01b815260040161028f92919061172f565b6020604051808303816000875af11580156102ae573d6000803e3d6000fd5b505050506040513d601f19601f820116820180604052508101906102d29190611758565b50600160009054906101000a900473ffffffffffffffffffffffffffffffffffffffff1673ffffffffffffffffffffffffffffffffffffffff1663a9059cbb84836040518363ffffffff1660e01b815260040161033092919061172f565b6020604051808303816000875af115801561034f573d6000803e3d6000fd5b505050506040513d601f19601f820116820180604052508101906103739190611758565b5060046040518060e001604052808481526020016040518060400160405280600e81526020017f5472616e73666572c3aa6e63696100000000000000000000000000000000000081525081526020018381526020016040518060400160405280600181526020017f440000000000000000000000000000000000000000000000000000000000000081525081526020013073ffffffffffffffffffffffffffffffffffffffff1681526020018573ffffffffffffffffffffffffffffffffffffffff168152602001600160009054906101000a900473ffffffffffffffffffffffffffffffffffffffff1673ffffffffffffffffffffffffffffffffffffffff166395d89b416040518163ffffffff1660e01b8152600401600060405180830381865afa1580156104a8573d6000803e3d6000fd5b505050506040513d6000823e3d601f19601f820116820180604052508101906104d19190611785565b815250908060018154018082558091505060019003906000526020600020906007020160009091909190915060008201518160000155602082015181600101908161051c91906119da565b5060408201518160020155606082015181600301908161053c91906119da565b5060808201518160040160006101000a81548173ffffffffffffffffffffffffffffffffffffffff021916908373ffffffffffffffffffffffffffffffffffffffff16021790555060a08201518160050160006101000a81548173ffffffffffffffffffffffffffffffffffffffff021916908373ffffffffffffffffffffffffffffffffffffffff16021790555060c08201518160060190816105e091906119da565b505050600480549050600381905550600260009054906101000a900473ffffffffffffffffffffffffffffffffffffffff1673ffffffffffffffffffffffffffffffffffffffff166378905bc2846040518060e001604052808681526020016040518060400160405280600981526020017f446570c3b37369746f000000000000000000000000000000000000000000000081525081526020018581526020016040518060400160405280600181526020017f430000000000000000000000000000000000000000000000000000000000000081525081526020013073ffffffffffffffffffffffffffffffffffffffff1681526020018773ffffffffffffffffffffffffffffffffffffffff168152602001600160009054906101000a900473ffffffffffffffffffffffffffffffffffffffff1673ffffffffffffffffffffffffffffffffffffffff166395d89b416040518163ffffffff1660e01b8152600401600060405180830381865afa158015610760573d6000803e3d6000fd5b505050506040513d6000823e3d601f19601f820116820180604052508101906107899190611785565b8152506040518363ffffffff1660e01b81526004016107a9929190611b56565b600060405180830381600087803b1580156107c357600080fd5b505af11580156107d7573d6000803e3d6000fd5b505050507f84ab5b9da0c9f713409211eddd9c42ca07b48d00daf1845440b271a29aff4518338484846040516108109493929190611b86565b60405180910390a1505050565b6000803373ffffffffffffffffffffffffffffffffffffffff1673ffffffffffffffffffffffffffffffffffffffff16815260200190815260200160002060009054906101000a900460ff166108a8576040517f08c379a000000000000000000000000000000000000000000000000000000000815260040161089f906113e4565b60405180910390fd5b806000808473ffffffffffffffffffffffffffffffffffffffff1673ffffffffffffffffffffffffffffffffffffffff16815260200190815260200160002060006101000a81548160ff0219169083151502179055505050565b60606004805480602002602001604051908101604052809291908181526020016000905b82821015610bce57838290600052602060002090600702016040518060e001604052908160008201548152602001600182018054610963906117fd565b80601f016020809104026020016040519081016040528092919081815260200182805461098f906117fd565b80156109dc5780601f106109b1576101008083540402835291602001916109dc565b820191906000526020600020905b8154815290600101906020018083116109bf57829003601f168201915b50505050508152602001600282015481526020016003820180546109ff906117fd565b80601f0160208091040260200160405190810160405280929190818152602001828054610a2b906117fd565b8015610a785780601f10610a4d57610100808354040283529160200191610a78565b820191906000526020600020905b815481529060010190602001808311610a5b57829003601f168201915b505050505081526020016004820160009054906101000a900473ffffffffffffffffffffffffffffffffffffffff1673ffffffffffffffffffffffffffffffffffffffff1673ffffffffffffffffffffffffffffffffffffffff1681526020016005820160009054906101000a900473ffffffffffffffffffffffffffffffffffffffff1673ffffffffffffffffffffffffffffffffffffffff1673ffffffffffffffffffffffffffffffffffffffff168152602001600682018054610b3d906117fd565b80601f0160208091040260200160405190810160405280929190818152602001828054610b69906117fd565b8015610bb65780601f10610b8b57610100808354040283529160200191610bb6565b820191906000526020600020905b815481529060010190602001808311610b9957829003601f168201915b50505050508152505081526020019060010190610926565b50505050905090565b6000803373ffffffffffffffffffffffffffffffffffffffff1673ffffffffffffffffffffffffffffffffffffffff16815260200190815260200160002060009054906101000a900460ff16610c62576040517f08c379a0000000000000000000000000000000000000000000000000000000008152600401610c59906113e4565b60405180910390fd5b600160009054906101000a900473ffffffffffffffffffffffffffffffffffffffff1673ffffffffffffffffffffffffffffffffffffffff166340c10f1930836040518363ffffffff1660e01b8152600401610cbf92919061172f565b600060405180830381600087803b158015610cd957600080fd5b505af1158015610ced573d6000803e3d6000fd5b5050505060046040518060e001604052808481526020016040518060400160405280600981526020017f446570c3b37369746f000000000000000000000000000000000000000000000081525081526020018381526020016040518060400160405280600181526020017f43000000000000000000000000000000000000000000000000000000000000008152508152602001600073ffffffffffffffffffffffffffffffffffffffff1681526020013073ffffffffffffffffffffffffffffffffffffffff1681526020016040518060400160405280600281526020017f52240000000000000000000000000000000000000000000000000000000000008152508152509080600181540180825580915050600190039060005260206000209060070201600090919091909150600082015181600001556020820151816001019081610e3a91906119da565b50604082015181600201556060820151816003019081610e5a91906119da565b5060808201518160040160006101000a81548173ffffffffffffffffffffffffffffffffffffffff021916908373ffffffffffffffffffffffffffffffffffffffff16021790555060a08201518160050160006101000a81548173ffffffffffffffffffffffffffffffffffffffff021916908373ffffffffffffffffffffffffffffffffffffffff16021790555060c0820151816006019081610efe91906119da565b5050506004805490506003819055507f41a2ab1ce036886b25a16e7e14b07ca8dba8ca5e38d137ce6764a0036201d832338383604051610f4093929190611bcb565b60405180910390a15050565b6000604051905090565b600080fd5b600080fd5b600073ffffffffffffffffffffffffffffffffffffffff82169050919050565b6000610f8b82610f60565b9050919050565b610f9b81610f80565b8114610fa657600080fd5b50565b600081359050610fb881610f92565b92915050565b6000819050919050565b610fd181610fbe565b8114610fdc57600080fd5b50565b600081359050610fee81610fc8565b92915050565b60008060006060848603121561100d5761100c610f56565b5b600061101b86828701610fa9565b935050602061102c86828701610fdf565b925050604061103d86828701610fdf565b9150509250925092565b60008115159050919050565b61105c81611047565b811461106757600080fd5b50565b60008135905061107981611053565b92915050565b6000806040838503121561109657611095610f56565b5b60006110a485828601610fa9565b92505060206110b58582860161106a565b9150509250929050565b600081519050919050565b600082825260208201905092915050565b6000819050602082019050919050565b6110f481610fbe565b82525050565b600081519050919050565b600082825260208201905092915050565b60005b83811015611134578082015181840152602081019050611119565b60008484015250505050565b6000601f19601f8301169050919050565b600061115c826110fa565b6111668185611105565b9350611176818560208601611116565b61117f81611140565b840191505092915050565b61119381610f80565b82525050565b600060e0830160008301516111b160008601826110eb565b50602083015184820360208601526111c98282611151565b91505060408301516111de60408601826110eb565b50606083015184820360608601526111f68282611151565b915050608083015161120b608086018261118a565b5060a083015161121e60a086018261118a565b5060c083015184820360c08601526112368282611151565b9150508091505092915050565b600061124f8383611199565b905092915050565b6000602082019050919050565b600061126f826110bf565b61127981856110ca565b93508360208202850161128b856110db565b8060005b858110156112c757848403895281516112a88582611243565b94506112b383611257565b925060208a0199505060018101905061128f565b50829750879550505050505092915050565b600060208201905081810360008301526112f38184611264565b905092915050565b6000806040838503121561131257611311610f56565b5b600061132085828601610fdf565b925050602061133185828601610fdf565b9150509250929050565b600082825260208201905092915050565b7f536f6d656e7465206f7320726573706f73c3a1766569732070656c6f20636f6e60008201527f747261746f20646120436f6e7461204c617374726f20706f64656d207265616c60208201527f697a61722065737361206f70657261c3a7c3a36f2e0000000000000000000000604082015250565b60006113ce60558361133b565b91506113d98261134c565b606082019050919050565b600060208201905081810360008301526113fd816113c1565b9050919050565b61140d81610f80565b82525050565b60006020820190506114286000830184611404565b92915050565b600080fd5b7f4e487b7100000000000000000000000000000000000000000000000000000000600052604160045260246000fd5b61146b82611140565b810181811067ffffffffffffffff8211171561148a57611489611433565b5b80604052505050565b600061149d610f4c565b90506114a98282611462565b919050565b600080fd5b6000815190506114c281610fc8565b92915050565b6000815190506114d781610f92565b92915050565b600080fd5b600080fd5b600067ffffffffffffffff82111561150257611501611433565b5b61150b82611140565b9050602081019050919050565b600061152b611526846114e7565b611493565b905082815260208101848484011115611547576115466114e2565b5b611552848285611116565b509392505050565b600082601f83011261156f5761156e6114dd565b5b815161157f848260208601611518565b91505092915050565b60008151905061159781611053565b92915050565b600060a082840312156115b3576115b261142e565b5b6115bd60a0611493565b905060006115cd848285016114b3565b60008301525060206115e1848285016114c8565b602083015250604082015167ffffffffffffffff811115611605576116046114ae565b5b6116118482850161155a565b6040830152506060611625848285016114c8565b606083015250608061163984828501611588565b60808301525092915050565b60006020828403121561165b5761165a610f56565b5b600082015167ffffffffffffffff81111561167957611678610f5b565b5b6116858482850161159d565b91505092915050565b7f4f20656e64657265c3a76f20696e666f726d61646f206465766520736572206f60008201527f20646520756d6120736563726574617269612e00000000000000000000000000602082015250565b60006116ea60338361133b565b91506116f58261168e565b604082019050919050565b60006020820190508181036000830152611719816116dd565b9050919050565b61172981610fbe565b82525050565b60006040820190506117446000830185611404565b6117516020830184611720565b9392505050565b60006020828403121561176e5761176d610f56565b5b600061177c84828501611588565b91505092915050565b60006020828403121561179b5761179a610f56565b5b600082015167ffffffffffffffff8111156117b9576117b8610f5b565b5b6117c58482850161155a565b91505092915050565b7f4e487b7100000000000000000000000000000000000000000000000000000000600052602260045260246000fd5b6000600282049050600182168061181557607f821691505b602082108103611828576118276117ce565b5b50919050565b60008190508160005260206000209050919050565b60006020601f8301049050919050565b600082821b905092915050565b6000600883026118907fffffffffffffffffffffffffffffffffffffffffffffffffffffffffffffffff82611853565b61189a8683611853565b95508019841693508086168417925050509392505050565b6000819050919050565b60006118d76118d26118cd84610fbe565b6118b2565b610fbe565b9050919050565b6000819050919050565b6118f1836118bc565b6119056118fd826118de565b848454611860565b825550505050565b600090565b61191a61190d565b6119258184846118e8565b505050565b5b818110156119495761193e600082611912565b60018101905061192b565b5050565b601f82111561198e5761195f8161182e565b61196884611843565b81016020851015611977578190505b61198b61198385611843565b83018261192a565b50505b505050565b600082821c905092915050565b60006119b160001984600802611993565b1980831691505092915050565b60006119ca83836119a0565b9150826002028217905092915050565b6119e3826110fa565b67ffffffffffffffff8111156119fc576119fb611433565b5b611a0682546117fd565b611a1182828561194d565b600060209050601f831160018114611a445760008415611a32578287015190505b611a3c85826119be565b865550611aa4565b601f198416611a528661182e565b60005b82811015611a7a57848901518255600182019150602085019450602081019050611a55565b86831015611a975784890151611a93601f8916826119a0565b8355505b6001600288020188555050505b505050505050565b600060e083016000830151611ac460008601826110eb565b5060208301518482036020860152611adc8282611151565b9150506040830151611af160408601826110eb565b5060608301518482036060860152611b098282611151565b9150506080830151611b1e608086018261118a565b5060a0830151611b3160a086018261118a565b5060c083015184820360c0860152611b498282611151565b9150508091505092915050565b6000604082019050611b6b6000830185611404565b8181036020830152611b7d8184611aac565b90509392505050565b6000608082019050611b9b6000830187611404565b611ba86020830186611404565b611bb56040830185611720565b611bc26060830184611720565b95945050505050565b6000606082019050611be06000830186611404565b611bed6020830185611720565b611bfa6040830184611720565b94935050505056fea2646970667358221220c53de647869ab50fb864f162660569bd2d2589e6fff56fe3f11012894a9397ec64736f6c63430008130033",
  "immutableReferences": {},
  "source": "// SPDX-License-Identifier: MIT\r\npragma solidity ^0.8.0;\r\n\r\nimport \"./GovToken.sol\";\r\nimport \"./AgenteFederado.sol\";\r\nimport \"./TiposComuns.sol\";\r\n\r\ncontract ContaLastro {\r\n    //Propriedades\r\n    mapping(address => bool) private _owners;\r\n\r\n    GovToken private _govToken;\r\n    AgenteFederado private _agenteFederado;\r\n\r\n    uint256 private _qtdLinhasExtrato = 0;\r\n    ExtratoInfo[] private _extrato;\r\n\r\n    //Construtores\r\n    constructor(GovToken govToken, AgenteFederado agenteFederado) {\r\n        _owners[msg.sender] = true;\r\n        _govToken = govToken;\r\n        _agenteFederado = agenteFederado;\r\n    }\r\n\r\n    //Modificadores\r\n    modifier onlyOwner() {\r\n        require(\r\n            _owners[msg.sender],\r\n            unicode\"Somente os resposveis pelo contrato da Conta Lastro podem realizar essa operao.\"\r\n        );\r\n        _;\r\n    }\r\n\r\n    //Eventos\r\n    event depositoRealizado(address sender, uint256 data, uint256 valor);\r\n    event transferenciaRealizada(\r\n        address sender,\r\n        address enderecoAgenteFederado,\r\n        uint256 data,\r\n        uint256 valor\r\n    );\r\n\r\n    //Funes\r\n    function setOwner(address owner, bool isOwner) public onlyOwner {\r\n        _owners[owner] = isOwner;\r\n    }\r\n\r\n    function consultarExtrato() public view returns (ExtratoInfo[] memory) {\r\n        return _extrato;\r\n    }\r\n\r\n    function realizarDeposito(uint256 data, uint256 valor) public onlyOwner {\r\n        _govToken.mint(address(this), valor);\r\n\r\n        _extrato.push(\r\n            ExtratoInfo(\r\n                data,\r\n                unicode\"Depsito\",\r\n                valor,\r\n                \"C\",\r\n                address(0),\r\n                address(this),\r\n                \"R$\"\r\n            )\r\n        );\r\n        _qtdLinhasExtrato = _extrato.length;\r\n\r\n        emit depositoRealizado(msg.sender, data, valor);\r\n    }\r\n\r\n    function transferirToken(\r\n        address enderecoSecretaria,\r\n        uint256 data,\r\n        uint256 valor\r\n    ) public onlyOwner {\r\n        require(\r\n            _agenteFederado.obterSecretaria(enderecoSecretaria).cadastrado,\r\n            unicode\"O endereo informado deve ser o de uma secretaria.\"\r\n        );\r\n\r\n        _govToken.approve(address(this), valor);\r\n        _govToken.transfer(enderecoSecretaria, valor);\r\n\r\n        _extrato.push(\r\n            ExtratoInfo(\r\n                data,\r\n                unicode\"Transferncia\",\r\n                valor,\r\n                \"D\",\r\n                address(this),\r\n                enderecoSecretaria,\r\n                _govToken.symbol()\r\n            )\r\n        );\r\n        _qtdLinhasExtrato = _extrato.length;\r\n\r\n        _agenteFederado.incluirLinhaExtrato(\r\n            enderecoSecretaria,\r\n            ExtratoInfo(\r\n                data,\r\n                unicode\"Depsito\",\r\n                valor,\r\n                \"C\",\r\n                address(this),\r\n                enderecoSecretaria,\r\n                _govToken.symbol()\r\n            )\r\n        );\r\n\r\n        emit transferenciaRealizada(\r\n            msg.sender,\r\n            enderecoSecretaria,\r\n            data,\r\n            valor\r\n        );\r\n    }\r\n}\r\n",
  "sourcePath": "/govtoken/Contratos/ContaLastro.sol",
  "compiler": {
    "name": "solc",
    "version": "0.8.19+commit.7dd6d404.Emscripten.clang"
  },
  "schemaVersion": "3.4.8",
  "updatedAt": "2023-03-15T21:58:55.180Z",
  "networkType": "ethereum",
  "devdoc": {
    "kind": "dev",
    "methods": {},
    "version": 1
  },
  "userdoc": {
    "kind": "user",
    "methods": {},
    "version": 1
  }
}