{
  "contractName": "ContaLastro",
  "abi": [
    {
      "inputs": [
        {
          "internalType": "contract GovToken",
          "name": "govToken",
          "type": "address"
        },
        {
          "internalType": "contract GovEducacaoToken",
          "name": "educToken",
          "type": "address"
        },
        {
          "internalType": "contract GovSaudeToken",
          "name": "saudeToken",
          "type": "address"
        }
      ],
      "stateMutability": "nonpayable",
      "type": "constructor"
    },
    {
      "anonymous": false,
      "inputs": [
        {
          "indexed": false,
          "internalType": "address",
          "name": "sender",
          "type": "address"
        },
        {
          "indexed": false,
          "internalType": "uint256",
          "name": "data",
          "type": "uint256"
        },
        {
          "indexed": false,
          "internalType": "uint256",
          "name": "valor",
          "type": "uint256"
        }
      ],
      "name": "depositoRealizado",
      "type": "event"
    },
    {
      "anonymous": false,
      "inputs": [
        {
          "indexed": false,
          "internalType": "address",
          "name": "sender",
          "type": "address"
        },
        {
          "indexed": false,
          "internalType": "address",
          "name": "enderecoAgenteFederado",
          "type": "address"
        },
        {
          "indexed": false,
          "internalType": "uint256",
          "name": "data",
          "type": "uint256"
        },
        {
          "indexed": false,
          "internalType": "uint256",
          "name": "valor",
          "type": "uint256"
        }
      ],
      "name": "transferenciaRealizada",
      "type": "event"
    },
    {
      "inputs": [
        {
          "internalType": "address",
          "name": "owner",
          "type": "address"
        },
        {
          "internalType": "bool",
          "name": "isOwner",
          "type": "bool"
        }
      ],
      "name": "setOwner",
      "outputs": [],
      "stateMutability": "nonpayable",
      "type": "function"
    },
    {
      "inputs": [],
      "name": "consultarExtrato",
      "outputs": [
        {
          "components": [
            {
              "internalType": "uint256",
              "name": "data",
              "type": "uint256"
            },
            {
              "internalType": "string",
              "name": "descricao",
              "type": "string"
            },
            {
              "internalType": "uint256",
              "name": "valor",
              "type": "uint256"
            },
            {
              "internalType": "string",
              "name": "creditoDebito",
              "type": "string"
            },
            {
              "internalType": "address",
              "name": "origem",
              "type": "address"
            }
          ],
          "internalType": "struct Extrato[]",
          "name": "",
          "type": "tuple[]"
        }
      ],
      "stateMutability": "view",
      "type": "function",
      "constant": true
    },
    {
      "inputs": [
        {
          "internalType": "uint256",
          "name": "data",
          "type": "uint256"
        },
        {
          "internalType": "uint256",
          "name": "valor",
          "type": "uint256"
        }
      ],
      "name": "realizarDeposito",
      "outputs": [],
      "stateMutability": "nonpayable",
      "type": "function"
    },
    {
      "inputs": [
        {
          "internalType": "address",
          "name": "enderecoAgenteFederado",
          "type": "address"
        },
        {
          "internalType": "uint256",
          "name": "data",
          "type": "uint256"
        },
        {
          "internalType": "uint256",
          "name": "valor",
          "type": "uint256"
        },
        {
          "internalType": "enum TipoSecretaria",
          "name": "tipoSecretaria",
          "type": "uint8"
        }
      ],
      "name": "transferirToken",
      "outputs": [],
      "stateMutability": "nonpayable",
      "type": "function"
    }
  ],
  "bytecode": "0x608060405260006004553480156200001657600080fd5b50604051620016d0380380620016d083398181016040528101906200003c919062000267565b60016000803373ffffffffffffffffffffffffffffffffffffffff1673ffffffffffffffffffffffffffffffffffffffff16815260200190815260200160002060006101000a81548160ff02191690831515021790555082600160006101000a81548173ffffffffffffffffffffffffffffffffffffffff021916908373ffffffffffffffffffffffffffffffffffffffff16021790555081600260006101000a81548173ffffffffffffffffffffffffffffffffffffffff021916908373ffffffffffffffffffffffffffffffffffffffff16021790555080600360006101000a81548173ffffffffffffffffffffffffffffffffffffffff021916908373ffffffffffffffffffffffffffffffffffffffff160217905550505050620002c3565b600080fd5b600073ffffffffffffffffffffffffffffffffffffffff82169050919050565b6000620001918262000164565b9050919050565b6000620001a58262000184565b9050919050565b620001b78162000198565b8114620001c357600080fd5b50565b600081519050620001d781620001ac565b92915050565b6000620001ea8262000184565b9050919050565b620001fc81620001dd565b81146200020857600080fd5b50565b6000815190506200021c81620001f1565b92915050565b60006200022f8262000184565b9050919050565b620002418162000222565b81146200024d57600080fd5b50565b600081519050620002618162000236565b92915050565b6000806000606084860312156200028357620002826200015f565b5b60006200029386828701620001c6565b9350506020620002a6868287016200020b565b9250506040620002b98682870162000250565b9150509250925092565b6113fd80620002d36000396000f3fe608060405234801561001057600080fd5b506004361061004c5760003560e01c8063516c731c146100515780636da523111461006d578063cc138f701461008b578063e53ee170146100a7575b600080fd5b61006b60048036038101906100669190610bfe565b6100c3565b005b610075610179565b6040516100829190610e35565b60405180910390f35b6100a560048036038101906100a09190610ea8565b610366565b005b6100c160048036038101906100bc9190610f0f565b6108d1565b005b600115156000803373ffffffffffffffffffffffffffffffffffffffff1673ffffffffffffffffffffffffffffffffffffffff16815260200190815260200160002060009054906101000a900460ff1615151461011f57600080fd5b806000808473ffffffffffffffffffffffffffffffffffffffff1673ffffffffffffffffffffffffffffffffffffffff16815260200190815260200160002060006101000a81548160ff0219169083151502179055505050565b60606005805480602002602001604051908101604052809291908181526020016000905b8282101561035d57838290600052602060002090600502016040518060a0016040529081600082015481526020016001820180546101da90610f7e565b80601f016020809104026020016040519081016040528092919081815260200182805461020690610f7e565b80156102535780601f1061022857610100808354040283529160200191610253565b820191906000526020600020905b81548152906001019060200180831161023657829003601f168201915b505050505081526020016002820154815260200160038201805461027690610f7e565b80601f01602080910402602001604051908101604052809291908181526020018280546102a290610f7e565b80156102ef5780601f106102c4576101008083540402835291602001916102ef565b820191906000526020600020905b8154815290600101906020018083116102d257829003601f168201915b505050505081526020016004820160009054906101000a900473ffffffffffffffffffffffffffffffffffffffff1673ffffffffffffffffffffffffffffffffffffffff1673ffffffffffffffffffffffffffffffffffffffff16815250508152602001906001019061019d565b50505050905090565b600115156000803373ffffffffffffffffffffffffffffffffffffffff1673ffffffffffffffffffffffffffffffffffffffff16815260200190815260200160002060009054906101000a900460ff161515146103c257600080fd5b836001151560011515146103d557600080fd5b600160009054906101000a900473ffffffffffffffffffffffffffffffffffffffff1673ffffffffffffffffffffffffffffffffffffffff166379cc679030856040518363ffffffff1660e01b8152600401610432929190610fcd565b600060405180830381600087803b15801561044c57600080fd5b505af1158015610460573d6000803e3d6000fd5b505050506000600181111561047857610477610ff6565b5b82600181111561048b5761048a610ff6565b5b036105c757600360009054906101000a900473ffffffffffffffffffffffffffffffffffffffff1673ffffffffffffffffffffffffffffffffffffffff166340c10f1930856040518363ffffffff1660e01b81526004016104ed929190610fcd565b600060405180830381600087803b15801561050757600080fd5b505af115801561051b573d6000803e3d6000fd5b50505050600360009054906101000a900473ffffffffffffffffffffffffffffffffffffffff1673ffffffffffffffffffffffffffffffffffffffff166323b872dd3087866040518463ffffffff1660e01b815260040161057e93929190611025565b6020604051808303816000875af115801561059d573d6000803e3d6000fd5b505050506040513d601f19601f820116820180604052508101906105c19190611071565b50610726565b6001808111156105da576105d9610ff6565b5b8260018111156105ed576105ec610ff6565b5b0361072557600260009054906101000a900473ffffffffffffffffffffffffffffffffffffffff1673ffffffffffffffffffffffffffffffffffffffff166340c10f1930856040518363ffffffff1660e01b815260040161064f929190610fcd565b600060405180830381600087803b15801561066957600080fd5b505af115801561067d573d6000803e3d6000fd5b50505050600260009054906101000a900473ffffffffffffffffffffffffffffffffffffffff1673ffffffffffffffffffffffffffffffffffffffff166323b872dd3087866040518463ffffffff1660e01b81526004016106e093929190611025565b6020604051808303816000875af11580156106ff573d6000803e3d6000fd5b505050506040513d601f19601f820116820180604052508101906107239190611071565b505b5b60056040518060a001604052808681526020016040518060400160405280600e81526020017f5472616e73666572c3aa6e63696100000000000000000000000000000000000081525081526020018581526020016040518060400160405280600181526020017f440000000000000000000000000000000000000000000000000000000000000081525081526020018773ffffffffffffffffffffffffffffffffffffffff1681525090806001815401808255809150506001900390600052602060002090600502016000909190919091506000820151816000015560208201518160010190816108179190611279565b506040820151816002015560608201518160030190816108379190611279565b5060808201518160040160006101000a81548173ffffffffffffffffffffffffffffffffffffffff021916908373ffffffffffffffffffffffffffffffffffffffff16021790555050506005805490506004819055507f84ab5b9da0c9f713409211eddd9c42ca07b48d00daf1845440b271a29aff4518338686866040516108c2949392919061134b565b60405180910390a15050505050565b600115156000803373ffffffffffffffffffffffffffffffffffffffff1673ffffffffffffffffffffffffffffffffffffffff16815260200190815260200160002060009054906101000a900460ff1615151461092d57600080fd5b600160009054906101000a900473ffffffffffffffffffffffffffffffffffffffff1673ffffffffffffffffffffffffffffffffffffffff166340c10f1930836040518363ffffffff1660e01b815260040161098a929190610fcd565b600060405180830381600087803b1580156109a457600080fd5b505af11580156109b8573d6000803e3d6000fd5b5050505060056040518060a001604052808481526020016040518060400160405280600981526020017f446570c3b37369746f000000000000000000000000000000000000000000000081525081526020018381526020016040518060400160405280600181526020017f43000000000000000000000000000000000000000000000000000000000000008152508152602001600073ffffffffffffffffffffffffffffffffffffffff168152509080600181540180825580915050600190039060005260206000209060050201600090919091909150600082015181600001556020820151816001019081610aae9190611279565b50604082015181600201556060820151816003019081610ace9190611279565b5060808201518160040160006101000a81548173ffffffffffffffffffffffffffffffffffffffff021916908373ffffffffffffffffffffffffffffffffffffffff16021790555050506005805490506004819055507f41a2ab1ce036886b25a16e7e14b07ca8dba8ca5e38d137ce6764a0036201d832338383604051610b5793929190611390565b60405180910390a15050565b600080fd5b600073ffffffffffffffffffffffffffffffffffffffff82169050919050565b6000610b9382610b68565b9050919050565b610ba381610b88565b8114610bae57600080fd5b50565b600081359050610bc081610b9a565b92915050565b60008115159050919050565b610bdb81610bc6565b8114610be657600080fd5b50565b600081359050610bf881610bd2565b92915050565b60008060408385031215610c1557610c14610b63565b5b6000610c2385828601610bb1565b9250506020610c3485828601610be9565b9150509250929050565b600081519050919050565b600082825260208201905092915050565b6000819050602082019050919050565b6000819050919050565b610c7d81610c6a565b82525050565b600081519050919050565b600082825260208201905092915050565b60005b83811015610cbd578082015181840152602081019050610ca2565b60008484015250505050565b6000601f19601f8301169050919050565b6000610ce582610c83565b610cef8185610c8e565b9350610cff818560208601610c9f565b610d0881610cc9565b840191505092915050565b610d1c81610b88565b82525050565b600060a083016000830151610d3a6000860182610c74565b5060208301518482036020860152610d528282610cda565b9150506040830151610d676040860182610c74565b5060608301518482036060860152610d7f8282610cda565b9150506080830151610d946080860182610d13565b508091505092915050565b6000610dab8383610d22565b905092915050565b6000602082019050919050565b6000610dcb82610c3e565b610dd58185610c49565b935083602082028501610de785610c5a565b8060005b85811015610e235784840389528151610e048582610d9f565b9450610e0f83610db3565b925060208a01995050600181019050610deb565b50829750879550505050505092915050565b60006020820190508181036000830152610e4f8184610dc0565b905092915050565b610e6081610c6a565b8114610e6b57600080fd5b50565b600081359050610e7d81610e57565b92915050565b60028110610e9057600080fd5b50565b600081359050610ea281610e83565b92915050565b60008060008060808587031215610ec257610ec1610b63565b5b6000610ed087828801610bb1565b9450506020610ee187828801610e6e565b9350506040610ef287828801610e6e565b9250506060610f0387828801610e93565b91505092959194509250565b60008060408385031215610f2657610f25610b63565b5b6000610f3485828601610e6e565b9250506020610f4585828601610e6e565b9150509250929050565b7f4e487b7100000000000000000000000000000000000000000000000000000000600052602260045260246000fd5b60006002820490506001821680610f9657607f821691505b602082108103610fa957610fa8610f4f565b5b50919050565b610fb881610b88565b82525050565b610fc781610c6a565b82525050565b6000604082019050610fe26000830185610faf565b610fef6020830184610fbe565b9392505050565b7f4e487b7100000000000000000000000000000000000000000000000000000000600052602160045260246000fd5b600060608201905061103a6000830186610faf565b6110476020830185610faf565b6110546040830184610fbe565b949350505050565b60008151905061106b81610bd2565b92915050565b60006020828403121561108757611086610b63565b5b60006110958482850161105c565b91505092915050565b7f4e487b7100000000000000000000000000000000000000000000000000000000600052604160045260246000fd5b60008190508160005260206000209050919050565b60006020601f8301049050919050565b600082821b905092915050565b60006008830261112f7fffffffffffffffffffffffffffffffffffffffffffffffffffffffffffffffff826110f2565b61113986836110f2565b95508019841693508086168417925050509392505050565b6000819050919050565b600061117661117161116c84610c6a565b611151565b610c6a565b9050919050565b6000819050919050565b6111908361115b565b6111a461119c8261117d565b8484546110ff565b825550505050565b600090565b6111b96111ac565b6111c4818484611187565b505050565b5b818110156111e8576111dd6000826111b1565b6001810190506111ca565b5050565b601f82111561122d576111fe816110cd565b611207846110e2565b81016020851015611216578190505b61122a611222856110e2565b8301826111c9565b50505b505050565b600082821c905092915050565b600061125060001984600802611232565b1980831691505092915050565b6000611269838361123f565b9150826002028217905092915050565b61128282610c83565b67ffffffffffffffff81111561129b5761129a61109e565b5b6112a58254610f7e565b6112b08282856111ec565b600060209050601f8311600181146112e357600084156112d1578287015190505b6112db858261125d565b865550611343565b601f1984166112f1866110cd565b60005b82811015611319578489015182556001820191506020850194506020810190506112f4565b868310156113365784890151611332601f89168261123f565b8355505b6001600288020188555050505b505050505050565b60006080820190506113606000830187610faf565b61136d6020830186610faf565b61137a6040830185610fbe565b6113876060830184610fbe565b95945050505050565b60006060820190506113a56000830186610faf565b6113b26020830185610fbe565b6113bf6040830184610fbe565b94935050505056fea264697066735822122001987f218a6bbba9b4254748202540928d64e7c85972a2eaf291ce74bad746f364736f6c63430008130033",
  "immutableReferences": {},
  "source": "// SPDX-License-Identifier: MIT\r\npragma solidity ^0.8.0;\r\n\r\nimport \"./GovToken.sol\";\r\nimport \"./GovEducacaoToken.sol\";\r\nimport \"./GovSaudeToken.sol\";\r\n\r\nstruct Extrato {\r\n    uint256 data;\r\n    string descricao;\r\n    uint256 valor;\r\n    string creditoDebito;\r\n    address origem;\r\n}\r\n\r\nenum TipoSecretaria {\r\n    Saude,\r\n    Educacao\r\n}\r\n\r\ncontract ContaLastro {\r\n    //Propriedades\r\n    mapping(address => bool) private _owners;\r\n\r\n    GovToken private _govToken;\r\n    GovEducacaoToken private _educToken;\r\n    GovSaudeToken private _saudeToken;\r\n\r\n    uint256 private _qtdLinhasExtrato = 0;\r\n    Extrato[] private _extrato;\r\n\r\n    //Construtores\r\n    constructor(\r\n        GovToken govToken,\r\n        GovEducacaoToken educToken,\r\n        GovSaudeToken saudeToken\r\n    ) {\r\n        _owners[msg.sender] = true;\r\n        _govToken = govToken;\r\n        _educToken = educToken;\r\n        _saudeToken = saudeToken;\r\n    }\r\n\r\n    //Modificadores\r\n    modifier onlyOwner() {\r\n        require(_owners[msg.sender] == true);\r\n        _;\r\n    }\r\n\r\n    modifier verificarAgenteFederado(address endereco) {\r\n        //TODO<RENATO>: Verificar se o endereo enviado  o de um agente federado.\r\n        require(true == true);\r\n        _;\r\n    }\r\n\r\n    //Eventos\r\n    event depositoRealizado(address sender, uint256 data, uint256 valor);\r\n    event transferenciaRealizada(\r\n        address sender,\r\n        address enderecoAgenteFederado,\r\n        uint256 data,\r\n        uint256 valor\r\n    );\r\n\r\n    //Funes\r\n    function setOwner(address owner, bool isOwner) public onlyOwner {\r\n        _owners[owner] = isOwner;\r\n    }\r\n\r\n    function consultarExtrato() public view returns (Extrato[] memory) {\r\n        return _extrato;\r\n    }\r\n\r\n    function realizarDeposito(uint256 data, uint256 valor) public onlyOwner {\r\n        _govToken.mint(address(this), valor);\r\n\r\n        _extrato.push(Extrato(data, unicode\"Depsito\", valor, \"C\", address(0)));\r\n        _qtdLinhasExtrato = _extrato.length;\r\n\r\n        emit depositoRealizado(msg.sender, data, valor);\r\n    }\r\n\r\n    function transferirToken(\r\n        address enderecoAgenteFederado,\r\n        uint256 data,\r\n        uint256 valor,\r\n        TipoSecretaria tipoSecretaria\r\n    ) public onlyOwner verificarAgenteFederado(enderecoAgenteFederado) {\r\n        _govToken.burnFrom(address(this), valor);\r\n\r\n        if (tipoSecretaria == TipoSecretaria.Saude) {\r\n            _saudeToken.mint(address(this), valor);\r\n            _saudeToken.transferFrom(\r\n                address(this),\r\n                enderecoAgenteFederado,\r\n                valor\r\n            );\r\n        } else if (tipoSecretaria == TipoSecretaria.Educacao) {\r\n            _educToken.mint(address(this), valor);\r\n            _educToken.transferFrom(\r\n                address(this),\r\n                enderecoAgenteFederado,\r\n                valor\r\n            );\r\n        }\r\n\r\n        _extrato.push(\r\n            Extrato(\r\n                data,\r\n                unicode\"Transferncia\",\r\n                valor,\r\n                \"D\",\r\n                enderecoAgenteFederado\r\n            )\r\n        );\r\n        _qtdLinhasExtrato = _extrato.length;\r\n\r\n        emit transferenciaRealizada(\r\n            msg.sender,\r\n            enderecoAgenteFederado,\r\n            data,\r\n            valor\r\n        );\r\n    }\r\n}\r\n",
  "sourcePath": "/govtoken/Contratos/ContaLastro.sol",
  "compiler": {
    "name": "solc",
    "version": "0.8.19+commit.7dd6d404.Emscripten.clang"
  },
  "schemaVersion": "3.4.8",
  "updatedAt": "2023-03-04T18:53:23.762Z",
  "networkType": "ethereum",
  "devdoc": {
    "kind": "dev",
    "methods": {},
    "version": 1
  },
  "userdoc": {
    "kind": "user",
    "methods": {},
    "version": 1
  }
}