{
  "contractName": "Fornecedor",
  "abi": [
    {
      "inputs": [],
      "stateMutability": "nonpayable",
      "type": "constructor"
    },
    {
      "inputs": [
        {
          "internalType": "address",
          "name": "owner",
          "type": "address"
        },
        {
          "internalType": "bool",
          "name": "isOwner",
          "type": "bool"
        }
      ],
      "name": "setOwner",
      "outputs": [],
      "stateMutability": "nonpayable",
      "type": "function"
    },
    {
      "inputs": [
        {
          "components": [
            {
              "internalType": "uint256",
              "name": "dataCadastro",
              "type": "uint256"
            },
            {
              "internalType": "string",
              "name": "uf",
              "type": "string"
            },
            {
              "internalType": "string",
              "name": "nome",
              "type": "string"
            },
            {
              "internalType": "address",
              "name": "enderecoCarteira",
              "type": "address"
            },
            {
              "internalType": "bool",
              "name": "cadastrado",
              "type": "bool"
            }
          ],
          "internalType": "struct FornecedorInfo",
          "name": "fornecedor",
          "type": "tuple"
        }
      ],
      "name": "cadastrarFornecedor",
      "outputs": [],
      "stateMutability": "nonpayable",
      "type": "function"
    },
    {
      "inputs": [],
      "name": "listarFornecedores",
      "outputs": [
        {
          "components": [
            {
              "internalType": "uint256",
              "name": "dataCadastro",
              "type": "uint256"
            },
            {
              "internalType": "string",
              "name": "uf",
              "type": "string"
            },
            {
              "internalType": "string",
              "name": "nome",
              "type": "string"
            },
            {
              "internalType": "address",
              "name": "enderecoCarteira",
              "type": "address"
            },
            {
              "internalType": "bool",
              "name": "cadastrado",
              "type": "bool"
            }
          ],
          "internalType": "struct FornecedorInfo[]",
          "name": "",
          "type": "tuple[]"
        }
      ],
      "stateMutability": "view",
      "type": "function",
      "constant": true
    },
    {
      "inputs": [
        {
          "internalType": "address",
          "name": "endereco",
          "type": "address"
        }
      ],
      "name": "obterFornecedor",
      "outputs": [
        {
          "components": [
            {
              "internalType": "uint256",
              "name": "dataCadastro",
              "type": "uint256"
            },
            {
              "internalType": "string",
              "name": "uf",
              "type": "string"
            },
            {
              "internalType": "string",
              "name": "nome",
              "type": "string"
            },
            {
              "internalType": "address",
              "name": "enderecoCarteira",
              "type": "address"
            },
            {
              "internalType": "bool",
              "name": "cadastrado",
              "type": "bool"
            }
          ],
          "internalType": "struct FornecedorInfo",
          "name": "",
          "type": "tuple"
        }
      ],
      "stateMutability": "view",
      "type": "function",
      "constant": true
    },
    {
      "inputs": [
        {
          "internalType": "address",
          "name": "endereco",
          "type": "address"
        },
        {
          "components": [
            {
              "internalType": "uint256",
              "name": "data",
              "type": "uint256"
            },
            {
              "internalType": "string",
              "name": "descricao",
              "type": "string"
            },
            {
              "internalType": "uint256",
              "name": "valor",
              "type": "uint256"
            },
            {
              "internalType": "string",
              "name": "creditoDebito",
              "type": "string"
            },
            {
              "internalType": "address",
              "name": "origem",
              "type": "address"
            },
            {
              "internalType": "address",
              "name": "destino",
              "type": "address"
            },
            {
              "internalType": "string",
              "name": "simboloToken",
              "type": "string"
            }
          ],
          "internalType": "struct ExtratoInfo",
          "name": "extrato",
          "type": "tuple"
        }
      ],
      "name": "incluirLinhaExtrato",
      "outputs": [],
      "stateMutability": "nonpayable",
      "type": "function"
    },
    {
      "inputs": [
        {
          "internalType": "address",
          "name": "endereco",
          "type": "address"
        }
      ],
      "name": "consultarExtrato",
      "outputs": [
        {
          "components": [
            {
              "internalType": "uint256",
              "name": "data",
              "type": "uint256"
            },
            {
              "internalType": "string",
              "name": "descricao",
              "type": "string"
            },
            {
              "internalType": "uint256",
              "name": "valor",
              "type": "uint256"
            },
            {
              "internalType": "string",
              "name": "creditoDebito",
              "type": "string"
            },
            {
              "internalType": "address",
              "name": "origem",
              "type": "address"
            },
            {
              "internalType": "address",
              "name": "destino",
              "type": "address"
            },
            {
              "internalType": "string",
              "name": "simboloToken",
              "type": "string"
            }
          ],
          "internalType": "struct ExtratoInfo[]",
          "name": "",
          "type": "tuple[]"
        }
      ],
      "stateMutability": "view",
      "type": "function",
      "constant": true
    }
  ],
  "bytecode": "0x608060405234801561001057600080fd5b506001600360003373ffffffffffffffffffffffffffffffffffffffff1673ffffffffffffffffffffffffffffffffffffffff16815260200190815260200160002060006101000a81548160ff021916908315150217905550611e38806100786000396000f3fe608060405234801561001057600080fd5b50600436106100625760003560e01c806312604c8c1461006757806334803e3a14610085578063516c731c146100b5578063619ddcf9146100d1578063780409b3146100ed57806378905bc21461011d575b600080fd5b61006f610139565b60405161007c919061114b565b60405180910390f35b61009f600480360381019061009a91906111ad565b610407565b6040516100ac9190611257565b60405180910390f35b6100cf60048036038101906100ca91906112a5565b6105ff565b005b6100eb60048036038101906100e69190611514565b6106ed565b005b610107600480360381019061010291906111ad565b610937565b60405161011491906116c9565b60405180910390f35b610137600480360381019061013291906117f3565b610c4b565b005b60606000805467ffffffffffffffff811115610158576101576112ea565b5b60405190808252806020026020018201604052801561019157816020015b61017e610ec0565b8152602001906001900390816101765790505b50905060005b6000548110156103ff576000600182815481106101b7576101b661184f565b5b9060005260206000200160009054906101000a900473ffffffffffffffffffffffffffffffffffffffff169050600260008273ffffffffffffffffffffffffffffffffffffffff1673ffffffffffffffffffffffffffffffffffffffff1681526020019081526020016000206040518060a001604052908160008201548152602001600182018054610248906118ad565b80601f0160208091040260200160405190810160405280929190818152602001828054610274906118ad565b80156102c15780601f10610296576101008083540402835291602001916102c1565b820191906000526020600020905b8154815290600101906020018083116102a457829003601f168201915b505050505081526020016002820180546102da906118ad565b80601f0160208091040260200160405190810160405280929190818152602001828054610306906118ad565b80156103535780601f1061032857610100808354040283529160200191610353565b820191906000526020600020905b81548152906001019060200180831161033657829003601f168201915b505050505081526020016003820160009054906101000a900473ffffffffffffffffffffffffffffffffffffffff1673ffffffffffffffffffffffffffffffffffffffff1673ffffffffffffffffffffffffffffffffffffffff1681526020016003820160149054906101000a900460ff1615151515815250508383815181106103e0576103df61184f565b5b60200260200101819052505080806103f79061190d565b915050610197565b508091505090565b61040f610ec0565b600260008373ffffffffffffffffffffffffffffffffffffffff1673ffffffffffffffffffffffffffffffffffffffff1681526020019081526020016000206040518060a001604052908160008201548152602001600182018054610473906118ad565b80601f016020809104026020016040519081016040528092919081815260200182805461049f906118ad565b80156104ec5780601f106104c1576101008083540402835291602001916104ec565b820191906000526020600020905b8154815290600101906020018083116104cf57829003601f168201915b50505050508152602001600282018054610505906118ad565b80601f0160208091040260200160405190810160405280929190818152602001828054610531906118ad565b801561057e5780601f106105535761010080835404028352916020019161057e565b820191906000526020600020905b81548152906001019060200180831161056157829003601f168201915b505050505081526020016003820160009054906101000a900473ffffffffffffffffffffffffffffffffffffffff1673ffffffffffffffffffffffffffffffffffffffff1673ffffffffffffffffffffffffffffffffffffffff1681526020016003820160149054906101000a900460ff1615151515815250509050919050565b60011515600360003373ffffffffffffffffffffffffffffffffffffffff1673ffffffffffffffffffffffffffffffffffffffff16815260200190815260200160002060009054906101000a900460ff16151514610692576040517f08c379a0000000000000000000000000000000000000000000000000000000008152600401610689906119fe565b60405180910390fd5b80600360008473ffffffffffffffffffffffffffffffffffffffff1673ffffffffffffffffffffffffffffffffffffffff16815260200190815260200160002060006101000a81548160ff0219169083151502179055505050565b600260003373ffffffffffffffffffffffffffffffffffffffff1673ffffffffffffffffffffffffffffffffffffffff16815260200190815260200160002060030160149054906101000a900460ff161561077d576040517f08c379a000000000000000000000000000000000000000000000000000000000815260040161077490611a90565b60405180910390fd5b6103e84261078b9190611ab0565b81600001818152505033816060019073ffffffffffffffffffffffffffffffffffffffff16908173ffffffffffffffffffffffffffffffffffffffff168152505060018160800190151590811515815250508060026000836060015173ffffffffffffffffffffffffffffffffffffffff1673ffffffffffffffffffffffffffffffffffffffff1681526020019081526020016000206000820151816000015560208201518160010190816108409190611c9e565b5060408201518160020190816108569190611c9e565b5060608201518160030160006101000a81548173ffffffffffffffffffffffffffffffffffffffff021916908373ffffffffffffffffffffffffffffffffffffffff16021790555060808201518160030160146101000a81548160ff021916908315150217905550905050600181606001519080600181540180825580915050600190039060005260206000200160009091909190916101000a81548173ffffffffffffffffffffffffffffffffffffffff021916908373ffffffffffffffffffffffffffffffffffffffff16021790555060018054905060008190555050565b6060600460008373ffffffffffffffffffffffffffffffffffffffff1673ffffffffffffffffffffffffffffffffffffffff168152602001908152602001600020805480602002602001604051908101604052809291908181526020016000905b82821015610c4057838290600052602060002090600702016040518060e0016040529081600082015481526020016001820180546109d5906118ad565b80601f0160208091040260200160405190810160405280929190818152602001828054610a01906118ad565b8015610a4e5780601f10610a2357610100808354040283529160200191610a4e565b820191906000526020600020905b815481529060010190602001808311610a3157829003601f168201915b5050505050815260200160028201548152602001600382018054610a71906118ad565b80601f0160208091040260200160405190810160405280929190818152602001828054610a9d906118ad565b8015610aea5780601f10610abf57610100808354040283529160200191610aea565b820191906000526020600020905b815481529060010190602001808311610acd57829003601f168201915b505050505081526020016004820160009054906101000a900473ffffffffffffffffffffffffffffffffffffffff1673ffffffffffffffffffffffffffffffffffffffff1673ffffffffffffffffffffffffffffffffffffffff1681526020016005820160009054906101000a900473ffffffffffffffffffffffffffffffffffffffff1673ffffffffffffffffffffffffffffffffffffffff1673ffffffffffffffffffffffffffffffffffffffff168152602001600682018054610baf906118ad565b80601f0160208091040260200160405190810160405280929190818152602001828054610bdb906118ad565b8015610c285780601f10610bfd57610100808354040283529160200191610c28565b820191906000526020600020905b815481529060010190602001808311610c0b57829003601f168201915b50505050508152505081526020019060010190610998565b505050509050919050565b60011515600360003373ffffffffffffffffffffffffffffffffffffffff1673ffffffffffffffffffffffffffffffffffffffff16815260200190815260200160002060009054906101000a900460ff16151514610cde576040517f08c379a0000000000000000000000000000000000000000000000000000000008152600401610cd5906119fe565b60405180910390fd5b600260008373ffffffffffffffffffffffffffffffffffffffff1673ffffffffffffffffffffffffffffffffffffffff16815260200190815260200160002060030160149054906101000a900460ff16610d6d576040517f08c379a0000000000000000000000000000000000000000000000000000000008152600401610d6490611de2565b60405180910390fd5b600460008373ffffffffffffffffffffffffffffffffffffffff1673ffffffffffffffffffffffffffffffffffffffff168152602001908152602001600020819080600181540180825580915050600190039060005260206000209060070201600090919091909150600082015181600001556020820151816001019081610df59190611c9e565b50604082015181600201556060820151816003019081610e159190611c9e565b5060808201518160040160006101000a81548173ffffffffffffffffffffffffffffffffffffffff021916908373ffffffffffffffffffffffffffffffffffffffff16021790555060a08201518160050160006101000a81548173ffffffffffffffffffffffffffffffffffffffff021916908373ffffffffffffffffffffffffffffffffffffffff16021790555060c0820151816006019081610eb99190611c9e565b5050505050565b6040518060a00160405280600081526020016060815260200160608152602001600073ffffffffffffffffffffffffffffffffffffffff1681526020016000151581525090565b600081519050919050565b600082825260208201905092915050565b6000819050602082019050919050565b6000819050919050565b610f4681610f33565b82525050565b600081519050919050565b600082825260208201905092915050565b60005b83811015610f86578082015181840152602081019050610f6b565b60008484015250505050565b6000601f19601f8301169050919050565b6000610fae82610f4c565b610fb88185610f57565b9350610fc8818560208601610f68565b610fd181610f92565b840191505092915050565b600073ffffffffffffffffffffffffffffffffffffffff82169050919050565b600061100782610fdc565b9050919050565b61101781610ffc565b82525050565b60008115159050919050565b6110328161101d565b82525050565b600060a0830160008301516110506000860182610f3d565b50602083015184820360208601526110688282610fa3565b915050604083015184820360408601526110828282610fa3565b9150506060830151611097606086018261100e565b5060808301516110aa6080860182611029565b508091505092915050565b60006110c18383611038565b905092915050565b6000602082019050919050565b60006110e182610f07565b6110eb8185610f12565b9350836020820285016110fd85610f23565b8060005b85811015611139578484038952815161111a85826110b5565b9450611125836110c9565b925060208a01995050600181019050611101565b50829750879550505050505092915050565b6000602082019050818103600083015261116581846110d6565b905092915050565b6000604051905090565b600080fd5b600080fd5b61118a81610ffc565b811461119557600080fd5b50565b6000813590506111a781611181565b92915050565b6000602082840312156111c3576111c2611177565b5b60006111d184828501611198565b91505092915050565b600060a0830160008301516111f26000860182610f3d565b506020830151848203602086015261120a8282610fa3565b915050604083015184820360408601526112248282610fa3565b9150506060830151611239606086018261100e565b50608083015161124c6080860182611029565b508091505092915050565b6000602082019050818103600083015261127181846111da565b905092915050565b6112828161101d565b811461128d57600080fd5b50565b60008135905061129f81611279565b92915050565b600080604083850312156112bc576112bb611177565b5b60006112ca85828601611198565b92505060206112db85828601611290565b9150509250929050565b600080fd5b7f4e487b7100000000000000000000000000000000000000000000000000000000600052604160045260246000fd5b61132282610f92565b810181811067ffffffffffffffff82111715611341576113406112ea565b5b80604052505050565b600061135461116d565b90506113608282611319565b919050565b600080fd5b61137381610f33565b811461137e57600080fd5b50565b6000813590506113908161136a565b92915050565b600080fd5b600080fd5b600067ffffffffffffffff8211156113bb576113ba6112ea565b5b6113c482610f92565b9050602081019050919050565b82818337600083830152505050565b60006113f36113ee846113a0565b61134a565b90508281526020810184848401111561140f5761140e61139b565b5b61141a8482856113d1565b509392505050565b600082601f83011261143757611436611396565b5b81356114478482602086016113e0565b91505092915050565b600060a08284031215611466576114656112e5565b5b61147060a061134a565b9050600061148084828501611381565b600083015250602082013567ffffffffffffffff8111156114a4576114a3611365565b5b6114b084828501611422565b602083015250604082013567ffffffffffffffff8111156114d4576114d3611365565b5b6114e084828501611422565b60408301525060606114f484828501611198565b606083015250608061150884828501611290565b60808301525092915050565b60006020828403121561152a57611529611177565b5b600082013567ffffffffffffffff8111156115485761154761117c565b5b61155484828501611450565b91505092915050565b600081519050919050565b600082825260208201905092915050565b6000819050602082019050919050565b600060e0830160008301516115a16000860182610f3d565b50602083015184820360208601526115b98282610fa3565b91505060408301516115ce6040860182610f3d565b50606083015184820360608601526115e68282610fa3565b91505060808301516115fb608086018261100e565b5060a083015161160e60a086018261100e565b5060c083015184820360c08601526116268282610fa3565b9150508091505092915050565b600061163f8383611589565b905092915050565b6000602082019050919050565b600061165f8261155d565b6116698185611568565b93508360208202850161167b85611579565b8060005b858110156116b757848403895281516116988582611633565b94506116a383611647565b925060208a0199505060018101905061167f565b50829750879550505050505092915050565b600060208201905081810360008301526116e38184611654565b905092915050565b600060e08284031215611701576117006112e5565b5b61170b60e061134a565b9050600061171b84828501611381565b600083015250602082013567ffffffffffffffff81111561173f5761173e611365565b5b61174b84828501611422565b602083015250604061175f84828501611381565b604083015250606082013567ffffffffffffffff81111561178357611782611365565b5b61178f84828501611422565b60608301525060806117a384828501611198565b60808301525060a06117b784828501611198565b60a08301525060c082013567ffffffffffffffff8111156117db576117da611365565b5b6117e784828501611422565b60c08301525092915050565b6000806040838503121561180a57611809611177565b5b600061181885828601611198565b925050602083013567ffffffffffffffff8111156118395761183861117c565b5b611845858286016116eb565b9150509250929050565b7f4e487b7100000000000000000000000000000000000000000000000000000000600052603260045260246000fd5b7f4e487b7100000000000000000000000000000000000000000000000000000000600052602260045260246000fd5b600060028204905060018216806118c557607f821691505b6020821081036118d8576118d761187e565b5b50919050565b7f4e487b7100000000000000000000000000000000000000000000000000000000600052601160045260246000fd5b600061191882610f33565b91507fffffffffffffffffffffffffffffffffffffffffffffffffffffffffffffffff820361194a576119496118de565b5b600182019050919050565b600082825260208201905092915050565b7f536f6d656e7465206f7320726573706f73c3a1766569732070656c6f20636f6e60008201527f747261746f20646f20466f726e656365646f7220706f64656d207265616c697a60208201527f61722065737361206f70657261c3a7c3a36f2e00000000000000000000000000604082015250565b60006119e8605383611955565b91506119f382611966565b606082019050919050565b60006020820190508181036000830152611a17816119db565b9050919050565b7f4f20666f726e656365646f72206ac3a120736520656e636f6e7472612063616460008201527f6173747261646f2e000000000000000000000000000000000000000000000000602082015250565b6000611a7a602883611955565b9150611a8582611a1e565b604082019050919050565b60006020820190508181036000830152611aa981611a6d565b9050919050565b6000611abb82610f33565b9150611ac683610f33565b9250828202611ad481610f33565b91508282048414831517611aeb57611aea6118de565b5b5092915050565b60008190508160005260206000209050919050565b60006020601f8301049050919050565b600082821b905092915050565b600060088302611b547fffffffffffffffffffffffffffffffffffffffffffffffffffffffffffffffff82611b17565b611b5e8683611b17565b95508019841693508086168417925050509392505050565b6000819050919050565b6000611b9b611b96611b9184610f33565b611b76565b610f33565b9050919050565b6000819050919050565b611bb583611b80565b611bc9611bc182611ba2565b848454611b24565b825550505050565b600090565b611bde611bd1565b611be9818484611bac565b505050565b5b81811015611c0d57611c02600082611bd6565b600181019050611bef565b5050565b601f821115611c5257611c2381611af2565b611c2c84611b07565b81016020851015611c3b578190505b611c4f611c4785611b07565b830182611bee565b50505b505050565b600082821c905092915050565b6000611c7560001984600802611c57565b1980831691505092915050565b6000611c8e8383611c64565b9150826002028217905092915050565b611ca782610f4c565b67ffffffffffffffff811115611cc057611cbf6112ea565b5b611cca82546118ad565b611cd5828285611c11565b600060209050601f831160018114611d085760008415611cf6578287015190505b611d008582611c82565b865550611d68565b601f198416611d1686611af2565b60005b82811015611d3e57848901518255600182019150602085019450602081019050611d19565b86831015611d5b5784890151611d57601f891682611c64565b8355505b6001600288020188555050505b505050505050565b7f4120636172746569726120646f206578747261746f206465766520736572206460008201527f6520756d20666f726e656365646f722e00000000000000000000000000000000602082015250565b6000611dcc603083611955565b9150611dd782611d70565b604082019050919050565b60006020820190508181036000830152611dfb81611dbf565b905091905056fea2646970667358221220377754c9a448520f729c3ddd04a9b9f5316f2efc10aedec61b900264c785d88764736f6c63430008130033",
  "immutableReferences": {},
  "source": "// SPDX-License-Identifier: MIT\r\npragma solidity ^0.8.0;\r\n\r\nimport \"./TiposComuns.sol\";\r\n\r\ncontract Fornecedor {\r\n    //Propriedades\r\n    uint256 private _qtdFornecedores;\r\n    address[] private _enderecosFornecedores;\r\n    mapping(address => FornecedorInfo) private _fornecedores;\r\n\r\n    mapping(address => bool) private _owners;\r\n    mapping(address => ExtratoInfo[]) private _extrato;\r\n\r\n    //Construtores\r\n    constructor() {\r\n        _owners[msg.sender] = true;\r\n    }\r\n\r\n    //Modificadores\r\n    modifier onlyOwner() {\r\n        require(\r\n            _owners[msg.sender] == true,\r\n            unicode\"Somente os resposveis pelo contrato do Fornecedor podem realizar essa operao.\"\r\n        );\r\n        _;\r\n    }\r\n\r\n    //Funes\r\n    function setOwner(address owner, bool isOwner) public onlyOwner {\r\n        _owners[owner] = isOwner;\r\n    }\r\n\r\n    function cadastrarFornecedor(FornecedorInfo memory fornecedor) public {\r\n        require(\r\n            !_fornecedores[msg.sender].cadastrado,\r\n            unicode\"O fornecedor j se encontra cadastrado.\"\r\n        );\r\n\r\n        fornecedor.dataCadastro = block.timestamp * 1000;\r\n        fornecedor.enderecoCarteira = msg.sender;\r\n        fornecedor.cadastrado = true;\r\n        _fornecedores[fornecedor.enderecoCarteira] = fornecedor;\r\n        _enderecosFornecedores.push(fornecedor.enderecoCarteira);\r\n        _qtdFornecedores = _enderecosFornecedores.length;\r\n    }\r\n\r\n    function listarFornecedores()\r\n        public\r\n        view\r\n        returns (FornecedorInfo[] memory)\r\n    {\r\n        FornecedorInfo[] memory fornecedores = new FornecedorInfo[](\r\n            _qtdFornecedores\r\n        );\r\n\r\n        for (uint256 i = 0; i < _qtdFornecedores; i++) {\r\n            address endereco = _enderecosFornecedores[i];\r\n            fornecedores[i] = _fornecedores[endereco];\r\n        }\r\n\r\n        return fornecedores;\r\n    }\r\n\r\n    function obterFornecedor(\r\n        address endereco\r\n    ) public view returns (FornecedorInfo memory) {\r\n        return _fornecedores[endereco];\r\n    }\r\n\r\n    function incluirLinhaExtrato(\r\n        address endereco,\r\n        ExtratoInfo memory extrato\r\n    ) public onlyOwner {\r\n        require(\r\n            _fornecedores[endereco].cadastrado,\r\n            \"A carteira do extrato deve ser de um fornecedor.\"\r\n        );\r\n        _extrato[endereco].push(extrato);\r\n    }\r\n\r\n    function consultarExtrato(\r\n        address endereco\r\n    ) public view returns (ExtratoInfo[] memory) {\r\n        return _extrato[endereco];\r\n    }\r\n}\r\n",
  "sourcePath": "/govtoken/Contratos/Fornecedor.sol",
  "compiler": {
    "name": "solc",
    "version": "0.8.19+commit.7dd6d404.Emscripten.clang"
  },
  "schemaVersion": "3.4.8",
  "updatedAt": "2023-03-17T19:29:24.670Z",
  "networkType": "ethereum",
  "devdoc": {
    "kind": "dev",
    "methods": {},
    "version": 1
  },
  "userdoc": {
    "kind": "user",
    "methods": {},
    "version": 1
  }
}