{
  "contractName": "Fornecedor",
  "abi": [
    {
      "inputs": [],
      "stateMutability": "nonpayable",
      "type": "constructor"
    },
    {
      "inputs": [
        {
          "internalType": "address",
          "name": "owner",
          "type": "address"
        },
        {
          "internalType": "bool",
          "name": "isOwner",
          "type": "bool"
        }
      ],
      "name": "setOwner",
      "outputs": [],
      "stateMutability": "nonpayable",
      "type": "function"
    },
    {
      "inputs": [
        {
          "components": [
            {
              "internalType": "uint256",
              "name": "dataCadastro",
              "type": "uint256"
            },
            {
              "internalType": "string",
              "name": "uf",
              "type": "string"
            },
            {
              "internalType": "string",
              "name": "nome",
              "type": "string"
            },
            {
              "internalType": "address",
              "name": "enderecoCarteira",
              "type": "address"
            },
            {
              "internalType": "bool",
              "name": "cadastrado",
              "type": "bool"
            },
            {
              "internalType": "bool",
              "name": "aprovado",
              "type": "bool"
            },
            {
              "internalType": "uint256",
              "name": "dataAprovacao",
              "type": "uint256"
            }
          ],
          "internalType": "struct FornecedorInfo",
          "name": "fornecedor",
          "type": "tuple"
        }
      ],
      "name": "cadastrarFornecedor",
      "outputs": [],
      "stateMutability": "nonpayable",
      "type": "function"
    },
    {
      "inputs": [],
      "name": "listarFornecedores",
      "outputs": [
        {
          "components": [
            {
              "internalType": "uint256",
              "name": "dataCadastro",
              "type": "uint256"
            },
            {
              "internalType": "string",
              "name": "uf",
              "type": "string"
            },
            {
              "internalType": "string",
              "name": "nome",
              "type": "string"
            },
            {
              "internalType": "address",
              "name": "enderecoCarteira",
              "type": "address"
            },
            {
              "internalType": "bool",
              "name": "cadastrado",
              "type": "bool"
            },
            {
              "internalType": "bool",
              "name": "aprovado",
              "type": "bool"
            },
            {
              "internalType": "uint256",
              "name": "dataAprovacao",
              "type": "uint256"
            }
          ],
          "internalType": "struct FornecedorInfo[]",
          "name": "",
          "type": "tuple[]"
        }
      ],
      "stateMutability": "view",
      "type": "function",
      "constant": true
    },
    {
      "inputs": [
        {
          "internalType": "address",
          "name": "endereco",
          "type": "address"
        }
      ],
      "name": "obterFornecedor",
      "outputs": [
        {
          "components": [
            {
              "internalType": "uint256",
              "name": "dataCadastro",
              "type": "uint256"
            },
            {
              "internalType": "string",
              "name": "uf",
              "type": "string"
            },
            {
              "internalType": "string",
              "name": "nome",
              "type": "string"
            },
            {
              "internalType": "address",
              "name": "enderecoCarteira",
              "type": "address"
            },
            {
              "internalType": "bool",
              "name": "cadastrado",
              "type": "bool"
            },
            {
              "internalType": "bool",
              "name": "aprovado",
              "type": "bool"
            },
            {
              "internalType": "uint256",
              "name": "dataAprovacao",
              "type": "uint256"
            }
          ],
          "internalType": "struct FornecedorInfo",
          "name": "",
          "type": "tuple"
        }
      ],
      "stateMutability": "view",
      "type": "function",
      "constant": true
    },
    {
      "inputs": [
        {
          "internalType": "address",
          "name": "endereco",
          "type": "address"
        },
        {
          "components": [
            {
              "internalType": "uint256",
              "name": "data",
              "type": "uint256"
            },
            {
              "internalType": "string",
              "name": "descricao",
              "type": "string"
            },
            {
              "internalType": "uint256",
              "name": "valor",
              "type": "uint256"
            },
            {
              "internalType": "string",
              "name": "creditoDebito",
              "type": "string"
            },
            {
              "internalType": "address",
              "name": "origem",
              "type": "address"
            },
            {
              "internalType": "address",
              "name": "destino",
              "type": "address"
            },
            {
              "internalType": "string",
              "name": "simboloToken",
              "type": "string"
            }
          ],
          "internalType": "struct ExtratoInfo",
          "name": "extrato",
          "type": "tuple"
        }
      ],
      "name": "incluirLinhaExtrato",
      "outputs": [],
      "stateMutability": "nonpayable",
      "type": "function"
    },
    {
      "inputs": [
        {
          "internalType": "address",
          "name": "endereco",
          "type": "address"
        }
      ],
      "name": "consultarExtrato",
      "outputs": [
        {
          "components": [
            {
              "internalType": "uint256",
              "name": "data",
              "type": "uint256"
            },
            {
              "internalType": "string",
              "name": "descricao",
              "type": "string"
            },
            {
              "internalType": "uint256",
              "name": "valor",
              "type": "uint256"
            },
            {
              "internalType": "string",
              "name": "creditoDebito",
              "type": "string"
            },
            {
              "internalType": "address",
              "name": "origem",
              "type": "address"
            },
            {
              "internalType": "address",
              "name": "destino",
              "type": "address"
            },
            {
              "internalType": "string",
              "name": "simboloToken",
              "type": "string"
            }
          ],
          "internalType": "struct ExtratoInfo[]",
          "name": "",
          "type": "tuple[]"
        }
      ],
      "stateMutability": "view",
      "type": "function",
      "constant": true
    },
    {
      "inputs": [],
      "name": "listarFornecedoresAprovacaoPendente",
      "outputs": [
        {
          "components": [
            {
              "internalType": "uint256",
              "name": "dataCadastro",
              "type": "uint256"
            },
            {
              "internalType": "string",
              "name": "uf",
              "type": "string"
            },
            {
              "internalType": "string",
              "name": "nome",
              "type": "string"
            },
            {
              "internalType": "address",
              "name": "enderecoCarteira",
              "type": "address"
            },
            {
              "internalType": "bool",
              "name": "cadastrado",
              "type": "bool"
            },
            {
              "internalType": "bool",
              "name": "aprovado",
              "type": "bool"
            },
            {
              "internalType": "uint256",
              "name": "dataAprovacao",
              "type": "uint256"
            }
          ],
          "internalType": "struct FornecedorInfo[]",
          "name": "",
          "type": "tuple[]"
        }
      ],
      "stateMutability": "view",
      "type": "function",
      "constant": true
    },
    {
      "inputs": [
        {
          "internalType": "address",
          "name": "enderecoCarteira",
          "type": "address"
        }
      ],
      "name": "aprovarFornecedor",
      "outputs": [],
      "stateMutability": "nonpayable",
      "type": "function"
    }
  ],
  "bytecode": "0x608060405234801561001057600080fd5b506001600460003373ffffffffffffffffffffffffffffffffffffffff1673ffffffffffffffffffffffffffffffffffffffff16815260200190815260200160002060006101000a81548160ff0219169083151502179055506125bb806100786000396000f3fe608060405234801561001057600080fd5b50600436106100885760003560e01c8063780409b31161005b578063780409b31461011357806378905bc214610143578063a2254ad71461015f578063b58e22ee1461017b57610088565b806312604c8c1461008d57806334803e3a146100ab57806350dbaa2a146100db578063516c731c146100f7575b600080fd5b610095610199565b6040516100a291906117ba565b60405180910390f35b6100c560048036038101906100c0919061181c565b61048c565b6040516100d291906118ec565b60405180910390f35b6100f560048036038101906100f0919061181c565b6106a9565b005b610111600480360381019061010c919061193a565b610892565b005b61012d6004803603810190610128919061181c565b610980565b60405161013a9190611ae6565b60405180910390f35b61015d60048036038101906101589190611d7b565b610c94565b005b61017960048036038101906101749190611ec3565b610f09565b005b6101836111a0565b60405161019091906117ba565b60405180910390f35b60606000805467ffffffffffffffff8111156101b8576101b7611b0d565b5b6040519080825280602002602001820160405280156101f157816020015b6101de6114f9565b8152602001906001900390816101d65790505b50905060005b6000548110156104845760006002828154811061021757610216611f0c565b5b9060005260206000200160009054906101000a900473ffffffffffffffffffffffffffffffffffffffff169050600360008273ffffffffffffffffffffffffffffffffffffffff1673ffffffffffffffffffffffffffffffffffffffff1681526020019081526020016000206040518060e0016040529081600082015481526020016001820180546102a890611f6a565b80601f01602080910402602001604051908101604052809291908181526020018280546102d490611f6a565b80156103215780601f106102f657610100808354040283529160200191610321565b820191906000526020600020905b81548152906001019060200180831161030457829003601f168201915b5050505050815260200160028201805461033a90611f6a565b80601f016020809104026020016040519081016040528092919081815260200182805461036690611f6a565b80156103b35780601f10610388576101008083540402835291602001916103b3565b820191906000526020600020905b81548152906001019060200180831161039657829003601f168201915b505050505081526020016003820160009054906101000a900473ffffffffffffffffffffffffffffffffffffffff1673ffffffffffffffffffffffffffffffffffffffff1673ffffffffffffffffffffffffffffffffffffffff1681526020016003820160149054906101000a900460ff161515151581526020016003820160159054906101000a900460ff1615151515815260200160048201548152505083838151811061046557610464611f0c565b5b602002602001018190525050808061047c90611fca565b9150506101f7565b508091505090565b6104946114f9565b600360008373ffffffffffffffffffffffffffffffffffffffff1673ffffffffffffffffffffffffffffffffffffffff1681526020019081526020016000206040518060e0016040529081600082015481526020016001820180546104f890611f6a565b80601f016020809104026020016040519081016040528092919081815260200182805461052490611f6a565b80156105715780601f1061054657610100808354040283529160200191610571565b820191906000526020600020905b81548152906001019060200180831161055457829003601f168201915b5050505050815260200160028201805461058a90611f6a565b80601f01602080910402602001604051908101604052809291908181526020018280546105b690611f6a565b80156106035780601f106105d857610100808354040283529160200191610603565b820191906000526020600020905b8154815290600101906020018083116105e657829003601f168201915b505050505081526020016003820160009054906101000a900473ffffffffffffffffffffffffffffffffffffffff1673ffffffffffffffffffffffffffffffffffffffff1673ffffffffffffffffffffffffffffffffffffffff1681526020016003820160149054906101000a900460ff161515151581526020016003820160159054906101000a900460ff161515151581526020016004820154815250509050919050565b60011515600460003373ffffffffffffffffffffffffffffffffffffffff1673ffffffffffffffffffffffffffffffffffffffff16815260200190815260200160002060009054906101000a900460ff1615151461073c576040517f08c379a0000000000000000000000000000000000000000000000000000000008152600401610733906120bb565b60405180910390fd5b600360003373ffffffffffffffffffffffffffffffffffffffff1673ffffffffffffffffffffffffffffffffffffffff16815260200190815260200160002060030160159054906101000a900460ff16156107cc576040517f08c379a00000000000000000000000000000000000000000000000000000000081526004016107c39061214d565b60405180910390fd5b6103e8426107da919061216d565b600360008373ffffffffffffffffffffffffffffffffffffffff1673ffffffffffffffffffffffffffffffffffffffff168152602001908152602001600020600401819055506001600360008373ffffffffffffffffffffffffffffffffffffffff1673ffffffffffffffffffffffffffffffffffffffff16815260200190815260200160002060030160156101000a81548160ff0219169083151502179055506001805461088991906121af565b60018190555050565b60011515600460003373ffffffffffffffffffffffffffffffffffffffff1673ffffffffffffffffffffffffffffffffffffffff16815260200190815260200160002060009054906101000a900460ff16151514610925576040517f08c379a000000000000000000000000000000000000000000000000000000000815260040161091c906120bb565b60405180910390fd5b80600460008473ffffffffffffffffffffffffffffffffffffffff1673ffffffffffffffffffffffffffffffffffffffff16815260200190815260200160002060006101000a81548160ff0219169083151502179055505050565b6060600560008373ffffffffffffffffffffffffffffffffffffffff1673ffffffffffffffffffffffffffffffffffffffff168152602001908152602001600020805480602002602001604051908101604052809291908181526020016000905b82821015610c8957838290600052602060002090600702016040518060e001604052908160008201548152602001600182018054610a1e90611f6a565b80601f0160208091040260200160405190810160405280929190818152602001828054610a4a90611f6a565b8015610a975780601f10610a6c57610100808354040283529160200191610a97565b820191906000526020600020905b815481529060010190602001808311610a7a57829003601f168201915b5050505050815260200160028201548152602001600382018054610aba90611f6a565b80601f0160208091040260200160405190810160405280929190818152602001828054610ae690611f6a565b8015610b335780601f10610b0857610100808354040283529160200191610b33565b820191906000526020600020905b815481529060010190602001808311610b1657829003601f168201915b505050505081526020016004820160009054906101000a900473ffffffffffffffffffffffffffffffffffffffff1673ffffffffffffffffffffffffffffffffffffffff1673ffffffffffffffffffffffffffffffffffffffff1681526020016005820160009054906101000a900473ffffffffffffffffffffffffffffffffffffffff1673ffffffffffffffffffffffffffffffffffffffff1673ffffffffffffffffffffffffffffffffffffffff168152602001600682018054610bf890611f6a565b80601f0160208091040260200160405190810160405280929190818152602001828054610c2490611f6a565b8015610c715780601f10610c4657610100808354040283529160200191610c71565b820191906000526020600020905b815481529060010190602001808311610c5457829003601f168201915b505050505081525050815260200190600101906109e1565b505050509050919050565b60011515600460003373ffffffffffffffffffffffffffffffffffffffff1673ffffffffffffffffffffffffffffffffffffffff16815260200190815260200160002060009054906101000a900460ff16151514610d27576040517f08c379a0000000000000000000000000000000000000000000000000000000008152600401610d1e906120bb565b60405180910390fd5b600360008373ffffffffffffffffffffffffffffffffffffffff1673ffffffffffffffffffffffffffffffffffffffff16815260200190815260200160002060030160149054906101000a900460ff16610db6576040517f08c379a0000000000000000000000000000000000000000000000000000000008152600401610dad90612255565b60405180910390fd5b600560008373ffffffffffffffffffffffffffffffffffffffff1673ffffffffffffffffffffffffffffffffffffffff168152602001908152602001600020819080600181540180825580915050600190039060005260206000209060070201600090919091909150600082015181600001556020820151816001019081610e3e9190612421565b50604082015181600201556060820151816003019081610e5e9190612421565b5060808201518160040160006101000a81548173ffffffffffffffffffffffffffffffffffffffff021916908373ffffffffffffffffffffffffffffffffffffffff16021790555060a08201518160050160006101000a81548173ffffffffffffffffffffffffffffffffffffffff021916908373ffffffffffffffffffffffffffffffffffffffff16021790555060c0820151816006019081610f029190612421565b5050505050565b600360003373ffffffffffffffffffffffffffffffffffffffff1673ffffffffffffffffffffffffffffffffffffffff16815260200190815260200160002060030160149054906101000a900460ff1615610f99576040517f08c379a0000000000000000000000000000000000000000000000000000000008152600401610f9090612565565b60405180910390fd5b6103e842610fa7919061216d565b81600001818152505033816060019073ffffffffffffffffffffffffffffffffffffffff16908173ffffffffffffffffffffffffffffffffffffffff1681525050600181608001901515908115158152505060008160c00181815250508060036000836060015173ffffffffffffffffffffffffffffffffffffffff1673ffffffffffffffffffffffffffffffffffffffff1681526020019081526020016000206000820151816000015560208201518160010190816110679190612421565b50604082015181600201908161107d9190612421565b5060608201518160030160006101000a81548173ffffffffffffffffffffffffffffffffffffffff021916908373ffffffffffffffffffffffffffffffffffffffff16021790555060808201518160030160146101000a81548160ff02191690831515021790555060a08201518160030160156101000a81548160ff02191690831515021790555060c08201518160040155905050600281606001519080600181540180825580915050600190039060005260206000200160009091909190916101000a81548173ffffffffffffffffffffffffffffffffffffffff021916908373ffffffffffffffffffffffffffffffffffffffff1602179055506002805490506000819055506001600081548092919061119890611fca565b919050555050565b6060600060015467ffffffffffffffff8111156111c0576111bf611b0d565b5b6040519080825280602002602001820160405280156111f957816020015b6111e66114f9565b8152602001906001900390816111de5790505b5090506000805b6000548110156114f0576000600282815481106112205761121f611f0c565b5b9060005260206000200160009054906101000a900473ffffffffffffffffffffffffffffffffffffffff169050600360008273ffffffffffffffffffffffffffffffffffffffff1673ffffffffffffffffffffffffffffffffffffffff16815260200190815260200160002060030160159054906101000a900460ff166114dc57600360008273ffffffffffffffffffffffffffffffffffffffff1673ffffffffffffffffffffffffffffffffffffffff1681526020019081526020016000206040518060e00160405290816000820154815260200160018201805461130590611f6a565b80601f016020809104026020016040519081016040528092919081815260200182805461133190611f6a565b801561137e5780601f106113535761010080835404028352916020019161137e565b820191906000526020600020905b81548152906001019060200180831161136157829003601f168201915b5050505050815260200160028201805461139790611f6a565b80601f01602080910402602001604051908101604052809291908181526020018280546113c390611f6a565b80156114105780601f106113e557610100808354040283529160200191611410565b820191906000526020600020905b8154815290600101906020018083116113f357829003601f168201915b505050505081526020016003820160009054906101000a900473ffffffffffffffffffffffffffffffffffffffff1673ffffffffffffffffffffffffffffffffffffffff1673ffffffffffffffffffffffffffffffffffffffff1681526020016003820160149054906101000a900460ff161515151581526020016003820160159054906101000a900460ff161515151581526020016004820154815250508484815181106114c2576114c1611f0c565b5b602002602001018190525082806114d890611fca565b9350505b5080806114e890611fca565b915050611200565b50819250505090565b6040518060e00160405280600081526020016060815260200160608152602001600073ffffffffffffffffffffffffffffffffffffffff168152602001600015158152602001600015158152602001600081525090565b600081519050919050565b600082825260208201905092915050565b6000819050602082019050919050565b6000819050919050565b61158f8161157c565b82525050565b600081519050919050565b600082825260208201905092915050565b60005b838110156115cf5780820151818401526020810190506115b4565b60008484015250505050565b6000601f19601f8301169050919050565b60006115f782611595565b61160181856115a0565b93506116118185602086016115b1565b61161a816115db565b840191505092915050565b600073ffffffffffffffffffffffffffffffffffffffff82169050919050565b600061165082611625565b9050919050565b61166081611645565b82525050565b60008115159050919050565b61167b81611666565b82525050565b600060e0830160008301516116996000860182611586565b50602083015184820360208601526116b182826115ec565b915050604083015184820360408601526116cb82826115ec565b91505060608301516116e06060860182611657565b5060808301516116f36080860182611672565b5060a083015161170660a0860182611672565b5060c083015161171960c0860182611586565b508091505092915050565b60006117308383611681565b905092915050565b6000602082019050919050565b600061175082611550565b61175a818561155b565b93508360208202850161176c8561156c565b8060005b858110156117a857848403895281516117898582611724565b945061179483611738565b925060208a01995050600181019050611770565b50829750879550505050505092915050565b600060208201905081810360008301526117d48184611745565b905092915050565b6000604051905090565b600080fd5b600080fd5b6117f981611645565b811461180457600080fd5b50565b600081359050611816816117f0565b92915050565b600060208284031215611832576118316117e6565b5b600061184084828501611807565b91505092915050565b600060e0830160008301516118616000860182611586565b506020830151848203602086015261187982826115ec565b9150506040830151848203604086015261189382826115ec565b91505060608301516118a86060860182611657565b5060808301516118bb6080860182611672565b5060a08301516118ce60a0860182611672565b5060c08301516118e160c0860182611586565b508091505092915050565b600060208201905081810360008301526119068184611849565b905092915050565b61191781611666565b811461192257600080fd5b50565b6000813590506119348161190e565b92915050565b60008060408385031215611951576119506117e6565b5b600061195f85828601611807565b925050602061197085828601611925565b9150509250929050565b600081519050919050565b600082825260208201905092915050565b6000819050602082019050919050565b600060e0830160008301516119be6000860182611586565b50602083015184820360208601526119d682826115ec565b91505060408301516119eb6040860182611586565b5060608301518482036060860152611a0382826115ec565b9150506080830151611a186080860182611657565b5060a0830151611a2b60a0860182611657565b5060c083015184820360c0860152611a4382826115ec565b9150508091505092915050565b6000611a5c83836119a6565b905092915050565b6000602082019050919050565b6000611a7c8261197a565b611a868185611985565b935083602082028501611a9885611996565b8060005b85811015611ad45784840389528151611ab58582611a50565b9450611ac083611a64565b925060208a01995050600181019050611a9c565b50829750879550505050505092915050565b60006020820190508181036000830152611b008184611a71565b905092915050565b600080fd5b7f4e487b7100000000000000000000000000000000000000000000000000000000600052604160045260246000fd5b611b45826115db565b810181811067ffffffffffffffff82111715611b6457611b63611b0d565b5b80604052505050565b6000611b776117dc565b9050611b838282611b3c565b919050565b600080fd5b611b968161157c565b8114611ba157600080fd5b50565b600081359050611bb381611b8d565b92915050565b600080fd5b600080fd5b600067ffffffffffffffff821115611bde57611bdd611b0d565b5b611be7826115db565b9050602081019050919050565b82818337600083830152505050565b6000611c16611c1184611bc3565b611b6d565b905082815260208101848484011115611c3257611c31611bbe565b5b611c3d848285611bf4565b509392505050565b600082601f830112611c5a57611c59611bb9565b5b8135611c6a848260208601611c03565b91505092915050565b600060e08284031215611c8957611c88611b08565b5b611c9360e0611b6d565b90506000611ca384828501611ba4565b600083015250602082013567ffffffffffffffff811115611cc757611cc6611b88565b5b611cd384828501611c45565b6020830152506040611ce784828501611ba4565b604083015250606082013567ffffffffffffffff811115611d0b57611d0a611b88565b5b611d1784828501611c45565b6060830152506080611d2b84828501611807565b60808301525060a0611d3f84828501611807565b60a08301525060c082013567ffffffffffffffff811115611d6357611d62611b88565b5b611d6f84828501611c45565b60c08301525092915050565b60008060408385031215611d9257611d916117e6565b5b6000611da085828601611807565b925050602083013567ffffffffffffffff811115611dc157611dc06117eb565b5b611dcd85828601611c73565b9150509250929050565b600060e08284031215611ded57611dec611b08565b5b611df760e0611b6d565b90506000611e0784828501611ba4565b600083015250602082013567ffffffffffffffff811115611e2b57611e2a611b88565b5b611e3784828501611c45565b602083015250604082013567ffffffffffffffff811115611e5b57611e5a611b88565b5b611e6784828501611c45565b6040830152506060611e7b84828501611807565b6060830152506080611e8f84828501611925565b60808301525060a0611ea384828501611925565b60a08301525060c0611eb784828501611ba4565b60c08301525092915050565b600060208284031215611ed957611ed86117e6565b5b600082013567ffffffffffffffff811115611ef757611ef66117eb565b5b611f0384828501611dd7565b91505092915050565b7f4e487b7100000000000000000000000000000000000000000000000000000000600052603260045260246000fd5b7f4e487b7100000000000000000000000000000000000000000000000000000000600052602260045260246000fd5b60006002820490506001821680611f8257607f821691505b602082108103611f9557611f94611f3b565b5b50919050565b7f4e487b7100000000000000000000000000000000000000000000000000000000600052601160045260246000fd5b6000611fd58261157c565b91507fffffffffffffffffffffffffffffffffffffffffffffffffffffffffffffffff820361200757612006611f9b565b5b600182019050919050565b600082825260208201905092915050565b7f536f6d656e7465206f7320726573706f6e73c3a1766569732070656c6f20636f60008201527f6e747261746f20646f20466f726e656365646f7220706f64656d207265616c6960208201527f7a61722065737361206f70657261c3a7c3a36f2e000000000000000000000000604082015250565b60006120a5605483612012565b91506120b082612023565b606082019050919050565b600060208201905081810360008301526120d481612098565b9050919050565b7f4f20636164617374726f20646f20666f726e656365646f72206ac3a120666f6960008201527f206170726f7661646f20616e746572696f726d656e74652e0000000000000000602082015250565b6000612137603883612012565b9150612142826120db565b604082019050919050565b600060208201905081810360008301526121668161212a565b9050919050565b60006121788261157c565b91506121838361157c565b92508282026121918161157c565b915082820484148315176121a8576121a7611f9b565b5b5092915050565b60006121ba8261157c565b91506121c58361157c565b92508282039050818111156121dd576121dc611f9b565b5b92915050565b7f4120636172746569726120646f206578747261746f206465766520736572206460008201527f6520756d20666f726e656365646f722e00000000000000000000000000000000602082015250565b600061223f603083612012565b915061224a826121e3565b604082019050919050565b6000602082019050818103600083015261226e81612232565b9050919050565b60008190508160005260206000209050919050565b60006020601f8301049050919050565b600082821b905092915050565b6000600883026122d77fffffffffffffffffffffffffffffffffffffffffffffffffffffffffffffffff8261229a565b6122e1868361229a565b95508019841693508086168417925050509392505050565b6000819050919050565b600061231e6123196123148461157c565b6122f9565b61157c565b9050919050565b6000819050919050565b61233883612303565b61234c61234482612325565b8484546122a7565b825550505050565b600090565b612361612354565b61236c81848461232f565b505050565b5b8181101561239057612385600082612359565b600181019050612372565b5050565b601f8211156123d5576123a681612275565b6123af8461228a565b810160208510156123be578190505b6123d26123ca8561228a565b830182612371565b50505b505050565b600082821c905092915050565b60006123f8600019846008026123da565b1980831691505092915050565b600061241183836123e7565b9150826002028217905092915050565b61242a82611595565b67ffffffffffffffff81111561244357612442611b0d565b5b61244d8254611f6a565b612458828285612394565b600060209050601f83116001811461248b5760008415612479578287015190505b6124838582612405565b8655506124eb565b601f19841661249986612275565b60005b828110156124c15784890151825560018201915060208501945060208101905061249c565b868310156124de57848901516124da601f8916826123e7565b8355505b6001600288020188555050505b505050505050565b7f4f20666f726e656365646f72206ac3a120736520656e636f6e7472612063616460008201527f6173747261646f2e000000000000000000000000000000000000000000000000602082015250565b600061254f602883612012565b915061255a826124f3565b604082019050919050565b6000602082019050818103600083015261257e81612542565b905091905056fea2646970667358221220880f6b3a972a2d3a2da86c6a1338b368afe2ab14d1cbab56dbf007eff29e172164736f6c63430008130033",
  "immutableReferences": {},
  "source": "// SPDX-License-Identifier: MIT\r\npragma solidity ^0.8.0;\r\n\r\nimport \"./TiposComuns.sol\";\r\n\r\ncontract Fornecedor {\r\n    //Propriedades\r\n    uint256 private _qtdFornecedores;\r\n    uint256 private _qtdFornecedoresPendentesAprovacao;\r\n    address[] private _enderecosFornecedores;\r\n    mapping(address => FornecedorInfo) private _fornecedores;\r\n\r\n    mapping(address => bool) private _owners;\r\n    mapping(address => ExtratoInfo[]) private _extrato;\r\n\r\n    //Construtores\r\n    constructor() {\r\n        _owners[msg.sender] = true;\r\n    }\r\n\r\n    //Modificadores\r\n    modifier onlyOwner() {\r\n        require(\r\n            _owners[msg.sender] == true,\r\n            unicode\"Somente os responsveis pelo contrato do Fornecedor podem realizar essa operao.\"\r\n        );\r\n        _;\r\n    }\r\n\r\n    //Funes\r\n    function setOwner(address owner, bool isOwner) public onlyOwner {\r\n        _owners[owner] = isOwner;\r\n    }\r\n\r\n    function cadastrarFornecedor(FornecedorInfo memory fornecedor) public {\r\n        require(\r\n            !_fornecedores[msg.sender].cadastrado,\r\n            unicode\"O fornecedor j se encontra cadastrado.\"\r\n        );\r\n\r\n        fornecedor.dataCadastro = block.timestamp * 1000;\r\n        fornecedor.enderecoCarteira = msg.sender;\r\n        fornecedor.cadastrado = true;\r\n        fornecedor.dataAprovacao = 0;\r\n\r\n        _fornecedores[fornecedor.enderecoCarteira] = fornecedor;\r\n        _enderecosFornecedores.push(fornecedor.enderecoCarteira);\r\n        _qtdFornecedores = _enderecosFornecedores.length;\r\n\r\n        _qtdFornecedoresPendentesAprovacao++;\r\n    }\r\n\r\n    function listarFornecedores()\r\n        public\r\n        view\r\n        returns (FornecedorInfo[] memory)\r\n    {\r\n        FornecedorInfo[] memory fornecedores = new FornecedorInfo[](\r\n            _qtdFornecedores\r\n        );\r\n\r\n        for (uint256 i = 0; i < _qtdFornecedores; i++) {\r\n            address endereco = _enderecosFornecedores[i];\r\n            fornecedores[i] = _fornecedores[endereco];\r\n        }\r\n\r\n        return fornecedores;\r\n    }\r\n\r\n    function obterFornecedor(\r\n        address endereco\r\n    ) public view returns (FornecedorInfo memory) {\r\n        return _fornecedores[endereco];\r\n    }\r\n\r\n    function incluirLinhaExtrato(\r\n        address endereco,\r\n        ExtratoInfo memory extrato\r\n    ) public onlyOwner {\r\n        require(\r\n            _fornecedores[endereco].cadastrado,\r\n            \"A carteira do extrato deve ser de um fornecedor.\"\r\n        );\r\n        _extrato[endereco].push(extrato);\r\n    }\r\n\r\n    function consultarExtrato(\r\n        address endereco\r\n    ) public view returns (ExtratoInfo[] memory) {\r\n        return _extrato[endereco];\r\n    }\r\n\r\n    function listarFornecedoresAprovacaoPendente()\r\n        public\r\n        view\r\n        returns (FornecedorInfo[] memory)\r\n    {\r\n        FornecedorInfo[] memory fornecedores = new FornecedorInfo[](\r\n            _qtdFornecedoresPendentesAprovacao\r\n        );\r\n\r\n        uint256 j = 0;\r\n        for (uint256 i = 0; i < _qtdFornecedores; i++) {\r\n            address endereco = _enderecosFornecedores[i];\r\n\r\n            if (!_fornecedores[endereco].aprovado) {\r\n                fornecedores[j] = _fornecedores[endereco];\r\n                j++;\r\n            }\r\n        }\r\n\r\n        return fornecedores;\r\n    }\r\n\r\n    function aprovarFornecedor(address enderecoCarteira) public onlyOwner {\r\n        require(\r\n            !_fornecedores[msg.sender].aprovado,\r\n            unicode\"O cadastro do fornecedor j foi aprovado anteriormente.\"\r\n        );\r\n\r\n        _fornecedores[enderecoCarteira].dataAprovacao = block.timestamp * 1000;\r\n        _fornecedores[enderecoCarteira].aprovado = true;\r\n\r\n        _qtdFornecedoresPendentesAprovacao =\r\n            _qtdFornecedoresPendentesAprovacao -\r\n            1;\r\n    }\r\n}\r\n",
  "sourcePath": "/govtoken/Contratos/Fornecedor.sol",
  "compiler": {
    "name": "solc",
    "version": "0.8.19+commit.7dd6d404.Emscripten.clang"
  },
  "schemaVersion": "3.4.8",
  "updatedAt": "2023-03-21T01:48:59.940Z",
  "networkType": "ethereum",
  "devdoc": {
    "kind": "dev",
    "methods": {},
    "version": 1
  },
  "userdoc": {
    "kind": "user",
    "methods": {},
    "version": 1
  }
}