{
  "contractName": "Fornecedor",
  "abi": [
    {
      "inputs": [],
      "stateMutability": "nonpayable",
      "type": "constructor"
    },
    {
      "inputs": [
        {
          "internalType": "address",
          "name": "owner",
          "type": "address"
        },
        {
          "internalType": "bool",
          "name": "isOwner",
          "type": "bool"
        }
      ],
      "name": "setOwner",
      "outputs": [],
      "stateMutability": "nonpayable",
      "type": "function"
    },
    {
      "inputs": [
        {
          "components": [
            {
              "internalType": "uint256",
              "name": "dataCadastro",
              "type": "uint256"
            },
            {
              "internalType": "string",
              "name": "uf",
              "type": "string"
            },
            {
              "internalType": "string",
              "name": "nome",
              "type": "string"
            },
            {
              "internalType": "string",
              "name": "secretaria",
              "type": "string"
            },
            {
              "internalType": "address",
              "name": "enderecoCarteira",
              "type": "address"
            },
            {
              "internalType": "bool",
              "name": "cadastrado",
              "type": "bool"
            }
          ],
          "internalType": "struct FornecedorInfo",
          "name": "fornecedor",
          "type": "tuple"
        }
      ],
      "name": "cadastrarFornecedor",
      "outputs": [],
      "stateMutability": "nonpayable",
      "type": "function"
    },
    {
      "inputs": [],
      "name": "listarFornecedores",
      "outputs": [
        {
          "components": [
            {
              "internalType": "uint256",
              "name": "dataCadastro",
              "type": "uint256"
            },
            {
              "internalType": "string",
              "name": "uf",
              "type": "string"
            },
            {
              "internalType": "string",
              "name": "nome",
              "type": "string"
            },
            {
              "internalType": "string",
              "name": "secretaria",
              "type": "string"
            },
            {
              "internalType": "address",
              "name": "enderecoCarteira",
              "type": "address"
            },
            {
              "internalType": "bool",
              "name": "cadastrado",
              "type": "bool"
            }
          ],
          "internalType": "struct FornecedorInfo[]",
          "name": "",
          "type": "tuple[]"
        }
      ],
      "stateMutability": "view",
      "type": "function",
      "constant": true
    },
    {
      "inputs": [
        {
          "internalType": "address",
          "name": "endereco",
          "type": "address"
        }
      ],
      "name": "obterFornecedor",
      "outputs": [
        {
          "components": [
            {
              "internalType": "uint256",
              "name": "dataCadastro",
              "type": "uint256"
            },
            {
              "internalType": "string",
              "name": "uf",
              "type": "string"
            },
            {
              "internalType": "string",
              "name": "nome",
              "type": "string"
            },
            {
              "internalType": "string",
              "name": "secretaria",
              "type": "string"
            },
            {
              "internalType": "address",
              "name": "enderecoCarteira",
              "type": "address"
            },
            {
              "internalType": "bool",
              "name": "cadastrado",
              "type": "bool"
            }
          ],
          "internalType": "struct FornecedorInfo",
          "name": "",
          "type": "tuple"
        }
      ],
      "stateMutability": "view",
      "type": "function",
      "constant": true
    },
    {
      "inputs": [
        {
          "internalType": "address",
          "name": "endereco",
          "type": "address"
        },
        {
          "components": [
            {
              "internalType": "uint256",
              "name": "data",
              "type": "uint256"
            },
            {
              "internalType": "string",
              "name": "descricao",
              "type": "string"
            },
            {
              "internalType": "uint256",
              "name": "valor",
              "type": "uint256"
            },
            {
              "internalType": "string",
              "name": "creditoDebito",
              "type": "string"
            },
            {
              "internalType": "address",
              "name": "origem",
              "type": "address"
            },
            {
              "internalType": "address",
              "name": "destino",
              "type": "address"
            },
            {
              "internalType": "string",
              "name": "simboloToken",
              "type": "string"
            }
          ],
          "internalType": "struct ExtratoInfo",
          "name": "extrato",
          "type": "tuple"
        }
      ],
      "name": "incluirLinhaExtrato",
      "outputs": [],
      "stateMutability": "nonpayable",
      "type": "function"
    },
    {
      "inputs": [
        {
          "internalType": "address",
          "name": "endereco",
          "type": "address"
        }
      ],
      "name": "consultarExtrato",
      "outputs": [
        {
          "components": [
            {
              "internalType": "uint256",
              "name": "data",
              "type": "uint256"
            },
            {
              "internalType": "string",
              "name": "descricao",
              "type": "string"
            },
            {
              "internalType": "uint256",
              "name": "valor",
              "type": "uint256"
            },
            {
              "internalType": "string",
              "name": "creditoDebito",
              "type": "string"
            },
            {
              "internalType": "address",
              "name": "origem",
              "type": "address"
            },
            {
              "internalType": "address",
              "name": "destino",
              "type": "address"
            },
            {
              "internalType": "string",
              "name": "simboloToken",
              "type": "string"
            }
          ],
          "internalType": "struct ExtratoInfo[]",
          "name": "",
          "type": "tuple[]"
        }
      ],
      "stateMutability": "view",
      "type": "function",
      "constant": true
    }
  ],
  "bytecode": "0x608060405234801561001057600080fd5b506001600360003373ffffffffffffffffffffffffffffffffffffffff1673ffffffffffffffffffffffffffffffffffffffff16815260200190815260200160002060006101000a81548160ff021916908315150217905550611c8a806100786000396000f3fe608060405234801561001057600080fd5b50600436106100625760003560e01c806312604c8c1461006757806334803e3a14610085578063516c731c146100b5578063780409b3146100d157806378905bc21461010157806399f490791461011d575b600080fd5b61006f610139565b60405161007c9190611182565b60405180910390f35b61009f600480360381019061009a91906111e4565b610499565b6040516100ac91906112a8565b60405180910390f35b6100cf60048036038101906100ca91906112f6565b610723565b005b6100eb60048036038101906100e691906111e4565b6107db565b6040516100f891906114a2565b60405180910390f35b61011b60048036038101906101169190611737565b610aef565b005b61013760048036038101906101329190611887565b610cf8565b005b60606000805467ffffffffffffffff811115610158576101576114c9565b5b60405190808252806020026020018201604052801561019157816020015b61017e610ed6565b8152602001906001900390816101765790505b50905060005b600054811015610491576000600182815481106101b7576101b66118d0565b5b9060005260206000200160009054906101000a900473ffffffffffffffffffffffffffffffffffffffff169050600260008273ffffffffffffffffffffffffffffffffffffffff1673ffffffffffffffffffffffffffffffffffffffff1681526020019081526020016000206040518060c0016040529081600082015481526020016001820180546102489061192e565b80601f01602080910402602001604051908101604052809291908181526020018280546102749061192e565b80156102c15780601f10610296576101008083540402835291602001916102c1565b820191906000526020600020905b8154815290600101906020018083116102a457829003601f168201915b505050505081526020016002820180546102da9061192e565b80601f01602080910402602001604051908101604052809291908181526020018280546103069061192e565b80156103535780601f1061032857610100808354040283529160200191610353565b820191906000526020600020905b81548152906001019060200180831161033657829003601f168201915b5050505050815260200160038201805461036c9061192e565b80601f01602080910402602001604051908101604052809291908181526020018280546103989061192e565b80156103e55780601f106103ba576101008083540402835291602001916103e5565b820191906000526020600020905b8154815290600101906020018083116103c857829003601f168201915b505050505081526020016004820160009054906101000a900473ffffffffffffffffffffffffffffffffffffffff1673ffffffffffffffffffffffffffffffffffffffff1673ffffffffffffffffffffffffffffffffffffffff1681526020016004820160149054906101000a900460ff161515151581525050838381518110610472576104716118d0565b5b60200260200101819052505080806104899061198e565b915050610197565b508091505090565b6104a1610ed6565b600260008373ffffffffffffffffffffffffffffffffffffffff1673ffffffffffffffffffffffffffffffffffffffff1681526020019081526020016000206040518060c0016040529081600082015481526020016001820180546105059061192e565b80601f01602080910402602001604051908101604052809291908181526020018280546105319061192e565b801561057e5780601f106105535761010080835404028352916020019161057e565b820191906000526020600020905b81548152906001019060200180831161056157829003601f168201915b505050505081526020016002820180546105979061192e565b80601f01602080910402602001604051908101604052809291908181526020018280546105c39061192e565b80156106105780601f106105e557610100808354040283529160200191610610565b820191906000526020600020905b8154815290600101906020018083116105f357829003601f168201915b505050505081526020016003820180546106299061192e565b80601f01602080910402602001604051908101604052809291908181526020018280546106559061192e565b80156106a25780601f10610677576101008083540402835291602001916106a2565b820191906000526020600020905b81548152906001019060200180831161068557829003601f168201915b505050505081526020016004820160009054906101000a900473ffffffffffffffffffffffffffffffffffffffff1673ffffffffffffffffffffffffffffffffffffffff1673ffffffffffffffffffffffffffffffffffffffff1681526020016004820160149054906101000a900460ff1615151515815250509050919050565b60011515600360003373ffffffffffffffffffffffffffffffffffffffff1673ffffffffffffffffffffffffffffffffffffffff16815260200190815260200160002060009054906101000a900460ff1615151461078057600080fd5b80600360008473ffffffffffffffffffffffffffffffffffffffff1673ffffffffffffffffffffffffffffffffffffffff16815260200190815260200160002060006101000a81548160ff0219169083151502179055505050565b6060600460008373ffffffffffffffffffffffffffffffffffffffff1673ffffffffffffffffffffffffffffffffffffffff168152602001908152602001600020805480602002602001604051908101604052809291908181526020016000905b82821015610ae457838290600052602060002090600702016040518060e0016040529081600082015481526020016001820180546108799061192e565b80601f01602080910402602001604051908101604052809291908181526020018280546108a59061192e565b80156108f25780601f106108c7576101008083540402835291602001916108f2565b820191906000526020600020905b8154815290600101906020018083116108d557829003601f168201915b50505050508152602001600282015481526020016003820180546109159061192e565b80601f01602080910402602001604051908101604052809291908181526020018280546109419061192e565b801561098e5780601f106109635761010080835404028352916020019161098e565b820191906000526020600020905b81548152906001019060200180831161097157829003601f168201915b505050505081526020016004820160009054906101000a900473ffffffffffffffffffffffffffffffffffffffff1673ffffffffffffffffffffffffffffffffffffffff1673ffffffffffffffffffffffffffffffffffffffff1681526020016005820160009054906101000a900473ffffffffffffffffffffffffffffffffffffffff1673ffffffffffffffffffffffffffffffffffffffff1673ffffffffffffffffffffffffffffffffffffffff168152602001600682018054610a539061192e565b80601f0160208091040260200160405190810160405280929190818152602001828054610a7f9061192e565b8015610acc5780601f10610aa157610100808354040283529160200191610acc565b820191906000526020600020905b815481529060010190602001808311610aaf57829003601f168201915b5050505050815250508152602001906001019061083c565b505050509050919050565b60011515600360003373ffffffffffffffffffffffffffffffffffffffff1673ffffffffffffffffffffffffffffffffffffffff16815260200190815260200160002060009054906101000a900460ff16151514610b4c57600080fd5b600260008373ffffffffffffffffffffffffffffffffffffffff1673ffffffffffffffffffffffffffffffffffffffff16815260200190815260200160002060040160149054906101000a900460ff16610ba557600080fd5b600460008373ffffffffffffffffffffffffffffffffffffffff1673ffffffffffffffffffffffffffffffffffffffff168152602001908152602001600020819080600181540180825580915050600190039060005260206000209060070201600090919091909150600082015181600001556020820151816001019081610c2d9190611b82565b50604082015181600201556060820151816003019081610c4d9190611b82565b5060808201518160040160006101000a81548173ffffffffffffffffffffffffffffffffffffffff021916908373ffffffffffffffffffffffffffffffffffffffff16021790555060a08201518160050160006101000a81548173ffffffffffffffffffffffffffffffffffffffff021916908373ffffffffffffffffffffffffffffffffffffffff16021790555060c0820151816006019081610cf19190611b82565b5050505050565b60011515600360003373ffffffffffffffffffffffffffffffffffffffff1673ffffffffffffffffffffffffffffffffffffffff16815260200190815260200160002060009054906101000a900460ff16151514610d5557600080fd5b60018160a00190151590811515815250508060026000836080015173ffffffffffffffffffffffffffffffffffffffff1673ffffffffffffffffffffffffffffffffffffffff168152602001908152602001600020600082015181600001556020820151816001019081610dc99190611b82565b506040820151816002019081610ddf9190611b82565b506060820151816003019081610df59190611b82565b5060808201518160040160006101000a81548173ffffffffffffffffffffffffffffffffffffffff021916908373ffffffffffffffffffffffffffffffffffffffff16021790555060a08201518160040160146101000a81548160ff021916908315150217905550905050600181608001519080600181540180825580915050600190039060005260206000200160009091909190916101000a81548173ffffffffffffffffffffffffffffffffffffffff021916908373ffffffffffffffffffffffffffffffffffffffff16021790555060018054905060008190555050565b6040518060c0016040528060008152602001606081526020016060815260200160608152602001600073ffffffffffffffffffffffffffffffffffffffff1681526020016000151581525090565b600081519050919050565b600082825260208201905092915050565b6000819050602082019050919050565b6000819050919050565b610f6381610f50565b82525050565b600081519050919050565b600082825260208201905092915050565b60005b83811015610fa3578082015181840152602081019050610f88565b60008484015250505050565b6000601f19601f8301169050919050565b6000610fcb82610f69565b610fd58185610f74565b9350610fe5818560208601610f85565b610fee81610faf565b840191505092915050565b600073ffffffffffffffffffffffffffffffffffffffff82169050919050565b600061102482610ff9565b9050919050565b61103481611019565b82525050565b60008115159050919050565b61104f8161103a565b82525050565b600060c08301600083015161106d6000860182610f5a565b50602083015184820360208601526110858282610fc0565b9150506040830151848203604086015261109f8282610fc0565b915050606083015184820360608601526110b98282610fc0565b91505060808301516110ce608086018261102b565b5060a08301516110e160a0860182611046565b508091505092915050565b60006110f88383611055565b905092915050565b6000602082019050919050565b600061111882610f24565b6111228185610f2f565b93508360208202850161113485610f40565b8060005b85811015611170578484038952815161115185826110ec565b945061115c83611100565b925060208a01995050600181019050611138565b50829750879550505050505092915050565b6000602082019050818103600083015261119c818461110d565b905092915050565b6000604051905090565b600080fd5b600080fd5b6111c181611019565b81146111cc57600080fd5b50565b6000813590506111de816111b8565b92915050565b6000602082840312156111fa576111f96111ae565b5b6000611208848285016111cf565b91505092915050565b600060c0830160008301516112296000860182610f5a565b50602083015184820360208601526112418282610fc0565b9150506040830151848203604086015261125b8282610fc0565b915050606083015184820360608601526112758282610fc0565b915050608083015161128a608086018261102b565b5060a083015161129d60a0860182611046565b508091505092915050565b600060208201905081810360008301526112c28184611211565b905092915050565b6112d38161103a565b81146112de57600080fd5b50565b6000813590506112f0816112ca565b92915050565b6000806040838503121561130d5761130c6111ae565b5b600061131b858286016111cf565b925050602061132c858286016112e1565b9150509250929050565b600081519050919050565b600082825260208201905092915050565b6000819050602082019050919050565b600060e08301600083015161137a6000860182610f5a565b50602083015184820360208601526113928282610fc0565b91505060408301516113a76040860182610f5a565b50606083015184820360608601526113bf8282610fc0565b91505060808301516113d4608086018261102b565b5060a08301516113e760a086018261102b565b5060c083015184820360c08601526113ff8282610fc0565b9150508091505092915050565b60006114188383611362565b905092915050565b6000602082019050919050565b600061143882611336565b6114428185611341565b93508360208202850161145485611352565b8060005b858110156114905784840389528151611471858261140c565b945061147c83611420565b925060208a01995050600181019050611458565b50829750879550505050505092915050565b600060208201905081810360008301526114bc818461142d565b905092915050565b600080fd5b7f4e487b7100000000000000000000000000000000000000000000000000000000600052604160045260246000fd5b61150182610faf565b810181811067ffffffffffffffff821117156115205761151f6114c9565b5b80604052505050565b60006115336111a4565b905061153f82826114f8565b919050565b600080fd5b61155281610f50565b811461155d57600080fd5b50565b60008135905061156f81611549565b92915050565b600080fd5b600080fd5b600067ffffffffffffffff82111561159a576115996114c9565b5b6115a382610faf565b9050602081019050919050565b82818337600083830152505050565b60006115d26115cd8461157f565b611529565b9050828152602081018484840111156115ee576115ed61157a565b5b6115f98482856115b0565b509392505050565b600082601f83011261161657611615611575565b5b81356116268482602086016115bf565b91505092915050565b600060e08284031215611645576116446114c4565b5b61164f60e0611529565b9050600061165f84828501611560565b600083015250602082013567ffffffffffffffff81111561168357611682611544565b5b61168f84828501611601565b60208301525060406116a384828501611560565b604083015250606082013567ffffffffffffffff8111156116c7576116c6611544565b5b6116d384828501611601565b60608301525060806116e7848285016111cf565b60808301525060a06116fb848285016111cf565b60a08301525060c082013567ffffffffffffffff81111561171f5761171e611544565b5b61172b84828501611601565b60c08301525092915050565b6000806040838503121561174e5761174d6111ae565b5b600061175c858286016111cf565b925050602083013567ffffffffffffffff81111561177d5761177c6111b3565b5b6117898582860161162f565b9150509250929050565b600060c082840312156117a9576117a86114c4565b5b6117b360c0611529565b905060006117c384828501611560565b600083015250602082013567ffffffffffffffff8111156117e7576117e6611544565b5b6117f384828501611601565b602083015250604082013567ffffffffffffffff81111561181757611816611544565b5b61182384828501611601565b604083015250606082013567ffffffffffffffff81111561184757611846611544565b5b61185384828501611601565b6060830152506080611867848285016111cf565b60808301525060a061187b848285016112e1565b60a08301525092915050565b60006020828403121561189d5761189c6111ae565b5b600082013567ffffffffffffffff8111156118bb576118ba6111b3565b5b6118c784828501611793565b91505092915050565b7f4e487b7100000000000000000000000000000000000000000000000000000000600052603260045260246000fd5b7f4e487b7100000000000000000000000000000000000000000000000000000000600052602260045260246000fd5b6000600282049050600182168061194657607f821691505b602082108103611959576119586118ff565b5b50919050565b7f4e487b7100000000000000000000000000000000000000000000000000000000600052601160045260246000fd5b600061199982610f50565b91507fffffffffffffffffffffffffffffffffffffffffffffffffffffffffffffffff82036119cb576119ca61195f565b5b600182019050919050565b60008190508160005260206000209050919050565b60006020601f8301049050919050565b600082821b905092915050565b600060088302611a387fffffffffffffffffffffffffffffffffffffffffffffffffffffffffffffffff826119fb565b611a4286836119fb565b95508019841693508086168417925050509392505050565b6000819050919050565b6000611a7f611a7a611a7584610f50565b611a5a565b610f50565b9050919050565b6000819050919050565b611a9983611a64565b611aad611aa582611a86565b848454611a08565b825550505050565b600090565b611ac2611ab5565b611acd818484611a90565b505050565b5b81811015611af157611ae6600082611aba565b600181019050611ad3565b5050565b601f821115611b3657611b07816119d6565b611b10846119eb565b81016020851015611b1f578190505b611b33611b2b856119eb565b830182611ad2565b50505b505050565b600082821c905092915050565b6000611b5960001984600802611b3b565b1980831691505092915050565b6000611b728383611b48565b9150826002028217905092915050565b611b8b82610f69565b67ffffffffffffffff811115611ba457611ba36114c9565b5b611bae825461192e565b611bb9828285611af5565b600060209050601f831160018114611bec5760008415611bda578287015190505b611be48582611b66565b865550611c4c565b601f198416611bfa866119d6565b60005b82811015611c2257848901518255600182019150602085019450602081019050611bfd565b86831015611c3f5784890151611c3b601f891682611b48565b8355505b6001600288020188555050505b50505050505056fea264697066735822122059338a1f4a788958558562caf560cba19a1c5e908d8f5e63c79a0cfc3f177c7e64736f6c63430008130033",
  "immutableReferences": {},
  "source": "// SPDX-License-Identifier: MIT\r\npragma solidity ^0.8.0;\r\n\r\nimport \"./TiposComuns.sol\";\r\n\r\ncontract Fornecedor {\r\n    //Propriedades\r\n    uint256 private _qtdFornecedores;\r\n    address[] private _enderecosFornecedores;\r\n    mapping(address => FornecedorInfo) private _fornecedores;\r\n\r\n    mapping(address => bool) private _owners;\r\n    mapping(address => ExtratoInfo[]) private _extrato;\r\n\r\n    //Construtores\r\n    constructor() {\r\n        _owners[msg.sender] = true;\r\n    }\r\n\r\n    //Modificadores\r\n    modifier onlyOwner() {\r\n        require(_owners[msg.sender] == true);\r\n        _;\r\n    }\r\n\r\n    //Funes\r\n    function setOwner(address owner, bool isOwner) public onlyOwner {\r\n        _owners[owner] = isOwner;\r\n    }\r\n\r\n    function cadastrarFornecedor(FornecedorInfo memory fornecedor)\r\n        public\r\n        onlyOwner\r\n    {\r\n        fornecedor.cadastrado = true;\r\n        _fornecedores[fornecedor.enderecoCarteira] = fornecedor;\r\n        _enderecosFornecedores.push(fornecedor.enderecoCarteira);\r\n        _qtdFornecedores = _enderecosFornecedores.length;\r\n    }\r\n\r\n    function listarFornecedores()\r\n        public\r\n        view\r\n        returns (FornecedorInfo[] memory)\r\n    {\r\n        FornecedorInfo[] memory fornecedores = new FornecedorInfo[](\r\n            _qtdFornecedores\r\n        );\r\n\r\n        for (uint256 i = 0; i < _qtdFornecedores; i++) {\r\n            address endereco = _enderecosFornecedores[i];\r\n            fornecedores[i] = _fornecedores[endereco];\r\n        }\r\n\r\n        return fornecedores;\r\n    }\r\n\r\n    function obterFornecedor(address endereco)\r\n        public\r\n        view\r\n        returns (FornecedorInfo memory)\r\n    {\r\n        return _fornecedores[endereco];\r\n    }\r\n\r\n    function incluirLinhaExtrato(address endereco, ExtratoInfo memory extrato)\r\n        public\r\n        onlyOwner\r\n    {\r\n        require(_fornecedores[endereco].cadastrado);\r\n        _extrato[endereco].push(extrato);\r\n    }\r\n\r\n    function consultarExtrato(address endereco)\r\n        public\r\n        view\r\n        returns (ExtratoInfo[] memory)\r\n    {\r\n        return _extrato[endereco];\r\n    }\r\n}\r\n",
  "sourcePath": "/govtoken/Contratos/Fornecedor.sol",
  "compiler": {
    "name": "solc",
    "version": "0.8.19+commit.7dd6d404.Emscripten.clang"
  },
  "schemaVersion": "3.4.8",
  "updatedAt": "2023-03-15T21:58:54.789Z",
  "networkType": "ethereum",
  "devdoc": {
    "kind": "dev",
    "methods": {},
    "version": 1
  },
  "userdoc": {
    "kind": "user",
    "methods": {},
    "version": 1
  }
}