{
  "contractName": "GovToken",
  "abi": [
    {
      "inputs": [],
      "stateMutability": "nonpayable",
      "type": "constructor"
    },
    {
      "anonymous": false,
      "inputs": [
        {
          "indexed": true,
          "internalType": "address",
          "name": "owner",
          "type": "address"
        },
        {
          "indexed": true,
          "internalType": "address",
          "name": "spender",
          "type": "address"
        },
        {
          "indexed": false,
          "internalType": "uint256",
          "name": "value",
          "type": "uint256"
        }
      ],
      "name": "Approval",
      "type": "event"
    },
    {
      "anonymous": false,
      "inputs": [
        {
          "indexed": true,
          "internalType": "address",
          "name": "from",
          "type": "address"
        },
        {
          "indexed": true,
          "internalType": "address",
          "name": "to",
          "type": "address"
        },
        {
          "indexed": false,
          "internalType": "uint256",
          "name": "value",
          "type": "uint256"
        }
      ],
      "name": "Transfer",
      "type": "event"
    },
    {
      "inputs": [],
      "name": "_mintOwner",
      "outputs": [
        {
          "internalType": "address",
          "name": "",
          "type": "address"
        }
      ],
      "stateMutability": "view",
      "type": "function",
      "constant": true
    },
    {
      "inputs": [],
      "name": "_owner",
      "outputs": [
        {
          "internalType": "address",
          "name": "",
          "type": "address"
        }
      ],
      "stateMutability": "view",
      "type": "function",
      "constant": true
    },
    {
      "inputs": [
        {
          "internalType": "address",
          "name": "owner",
          "type": "address"
        },
        {
          "internalType": "address",
          "name": "spender",
          "type": "address"
        }
      ],
      "name": "allowance",
      "outputs": [
        {
          "internalType": "uint256",
          "name": "",
          "type": "uint256"
        }
      ],
      "stateMutability": "view",
      "type": "function",
      "constant": true
    },
    {
      "inputs": [
        {
          "internalType": "address",
          "name": "spender",
          "type": "address"
        },
        {
          "internalType": "uint256",
          "name": "amount",
          "type": "uint256"
        }
      ],
      "name": "approve",
      "outputs": [
        {
          "internalType": "bool",
          "name": "",
          "type": "bool"
        }
      ],
      "stateMutability": "nonpayable",
      "type": "function"
    },
    {
      "inputs": [
        {
          "internalType": "address",
          "name": "account",
          "type": "address"
        }
      ],
      "name": "balanceOf",
      "outputs": [
        {
          "internalType": "uint256",
          "name": "",
          "type": "uint256"
        }
      ],
      "stateMutability": "view",
      "type": "function",
      "constant": true
    },
    {
      "inputs": [
        {
          "internalType": "uint256",
          "name": "amount",
          "type": "uint256"
        }
      ],
      "name": "burn",
      "outputs": [],
      "stateMutability": "nonpayable",
      "type": "function"
    },
    {
      "inputs": [
        {
          "internalType": "address",
          "name": "account",
          "type": "address"
        },
        {
          "internalType": "uint256",
          "name": "amount",
          "type": "uint256"
        }
      ],
      "name": "burnFrom",
      "outputs": [],
      "stateMutability": "nonpayable",
      "type": "function"
    },
    {
      "inputs": [
        {
          "internalType": "address",
          "name": "spender",
          "type": "address"
        },
        {
          "internalType": "uint256",
          "name": "subtractedValue",
          "type": "uint256"
        }
      ],
      "name": "decreaseAllowance",
      "outputs": [
        {
          "internalType": "bool",
          "name": "",
          "type": "bool"
        }
      ],
      "stateMutability": "nonpayable",
      "type": "function"
    },
    {
      "inputs": [
        {
          "internalType": "address",
          "name": "spender",
          "type": "address"
        },
        {
          "internalType": "uint256",
          "name": "addedValue",
          "type": "uint256"
        }
      ],
      "name": "increaseAllowance",
      "outputs": [
        {
          "internalType": "bool",
          "name": "",
          "type": "bool"
        }
      ],
      "stateMutability": "nonpayable",
      "type": "function"
    },
    {
      "inputs": [],
      "name": "name",
      "outputs": [
        {
          "internalType": "string",
          "name": "",
          "type": "string"
        }
      ],
      "stateMutability": "view",
      "type": "function",
      "constant": true
    },
    {
      "inputs": [],
      "name": "symbol",
      "outputs": [
        {
          "internalType": "string",
          "name": "",
          "type": "string"
        }
      ],
      "stateMutability": "view",
      "type": "function",
      "constant": true
    },
    {
      "inputs": [],
      "name": "totalSupply",
      "outputs": [
        {
          "internalType": "uint256",
          "name": "",
          "type": "uint256"
        }
      ],
      "stateMutability": "view",
      "type": "function",
      "constant": true
    },
    {
      "inputs": [
        {
          "internalType": "address",
          "name": "to",
          "type": "address"
        },
        {
          "internalType": "uint256",
          "name": "amount",
          "type": "uint256"
        }
      ],
      "name": "transfer",
      "outputs": [
        {
          "internalType": "bool",
          "name": "",
          "type": "bool"
        }
      ],
      "stateMutability": "nonpayable",
      "type": "function"
    },
    {
      "inputs": [
        {
          "internalType": "address",
          "name": "from",
          "type": "address"
        },
        {
          "internalType": "address",
          "name": "to",
          "type": "address"
        },
        {
          "internalType": "uint256",
          "name": "amount",
          "type": "uint256"
        }
      ],
      "name": "transferFrom",
      "outputs": [
        {
          "internalType": "bool",
          "name": "",
          "type": "bool"
        }
      ],
      "stateMutability": "nonpayable",
      "type": "function"
    },
    {
      "inputs": [
        {
          "internalType": "address",
          "name": "mintOwner",
          "type": "address"
        }
      ],
      "name": "setMintOwner",
      "outputs": [],
      "stateMutability": "nonpayable",
      "type": "function"
    },
    {
      "inputs": [
        {
          "internalType": "address",
          "name": "to",
          "type": "address"
        },
        {
          "internalType": "uint256",
          "name": "amount",
          "type": "uint256"
        }
      ],
      "name": "mint",
      "outputs": [],
      "stateMutability": "nonpayable",
      "type": "function"
    },
    {
      "inputs": [],
      "name": "decimals",
      "outputs": [
        {
          "internalType": "uint8",
          "name": "",
          "type": "uint8"
        }
      ],
      "stateMutability": "view",
      "type": "function",
      "constant": true
    }
  ],
  "bytecode": "0x60806040523480156200001157600080fd5b506040518060400160405280600881526020017f476f76546f6b656e0000000000000000000000000000000000000000000000008152506040518060400160405280600381526020017f477654000000000000000000000000000000000000000000000000000000000081525081600390816200008f9190620003a6565b508060049081620000a19190620003a6565b50505033600560006101000a81548173ffffffffffffffffffffffffffffffffffffffff021916908373ffffffffffffffffffffffffffffffffffffffff16021790555033600660006101000a81548173ffffffffffffffffffffffffffffffffffffffff021916908373ffffffffffffffffffffffffffffffffffffffff1602179055506200048d565b600081519050919050565b7f4e487b7100000000000000000000000000000000000000000000000000000000600052604160045260246000fd5b7f4e487b7100000000000000000000000000000000000000000000000000000000600052602260045260246000fd5b60006002820490506001821680620001ae57607f821691505b602082108103620001c457620001c362000166565b5b50919050565b60008190508160005260206000209050919050565b60006020601f8301049050919050565b600082821b905092915050565b6000600883026200022e7fffffffffffffffffffffffffffffffffffffffffffffffffffffffffffffffff82620001ef565b6200023a8683620001ef565b95508019841693508086168417925050509392505050565b6000819050919050565b6000819050919050565b600062000287620002816200027b8462000252565b6200025c565b62000252565b9050919050565b6000819050919050565b620002a38362000266565b620002bb620002b2826200028e565b848454620001fc565b825550505050565b600090565b620002d2620002c3565b620002df81848462000298565b505050565b5b818110156200030757620002fb600082620002c8565b600181019050620002e5565b5050565b601f82111562000356576200032081620001ca565b6200032b84620001df565b810160208510156200033b578190505b620003536200034a85620001df565b830182620002e4565b50505b505050565b600082821c905092915050565b60006200037b600019846008026200035b565b1980831691505092915050565b600062000396838362000368565b9150826002028217905092915050565b620003b1826200012c565b67ffffffffffffffff811115620003cd57620003cc62000137565b5b620003d9825462000195565b620003e68282856200030b565b600060209050601f8311600181146200041e576000841562000409578287015190505b62000415858262000388565b86555062000485565b601f1984166200042e86620001ca565b60005b82811015620004585784890151825560018201915060208501945060208101905062000431565b8683101562000478578489015162000474601f89168262000368565b8355505b6001600288020188555050505b505050505050565b6119cd806200049d6000396000f3fe608060405234801561001057600080fd5b506004361061010b5760003560e01c806370a08231116100a2578063a457c2d711610071578063a457c2d7146102ba578063a9059cbb146102ea578063b042d6311461031a578063b2bdfa7b14610336578063dd62ed3e146103545761010b565b806370a082311461023257806379cc6790146102625780638f4ddb501461027e57806395d89b411461029c5761010b565b8063313ce567116100de578063313ce567146101ac57806339509351146101ca57806340c10f19146101fa57806342966c68146102165761010b565b806306fdde0314610110578063095ea7b31461012e57806318160ddd1461015e57806323b872dd1461017c575b600080fd5b610118610384565b60405161012591906110c3565b60405180910390f35b6101486004803603810190610143919061117e565b610416565b60405161015591906111d9565b60405180910390f35b610166610439565b6040516101739190611203565b60405180910390f35b6101966004803603810190610191919061121e565b610443565b6040516101a391906111d9565b60405180910390f35b6101b4610472565b6040516101c1919061128d565b60405180910390f35b6101e460048036038101906101df919061117e565b61047b565b6040516101f191906111d9565b60405180910390f35b610214600480360381019061020f919061117e565b6104b2565b005b610230600480360381019061022b91906112a8565b61051a565b005b61024c600480360381019061024791906112d5565b61052e565b6040516102599190611203565b60405180910390f35b61027c6004803603810190610277919061117e565b610576565b005b610286610596565b6040516102939190611311565b60405180910390f35b6102a46105bc565b6040516102b191906110c3565b60405180910390f35b6102d460048036038101906102cf919061117e565b61064e565b6040516102e191906111d9565b60405180910390f35b61030460048036038101906102ff919061117e565b6106c5565b60405161031191906111d9565b60405180910390f35b610334600480360381019061032f91906112d5565b6106e8565b005b61033e610786565b60405161034b9190611311565b60405180910390f35b61036e6004803603810190610369919061132c565b6107ac565b60405161037b9190611203565b60405180910390f35b6060600380546103939061139b565b80601f01602080910402602001604051908101604052809291908181526020018280546103bf9061139b565b801561040c5780601f106103e15761010080835404028352916020019161040c565b820191906000526020600020905b8154815290600101906020018083116103ef57829003601f168201915b5050505050905090565b600080610421610833565b905061042e81858561083b565b600191505092915050565b6000600254905090565b60008061044e610833565b905061045b858285610a04565b610466858585610a90565b60019150509392505050565b60006002905090565b600080610486610833565b90506104a781858561049885896107ac565b6104a291906113fb565b61083b565b600191505092915050565b600660009054906101000a900473ffffffffffffffffffffffffffffffffffffffff1673ffffffffffffffffffffffffffffffffffffffff163373ffffffffffffffffffffffffffffffffffffffff161461050c57600080fd5b6105168282610d06565b5050565b61052b610525610833565b82610e5c565b50565b60008060008373ffffffffffffffffffffffffffffffffffffffff1673ffffffffffffffffffffffffffffffffffffffff168152602001908152602001600020549050919050565b61058882610582610833565b83610a04565b6105928282610e5c565b5050565b600660009054906101000a900473ffffffffffffffffffffffffffffffffffffffff1681565b6060600480546105cb9061139b565b80601f01602080910402602001604051908101604052809291908181526020018280546105f79061139b565b80156106445780601f1061061957610100808354040283529160200191610644565b820191906000526020600020905b81548152906001019060200180831161062757829003601f168201915b5050505050905090565b600080610659610833565b9050600061066782866107ac565b9050838110156106ac576040517f08c379a00000000000000000000000000000000000000000000000000000000081526004016106a3906114a1565b60405180910390fd5b6106b9828686840361083b565b60019250505092915050565b6000806106d0610833565b90506106dd818585610a90565b600191505092915050565b600560009054906101000a900473ffffffffffffffffffffffffffffffffffffffff1673ffffffffffffffffffffffffffffffffffffffff163373ffffffffffffffffffffffffffffffffffffffff161461074257600080fd5b80600660006101000a81548173ffffffffffffffffffffffffffffffffffffffff021916908373ffffffffffffffffffffffffffffffffffffffff16021790555050565b600560009054906101000a900473ffffffffffffffffffffffffffffffffffffffff1681565b6000600160008473ffffffffffffffffffffffffffffffffffffffff1673ffffffffffffffffffffffffffffffffffffffff16815260200190815260200160002060008373ffffffffffffffffffffffffffffffffffffffff1673ffffffffffffffffffffffffffffffffffffffff16815260200190815260200160002054905092915050565b600033905090565b600073ffffffffffffffffffffffffffffffffffffffff168373ffffffffffffffffffffffffffffffffffffffff16036108aa576040517f08c379a00000000000000000000000000000000000000000000000000000000081526004016108a190611533565b60405180910390fd5b600073ffffffffffffffffffffffffffffffffffffffff168273ffffffffffffffffffffffffffffffffffffffff1603610919576040517f08c379a0000000000000000000000000000000000000000000000000000000008152600401610910906115c5565b60405180910390fd5b80600160008573ffffffffffffffffffffffffffffffffffffffff1673ffffffffffffffffffffffffffffffffffffffff16815260200190815260200160002060008473ffffffffffffffffffffffffffffffffffffffff1673ffffffffffffffffffffffffffffffffffffffff168152602001908152602001600020819055508173ffffffffffffffffffffffffffffffffffffffff168373ffffffffffffffffffffffffffffffffffffffff167f8c5be1e5ebec7d5bd14f71427d1e84f3dd0314c0f7b2291e5b200ac8c7c3b925836040516109f79190611203565b60405180910390a3505050565b6000610a1084846107ac565b90507fffffffffffffffffffffffffffffffffffffffffffffffffffffffffffffffff8114610a8a5781811015610a7c576040517f08c379a0000000000000000000000000000000000000000000000000000000008152600401610a7390611631565b60405180910390fd5b610a89848484840361083b565b5b50505050565b600073ffffffffffffffffffffffffffffffffffffffff168373ffffffffffffffffffffffffffffffffffffffff1603610aff576040517f08c379a0000000000000000000000000000000000000000000000000000000008152600401610af6906116c3565b60405180910390fd5b600073ffffffffffffffffffffffffffffffffffffffff168273ffffffffffffffffffffffffffffffffffffffff1603610b6e576040517f08c379a0000000000000000000000000000000000000000000000000000000008152600401610b6590611755565b60405180910390fd5b610b79838383611029565b60008060008573ffffffffffffffffffffffffffffffffffffffff1673ffffffffffffffffffffffffffffffffffffffff16815260200190815260200160002054905081811015610bff576040517f08c379a0000000000000000000000000000000000000000000000000000000008152600401610bf6906117e7565b60405180910390fd5b8181036000808673ffffffffffffffffffffffffffffffffffffffff1673ffffffffffffffffffffffffffffffffffffffff16815260200190815260200160002081905550816000808573ffffffffffffffffffffffffffffffffffffffff1673ffffffffffffffffffffffffffffffffffffffff168152602001908152602001600020600082825401925050819055508273ffffffffffffffffffffffffffffffffffffffff168473ffffffffffffffffffffffffffffffffffffffff167fddf252ad1be2c89b69c2b068fc378daa952ba7f163c4a11628f55a4df523b3ef84604051610ced9190611203565b60405180910390a3610d0084848461102e565b50505050565b600073ffffffffffffffffffffffffffffffffffffffff168273ffffffffffffffffffffffffffffffffffffffff1603610d75576040517f08c379a0000000000000000000000000000000000000000000000000000000008152600401610d6c90611853565b60405180910390fd5b610d8160008383611029565b8060026000828254610d9391906113fb565b92505081905550806000808473ffffffffffffffffffffffffffffffffffffffff1673ffffffffffffffffffffffffffffffffffffffff168152602001908152602001600020600082825401925050819055508173ffffffffffffffffffffffffffffffffffffffff16600073ffffffffffffffffffffffffffffffffffffffff167fddf252ad1be2c89b69c2b068fc378daa952ba7f163c4a11628f55a4df523b3ef83604051610e449190611203565b60405180910390a3610e586000838361102e565b5050565b600073ffffffffffffffffffffffffffffffffffffffff168273ffffffffffffffffffffffffffffffffffffffff1603610ecb576040517f08c379a0000000000000000000000000000000000000000000000000000000008152600401610ec2906118e5565b60405180910390fd5b610ed782600083611029565b60008060008473ffffffffffffffffffffffffffffffffffffffff1673ffffffffffffffffffffffffffffffffffffffff16815260200190815260200160002054905081811015610f5d576040517f08c379a0000000000000000000000000000000000000000000000000000000008152600401610f5490611977565b60405180910390fd5b8181036000808573ffffffffffffffffffffffffffffffffffffffff1673ffffffffffffffffffffffffffffffffffffffff1681526020019081526020016000208190555081600260008282540392505081905550600073ffffffffffffffffffffffffffffffffffffffff168373ffffffffffffffffffffffffffffffffffffffff167fddf252ad1be2c89b69c2b068fc378daa952ba7f163c4a11628f55a4df523b3ef846040516110109190611203565b60405180910390a36110248360008461102e565b505050565b505050565b505050565b600081519050919050565b600082825260208201905092915050565b60005b8381101561106d578082015181840152602081019050611052565b60008484015250505050565b6000601f19601f8301169050919050565b600061109582611033565b61109f818561103e565b93506110af81856020860161104f565b6110b881611079565b840191505092915050565b600060208201905081810360008301526110dd818461108a565b905092915050565b600080fd5b600073ffffffffffffffffffffffffffffffffffffffff82169050919050565b6000611115826110ea565b9050919050565b6111258161110a565b811461113057600080fd5b50565b6000813590506111428161111c565b92915050565b6000819050919050565b61115b81611148565b811461116657600080fd5b50565b60008135905061117881611152565b92915050565b60008060408385031215611195576111946110e5565b5b60006111a385828601611133565b92505060206111b485828601611169565b9150509250929050565b60008115159050919050565b6111d3816111be565b82525050565b60006020820190506111ee60008301846111ca565b92915050565b6111fd81611148565b82525050565b600060208201905061121860008301846111f4565b92915050565b600080600060608486031215611237576112366110e5565b5b600061124586828701611133565b935050602061125686828701611133565b925050604061126786828701611169565b9150509250925092565b600060ff82169050919050565b61128781611271565b82525050565b60006020820190506112a2600083018461127e565b92915050565b6000602082840312156112be576112bd6110e5565b5b60006112cc84828501611169565b91505092915050565b6000602082840312156112eb576112ea6110e5565b5b60006112f984828501611133565b91505092915050565b61130b8161110a565b82525050565b60006020820190506113266000830184611302565b92915050565b60008060408385031215611343576113426110e5565b5b600061135185828601611133565b925050602061136285828601611133565b9150509250929050565b7f4e487b7100000000000000000000000000000000000000000000000000000000600052602260045260246000fd5b600060028204905060018216806113b357607f821691505b6020821081036113c6576113c561136c565b5b50919050565b7f4e487b7100000000000000000000000000000000000000000000000000000000600052601160045260246000fd5b600061140682611148565b915061141183611148565b9250828201905080821115611429576114286113cc565b5b92915050565b7f45524332303a2064656372656173656420616c6c6f77616e63652062656c6f7760008201527f207a65726f000000000000000000000000000000000000000000000000000000602082015250565b600061148b60258361103e565b91506114968261142f565b604082019050919050565b600060208201905081810360008301526114ba8161147e565b9050919050565b7f45524332303a20617070726f76652066726f6d20746865207a65726f2061646460008201527f7265737300000000000000000000000000000000000000000000000000000000602082015250565b600061151d60248361103e565b9150611528826114c1565b604082019050919050565b6000602082019050818103600083015261154c81611510565b9050919050565b7f45524332303a20617070726f766520746f20746865207a65726f20616464726560008201527f7373000000000000000000000000000000000000000000000000000000000000602082015250565b60006115af60228361103e565b91506115ba82611553565b604082019050919050565b600060208201905081810360008301526115de816115a2565b9050919050565b7f45524332303a20696e73756666696369656e7420616c6c6f77616e6365000000600082015250565b600061161b601d8361103e565b9150611626826115e5565b602082019050919050565b6000602082019050818103600083015261164a8161160e565b9050919050565b7f45524332303a207472616e736665722066726f6d20746865207a65726f20616460008201527f6472657373000000000000000000000000000000000000000000000000000000602082015250565b60006116ad60258361103e565b91506116b882611651565b604082019050919050565b600060208201905081810360008301526116dc816116a0565b9050919050565b7f45524332303a207472616e7366657220746f20746865207a65726f206164647260008201527f6573730000000000000000000000000000000000000000000000000000000000602082015250565b600061173f60238361103e565b915061174a826116e3565b604082019050919050565b6000602082019050818103600083015261176e81611732565b9050919050565b7f45524332303a207472616e7366657220616d6f756e742065786365656473206260008201527f616c616e63650000000000000000000000000000000000000000000000000000602082015250565b60006117d160268361103e565b91506117dc82611775565b604082019050919050565b60006020820190508181036000830152611800816117c4565b9050919050565b7f45524332303a206d696e7420746f20746865207a65726f206164647265737300600082015250565b600061183d601f8361103e565b915061184882611807565b602082019050919050565b6000602082019050818103600083015261186c81611830565b9050919050565b7f45524332303a206275726e2066726f6d20746865207a65726f2061646472657360008201527f7300000000000000000000000000000000000000000000000000000000000000602082015250565b60006118cf60218361103e565b91506118da82611873565b604082019050919050565b600060208201905081810360008301526118fe816118c2565b9050919050565b7f45524332303a206275726e20616d6f756e7420657863656564732062616c616e60008201527f6365000000000000000000000000000000000000000000000000000000000000602082015250565b600061196160228361103e565b915061196c82611905565b604082019050919050565b6000602082019050818103600083015261199081611954565b905091905056fea2646970667358221220b5db3e7379a27709d1e03cf125fa110e0c866f05692b4253b092eb7550d8f65064736f6c63430008130033",
  "immutableReferences": {},
  "source": "// SPDX-License-Identifier: MIT\r\npragma solidity ^0.8.0;\r\n\r\nimport \"@openzeppelin/contracts/token/ERC20/ERC20.sol\";\r\nimport \"@openzeppelin/contracts/token/ERC20/extensions/ERC20Burnable.sol\";\r\n\r\ncontract GovToken is ERC20, ERC20Burnable {\r\n    address public _owner;\r\n    address public _mintOwner;\r\n\r\n    modifier onlyOwner() {\r\n        require(msg.sender == _owner);\r\n        _;\r\n    }\r\n\r\n    modifier onlyMintOwner() {\r\n        require(msg.sender == _mintOwner);\r\n        _;\r\n    }\r\n\r\n    constructor() ERC20(\"GovToken\", \"GvT\") {\r\n        _owner = msg.sender;\r\n        _mintOwner = msg.sender;\r\n    }\r\n\r\n    function setMintOwner(address mintOwner) public onlyOwner {\r\n        _mintOwner = mintOwner;\r\n    }\r\n\r\n    function mint(address to, uint256 amount) public onlyMintOwner {\r\n        _mint(to, amount);\r\n    }\r\n\r\n    function decimals() public view virtual override returns (uint8) {\r\n        return 2;\r\n    }\r\n}\r\n",
  "sourcePath": "/govtoken/Contratos/GovToken.sol",
  "compiler": {
    "name": "solc",
    "version": "0.8.19+commit.7dd6d404.Emscripten.clang"
  },
  "schemaVersion": "3.4.8",
  "updatedAt": "2023-03-17T19:29:24.018Z",
  "networkType": "ethereum",
  "devdoc": {
    "events": {
      "Approval(address,address,uint256)": {
        "details": "Emitted when the allowance of a `spender` for an `owner` is set by a call to {approve}. `value` is the new allowance."
      },
      "Transfer(address,address,uint256)": {
        "details": "Emitted when `value` tokens are moved from one account (`from`) to another (`to`). Note that `value` may be zero."
      }
    },
    "kind": "dev",
    "methods": {
      "allowance(address,address)": {
        "details": "See {IERC20-allowance}."
      },
      "approve(address,uint256)": {
        "details": "See {IERC20-approve}. NOTE: If `amount` is the maximum `uint256`, the allowance is not updated on `transferFrom`. This is semantically equivalent to an infinite approval. Requirements: - `spender` cannot be the zero address."
      },
      "balanceOf(address)": {
        "details": "See {IERC20-balanceOf}."
      },
      "burn(uint256)": {
        "details": "Destroys `amount` tokens from the caller. See {ERC20-_burn}."
      },
      "burnFrom(address,uint256)": {
        "details": "Destroys `amount` tokens from `account`, deducting from the caller's allowance. See {ERC20-_burn} and {ERC20-allowance}. Requirements: - the caller must have allowance for ``accounts``'s tokens of at least `amount`."
      },
      "decimals()": {
        "details": "Returns the number of decimals used to get its user representation. For example, if `decimals` equals `2`, a balance of `505` tokens should be displayed to a user as `5.05` (`505 / 10 ** 2`). Tokens usually opt for a value of 18, imitating the relationship between Ether and Wei. This is the value {ERC20} uses, unless this function is overridden; NOTE: This information is only used for _display_ purposes: it in no way affects any of the arithmetic of the contract, including {IERC20-balanceOf} and {IERC20-transfer}."
      },
      "decreaseAllowance(address,uint256)": {
        "details": "Atomically decreases the allowance granted to `spender` by the caller. This is an alternative to {approve} that can be used as a mitigation for problems described in {IERC20-approve}. Emits an {Approval} event indicating the updated allowance. Requirements: - `spender` cannot be the zero address. - `spender` must have allowance for the caller of at least `subtractedValue`."
      },
      "increaseAllowance(address,uint256)": {
        "details": "Atomically increases the allowance granted to `spender` by the caller. This is an alternative to {approve} that can be used as a mitigation for problems described in {IERC20-approve}. Emits an {Approval} event indicating the updated allowance. Requirements: - `spender` cannot be the zero address."
      },
      "name()": {
        "details": "Returns the name of the token."
      },
      "symbol()": {
        "details": "Returns the symbol of the token, usually a shorter version of the name."
      },
      "totalSupply()": {
        "details": "See {IERC20-totalSupply}."
      },
      "transfer(address,uint256)": {
        "details": "See {IERC20-transfer}. Requirements: - `to` cannot be the zero address. - the caller must have a balance of at least `amount`."
      },
      "transferFrom(address,address,uint256)": {
        "details": "See {IERC20-transferFrom}. Emits an {Approval} event indicating the updated allowance. This is not required by the EIP. See the note at the beginning of {ERC20}. NOTE: Does not update the allowance if the current allowance is the maximum `uint256`. Requirements: - `from` and `to` cannot be the zero address. - `from` must have a balance of at least `amount`. - the caller must have allowance for ``from``'s tokens of at least `amount`."
      }
    },
    "version": 1
  },
  "userdoc": {
    "kind": "user",
    "methods": {},
    "version": 1
  }
}