{
  "contractName": "PainelServico",
  "abi": [
    {
      "inputs": [],
      "stateMutability": "nonpayable",
      "type": "constructor"
    },
    {
      "anonymous": false,
      "inputs": [
        {
          "components": [
            {
              "internalType": "uint256",
              "name": "id",
              "type": "uint256"
            },
            {
              "internalType": "uint256",
              "name": "data",
              "type": "uint256"
            },
            {
              "internalType": "string",
              "name": "descricaoResumida",
              "type": "string"
            },
            {
              "internalType": "string",
              "name": "descricao",
              "type": "string"
            },
            {
              "internalType": "uint256",
              "name": "valor",
              "type": "uint256"
            },
            {
              "internalType": "enum TipoServico",
              "name": "tipo",
              "type": "uint8"
            },
            {
              "internalType": "address",
              "name": "solicitante",
              "type": "address"
            },
            {
              "internalType": "address",
              "name": "executor",
              "type": "address"
            },
            {
              "internalType": "bool",
              "name": "disponivel",
              "type": "bool"
            }
          ],
          "indexed": false,
          "internalType": "struct Servico",
          "name": "servico",
          "type": "tuple"
        }
      ],
      "name": "servicoAdicionado",
      "type": "event"
    },
    {
      "inputs": [
        {
          "internalType": "address",
          "name": "owner",
          "type": "address"
        },
        {
          "internalType": "bool",
          "name": "isOwner",
          "type": "bool"
        }
      ],
      "name": "setOwner",
      "outputs": [],
      "stateMutability": "nonpayable",
      "type": "function"
    },
    {
      "inputs": [],
      "name": "listarServicos",
      "outputs": [
        {
          "components": [
            {
              "internalType": "uint256",
              "name": "id",
              "type": "uint256"
            },
            {
              "internalType": "uint256",
              "name": "data",
              "type": "uint256"
            },
            {
              "internalType": "string",
              "name": "descricaoResumida",
              "type": "string"
            },
            {
              "internalType": "string",
              "name": "descricao",
              "type": "string"
            },
            {
              "internalType": "uint256",
              "name": "valor",
              "type": "uint256"
            },
            {
              "internalType": "enum TipoServico",
              "name": "tipo",
              "type": "uint8"
            },
            {
              "internalType": "address",
              "name": "solicitante",
              "type": "address"
            },
            {
              "internalType": "address",
              "name": "executor",
              "type": "address"
            },
            {
              "internalType": "bool",
              "name": "disponivel",
              "type": "bool"
            }
          ],
          "internalType": "struct Servico[]",
          "name": "",
          "type": "tuple[]"
        }
      ],
      "stateMutability": "view",
      "type": "function",
      "constant": true
    },
    {
      "inputs": [
        {
          "internalType": "uint256",
          "name": "id",
          "type": "uint256"
        }
      ],
      "name": "executarServico",
      "outputs": [],
      "stateMutability": "nonpayable",
      "type": "function"
    },
    {
      "inputs": [
        {
          "internalType": "string",
          "name": "descricaoResumida",
          "type": "string"
        },
        {
          "internalType": "string",
          "name": "descricao",
          "type": "string"
        },
        {
          "internalType": "uint256",
          "name": "valor",
          "type": "uint256"
        },
        {
          "internalType": "string",
          "name": "tipo",
          "type": "string"
        }
      ],
      "name": "adicionarServico",
      "outputs": [],
      "stateMutability": "nonpayable",
      "type": "function"
    }
  ],
  "bytecode": "0x608060405260008055600060025534801561001957600080fd5b506114a2806100296000396000f3fe608060405234801561001057600080fd5b506004361061004c5760003560e01c806314fcf06214610051578063516c731c1461006f57806386780cab1461008b5780639d92b1e3146100a7575b600080fd5b6100596100c3565b6040516100669190610b8c565b60405180910390f35b61008960048036038101906100849190610c1a565b610367565b005b6100a560048036038101906100a09190610dbb565b61036b565b005b6100c160048036038101906100bc9190610e76565b6104da565b005b60606001805480602002602001604051908101604052809291908181526020016000905b8282101561035e578382906000526020600020906007020160405180610120016040529081600082015481526020016001820154815260200160028201805461012f90610ed2565b80601f016020809104026020016040519081016040528092919081815260200182805461015b90610ed2565b80156101a85780601f1061017d576101008083540402835291602001916101a8565b820191906000526020600020905b81548152906001019060200180831161018b57829003601f168201915b505050505081526020016003820180546101c190610ed2565b80601f01602080910402602001604051908101604052809291908181526020018280546101ed90610ed2565b801561023a5780601f1061020f5761010080835404028352916020019161023a565b820191906000526020600020905b81548152906001019060200180831161021d57829003601f168201915b50505050508152602001600482015481526020016005820160009054906101000a900460ff16600181111561027257610271610957565b5b600181111561028457610283610957565b5b81526020016005820160019054906101000a900473ffffffffffffffffffffffffffffffffffffffff1673ffffffffffffffffffffffffffffffffffffffff1673ffffffffffffffffffffffffffffffffffffffff1681526020016006820160009054906101000a900473ffffffffffffffffffffffffffffffffffffffff1673ffffffffffffffffffffffffffffffffffffffff1673ffffffffffffffffffffffffffffffffffffffff1681526020016006820160149054906101000a900460ff161515151581525050815260200190600101906100e7565b50505050905090565b5050565b6103736107f6565b60026000815461038290610f32565b919050819055816000018181525050848160400181905250838160600181905250828160800181815250506001816101000190151590811515815250506040516020016103ce90610fd1565b60405160208183030381529060405280519060200120826040516020016103f59190611017565b60405160208183030381529060405280519060200120036104465760008160a00190600181111561042957610428610957565b5b9081600181111561043d5761043c610957565b5b815250506104ca565b6040516020016104559061107a565b604051602081830303815290604052805190602001208260405160200161047c9190611017565b60405160208183030381529060405280519060200120036104c95760018160a0019060018111156104b0576104af610957565b5b908160018111156104c4576104c3610957565b5b815250505b5b6104d3816105d1565b5050505050565b60005b6000548110156105cd5781600182815481106104fc576104fb61108f565b5b906000526020600020906007020160000154036105ba5733600182815481106105285761052761108f565b5b906000526020600020906007020160060160006101000a81548173ffffffffffffffffffffffffffffffffffffffff021916908373ffffffffffffffffffffffffffffffffffffffff16021790555060006001828154811061058d5761058c61108f565b5b906000526020600020906007020160060160146101000a81548160ff0219169083151502179055506105cd565b80806105c590610f32565b9150506104dd565b5050565b338160c0019073ffffffffffffffffffffffffffffffffffffffff16908173ffffffffffffffffffffffffffffffffffffffff168152505060008160e0019073ffffffffffffffffffffffffffffffffffffffff16908173ffffffffffffffffffffffffffffffffffffffff16815250506103e84261065091906110be565b8160200181815250506001819080600181540180825580915050600190039060005260206000209060070201600090919091909150600082015181600001556020820151816001015560408201518160020190816106ae91906112ac565b5060608201518160030190816106c491906112ac565b506080820151816004015560a08201518160050160006101000a81548160ff021916908360018111156106fa576106f9610957565b5b021790555060c08201518160050160016101000a81548173ffffffffffffffffffffffffffffffffffffffff021916908373ffffffffffffffffffffffffffffffffffffffff16021790555060e08201518160060160006101000a81548173ffffffffffffffffffffffffffffffffffffffff021916908373ffffffffffffffffffffffffffffffffffffffff1602179055506101008201518160060160146101000a81548160ff02191690831515021790555050506001805490506000819055507fbc35ba2f810f2f015b93b8eaa31621e798157cf3323ae59acc76e2e051d5edd7816040516107eb919061144a565b60405180910390a150565b60405180610120016040528060008152602001600081526020016060815260200160608152602001600081526020016000600181111561083957610838610957565b5b8152602001600073ffffffffffffffffffffffffffffffffffffffff168152602001600073ffffffffffffffffffffffffffffffffffffffff1681526020016000151581525090565b600081519050919050565b600082825260208201905092915050565b6000819050602082019050919050565b6000819050919050565b6108c1816108ae565b82525050565b600081519050919050565b600082825260208201905092915050565b60005b838110156109015780820151818401526020810190506108e6565b60008484015250505050565b6000601f19601f8301169050919050565b6000610929826108c7565b61093381856108d2565b93506109438185602086016108e3565b61094c8161090d565b840191505092915050565b7f4e487b7100000000000000000000000000000000000000000000000000000000600052602160045260246000fd5b6002811061099757610996610957565b5b50565b60008190506109a882610986565b919050565b60006109b88261099a565b9050919050565b6109c8816109ad565b82525050565b600073ffffffffffffffffffffffffffffffffffffffff82169050919050565b60006109f9826109ce565b9050919050565b610a09816109ee565b82525050565b60008115159050919050565b610a2481610a0f565b82525050565b600061012083016000830151610a4360008601826108b8565b506020830151610a5660208601826108b8565b5060408301518482036040860152610a6e828261091e565b91505060608301518482036060860152610a88828261091e565b9150506080830151610a9d60808601826108b8565b5060a0830151610ab060a08601826109bf565b5060c0830151610ac360c0860182610a00565b5060e0830151610ad660e0860182610a00565b50610100830151610aeb610100860182610a1b565b508091505092915050565b6000610b028383610a2a565b905092915050565b6000602082019050919050565b6000610b2282610882565b610b2c818561088d565b935083602082028501610b3e8561089e565b8060005b85811015610b7a5784840389528151610b5b8582610af6565b9450610b6683610b0a565b925060208a01995050600181019050610b42565b50829750879550505050505092915050565b60006020820190508181036000830152610ba68184610b17565b905092915050565b6000604051905090565b600080fd5b600080fd5b610bcb816109ee565b8114610bd657600080fd5b50565b600081359050610be881610bc2565b92915050565b610bf781610a0f565b8114610c0257600080fd5b50565b600081359050610c1481610bee565b92915050565b60008060408385031215610c3157610c30610bb8565b5b6000610c3f85828601610bd9565b9250506020610c5085828601610c05565b9150509250929050565b600080fd5b600080fd5b7f4e487b7100000000000000000000000000000000000000000000000000000000600052604160045260246000fd5b610c9c8261090d565b810181811067ffffffffffffffff82111715610cbb57610cba610c64565b5b80604052505050565b6000610cce610bae565b9050610cda8282610c93565b919050565b600067ffffffffffffffff821115610cfa57610cf9610c64565b5b610d038261090d565b9050602081019050919050565b82818337600083830152505050565b6000610d32610d2d84610cdf565b610cc4565b905082815260208101848484011115610d4e57610d4d610c5f565b5b610d59848285610d10565b509392505050565b600082601f830112610d7657610d75610c5a565b5b8135610d86848260208601610d1f565b91505092915050565b610d98816108ae565b8114610da357600080fd5b50565b600081359050610db581610d8f565b92915050565b60008060008060808587031215610dd557610dd4610bb8565b5b600085013567ffffffffffffffff811115610df357610df2610bbd565b5b610dff87828801610d61565b945050602085013567ffffffffffffffff811115610e2057610e1f610bbd565b5b610e2c87828801610d61565b9350506040610e3d87828801610da6565b925050606085013567ffffffffffffffff811115610e5e57610e5d610bbd565b5b610e6a87828801610d61565b91505092959194509250565b600060208284031215610e8c57610e8b610bb8565b5b6000610e9a84828501610da6565b91505092915050565b7f4e487b7100000000000000000000000000000000000000000000000000000000600052602260045260246000fd5b60006002820490506001821680610eea57607f821691505b602082108103610efd57610efc610ea3565b5b50919050565b7f4e487b7100000000000000000000000000000000000000000000000000000000600052601160045260246000fd5b6000610f3d826108ae565b91507fffffffffffffffffffffffffffffffffffffffffffffffffffffffffffffffff8203610f6f57610f6e610f03565b5b600182019050919050565b600081905092915050565b7f4776530000000000000000000000000000000000000000000000000000000000600082015250565b6000610fbb600383610f7a565b9150610fc682610f85565b600382019050919050565b6000610fdc82610fae565b9150819050919050565b6000610ff1826108c7565b610ffb8185610f7a565b935061100b8185602086016108e3565b80840191505092915050565b60006110238284610fe6565b915081905092915050565b7f4776450000000000000000000000000000000000000000000000000000000000600082015250565b6000611064600383610f7a565b915061106f8261102e565b600382019050919050565b600061108582611057565b9150819050919050565b7f4e487b7100000000000000000000000000000000000000000000000000000000600052603260045260246000fd5b60006110c9826108ae565b91506110d4836108ae565b92508282026110e2816108ae565b915082820484148315176110f9576110f8610f03565b5b5092915050565b60008190508160005260206000209050919050565b60006020601f8301049050919050565b600082821b905092915050565b6000600883026111627fffffffffffffffffffffffffffffffffffffffffffffffffffffffffffffffff82611125565b61116c8683611125565b95508019841693508086168417925050509392505050565b6000819050919050565b60006111a96111a461119f846108ae565b611184565b6108ae565b9050919050565b6000819050919050565b6111c38361118e565b6111d76111cf826111b0565b848454611132565b825550505050565b600090565b6111ec6111df565b6111f78184846111ba565b505050565b5b8181101561121b576112106000826111e4565b6001810190506111fd565b5050565b601f8211156112605761123181611100565b61123a84611115565b81016020851015611249578190505b61125d61125585611115565b8301826111fc565b50505b505050565b600082821c905092915050565b600061128360001984600802611265565b1980831691505092915050565b600061129c8383611272565b9150826002028217905092915050565b6112b5826108c7565b67ffffffffffffffff8111156112ce576112cd610c64565b5b6112d88254610ed2565b6112e382828561121f565b600060209050601f8311600181146113165760008415611304578287015190505b61130e8582611290565b865550611376565b601f19841661132486611100565b60005b8281101561134c57848901518255600182019150602085019450602081019050611327565b868310156113695784890151611365601f891682611272565b8355505b6001600288020188555050505b505050505050565b60006101208301600083015161139760008601826108b8565b5060208301516113aa60208601826108b8565b50604083015184820360408601526113c2828261091e565b915050606083015184820360608601526113dc828261091e565b91505060808301516113f160808601826108b8565b5060a083015161140460a08601826109bf565b5060c083015161141760c0860182610a00565b5060e083015161142a60e0860182610a00565b5061010083015161143f610100860182610a1b565b508091505092915050565b60006020820190508181036000830152611464818461137e565b90509291505056fea2646970667358221220232bf2542643a94a97a229eb44b7cc239fb3f5f038d81f97f37ad4130c312bbf64736f6c63430008130033",
  "immutableReferences": {},
  "source": "// SPDX-License-Identifier: MIT\r\npragma solidity ^0.8.0;\r\n\r\nstruct Servico {\r\n    uint256 id;\r\n    uint256 data;\r\n    string descricaoResumida;\r\n    string descricao;\r\n    uint256 valor;\r\n    TipoServico tipo;\r\n    \r\n    address solicitante;\r\n    address executor;\r\n\r\n    bool disponivel;\r\n}\r\n\r\nenum TipoServico {\r\n    Saude,\r\n    Educacao\r\n}\r\n\r\ncontract PainelServico {\r\n    //Propriedades\r\n    uint256 private _qtdServicos = 0;\r\n    Servico[] private _listaServicos;\r\n    uint256 private _id = 0;\r\n\r\n    //Construtores\r\n    constructor() {\r\n        //_owners[msg.sender] = true;\r\n        // _govToken = govToken;\r\n        // _educToken = educToken;\r\n        // _saudeToken = saudeToken;\r\n\r\n        //_loadServicos();\r\n    }\r\n\r\n    //Modificadores\r\n    modifier onlyOwner() {\r\n        //require(_owners[msg.sender] == true);\r\n        _;\r\n    }\r\n\r\n    //Eventos\r\n    event servicoAdicionado(Servico servico);\r\n\r\n    //Funes\r\n    function setOwner(address owner, bool isOwner) public onlyOwner {\r\n        //_owners[owner] = isOwner;\r\n    }\r\n\r\n    function listarServicos() public view returns (Servico[] memory) {\r\n        return _listaServicos;\r\n    } \r\n\r\n    function adicionarServico(\r\n        string memory descricaoResumida,\r\n        string memory descricao,\r\n        uint256 valor,\r\n        string memory tipo\r\n        ) public {\r\n        Servico memory servico;\r\n\r\n        servico.id = ++_id;\r\n        servico.descricaoResumida = descricaoResumida;\r\n        servico.descricao = descricao;\r\n        servico.valor = valor;\r\n        servico.disponivel = true;\r\n\r\n        if(keccak256(abi.encodePacked(tipo)) == keccak256(abi.encodePacked(\"GvS\")))\r\n            servico.tipo = TipoServico.Saude;\r\n        else if(keccak256(abi.encodePacked(tipo)) == keccak256(abi.encodePacked(\"GvE\")))\r\n            servico.tipo = TipoServico.Educacao;\r\n\r\n        adicionarServico(servico);\r\n    }\r\n\r\n    function executarServico(uint256 id) public {\r\n        for (uint i = 0; i < _qtdServicos; i++) {\r\n            if(_listaServicos[i].id == id){\r\n                _listaServicos[i].executor = msg.sender;\r\n                _listaServicos[i].disponivel = false;\r\n                break;\r\n            }\r\n        }\r\n    }\r\n\r\n    function adicionarServico(Servico memory servico) private {\r\n        servico.solicitante = msg.sender;\r\n        servico.executor = address(0);\r\n        servico.data = block.timestamp*1000;\r\n        \r\n        _listaServicos.push(servico);\r\n        _qtdServicos = _listaServicos.length;\r\n\r\n        emit servicoAdicionado(servico);\r\n    }\r\n}\r\n",
  "sourcePath": "/govtoken/Contratos/PainelServico.sol",
  "compiler": {
    "name": "solc",
    "version": "0.8.19+commit.7dd6d404.Emscripten.clang"
  },
  "schemaVersion": "3.4.8",
  "updatedAt": "2023-03-06T03:07:11.028Z",
  "networkType": "ethereum",
  "devdoc": {
    "kind": "dev",
    "methods": {},
    "version": 1
  },
  "userdoc": {
    "kind": "user",
    "methods": {},
    "version": 1
  }
}