{
  "contractName": "PainelServico",
  "abi": [
    {
      "inputs": [
        {
          "internalType": "contract AgenteFederado",
          "name": "agenteFederado",
          "type": "address"
        },
        {
          "internalType": "contract Fornecedor",
          "name": "fornecedor",
          "type": "address"
        }
      ],
      "stateMutability": "nonpayable",
      "type": "constructor"
    },
    {
      "anonymous": false,
      "inputs": [
        {
          "components": [
            {
              "internalType": "uint256",
              "name": "id",
              "type": "uint256"
            },
            {
              "internalType": "uint256",
              "name": "data",
              "type": "uint256"
            },
            {
              "internalType": "string",
              "name": "descricaoResumida",
              "type": "string"
            },
            {
              "internalType": "string",
              "name": "descricao",
              "type": "string"
            },
            {
              "internalType": "uint256",
              "name": "valor",
              "type": "uint256"
            },
            {
              "internalType": "enum TipoSecretaria",
              "name": "tipo",
              "type": "uint8"
            },
            {
              "internalType": "address",
              "name": "solicitante",
              "type": "address"
            },
            {
              "internalType": "address",
              "name": "executor",
              "type": "address"
            },
            {
              "internalType": "string",
              "name": "uf",
              "type": "string"
            },
            {
              "internalType": "string",
              "name": "secretaria",
              "type": "string"
            },
            {
              "internalType": "string",
              "name": "nomeToken",
              "type": "string"
            },
            {
              "internalType": "string",
              "name": "simboloToken",
              "type": "string"
            },
            {
              "internalType": "bool",
              "name": "disponivel",
              "type": "bool"
            },
            {
              "internalType": "enum StatusServico",
              "name": "status",
              "type": "uint8"
            },
            {
              "components": [
                {
                  "internalType": "uint256",
                  "name": "dataCadastro",
                  "type": "uint256"
                },
                {
                  "internalType": "string",
                  "name": "uf",
                  "type": "string"
                },
                {
                  "internalType": "string",
                  "name": "descricao",
                  "type": "string"
                },
                {
                  "internalType": "address",
                  "name": "enderecoCarteira",
                  "type": "address"
                },
                {
                  "internalType": "bool",
                  "name": "cadastrado",
                  "type": "bool"
                }
              ],
              "internalType": "struct AgenteFederadoInfo",
              "name": "agenteFederado",
              "type": "tuple"
            },
            {
              "components": [
                {
                  "internalType": "uint256",
                  "name": "dataCadastro",
                  "type": "uint256"
                },
                {
                  "internalType": "string",
                  "name": "uf",
                  "type": "string"
                },
                {
                  "internalType": "string",
                  "name": "nome",
                  "type": "string"
                },
                {
                  "internalType": "string",
                  "name": "secretaria",
                  "type": "string"
                },
                {
                  "internalType": "address",
                  "name": "enderecoCarteira",
                  "type": "address"
                },
                {
                  "internalType": "bool",
                  "name": "cadastrado",
                  "type": "bool"
                }
              ],
              "internalType": "struct FornecedorInfo",
              "name": "fornecedor",
              "type": "tuple"
            },
            {
              "internalType": "bool",
              "name": "visaoFornecedor",
              "type": "bool"
            },
            {
              "internalType": "bool",
              "name": "visaoAgenteFederado",
              "type": "bool"
            }
          ],
          "indexed": false,
          "internalType": "struct Servico",
          "name": "servico",
          "type": "tuple"
        }
      ],
      "name": "servicoAdicionado",
      "type": "event"
    },
    {
      "inputs": [
        {
          "internalType": "address",
          "name": "owner",
          "type": "address"
        },
        {
          "internalType": "bool",
          "name": "isOwner",
          "type": "bool"
        }
      ],
      "name": "setOwner",
      "outputs": [],
      "stateMutability": "nonpayable",
      "type": "function"
    },
    {
      "inputs": [],
      "name": "listarServicos2",
      "outputs": [
        {
          "components": [
            {
              "internalType": "uint256",
              "name": "id",
              "type": "uint256"
            },
            {
              "internalType": "uint256",
              "name": "data",
              "type": "uint256"
            },
            {
              "internalType": "string",
              "name": "descricaoResumida",
              "type": "string"
            },
            {
              "internalType": "string",
              "name": "descricao",
              "type": "string"
            },
            {
              "internalType": "uint256",
              "name": "valor",
              "type": "uint256"
            },
            {
              "internalType": "enum TipoSecretaria",
              "name": "tipo",
              "type": "uint8"
            },
            {
              "internalType": "address",
              "name": "solicitante",
              "type": "address"
            },
            {
              "internalType": "address",
              "name": "executor",
              "type": "address"
            },
            {
              "internalType": "string",
              "name": "uf",
              "type": "string"
            },
            {
              "internalType": "string",
              "name": "secretaria",
              "type": "string"
            },
            {
              "internalType": "string",
              "name": "nomeToken",
              "type": "string"
            },
            {
              "internalType": "string",
              "name": "simboloToken",
              "type": "string"
            },
            {
              "internalType": "bool",
              "name": "disponivel",
              "type": "bool"
            },
            {
              "internalType": "enum StatusServico",
              "name": "status",
              "type": "uint8"
            },
            {
              "components": [
                {
                  "internalType": "uint256",
                  "name": "dataCadastro",
                  "type": "uint256"
                },
                {
                  "internalType": "string",
                  "name": "uf",
                  "type": "string"
                },
                {
                  "internalType": "string",
                  "name": "descricao",
                  "type": "string"
                },
                {
                  "internalType": "address",
                  "name": "enderecoCarteira",
                  "type": "address"
                },
                {
                  "internalType": "bool",
                  "name": "cadastrado",
                  "type": "bool"
                }
              ],
              "internalType": "struct AgenteFederadoInfo",
              "name": "agenteFederado",
              "type": "tuple"
            },
            {
              "components": [
                {
                  "internalType": "uint256",
                  "name": "dataCadastro",
                  "type": "uint256"
                },
                {
                  "internalType": "string",
                  "name": "uf",
                  "type": "string"
                },
                {
                  "internalType": "string",
                  "name": "nome",
                  "type": "string"
                },
                {
                  "internalType": "string",
                  "name": "secretaria",
                  "type": "string"
                },
                {
                  "internalType": "address",
                  "name": "enderecoCarteira",
                  "type": "address"
                },
                {
                  "internalType": "bool",
                  "name": "cadastrado",
                  "type": "bool"
                }
              ],
              "internalType": "struct FornecedorInfo",
              "name": "fornecedor",
              "type": "tuple"
            },
            {
              "internalType": "bool",
              "name": "visaoFornecedor",
              "type": "bool"
            },
            {
              "internalType": "bool",
              "name": "visaoAgenteFederado",
              "type": "bool"
            }
          ],
          "internalType": "struct Servico[]",
          "name": "",
          "type": "tuple[]"
        }
      ],
      "stateMutability": "view",
      "type": "function",
      "constant": true
    },
    {
      "inputs": [],
      "name": "listarServicos",
      "outputs": [
        {
          "components": [
            {
              "internalType": "uint256",
              "name": "id",
              "type": "uint256"
            },
            {
              "internalType": "uint256",
              "name": "data",
              "type": "uint256"
            },
            {
              "internalType": "string",
              "name": "descricaoResumida",
              "type": "string"
            },
            {
              "internalType": "string",
              "name": "descricao",
              "type": "string"
            },
            {
              "internalType": "uint256",
              "name": "valor",
              "type": "uint256"
            },
            {
              "internalType": "enum TipoSecretaria",
              "name": "tipo",
              "type": "uint8"
            },
            {
              "internalType": "address",
              "name": "solicitante",
              "type": "address"
            },
            {
              "internalType": "address",
              "name": "executor",
              "type": "address"
            },
            {
              "internalType": "string",
              "name": "uf",
              "type": "string"
            },
            {
              "internalType": "string",
              "name": "secretaria",
              "type": "string"
            },
            {
              "internalType": "string",
              "name": "nomeToken",
              "type": "string"
            },
            {
              "internalType": "string",
              "name": "simboloToken",
              "type": "string"
            },
            {
              "internalType": "bool",
              "name": "disponivel",
              "type": "bool"
            },
            {
              "internalType": "enum StatusServico",
              "name": "status",
              "type": "uint8"
            },
            {
              "components": [
                {
                  "internalType": "uint256",
                  "name": "dataCadastro",
                  "type": "uint256"
                },
                {
                  "internalType": "string",
                  "name": "uf",
                  "type": "string"
                },
                {
                  "internalType": "string",
                  "name": "descricao",
                  "type": "string"
                },
                {
                  "internalType": "address",
                  "name": "enderecoCarteira",
                  "type": "address"
                },
                {
                  "internalType": "bool",
                  "name": "cadastrado",
                  "type": "bool"
                }
              ],
              "internalType": "struct AgenteFederadoInfo",
              "name": "agenteFederado",
              "type": "tuple"
            },
            {
              "components": [
                {
                  "internalType": "uint256",
                  "name": "dataCadastro",
                  "type": "uint256"
                },
                {
                  "internalType": "string",
                  "name": "uf",
                  "type": "string"
                },
                {
                  "internalType": "string",
                  "name": "nome",
                  "type": "string"
                },
                {
                  "internalType": "string",
                  "name": "secretaria",
                  "type": "string"
                },
                {
                  "internalType": "address",
                  "name": "enderecoCarteira",
                  "type": "address"
                },
                {
                  "internalType": "bool",
                  "name": "cadastrado",
                  "type": "bool"
                }
              ],
              "internalType": "struct FornecedorInfo",
              "name": "fornecedor",
              "type": "tuple"
            },
            {
              "internalType": "bool",
              "name": "visaoFornecedor",
              "type": "bool"
            },
            {
              "internalType": "bool",
              "name": "visaoAgenteFederado",
              "type": "bool"
            }
          ],
          "internalType": "struct Servico[]",
          "name": "listaServicos",
          "type": "tuple[]"
        }
      ],
      "stateMutability": "view",
      "type": "function",
      "constant": true
    },
    {
      "inputs": [
        {
          "internalType": "string",
          "name": "descricaoResumida",
          "type": "string"
        },
        {
          "internalType": "string",
          "name": "descricao",
          "type": "string"
        },
        {
          "internalType": "uint256",
          "name": "valor",
          "type": "uint256"
        },
        {
          "internalType": "string",
          "name": "tipo",
          "type": "string"
        }
      ],
      "name": "adicionarServico",
      "outputs": [],
      "stateMutability": "nonpayable",
      "type": "function"
    },
    {
      "inputs": [
        {
          "internalType": "uint256",
          "name": "id",
          "type": "uint256"
        }
      ],
      "name": "executarServico",
      "outputs": [],
      "stateMutability": "nonpayable",
      "type": "function"
    },
    {
      "inputs": [
        {
          "internalType": "uint256",
          "name": "id",
          "type": "uint256"
        }
      ],
      "name": "concluirSolicitarPagamentoServico",
      "outputs": [],
      "stateMutability": "nonpayable",
      "type": "function"
    },
    {
      "inputs": [
        {
          "internalType": "uint256",
          "name": "id",
          "type": "uint256"
        }
      ],
      "name": "liberarPagamentoServico",
      "outputs": [],
      "stateMutability": "nonpayable",
      "type": "function"
    }
  ],
  "bytecode": "0x60806040526000805560006002553480156200001a57600080fd5b506040516200591e3803806200591e833981810160405281019062000040919062000207565b81600360006101000a81548173ffffffffffffffffffffffffffffffffffffffff021916908373ffffffffffffffffffffffffffffffffffffffff16021790555080600460006101000a81548173ffffffffffffffffffffffffffffffffffffffff021916908373ffffffffffffffffffffffffffffffffffffffff160217905550604051620000d09062000136565b604051809103906000f080158015620000ed573d6000803e3d6000fd5b50600560006101000a81548173ffffffffffffffffffffffffffffffffffffffff021916908373ffffffffffffffffffffffffffffffffffffffff16021790555050506200024e565b6103b2806200556c83390190565b600080fd5b600073ffffffffffffffffffffffffffffffffffffffff82169050919050565b6000620001768262000149565b9050919050565b60006200018a8262000169565b9050919050565b6200019c816200017d565b8114620001a857600080fd5b50565b600081519050620001bc8162000191565b92915050565b6000620001cf8262000169565b9050919050565b620001e181620001c2565b8114620001ed57600080fd5b50565b6000815190506200020181620001d6565b92915050565b6000806040838503121562000221576200022062000144565b5b60006200023185828601620001ab565b92505060206200024485828601620001f0565b9150509250929050565b61530e806200025e6000396000f3fe608060405234801561001057600080fd5b506004361061007d5760003560e01c80634b12b6091161005b5780634b12b609146100da578063516c731c146100f657806386780cab146101125780639d92b1e31461012e5761007d565b806314fcf06214610082578063273f6b23146100a057806331b1ef4a146100be575b600080fd5b61008a61014a565b6040516100979190613f0b565b60405180910390f35b6100a86117f1565b6040516100b59190613f0b565b60405180910390f35b6100d860048036038101906100d39190613f6d565b612146565b005b6100f460048036038101906100ef9190613f6d565b6125cb565b005b610110600480360381019061010b9190613ff2565b61294b565b005b61012c60048036038101906101279190614167565b61294f565b005b61014860048036038101906101439190613f6d565b612d0a565b005b60606000600360009054906101000a900473ffffffffffffffffffffffffffffffffffffffff1673ffffffffffffffffffffffffffffffffffffffff1663e2b0e611336040518263ffffffff1660e01b81526004016101a99190614231565b600060405180830381865afa1580156101c6573d6000803e3d6000fd5b505050506040513d6000823e3d601f19601f820116820180604052508101906101ef91906143c9565b6080015190506000600460009054906101000a900473ffffffffffffffffffffffffffffffffffffffff1673ffffffffffffffffffffffffffffffffffffffff166334803e3a336040518263ffffffff1660e01b81526004016102529190614231565b600060405180830381865afa15801561026f573d6000803e3d6000fd5b505050506040513d6000823e3d601f19601f820116820180604052508101906102989190614506565b60a0015190506000805b600054811015610cef576000600182815481106102c2576102c161454f565b5b9060005260206000209060160201604051806102400160405290816000820154815260200160018201548152602001600282018054610300906145ad565b80601f016020809104026020016040519081016040528092919081815260200182805461032c906145ad565b80156103795780601f1061034e57610100808354040283529160200191610379565b820191906000526020600020905b81548152906001019060200180831161035c57829003601f168201915b50505050508152602001600382018054610392906145ad565b80601f01602080910402602001604051908101604052809291908181526020018280546103be906145ad565b801561040b5780601f106103e05761010080835404028352916020019161040b565b820191906000526020600020905b8154815290600101906020018083116103ee57829003601f168201915b50505050508152602001600482015481526020016005820160009054906101000a900460ff16600181111561044357610442613a93565b5b600181111561045557610454613a93565b5b81526020016005820160019054906101000a900473ffffffffffffffffffffffffffffffffffffffff1673ffffffffffffffffffffffffffffffffffffffff1673ffffffffffffffffffffffffffffffffffffffff1681526020016006820160009054906101000a900473ffffffffffffffffffffffffffffffffffffffff1673ffffffffffffffffffffffffffffffffffffffff1673ffffffffffffffffffffffffffffffffffffffff168152602001600782018054610515906145ad565b80601f0160208091040260200160405190810160405280929190818152602001828054610541906145ad565b801561058e5780601f106105635761010080835404028352916020019161058e565b820191906000526020600020905b81548152906001019060200180831161057157829003601f168201915b505050505081526020016008820180546105a7906145ad565b80601f01602080910402602001604051908101604052809291908181526020018280546105d3906145ad565b80156106205780601f106105f557610100808354040283529160200191610620565b820191906000526020600020905b81548152906001019060200180831161060357829003601f168201915b50505050508152602001600982018054610639906145ad565b80601f0160208091040260200160405190810160405280929190818152602001828054610665906145ad565b80156106b25780601f10610687576101008083540402835291602001916106b2565b820191906000526020600020905b81548152906001019060200180831161069557829003601f168201915b50505050508152602001600a820180546106cb906145ad565b80601f01602080910402602001604051908101604052809291908181526020018280546106f7906145ad565b80156107445780601f1061071957610100808354040283529160200191610744565b820191906000526020600020905b81548152906001019060200180831161072757829003601f168201915b50505050508152602001600b820160009054906101000a900460ff16151515158152602001600b820160019054906101000a900460ff16600381111561078d5761078c613a93565b5b600381111561079f5761079e613a93565b5b8152602001600c82016040518060a0016040529081600082015481526020016001820180546107cd906145ad565b80601f01602080910402602001604051908101604052809291908181526020018280546107f9906145ad565b80156108465780601f1061081b57610100808354040283529160200191610846565b820191906000526020600020905b81548152906001019060200180831161082957829003601f168201915b5050505050815260200160028201805461085f906145ad565b80601f016020809104026020016040519081016040528092919081815260200182805461088b906145ad565b80156108d85780601f106108ad576101008083540402835291602001916108d8565b820191906000526020600020905b8154815290600101906020018083116108bb57829003601f168201915b505050505081526020016003820160009054906101000a900473ffffffffffffffffffffffffffffffffffffffff1673ffffffffffffffffffffffffffffffffffffffff1673ffffffffffffffffffffffffffffffffffffffff1681526020016003820160149054906101000a900460ff1615151515815250508152602001601082016040518060c001604052908160008201548152602001600182018054610980906145ad565b80601f01602080910402602001604051908101604052809291908181526020018280546109ac906145ad565b80156109f95780601f106109ce576101008083540402835291602001916109f9565b820191906000526020600020905b8154815290600101906020018083116109dc57829003601f168201915b50505050508152602001600282018054610a12906145ad565b80601f0160208091040260200160405190810160405280929190818152602001828054610a3e906145ad565b8015610a8b5780601f10610a6057610100808354040283529160200191610a8b565b820191906000526020600020905b815481529060010190602001808311610a6e57829003601f168201915b50505050508152602001600382018054610aa4906145ad565b80601f0160208091040260200160405190810160405280929190818152602001828054610ad0906145ad565b8015610b1d5780601f10610af257610100808354040283529160200191610b1d565b820191906000526020600020905b815481529060010190602001808311610b0057829003601f168201915b505050505081526020016004820160009054906101000a900473ffffffffffffffffffffffffffffffffffffffff1673ffffffffffffffffffffffffffffffffffffffff1673ffffffffffffffffffffffffffffffffffffffff1681526020016004820160149054906101000a900460ff16151515158152505081526020016015820160009054906101000a900460ff161515151581526020016015820160019054906101000a900460ff16151515158152505090506000848015610c4557503373ffffffffffffffffffffffffffffffffffffffff168260e0015173ffffffffffffffffffffffffffffffffffffffff161480610c44575060006003811115610c2a57610c29613a93565b5b826101a001516003811115610c4257610c41613a93565b5b145b5b90506000868015610c8557503373ffffffffffffffffffffffffffffffffffffffff168360c0015173ffffffffffffffffffffffffffffffffffffffff16145b9050600380811115610c9a57610c99613a93565b5b836101a001516003811115610cb257610cb1613a93565b5b14158015610cc557508180610cc45750805b5b15610cd9578480610cd59061460d565b9550505b5050508080610ce79061460d565b9150506102a2565b5060008103610d00575050506117ee565b8067ffffffffffffffff811115610d1a57610d1961403c565b5b604051908082528060200260200182016040528015610d5357816020015b610d4061383c565b815260200190600190039081610d385790505b5093506000805b6000548110156117e857600060018281548110610d7a57610d7961454f565b5b9060005260206000209060160201604051806102400160405290816000820154815260200160018201548152602001600282018054610db8906145ad565b80601f0160208091040260200160405190810160405280929190818152602001828054610de4906145ad565b8015610e315780601f10610e0657610100808354040283529160200191610e31565b820191906000526020600020905b815481529060010190602001808311610e1457829003601f168201915b50505050508152602001600382018054610e4a906145ad565b80601f0160208091040260200160405190810160405280929190818152602001828054610e76906145ad565b8015610ec35780601f10610e9857610100808354040283529160200191610ec3565b820191906000526020600020905b815481529060010190602001808311610ea657829003601f168201915b50505050508152602001600482015481526020016005820160009054906101000a900460ff166001811115610efb57610efa613a93565b5b6001811115610f0d57610f0c613a93565b5b81526020016005820160019054906101000a900473ffffffffffffffffffffffffffffffffffffffff1673ffffffffffffffffffffffffffffffffffffffff1673ffffffffffffffffffffffffffffffffffffffff1681526020016006820160009054906101000a900473ffffffffffffffffffffffffffffffffffffffff1673ffffffffffffffffffffffffffffffffffffffff1673ffffffffffffffffffffffffffffffffffffffff168152602001600782018054610fcd906145ad565b80601f0160208091040260200160405190810160405280929190818152602001828054610ff9906145ad565b80156110465780601f1061101b57610100808354040283529160200191611046565b820191906000526020600020905b81548152906001019060200180831161102957829003601f168201915b5050505050815260200160088201805461105f906145ad565b80601f016020809104026020016040519081016040528092919081815260200182805461108b906145ad565b80156110d85780601f106110ad576101008083540402835291602001916110d8565b820191906000526020600020905b8154815290600101906020018083116110bb57829003601f168201915b505050505081526020016009820180546110f1906145ad565b80601f016020809104026020016040519081016040528092919081815260200182805461111d906145ad565b801561116a5780601f1061113f5761010080835404028352916020019161116a565b820191906000526020600020905b81548152906001019060200180831161114d57829003601f168201915b50505050508152602001600a82018054611183906145ad565b80601f01602080910402602001604051908101604052809291908181526020018280546111af906145ad565b80156111fc5780601f106111d1576101008083540402835291602001916111fc565b820191906000526020600020905b8154815290600101906020018083116111df57829003601f168201915b50505050508152602001600b820160009054906101000a900460ff16151515158152602001600b820160019054906101000a900460ff16600381111561124557611244613a93565b5b600381111561125757611256613a93565b5b8152602001600c82016040518060a001604052908160008201548152602001600182018054611285906145ad565b80601f01602080910402602001604051908101604052809291908181526020018280546112b1906145ad565b80156112fe5780601f106112d3576101008083540402835291602001916112fe565b820191906000526020600020905b8154815290600101906020018083116112e157829003601f168201915b50505050508152602001600282018054611317906145ad565b80601f0160208091040260200160405190810160405280929190818152602001828054611343906145ad565b80156113905780601f1061136557610100808354040283529160200191611390565b820191906000526020600020905b81548152906001019060200180831161137357829003601f168201915b505050505081526020016003820160009054906101000a900473ffffffffffffffffffffffffffffffffffffffff1673ffffffffffffffffffffffffffffffffffffffff1673ffffffffffffffffffffffffffffffffffffffff1681526020016003820160149054906101000a900460ff1615151515815250508152602001601082016040518060c001604052908160008201548152602001600182018054611438906145ad565b80601f0160208091040260200160405190810160405280929190818152602001828054611464906145ad565b80156114b15780601f10611486576101008083540402835291602001916114b1565b820191906000526020600020905b81548152906001019060200180831161149457829003601f168201915b505050505081526020016002820180546114ca906145ad565b80601f01602080910402602001604051908101604052809291908181526020018280546114f6906145ad565b80156115435780601f1061151857610100808354040283529160200191611543565b820191906000526020600020905b81548152906001019060200180831161152657829003601f168201915b5050505050815260200160038201805461155c906145ad565b80601f0160208091040260200160405190810160405280929190818152602001828054611588906145ad565b80156115d55780601f106115aa576101008083540402835291602001916115d5565b820191906000526020600020905b8154815290600101906020018083116115b857829003601f168201915b505050505081526020016004820160009054906101000a900473ffffffffffffffffffffffffffffffffffffffff1673ffffffffffffffffffffffffffffffffffffffff1673ffffffffffffffffffffffffffffffffffffffff1681526020016004820160149054906101000a900460ff16151515158152505081526020016015820160009054906101000a900460ff161515151581526020016015820160019054906101000a900460ff161515151581525050905060008580156116fd57503373ffffffffffffffffffffffffffffffffffffffff168260e0015173ffffffffffffffffffffffffffffffffffffffff1614806116fc5750600060038111156116e2576116e1613a93565b5b826101a0015160038111156116fa576116f9613a93565b5b145b5b9050600087801561173d57503373ffffffffffffffffffffffffffffffffffffffff168360c0015173ffffffffffffffffffffffffffffffffffffffff16145b905060038081111561175257611751613a93565b5b836101a00151600381111561176a57611769613a93565b5b1415801561177d5750818061177c5750805b5b156117d25781836102000190151590811515815250508083610220019015159081151581525050828986815181106117b8576117b761454f565b5b602002602001018190525084806117ce9061460d565b9550505b50505080806117e09061460d565b915050610d5a565b50505050505b90565b60606001805480602002602001604051908101604052809291908181526020016000905b8282101561213d578382906000526020600020906016020160405180610240016040529081600082015481526020016001820154815260200160028201805461185d906145ad565b80601f0160208091040260200160405190810160405280929190818152602001828054611889906145ad565b80156118d65780601f106118ab576101008083540402835291602001916118d6565b820191906000526020600020905b8154815290600101906020018083116118b957829003601f168201915b505050505081526020016003820180546118ef906145ad565b80601f016020809104026020016040519081016040528092919081815260200182805461191b906145ad565b80156119685780601f1061193d57610100808354040283529160200191611968565b820191906000526020600020905b81548152906001019060200180831161194b57829003601f168201915b50505050508152602001600482015481526020016005820160009054906101000a900460ff1660018111156119a05761199f613a93565b5b60018111156119b2576119b1613a93565b5b81526020016005820160019054906101000a900473ffffffffffffffffffffffffffffffffffffffff1673ffffffffffffffffffffffffffffffffffffffff1673ffffffffffffffffffffffffffffffffffffffff1681526020016006820160009054906101000a900473ffffffffffffffffffffffffffffffffffffffff1673ffffffffffffffffffffffffffffffffffffffff1673ffffffffffffffffffffffffffffffffffffffff168152602001600782018054611a72906145ad565b80601f0160208091040260200160405190810160405280929190818152602001828054611a9e906145ad565b8015611aeb5780601f10611ac057610100808354040283529160200191611aeb565b820191906000526020600020905b815481529060010190602001808311611ace57829003601f168201915b50505050508152602001600882018054611b04906145ad565b80601f0160208091040260200160405190810160405280929190818152602001828054611b30906145ad565b8015611b7d5780601f10611b5257610100808354040283529160200191611b7d565b820191906000526020600020905b815481529060010190602001808311611b6057829003601f168201915b50505050508152602001600982018054611b96906145ad565b80601f0160208091040260200160405190810160405280929190818152602001828054611bc2906145ad565b8015611c0f5780601f10611be457610100808354040283529160200191611c0f565b820191906000526020600020905b815481529060010190602001808311611bf257829003601f168201915b50505050508152602001600a82018054611c28906145ad565b80601f0160208091040260200160405190810160405280929190818152602001828054611c54906145ad565b8015611ca15780601f10611c7657610100808354040283529160200191611ca1565b820191906000526020600020905b815481529060010190602001808311611c8457829003601f168201915b50505050508152602001600b820160009054906101000a900460ff16151515158152602001600b820160019054906101000a900460ff166003811115611cea57611ce9613a93565b5b6003811115611cfc57611cfb613a93565b5b8152602001600c82016040518060a001604052908160008201548152602001600182018054611d2a906145ad565b80601f0160208091040260200160405190810160405280929190818152602001828054611d56906145ad565b8015611da35780601f10611d7857610100808354040283529160200191611da3565b820191906000526020600020905b815481529060010190602001808311611d8657829003601f168201915b50505050508152602001600282018054611dbc906145ad565b80601f0160208091040260200160405190810160405280929190818152602001828054611de8906145ad565b8015611e355780601f10611e0a57610100808354040283529160200191611e35565b820191906000526020600020905b815481529060010190602001808311611e1857829003601f168201915b505050505081526020016003820160009054906101000a900473ffffffffffffffffffffffffffffffffffffffff1673ffffffffffffffffffffffffffffffffffffffff1673ffffffffffffffffffffffffffffffffffffffff1681526020016003820160149054906101000a900460ff1615151515815250508152602001601082016040518060c001604052908160008201548152602001600182018054611edd906145ad565b80601f0160208091040260200160405190810160405280929190818152602001828054611f09906145ad565b8015611f565780601f10611f2b57610100808354040283529160200191611f56565b820191906000526020600020905b815481529060010190602001808311611f3957829003601f168201915b50505050508152602001600282018054611f6f906145ad565b80601f0160208091040260200160405190810160405280929190818152602001828054611f9b906145ad565b8015611fe85780601f10611fbd57610100808354040283529160200191611fe8565b820191906000526020600020905b815481529060010190602001808311611fcb57829003601f168201915b50505050508152602001600382018054612001906145ad565b80601f016020809104026020016040519081016040528092919081815260200182805461202d906145ad565b801561207a5780601f1061204f5761010080835404028352916020019161207a565b820191906000526020600020905b81548152906001019060200180831161205d57829003601f168201915b505050505081526020016004820160009054906101000a900473ffffffffffffffffffffffffffffffffffffffff1673ffffffffffffffffffffffffffffffffffffffff1673ffffffffffffffffffffffffffffffffffffffff1681526020016004820160149054906101000a900460ff16151515158152505081526020016015820160009054906101000a900460ff161515151581526020016015820160019054906101000a900460ff16151515158152505081526020019060010190611815565b50505050905090565b600460009054906101000a900473ffffffffffffffffffffffffffffffffffffffff1673ffffffffffffffffffffffffffffffffffffffff166334803e3a336040518263ffffffff1660e01b81526004016121a19190614231565b600060405180830381865afa1580156121be573d6000803e3d6000fd5b505050506040513d6000823e3d601f19601f820116820180604052508101906121e79190614506565b60a0015161222a576040517f08c379a0000000000000000000000000000000000000000000000000000000008152600401612221906146d8565b60405180910390fd5b60005b6000548110156125c757816001828154811061224c5761224b61454f565b5b906000526020600020906016020160000154036125b4576001600381111561227757612276613a93565b5b6001828154811061228b5761228a61454f565b5b9060005260206000209060160201600b0160019054906101000a900460ff1660038111156122bc576122bb613a93565b5b146122fc576040517f08c379a00000000000000000000000000000000000000000000000000000000081526004016122f390614790565b60405180910390fd5b6000600460009054906101000a900473ffffffffffffffffffffffffffffffffffffffff1673ffffffffffffffffffffffffffffffffffffffff166334803e3a336040518263ffffffff1660e01b81526004016123599190614231565b600060405180830381865afa158015612376573d6000803e3d6000fd5b505050506040513d6000823e3d601f19601f8201168201806040525081019061239f9190614506565b9050600182815481106123b5576123b461454f565b5b906000526020600020906016020160100160040160009054906101000a900473ffffffffffffffffffffffffffffffffffffffff1673ffffffffffffffffffffffffffffffffffffffff16816080015173ffffffffffffffffffffffffffffffffffffffff161461245b576040517f08c379a00000000000000000000000000000000000000000000000000000000081526004016124529061486e565b60405180910390fd5b600560009054906101000a900473ffffffffffffffffffffffffffffffffffffffff1673ffffffffffffffffffffffffffffffffffffffff16633a96fdd7600184815481106124ad576124ac61454f565b5b9060005260206000209060160201600a0183606001516040518363ffffffff1660e01b81526004016124e0929190614960565b602060405180830381865afa1580156124fd573d6000803e3d6000fd5b505050506040513d601f19601f820116820180604052508101906125219190614997565b612560576040517f08c379a000000000000000000000000000000000000000000000000000000000815260040161255790614a5c565b60405180910390fd5b6002600183815481106125765761257561454f565b5b9060005260206000209060160201600b0160016101000a81548160ff021916908360038111156125a9576125a8613a93565b5b0217905550506125c7565b80806125bf9061460d565b91505061222d565b5050565b600360009054906101000a900473ffffffffffffffffffffffffffffffffffffffff1673ffffffffffffffffffffffffffffffffffffffff1663e2b0e611336040518263ffffffff1660e01b81526004016126269190614231565b600060405180830381865afa158015612643573d6000803e3d6000fd5b505050506040513d6000823e3d601f19601f8201168201806040525081019061266c91906143c9565b608001516126af576040517f08c379a00000000000000000000000000000000000000000000000000000000081526004016126a690614aee565b60405180910390fd5b60005b6000548110156129475781600182815481106126d1576126d061454f565b5b9060005260206000209060160201600001540361293457600260038111156126fc576126fb613a93565b5b600182815481106127105761270f61454f565b5b9060005260206000209060160201600b0160019054906101000a900460ff16600381111561274157612740613a93565b5b14612781576040517f08c379a000000000000000000000000000000000000000000000000000000000815260040161277890614b80565b60405180910390fd5b6000600360009054906101000a900473ffffffffffffffffffffffffffffffffffffffff1673ffffffffffffffffffffffffffffffffffffffff1663e2b0e611336040518263ffffffff1660e01b81526004016127de9190614231565b600060405180830381865afa1580156127fb573d6000803e3d6000fd5b505050506040513d6000823e3d601f19601f8201168201806040525081019061282491906143c9565b90506001828154811061283a5761283961454f565b5b9060005260206000209060160201600c0160030160009054906101000a900473ffffffffffffffffffffffffffffffffffffffff1673ffffffffffffffffffffffffffffffffffffffff16816060015173ffffffffffffffffffffffffffffffffffffffff16146128e0576040517f08c379a00000000000000000000000000000000000000000000000000000000081526004016128d790614c12565b60405180910390fd5b6003600183815481106128f6576128f561454f565b5b9060005260206000209060160201600b0160016101000a81548160ff0219169083600381111561292957612928613a93565b5b021790555050612947565b808061293f9061460d565b9150506126b2565b5050565b5050565b61295761383c565b6002600081546129669061460d565b919050819055816000018181525050848160400181905250838160600181905250828160800181815250506001816101800190151590811515815250506000816101a0019060038111156129bd576129bc613a93565b5b908160038111156129d1576129d0613a93565b5b81525050600560009054906101000a900473ffffffffffffffffffffffffffffffffffffffff1673ffffffffffffffffffffffffffffffffffffffff16633a96fdd7836040518263ffffffff1660e01b8152600401612a309190614c7e565b602060405180830381865afa158015612a4d573d6000803e3d6000fd5b505050506040513d601f19601f82011682018060405250810190612a719190614997565b15612b695760008160a001906001811115612a8f57612a8e613a93565b5b90816001811115612aa357612aa2613a93565b5b815250506040518060400160405280600681526020017f5361c3ba646500000000000000000000000000000000000000000000000000008152508161012001819052506040518060400160405280600d81526020017f476f765361756465546f6b656e000000000000000000000000000000000000008152508161014001819052506040518060400160405280600381526020017f4776530000000000000000000000000000000000000000000000000000000000815250816101600181905250612cfa565b600560009054906101000a900473ffffffffffffffffffffffffffffffffffffffff1673ffffffffffffffffffffffffffffffffffffffff16633a96fdd7836040518263ffffffff1660e01b8152600401612bc49190614cff565b602060405180830381865afa158015612be1573d6000803e3d6000fd5b505050506040513d601f19601f82011682018060405250810190612c059190614997565b15612cf95760018160a001906001811115612c2357612c22613a93565b5b90816001811115612c3757612c36613a93565b5b815250506040518060400160405280600a81526020017f4564756361c3a7c3a36f000000000000000000000000000000000000000000008152508161012001819052506040518060400160405280601081526020017f476f76456475636163616f546f6b656e000000000000000000000000000000008152508161014001819052506040518060400160405280600381526020017f47764500000000000000000000000000000000000000000000000000000000008152508161016001819052505b5b612d0381613252565b5050505050565b600460009054906101000a900473ffffffffffffffffffffffffffffffffffffffff1673ffffffffffffffffffffffffffffffffffffffff166334803e3a336040518263ffffffff1660e01b8152600401612d659190614231565b600060405180830381865afa158015612d82573d6000803e3d6000fd5b505050506040513d6000823e3d601f19601f82011682018060405250810190612dab9190614506565b60a00151612dee576040517f08c379a0000000000000000000000000000000000000000000000000000000008152600401612de5906146d8565b60405180910390fd5b60005b60005481101561324e578160018281548110612e1057612e0f61454f565b5b9060005260206000209060160201600001540361323b5760006003811115612e3b57612e3a613a93565b5b60018281548110612e4f57612e4e61454f565b5b9060005260206000209060160201600b0160019054906101000a900460ff166003811115612e8057612e7f613a93565b5b14612ec0576040517f08c379a0000000000000000000000000000000000000000000000000000000008152600401612eb790614da6565b60405180910390fd5b6000600460009054906101000a900473ffffffffffffffffffffffffffffffffffffffff1673ffffffffffffffffffffffffffffffffffffffff166334803e3a336040518263ffffffff1660e01b8152600401612f1d9190614231565b600060405180830381865afa158015612f3a573d6000803e3d6000fd5b505050506040513d6000823e3d601f19601f82011682018060405250810190612f639190614506565b9050600560009054906101000a900473ffffffffffffffffffffffffffffffffffffffff1673ffffffffffffffffffffffffffffffffffffffff16633a96fdd760018481548110612fb757612fb661454f565b5b9060005260206000209060160201600a0183606001516040518363ffffffff1660e01b8152600401612fea929190614960565b602060405180830381865afa158015613007573d6000803e3d6000fd5b505050506040513d601f19601f8201168201806040525081019061302b9190614997565b61306a576040517f08c379a000000000000000000000000000000000000000000000000000000000815260040161306190614a5c565b60405180910390fd5b806001838154811061307f5761307e61454f565b5b90600052602060002090601602016010016000820151816000015560208201518160010190816130af9190614f5d565b5060408201518160020190816130c59190614f5d565b5060608201518160030190816130db9190614f5d565b5060808201518160040160006101000a81548173ffffffffffffffffffffffffffffffffffffffff021916908373ffffffffffffffffffffffffffffffffffffffff16021790555060a08201518160040160146101000a81548160ff021916908315150217905550905050336001838154811061315b5761315a61454f565b5b906000526020600020906016020160060160006101000a81548173ffffffffffffffffffffffffffffffffffffffff021916908373ffffffffffffffffffffffffffffffffffffffff1602179055506000600183815481106131c0576131bf61454f565b5b9060005260206000209060160201600b0160006101000a81548160ff02191690831515021790555060018083815481106131fd576131fc61454f565b5b9060005260206000209060160201600b0160016101000a81548160ff021916908360038111156132305761322f613a93565b5b02179055505061324e565b80806132469061460d565b915050612df1565b5050565b338160c0019073ffffffffffffffffffffffffffffffffffffffff16908173ffffffffffffffffffffffffffffffffffffffff168152505060008160e0019073ffffffffffffffffffffffffffffffffffffffff16908173ffffffffffffffffffffffffffffffffffffffff16815250506103e8426132d1919061502f565b816020018181525050600360009054906101000a900473ffffffffffffffffffffffffffffffffffffffff1673ffffffffffffffffffffffffffffffffffffffff1663e2b0e611336040518263ffffffff1660e01b81526004016133359190614231565b600060405180830381865afa158015613352573d6000803e3d6000fd5b505050506040513d6000823e3d601f19601f8201168201806040525081019061337b91906143c9565b608001516133be576040517f08c379a00000000000000000000000000000000000000000000000000000000081526004016133b5906150e3565b60405180910390fd5b600360009054906101000a900473ffffffffffffffffffffffffffffffffffffffff1673ffffffffffffffffffffffffffffffffffffffff1663e2b0e611336040518263ffffffff1660e01b81526004016134199190614231565b600060405180830381865afa158015613436573d6000803e3d6000fd5b505050506040513d6000823e3d601f19601f8201168201806040525081019061345f91906143c9565b816101c001819052506001819080600181540180825580915050600190039060005260206000209060160201600090919091909150600082015181600001556020820151816001015560408201518160020190816134bd9190614f5d565b5060608201518160030190816134d39190614f5d565b506080820151816004015560a08201518160050160006101000a81548160ff0219169083600181111561350957613508613a93565b5b021790555060c08201518160050160016101000a81548173ffffffffffffffffffffffffffffffffffffffff021916908373ffffffffffffffffffffffffffffffffffffffff16021790555060e08201518160060160006101000a81548173ffffffffffffffffffffffffffffffffffffffff021916908373ffffffffffffffffffffffffffffffffffffffff1602179055506101008201518160070190816135b29190614f5d565b506101208201518160080190816135c99190614f5d565b506101408201518160090190816135e09190614f5d565b5061016082015181600a0190816135f79190614f5d565b5061018082015181600b0160006101000a81548160ff0219169083151502179055506101a082015181600b0160016101000a81548160ff0219169083600381111561364557613644613a93565b5b02179055506101c082015181600c016000820151816000015560208201518160010190816136739190614f5d565b5060408201518160020190816136899190614f5d565b5060608201518160030160006101000a81548173ffffffffffffffffffffffffffffffffffffffff021916908373ffffffffffffffffffffffffffffffffffffffff16021790555060808201518160030160146101000a81548160ff02191690831515021790555050506101e08201518160100160008201518160000155602082015181600101908161371c9190614f5d565b5060408201518160020190816137329190614f5d565b5060608201518160030190816137489190614f5d565b5060808201518160040160006101000a81548173ffffffffffffffffffffffffffffffffffffffff021916908373ffffffffffffffffffffffffffffffffffffffff16021790555060a08201518160040160146101000a81548160ff02191690831515021790555050506102008201518160150160006101000a81548160ff0219169083151502179055506102208201518160150160016101000a81548160ff02191690831515021790555050506001805490506000819055507f684938bfd56e0f3ca17bce76cc23e633e2c95395be3772c28afa10611dc8e84f8160405161383191906152b6565b60405180910390a150565b60405180610240016040528060008152602001600081526020016060815260200160608152602001600081526020016000600181111561387f5761387e613a93565b5b8152602001600073ffffffffffffffffffffffffffffffffffffffff168152602001600073ffffffffffffffffffffffffffffffffffffffff16815260200160608152602001606081526020016060815260200160608152602001600015158152602001600060038111156138f7576138f6613a93565b5b8152602001613904613929565b8152602001613911613970565b81526020016000151581526020016000151581525090565b6040518060a00160405280600081526020016060815260200160608152602001600073ffffffffffffffffffffffffffffffffffffffff1681526020016000151581525090565b6040518060c0016040528060008152602001606081526020016060815260200160608152602001600073ffffffffffffffffffffffffffffffffffffffff1681526020016000151581525090565b600081519050919050565b600082825260208201905092915050565b6000819050602082019050919050565b6000819050919050565b6139fd816139ea565b82525050565b600081519050919050565b600082825260208201905092915050565b60005b83811015613a3d578082015181840152602081019050613a22565b60008484015250505050565b6000601f19601f8301169050919050565b6000613a6582613a03565b613a6f8185613a0e565b9350613a7f818560208601613a1f565b613a8881613a49565b840191505092915050565b7f4e487b7100000000000000000000000000000000000000000000000000000000600052602160045260246000fd5b60028110613ad357613ad2613a93565b5b50565b6000819050613ae482613ac2565b919050565b6000613af482613ad6565b9050919050565b613b0481613ae9565b82525050565b600073ffffffffffffffffffffffffffffffffffffffff82169050919050565b6000613b3582613b0a565b9050919050565b613b4581613b2a565b82525050565b60008115159050919050565b613b6081613b4b565b82525050565b60048110613b7757613b76613a93565b5b50565b6000819050613b8882613b66565b919050565b6000613b9882613b7a565b9050919050565b613ba881613b8d565b82525050565b600060a083016000830151613bc660008601826139f4565b5060208301518482036020860152613bde8282613a5a565b91505060408301518482036040860152613bf88282613a5a565b9150506060830151613c0d6060860182613b3c565b506080830151613c206080860182613b57565b508091505092915050565b600060c083016000830151613c4360008601826139f4565b5060208301518482036020860152613c5b8282613a5a565b91505060408301518482036040860152613c758282613a5a565b91505060608301518482036060860152613c8f8282613a5a565b9150506080830151613ca46080860182613b3c565b5060a0830151613cb760a0860182613b57565b508091505092915050565b600061024083016000830151613cdb60008601826139f4565b506020830151613cee60208601826139f4565b5060408301518482036040860152613d068282613a5a565b91505060608301518482036060860152613d208282613a5a565b9150506080830151613d3560808601826139f4565b5060a0830151613d4860a0860182613afb565b5060c0830151613d5b60c0860182613b3c565b5060e0830151613d6e60e0860182613b3c565b50610100830151848203610100860152613d888282613a5a565b915050610120830151848203610120860152613da48282613a5a565b915050610140830151848203610140860152613dc08282613a5a565b915050610160830151848203610160860152613ddc8282613a5a565b915050610180830151613df3610180860182613b57565b506101a0830151613e086101a0860182613b9f565b506101c08301518482036101c0860152613e228282613bae565b9150506101e08301518482036101e0860152613e3e8282613c2b565b915050610200830151613e55610200860182613b57565b50610220830151613e6a610220860182613b57565b508091505092915050565b6000613e818383613cc2565b905092915050565b6000602082019050919050565b6000613ea1826139be565b613eab81856139c9565b935083602082028501613ebd856139da565b8060005b85811015613ef95784840389528151613eda8582613e75565b9450613ee583613e89565b925060208a01995050600181019050613ec1565b50829750879550505050505092915050565b60006020820190508181036000830152613f258184613e96565b905092915050565b6000604051905090565b600080fd5b600080fd5b613f4a816139ea565b8114613f5557600080fd5b50565b600081359050613f6781613f41565b92915050565b600060208284031215613f8357613f82613f37565b5b6000613f9184828501613f58565b91505092915050565b613fa381613b2a565b8114613fae57600080fd5b50565b600081359050613fc081613f9a565b92915050565b613fcf81613b4b565b8114613fda57600080fd5b50565b600081359050613fec81613fc6565b92915050565b6000806040838503121561400957614008613f37565b5b600061401785828601613fb1565b925050602061402885828601613fdd565b9150509250929050565b600080fd5b600080fd5b7f4e487b7100000000000000000000000000000000000000000000000000000000600052604160045260246000fd5b61407482613a49565b810181811067ffffffffffffffff821117156140935761409261403c565b5b80604052505050565b60006140a6613f2d565b90506140b2828261406b565b919050565b600067ffffffffffffffff8211156140d2576140d161403c565b5b6140db82613a49565b9050602081019050919050565b82818337600083830152505050565b600061410a614105846140b7565b61409c565b90508281526020810184848401111561412657614125614037565b5b6141318482856140e8565b509392505050565b600082601f83011261414e5761414d614032565b5b813561415e8482602086016140f7565b91505092915050565b6000806000806080858703121561418157614180613f37565b5b600085013567ffffffffffffffff81111561419f5761419e613f3c565b5b6141ab87828801614139565b945050602085013567ffffffffffffffff8111156141cc576141cb613f3c565b5b6141d887828801614139565b93505060406141e987828801613f58565b925050606085013567ffffffffffffffff81111561420a57614209613f3c565b5b61421687828801614139565b91505092959194509250565b61422b81613b2a565b82525050565b60006020820190506142466000830184614222565b92915050565b600080fd5b600080fd5b60008151905061426581613f41565b92915050565b600061427e614279846140b7565b61409c565b90508281526020810184848401111561429a57614299614037565b5b6142a5848285613a1f565b509392505050565b600082601f8301126142c2576142c1614032565b5b81516142d284826020860161426b565b91505092915050565b6000815190506142ea81613f9a565b92915050565b6000815190506142ff81613fc6565b92915050565b600060a0828403121561431b5761431a61424c565b5b61432560a061409c565b9050600061433584828501614256565b600083015250602082015167ffffffffffffffff81111561435957614358614251565b5b614365848285016142ad565b602083015250604082015167ffffffffffffffff81111561438957614388614251565b5b614395848285016142ad565b60408301525060606143a9848285016142db565b60608301525060806143bd848285016142f0565b60808301525092915050565b6000602082840312156143df576143de613f37565b5b600082015167ffffffffffffffff8111156143fd576143fc613f3c565b5b61440984828501614305565b91505092915050565b600060c082840312156144285761442761424c565b5b61443260c061409c565b9050600061444284828501614256565b600083015250602082015167ffffffffffffffff81111561446657614465614251565b5b614472848285016142ad565b602083015250604082015167ffffffffffffffff81111561449657614495614251565b5b6144a2848285016142ad565b604083015250606082015167ffffffffffffffff8111156144c6576144c5614251565b5b6144d2848285016142ad565b60608301525060806144e6848285016142db565b60808301525060a06144fa848285016142f0565b60a08301525092915050565b60006020828403121561451c5761451b613f37565b5b600082015167ffffffffffffffff81111561453a57614539613f3c565b5b61454684828501614412565b91505092915050565b7f4e487b7100000000000000000000000000000000000000000000000000000000600052603260045260246000fd5b7f4e487b7100000000000000000000000000000000000000000000000000000000600052602260045260246000fd5b600060028204905060018216806145c557607f821691505b6020821081036145d8576145d761457e565b5b50919050565b7f4e487b7100000000000000000000000000000000000000000000000000000000600052601160045260246000fd5b6000614618826139ea565b91507fffffffffffffffffffffffffffffffffffffffffffffffffffffffffffffffff820361464a576146496145de565b5b600182019050919050565b600082825260208201905092915050565b7f4f70657261c3a7c3a36f207065726d6974696461206170656e6173207061726160008201527f20466f726e656365646f7265732e000000000000000000000000000000000000602082015250565b60006146c2602e83614655565b91506146cd82614666565b604082019050919050565b600060208201905081810360008301526146f1816146b5565b9050919050565b7f45737465207365727669c3a76f206ec3a36f20657374c3a120656d206578656360008201527f75c3a7c3a36f20652073657520706167616d656e746f206ec3a36f20706f646560208201527f2073657220736f6c6963697461646f2e00000000000000000000000000000000604082015250565b600061477a605083614655565b9150614785826146f8565b606082019050919050565b600060208201905081810360008301526147a98161476d565b9050919050565b7f4120436f6e636c7573c3a36f20646f205365727669c3a76f2065206120536f6c60008201527f6963697461c3a7c3a36f20646520506167616d656e746f2073c3b320706f646560208201527f6d20736572207265616c697a6164612070656c6f206578656375746f7220646f60408201527f207365727669c3a76f2e00000000000000000000000000000000000000000000606082015250565b6000614858606a83614655565b9150614863826147b0565b608082019050919050565b600060208201905081810360008301526148878161484b565b9050919050565b60008190508160005260206000209050919050565b600081546148b0816145ad565b6148ba8186614655565b945060018216600081146148d557600181146148eb5761491e565b60ff19831686528115156020028601935061491e565b6148f48561488e565b60005b83811015614916578154818901526001820191506020810190506148f7565b808801955050505b50505092915050565b600061493282613a03565b61493c8185614655565b935061494c818560208601613a1f565b61495581613a49565b840191505092915050565b6000604082019050818103600083015261497a81856148a3565b9050818103602083015261498e8184614927565b90509392505050565b6000602082840312156149ad576149ac613f37565b5b60006149bb848285016142f0565b91505092915050565b7f45737461206f70657261c3a7c3a36f206ec3a36f20706f64652073657220657860008201527f656375746164612070656c6f206f776e6572206465737461206361727465697260208201527f612e000000000000000000000000000000000000000000000000000000000000604082015250565b6000614a46604283614655565b9150614a51826149c4565b606082019050919050565b60006020820190508181036000830152614a7581614a39565b9050919050565b7f4f70657261c3a7c3a36f207065726d6974696461206170656e6173207061726160008201527f204167656e74657320466564657261646f732e00000000000000000000000000602082015250565b6000614ad8603383614655565b9150614ae382614a7c565b604082019050919050565b60006020820190508181036000830152614b0781614acb565b9050919050565b7f45737465207365727669c3a76f206ec3a36f20657374c3a1206167756172646160008201527f6e646f20706167616d656e746f2e000000000000000000000000000000000000602082015250565b6000614b6a602e83614655565b9150614b7582614b0e565b604082019050919050565b60006020820190508181036000830152614b9981614b5d565b9050919050565b7f536f6d656e7465206f20736f6c69636974616e746520646f207365727669c3a760008201527f6f20706f6465206c696265726172206f20706167616d656e746f2e0000000000602082015250565b6000614bfc603b83614655565b9150614c0782614ba0565b604082019050919050565b60006020820190508181036000830152614c2b81614bef565b9050919050565b7f4776530000000000000000000000000000000000000000000000000000000000600082015250565b6000614c68600383614655565b9150614c7382614c32565b602082019050919050565b60006040820190508181036000830152614c988184614927565b90508181036020830152614cab81614c5b565b905092915050565b7f4776450000000000000000000000000000000000000000000000000000000000600082015250565b6000614ce9600383614655565b9150614cf482614cb3565b602082019050919050565b60006040820190508181036000830152614d198184614927565b90508181036020830152614d2c81614cdc565b905092915050565b7f45737465207365727669c3a76f206ec3a36f20657374c3a1206d61697320646960008201527f73706f6ec3ad76656c2070617261206578656375c3a7c3a36f2e000000000000602082015250565b6000614d90603a83614655565b9150614d9b82614d34565b604082019050919050565b60006020820190508181036000830152614dbf81614d83565b9050919050565b60006020601f8301049050919050565b600082821b905092915050565b600060088302614e137fffffffffffffffffffffffffffffffffffffffffffffffffffffffffffffffff82614dd6565b614e1d8683614dd6565b95508019841693508086168417925050509392505050565b6000819050919050565b6000614e5a614e55614e50846139ea565b614e35565b6139ea565b9050919050565b6000819050919050565b614e7483614e3f565b614e88614e8082614e61565b848454614de3565b825550505050565b600090565b614e9d614e90565b614ea8818484614e6b565b505050565b5b81811015614ecc57614ec1600082614e95565b600181019050614eae565b5050565b601f821115614f1157614ee28161488e565b614eeb84614dc6565b81016020851015614efa578190505b614f0e614f0685614dc6565b830182614ead565b50505b505050565b600082821c905092915050565b6000614f3460001984600802614f16565b1980831691505092915050565b6000614f4d8383614f23565b9150826002028217905092915050565b614f6682613a03565b67ffffffffffffffff811115614f7f57614f7e61403c565b5b614f8982546145ad565b614f94828285614ed0565b600060209050601f831160018114614fc75760008415614fb5578287015190505b614fbf8582614f41565b865550615027565b601f198416614fd58661488e565b60005b82811015614ffd57848901518255600182019150602085019450602081019050614fd8565b8683101561501a5784890151615016601f891682614f23565b8355505b6001600288020188555050505b505050505050565b600061503a826139ea565b9150615045836139ea565b9250828202615053816139ea565b9150828204841483151761506a576150696145de565b5b5092915050565b7f4573746120436f6e7461206ec3a36f20706f646520736f6c696369746172207560008201527f6d207365727669c3a76f00000000000000000000000000000000000000000000602082015250565b60006150cd602a83614655565b91506150d882615071565b604082019050919050565b600060208201905081810360008301526150fc816150c0565b9050919050565b60006102408301600083015161511c60008601826139f4565b50602083015161512f60208601826139f4565b50604083015184820360408601526151478282613a5a565b915050606083015184820360608601526151618282613a5a565b915050608083015161517660808601826139f4565b5060a083015161518960a0860182613afb565b5060c083015161519c60c0860182613b3c565b5060e08301516151af60e0860182613b3c565b506101008301518482036101008601526151c98282613a5a565b9150506101208301518482036101208601526151e58282613a5a565b9150506101408301518482036101408601526152018282613a5a565b91505061016083015184820361016086015261521d8282613a5a565b915050610180830151615234610180860182613b57565b506101a08301516152496101a0860182613b9f565b506101c08301518482036101c08601526152638282613bae565b9150506101e08301518482036101e086015261527f8282613c2b565b915050610200830151615296610200860182613b57565b506102208301516152ab610220860182613b57565b508091505092915050565b600060208201905081810360008301526152d08184615103565b90509291505056fea2646970667358221220b0756791f779810f69c717a9d093ffe6722512f1f0799003a3dfee008dcf649164736f6c63430008130033608060405234801561001057600080fd5b50610392806100206000396000f3fe608060405234801561001057600080fd5b506004361061002b5760003560e01c80633a96fdd714610030575b600080fd5b61004a60048036038101906100459190610226565b610060565b60405161005791906102b9565b60405180910390f35b6000815183511461007457600090506100c6565b816040516020016100859190610345565b60405160208183030381529060405280519060200120836040516020016100ac9190610345565b604051602081830303815290604052805190602001201490505b92915050565b6000604051905090565b600080fd5b600080fd5b600080fd5b600080fd5b6000601f19601f8301169050919050565b7f4e487b7100000000000000000000000000000000000000000000000000000000600052604160045260246000fd5b610133826100ea565b810181811067ffffffffffffffff82111715610152576101516100fb565b5b80604052505050565b60006101656100cc565b9050610171828261012a565b919050565b600067ffffffffffffffff821115610191576101906100fb565b5b61019a826100ea565b9050602081019050919050565b82818337600083830152505050565b60006101c96101c484610176565b61015b565b9050828152602081018484840111156101e5576101e46100e5565b5b6101f08482856101a7565b509392505050565b600082601f83011261020d5761020c6100e0565b5b813561021d8482602086016101b6565b91505092915050565b6000806040838503121561023d5761023c6100d6565b5b600083013567ffffffffffffffff81111561025b5761025a6100db565b5b610267858286016101f8565b925050602083013567ffffffffffffffff811115610288576102876100db565b5b610294858286016101f8565b9150509250929050565b60008115159050919050565b6102b38161029e565b82525050565b60006020820190506102ce60008301846102aa565b92915050565b600081519050919050565b600081905092915050565b60005b838110156103085780820151818401526020810190506102ed565b60008484015250505050565b600061031f826102d4565b61032981856102df565b93506103398185602086016102ea565b80840191505092915050565b60006103518284610314565b91508190509291505056fea2646970667358221220f1989d939bb154137cf9b79530cbd8e08d1e921453cb6c23b8a9ef75992f66ab64736f6c63430008130033",
  "immutableReferences": {},
  "source": "// SPDX-License-Identifier: MIT\r\npragma solidity ^0.8.0;\r\n\r\n\r\nimport \"./TiposComuns.sol\";\r\nimport \"./AgenteFederado.sol\";\r\nimport \"./Fornecedor.sol\";\r\nimport \"./StringUtils.sol\";\r\n\r\nstruct Servico {\r\n    uint256 id;\r\n    uint256 data;\r\n    string descricaoResumida;\r\n    string descricao;\r\n    uint256 valor;\r\n    TipoSecretaria tipo;\r\n    address solicitante;\r\n    address executor;\r\n\r\n    string uf;\r\n    string secretaria;\r\n    string nomeToken;\r\n    string simboloToken;\r\n\r\n    bool disponivel;\r\n\r\n    StatusServico status;\r\n    AgenteFederadoInfo agenteFederado;\r\n    FornecedorInfo fornecedor;\r\n\r\n    bool visaoFornecedor;\r\n    bool visaoAgenteFederado;\r\n}\r\n\r\ncontract PainelServico {\r\n    //Propriedades\r\n    uint256 private _qtdServicos = 0;\r\n    Servico[] private _listaServicos;\r\n    uint256 private _id = 0;\r\n    AgenteFederado private _agenteFederado;\r\n    Fornecedor private _fornecedor;\r\n    StringUtils private _string;\r\n\r\n    //Construtores\r\n    constructor(AgenteFederado agenteFederado, Fornecedor fornecedor) {\r\n        _agenteFederado = agenteFederado;\r\n        _fornecedor = fornecedor;\r\n        _string = new StringUtils();\r\n    }\r\n\r\n    //Modificadores\r\n    modifier onlyOwner() {\r\n        //require(_owners[msg.sender] == true);\r\n        _;\r\n    }\r\n\r\n    modifier onlySupplier() {\r\n        require(_fornecedor.obterFornecedor(msg.sender).cadastrado, \r\n                unicode\"Operao permitida apenas para Fornecedores.\");\r\n        _;\r\n    }\r\n\r\n    modifier onlyFederated() {\r\n        require(_agenteFederado.obterAgenteFederado(msg.sender).cadastrado, \r\n                unicode\"Operao permitida apenas para Agentes Federados.\");\r\n        _;\r\n    }\r\n\r\n    //Eventos\r\n    event servicoAdicionado(Servico servico);\r\n\r\n    //Funes\r\n    function setOwner(address owner, bool isOwner) public onlyOwner {\r\n        //_owners[owner] = isOwner;\r\n    }\r\n\r\n\r\n\r\n    function listarServicos2() public view returns (Servico[] memory) {\r\n       return _listaServicos;\r\n    } \r\n\r\n    \r\n\r\n    function listarServicos() public view returns (Servico[] memory listaServicos) {\r\n        \r\n        bool isAgenteFederado = _agenteFederado.obterAgenteFederado(msg.sender).cadastrado;\r\n        bool isFornecedor = _fornecedor.obterFornecedor(msg.sender).cadastrado;\r\n\r\n        uint256 qtdeServicosFiltrados = 0;\r\n        for (uint i = 0; i < _qtdServicos; i++) {\r\n            Servico memory servico = _listaServicos[i];\r\n\r\n            bool exibirFornecedor = isFornecedor &&\r\n                (servico.executor == msg.sender || servico.status == StatusServico.Disponivel)                ;\r\n\r\n            bool exibirAgenteFederado = isAgenteFederado && \r\n                                     servico.solicitante == msg.sender;\r\n\r\n            if(servico.status != StatusServico.Finalizado && \r\n                (exibirFornecedor || exibirAgenteFederado)) {\r\n                    qtdeServicosFiltrados++;\r\n            } \r\n        }\r\n        \r\n        if(qtdeServicosFiltrados == 0)\r\n            return listaServicos;\r\n\r\n        listaServicos = new Servico[](qtdeServicosFiltrados);\r\n        uint256 j =0;\r\n        for (uint i = 0; i < _qtdServicos; i++) {\r\n            Servico memory servico = _listaServicos[i];\r\n            \r\n            bool exibirFornecedor = isFornecedor &&\r\n                (servico.executor == msg.sender || servico.status == StatusServico.Disponivel)                ;\r\n\r\n            bool exibirAgenteFederado = isAgenteFederado && \r\n                                     servico.solicitante == msg.sender;\r\n\r\n            if(servico.status != StatusServico.Finalizado && \r\n                (exibirFornecedor || exibirAgenteFederado)) {\r\n                    servico.visaoFornecedor = exibirFornecedor;\r\n                    servico.visaoAgenteFederado = exibirAgenteFederado;\r\n                    listaServicos[j] = servico;\r\n                    j++;\r\n            }\r\n        }\r\n\r\n        return listaServicos;\r\n    } \r\n\r\n    function adicionarServico(\r\n        string memory descricaoResumida,\r\n        string memory descricao,\r\n        uint256 valor,\r\n        string memory tipo\r\n        ) public {\r\n        Servico memory servico;\r\n\r\n        servico.id = ++_id;\r\n        servico.descricaoResumida = descricaoResumida;\r\n        servico.descricao = descricao;\r\n        servico.valor = valor;\r\n        servico.disponivel = true;\r\n        servico.status = StatusServico.Disponivel;\r\n\r\n        if(_string.compare(tipo,\"GvS\")) {\r\n            servico.tipo = TipoSecretaria.Saude;\r\n            servico.secretaria = unicode\"Sade\";\r\n            \r\n            servico.nomeToken = \"GovSaudeToken\";\r\n            servico.simboloToken = \"GvS\";\r\n        }\r\n        else if(_string.compare(tipo,\"GvE\")) {\r\n            servico.tipo = TipoSecretaria.Educacao;\r\n            servico.secretaria = unicode\"Educao\";\r\n            \r\n            servico.nomeToken = \"GovEducacaoToken\";\r\n            servico.simboloToken = \"GvE\";\r\n        }\r\n        \r\n        adicionarServico(servico);\r\n    }\r\n\r\n    function adicionarServico(Servico memory servico) private {\r\n        servico.solicitante = msg.sender;\r\n        servico.executor = address(0);\r\n        servico.data = block.timestamp*1000;\r\n        \r\n        require(_agenteFederado.obterAgenteFederado(msg.sender).cadastrado, \r\n                unicode\"Esta Conta no pode solicitar um servio\");\r\n\r\n        servico.agenteFederado = _agenteFederado.obterAgenteFederado(msg.sender);\r\n\r\n        _listaServicos.push(servico);\r\n        _qtdServicos = _listaServicos.length;\r\n\r\n        emit servicoAdicionado(servico);\r\n    }\r\n\r\n    function executarServico(uint256 id) public onlySupplier{\r\n        for (uint i = 0; i < _qtdServicos; i++) {\r\n            if(_listaServicos[i].id == id){\r\n                require(_listaServicos[i].status == StatusServico.Disponivel, \r\n                        unicode\"Este servio no est mais disponvel para execuo.\");\r\n                \r\n                FornecedorInfo memory fornecedor = _fornecedor.obterFornecedor(msg.sender);\r\n\r\n                require(_string.compare(_listaServicos[i].simboloToken,fornecedor.secretaria), \r\n                        unicode\"Esta operao no pode ser executada pelo owner desta carteira.\");\r\n\r\n                _listaServicos[i].fornecedor = fornecedor;\r\n\r\n                _listaServicos[i].executor = msg.sender;\r\n                _listaServicos[i].disponivel = false;\r\n                _listaServicos[i].status = StatusServico.EmExecucao;\r\n\r\n                break;\r\n            }\r\n        }\r\n    }\r\n\r\n    function concluirSolicitarPagamentoServico(uint256 id) public onlySupplier{\r\n        for (uint i = 0; i < _qtdServicos; i++) {\r\n            if(_listaServicos[i].id == id){\r\n                require(_listaServicos[i].status == StatusServico.EmExecucao, \r\n                        unicode\"Este servio no est em execuo e seu pagamento no pode ser solicitado.\");\r\n                \r\n                FornecedorInfo memory fornecedor = _fornecedor.obterFornecedor(msg.sender);\r\n\r\n                require(fornecedor.enderecoCarteira == _listaServicos[i].fornecedor.enderecoCarteira, \r\n                        unicode\"A Concluso do Servio e a Solicitao de Pagamento s podem ser realizada pelo executor do servio.\");\r\n\r\n                require(_string.compare(_listaServicos[i].simboloToken,fornecedor.secretaria), \r\n                        unicode\"Esta operao no pode ser executada pelo owner desta carteira.\");\r\n                    \r\n                _listaServicos[i].status = StatusServico.AguardandoPagamento;\r\n\r\n                break;\r\n            }\r\n        }\r\n    }\r\n\r\n    function liberarPagamentoServico(uint256 id) public onlyFederated{\r\n        for (uint i = 0; i < _qtdServicos; i++) {\r\n            if(_listaServicos[i].id == id){\r\n                require(_listaServicos[i].status == StatusServico.AguardandoPagamento, \r\n                        unicode\"Este servio no est aguardando pagamento.\");\r\n                \r\n                AgenteFederadoInfo memory agenteFederado = _agenteFederado.obterAgenteFederado(msg.sender);\r\n\r\n                require(agenteFederado.enderecoCarteira == _listaServicos[i].agenteFederado.enderecoCarteira, \r\n                        unicode\"Somente o solicitante do servio pode liberar o pagamento.\");\r\n\r\n                _listaServicos[i].status = StatusServico.Finalizado;\r\n\r\n\r\n                //Chama o contrato da conta lastro para liberar o dinheiro\r\n                //\r\n                //\r\n                //=========================================================\r\n\r\n\r\n                break;\r\n            }\r\n        }\r\n    }\r\n}\r\n",
  "sourcePath": "/govtoken/Contratos/PainelServico.sol",
  "compiler": {
    "name": "solc",
    "version": "0.8.19+commit.7dd6d404.Emscripten.clang"
  },
  "schemaVersion": "3.4.8",
  "updatedAt": "2023-03-13T04:41:41.796Z",
  "networkType": "ethereum",
  "devdoc": {
    "kind": "dev",
    "methods": {},
    "version": 1
  },
  "userdoc": {
    "kind": "user",
    "methods": {},
    "version": 1
  }
}