{
  "contractName": "PainelServico",
  "abi": [
    {
      "inputs": [
        {
          "internalType": "contract AgenteFederado",
          "name": "agenteFederado",
          "type": "address"
        },
        {
          "internalType": "contract Fornecedor",
          "name": "fornecedor",
          "type": "address"
        },
        {
          "internalType": "contract GovToken",
          "name": "govToken",
          "type": "address"
        }
      ],
      "stateMutability": "nonpayable",
      "type": "constructor"
    },
    {
      "anonymous": false,
      "inputs": [
        {
          "components": [
            {
              "internalType": "uint256",
              "name": "id",
              "type": "uint256"
            },
            {
              "internalType": "uint256",
              "name": "data",
              "type": "uint256"
            },
            {
              "internalType": "string",
              "name": "descricaoResumida",
              "type": "string"
            },
            {
              "internalType": "string",
              "name": "descricao",
              "type": "string"
            },
            {
              "internalType": "uint256",
              "name": "valor",
              "type": "uint256"
            },
            {
              "internalType": "address",
              "name": "solicitante",
              "type": "address"
            },
            {
              "internalType": "address",
              "name": "executor",
              "type": "address"
            },
            {
              "internalType": "string",
              "name": "uf",
              "type": "string"
            },
            {
              "internalType": "string",
              "name": "nomeToken",
              "type": "string"
            },
            {
              "internalType": "string",
              "name": "simboloToken",
              "type": "string"
            },
            {
              "internalType": "bool",
              "name": "disponivel",
              "type": "bool"
            },
            {
              "internalType": "enum StatusServicoEnum",
              "name": "status",
              "type": "uint8"
            },
            {
              "components": [
                {
                  "internalType": "uint256",
                  "name": "dataCadastro",
                  "type": "uint256"
                },
                {
                  "internalType": "address",
                  "name": "enderecoAgenteFederado",
                  "type": "address"
                },
                {
                  "internalType": "string",
                  "name": "descricao",
                  "type": "string"
                },
                {
                  "internalType": "address",
                  "name": "enderecoCarteira",
                  "type": "address"
                },
                {
                  "internalType": "bool",
                  "name": "cadastrado",
                  "type": "bool"
                }
              ],
              "internalType": "struct SecretariaInfo",
              "name": "secretaria",
              "type": "tuple"
            },
            {
              "components": [
                {
                  "internalType": "uint256",
                  "name": "dataCadastro",
                  "type": "uint256"
                },
                {
                  "internalType": "string",
                  "name": "uf",
                  "type": "string"
                },
                {
                  "internalType": "string",
                  "name": "nome",
                  "type": "string"
                },
                {
                  "internalType": "address",
                  "name": "enderecoCarteira",
                  "type": "address"
                },
                {
                  "internalType": "bool",
                  "name": "cadastrado",
                  "type": "bool"
                }
              ],
              "internalType": "struct FornecedorInfo",
              "name": "fornecedor",
              "type": "tuple"
            },
            {
              "internalType": "bool",
              "name": "visaoFornecedor",
              "type": "bool"
            },
            {
              "internalType": "bool",
              "name": "visaoAgenteFederado",
              "type": "bool"
            }
          ],
          "indexed": false,
          "internalType": "struct ServicoInfo",
          "name": "servico",
          "type": "tuple"
        }
      ],
      "name": "servicoAdicionado",
      "type": "event"
    },
    {
      "inputs": [
        {
          "internalType": "contract ContaLastro",
          "name": "contaLastro",
          "type": "address"
        }
      ],
      "name": "setContaLastro",
      "outputs": [],
      "stateMutability": "nonpayable",
      "type": "function"
    },
    {
      "inputs": [
        {
          "internalType": "address",
          "name": "owner",
          "type": "address"
        },
        {
          "internalType": "bool",
          "name": "isOwner",
          "type": "bool"
        }
      ],
      "name": "setOwner",
      "outputs": [],
      "stateMutability": "nonpayable",
      "type": "function"
    },
    {
      "inputs": [],
      "name": "listarServicos2",
      "outputs": [
        {
          "components": [
            {
              "internalType": "uint256",
              "name": "id",
              "type": "uint256"
            },
            {
              "internalType": "uint256",
              "name": "data",
              "type": "uint256"
            },
            {
              "internalType": "string",
              "name": "descricaoResumida",
              "type": "string"
            },
            {
              "internalType": "string",
              "name": "descricao",
              "type": "string"
            },
            {
              "internalType": "uint256",
              "name": "valor",
              "type": "uint256"
            },
            {
              "internalType": "address",
              "name": "solicitante",
              "type": "address"
            },
            {
              "internalType": "address",
              "name": "executor",
              "type": "address"
            },
            {
              "internalType": "string",
              "name": "uf",
              "type": "string"
            },
            {
              "internalType": "string",
              "name": "nomeToken",
              "type": "string"
            },
            {
              "internalType": "string",
              "name": "simboloToken",
              "type": "string"
            },
            {
              "internalType": "bool",
              "name": "disponivel",
              "type": "bool"
            },
            {
              "internalType": "enum StatusServicoEnum",
              "name": "status",
              "type": "uint8"
            },
            {
              "components": [
                {
                  "internalType": "uint256",
                  "name": "dataCadastro",
                  "type": "uint256"
                },
                {
                  "internalType": "address",
                  "name": "enderecoAgenteFederado",
                  "type": "address"
                },
                {
                  "internalType": "string",
                  "name": "descricao",
                  "type": "string"
                },
                {
                  "internalType": "address",
                  "name": "enderecoCarteira",
                  "type": "address"
                },
                {
                  "internalType": "bool",
                  "name": "cadastrado",
                  "type": "bool"
                }
              ],
              "internalType": "struct SecretariaInfo",
              "name": "secretaria",
              "type": "tuple"
            },
            {
              "components": [
                {
                  "internalType": "uint256",
                  "name": "dataCadastro",
                  "type": "uint256"
                },
                {
                  "internalType": "string",
                  "name": "uf",
                  "type": "string"
                },
                {
                  "internalType": "string",
                  "name": "nome",
                  "type": "string"
                },
                {
                  "internalType": "address",
                  "name": "enderecoCarteira",
                  "type": "address"
                },
                {
                  "internalType": "bool",
                  "name": "cadastrado",
                  "type": "bool"
                }
              ],
              "internalType": "struct FornecedorInfo",
              "name": "fornecedor",
              "type": "tuple"
            },
            {
              "internalType": "bool",
              "name": "visaoFornecedor",
              "type": "bool"
            },
            {
              "internalType": "bool",
              "name": "visaoAgenteFederado",
              "type": "bool"
            }
          ],
          "internalType": "struct ServicoInfo[]",
          "name": "",
          "type": "tuple[]"
        }
      ],
      "stateMutability": "view",
      "type": "function",
      "constant": true
    },
    {
      "inputs": [],
      "name": "listarServicos",
      "outputs": [
        {
          "components": [
            {
              "internalType": "uint256",
              "name": "id",
              "type": "uint256"
            },
            {
              "internalType": "uint256",
              "name": "data",
              "type": "uint256"
            },
            {
              "internalType": "string",
              "name": "descricaoResumida",
              "type": "string"
            },
            {
              "internalType": "string",
              "name": "descricao",
              "type": "string"
            },
            {
              "internalType": "uint256",
              "name": "valor",
              "type": "uint256"
            },
            {
              "internalType": "address",
              "name": "solicitante",
              "type": "address"
            },
            {
              "internalType": "address",
              "name": "executor",
              "type": "address"
            },
            {
              "internalType": "string",
              "name": "uf",
              "type": "string"
            },
            {
              "internalType": "string",
              "name": "nomeToken",
              "type": "string"
            },
            {
              "internalType": "string",
              "name": "simboloToken",
              "type": "string"
            },
            {
              "internalType": "bool",
              "name": "disponivel",
              "type": "bool"
            },
            {
              "internalType": "enum StatusServicoEnum",
              "name": "status",
              "type": "uint8"
            },
            {
              "components": [
                {
                  "internalType": "uint256",
                  "name": "dataCadastro",
                  "type": "uint256"
                },
                {
                  "internalType": "address",
                  "name": "enderecoAgenteFederado",
                  "type": "address"
                },
                {
                  "internalType": "string",
                  "name": "descricao",
                  "type": "string"
                },
                {
                  "internalType": "address",
                  "name": "enderecoCarteira",
                  "type": "address"
                },
                {
                  "internalType": "bool",
                  "name": "cadastrado",
                  "type": "bool"
                }
              ],
              "internalType": "struct SecretariaInfo",
              "name": "secretaria",
              "type": "tuple"
            },
            {
              "components": [
                {
                  "internalType": "uint256",
                  "name": "dataCadastro",
                  "type": "uint256"
                },
                {
                  "internalType": "string",
                  "name": "uf",
                  "type": "string"
                },
                {
                  "internalType": "string",
                  "name": "nome",
                  "type": "string"
                },
                {
                  "internalType": "address",
                  "name": "enderecoCarteira",
                  "type": "address"
                },
                {
                  "internalType": "bool",
                  "name": "cadastrado",
                  "type": "bool"
                }
              ],
              "internalType": "struct FornecedorInfo",
              "name": "fornecedor",
              "type": "tuple"
            },
            {
              "internalType": "bool",
              "name": "visaoFornecedor",
              "type": "bool"
            },
            {
              "internalType": "bool",
              "name": "visaoAgenteFederado",
              "type": "bool"
            }
          ],
          "internalType": "struct ServicoInfo[]",
          "name": "listaServicos",
          "type": "tuple[]"
        }
      ],
      "stateMutability": "view",
      "type": "function",
      "constant": true
    },
    {
      "inputs": [
        {
          "internalType": "string",
          "name": "descricaoResumida",
          "type": "string"
        },
        {
          "internalType": "string",
          "name": "descricao",
          "type": "string"
        },
        {
          "internalType": "uint256",
          "name": "valor",
          "type": "uint256"
        }
      ],
      "name": "adicionarServico",
      "outputs": [],
      "stateMutability": "nonpayable",
      "type": "function"
    },
    {
      "inputs": [
        {
          "internalType": "uint256",
          "name": "id",
          "type": "uint256"
        }
      ],
      "name": "executarServico",
      "outputs": [],
      "stateMutability": "nonpayable",
      "type": "function"
    },
    {
      "inputs": [
        {
          "internalType": "uint256",
          "name": "id",
          "type": "uint256"
        }
      ],
      "name": "concluirSolicitarPagamentoServico",
      "outputs": [],
      "stateMutability": "nonpayable",
      "type": "function"
    },
    {
      "inputs": [
        {
          "internalType": "uint256",
          "name": "id",
          "type": "uint256"
        }
      ],
      "name": "liberarPagamentoServico",
      "outputs": [],
      "stateMutability": "nonpayable",
      "type": "function"
    }
  ],
  "bytecode": "0x608060405260006001553480156200001657600080fd5b50604051620053c0380380620053c083398181016040528101906200003c91906200028a565b82600260006101000a81548173ffffffffffffffffffffffffffffffffffffffff021916908373ffffffffffffffffffffffffffffffffffffffff16021790555081600460006101000a81548173ffffffffffffffffffffffffffffffffffffffff021916908373ffffffffffffffffffffffffffffffffffffffff16021790555080600660006101000a81548173ffffffffffffffffffffffffffffffffffffffff021916908373ffffffffffffffffffffffffffffffffffffffff1602179055506040516200010d9062000174565b604051809103906000f0801580156200012a573d6000803e3d6000fd5b50600560006101000a81548173ffffffffffffffffffffffffffffffffffffffff021916908373ffffffffffffffffffffffffffffffffffffffff160217905550505050620002e6565b6103b2806200500e83390190565b600080fd5b600073ffffffffffffffffffffffffffffffffffffffff82169050919050565b6000620001b48262000187565b9050919050565b6000620001c882620001a7565b9050919050565b620001da81620001bb565b8114620001e657600080fd5b50565b600081519050620001fa81620001cf565b92915050565b60006200020d82620001a7565b9050919050565b6200021f8162000200565b81146200022b57600080fd5b50565b6000815190506200023f8162000214565b92915050565b60006200025282620001a7565b9050919050565b620002648162000245565b81146200027057600080fd5b50565b600081519050620002848162000259565b92915050565b600080600060608486031215620002a657620002a562000182565b5b6000620002b686828701620001e9565b9350506020620002c9868287016200022e565b9250506040620002dc8682870162000273565b9150509250925092565b614d1880620002f66000396000f3fe608060405234801561001057600080fd5b50600436106100885760003560e01c8063516c731c1161005b578063516c731c1461010157806364b633e01461011d5780636d29974f146101395780639d92b1e31461015557610088565b806314fcf0621461008d578063273f6b23146100ab57806331b1ef4a146100c95780634b12b609146100e5575b600080fd5b610095610171565b6040516100a2919061399c565b60405180910390f35b6100b36114e7565b6040516100c0919061399c565b60405180910390f35b6100e360048036038101906100de91906139fe565b611ca1565b005b6100ff60048036038101906100fa91906139fe565b611fdd565b005b61011b60048036038101906101169190613a83565b61251e565b005b61013760048036038101906101329190613b01565b612522565b005b610153600480360381019061014e9190613c63565b6125f7565b005b61016f600480360381019061016a91906139fe565b612f74565b005b60606000600460009054906101000a900473ffffffffffffffffffffffffffffffffffffffff1673ffffffffffffffffffffffffffffffffffffffff166334803e3a336040518263ffffffff1660e01b81526004016101d09190613cfd565b600060405180830381865afa1580156101ed573d6000803e3d6000fd5b505050506040513d6000823e3d601f19601f820116820180604052508101906102169190613e95565b6080015190506000600260009054906101000a900473ffffffffffffffffffffffffffffffffffffffff1673ffffffffffffffffffffffffffffffffffffffff166308944790336040518263ffffffff1660e01b81526004016102799190613cfd565b600060405180830381865afa158015610296573d6000803e3d6000fd5b505050506040513d6000823e3d601f19601f820116820180604052508101906102bf9190613f86565b6080015190506000808054905090506000805b82811015610b815760008082815481106102ef576102ee613fcf565b5b906000526020600020906014020160405180610200016040529081600082015481526020016001820154815260200160028201805461032d9061402d565b80601f01602080910402602001604051908101604052809291908181526020018280546103599061402d565b80156103a65780601f1061037b576101008083540402835291602001916103a6565b820191906000526020600020905b81548152906001019060200180831161038957829003601f168201915b505050505081526020016003820180546103bf9061402d565b80601f01602080910402602001604051908101604052809291908181526020018280546103eb9061402d565b80156104385780601f1061040d57610100808354040283529160200191610438565b820191906000526020600020905b81548152906001019060200180831161041b57829003601f168201915b50505050508152602001600482015481526020016005820160009054906101000a900473ffffffffffffffffffffffffffffffffffffffff1673ffffffffffffffffffffffffffffffffffffffff1673ffffffffffffffffffffffffffffffffffffffff1681526020016006820160009054906101000a900473ffffffffffffffffffffffffffffffffffffffff1673ffffffffffffffffffffffffffffffffffffffff1673ffffffffffffffffffffffffffffffffffffffff1681526020016007820180546105079061402d565b80601f01602080910402602001604051908101604052809291908181526020018280546105339061402d565b80156105805780601f1061055557610100808354040283529160200191610580565b820191906000526020600020905b81548152906001019060200180831161056357829003601f168201915b505050505081526020016008820180546105999061402d565b80601f01602080910402602001604051908101604052809291908181526020018280546105c59061402d565b80156106125780601f106105e757610100808354040283529160200191610612565b820191906000526020600020905b8154815290600101906020018083116105f557829003601f168201915b5050505050815260200160098201805461062b9061402d565b80601f01602080910402602001604051908101604052809291908181526020018280546106579061402d565b80156106a45780601f10610679576101008083540402835291602001916106a4565b820191906000526020600020905b81548152906001019060200180831161068757829003601f168201915b50505050508152602001600a820160009054906101000a900460ff16151515158152602001600a820160019054906101000a900460ff1660038111156106ed576106ec61361a565b5b60038111156106ff576106fe61361a565b5b8152602001600b82016040518060a0016040529081600082015481526020016001820160009054906101000a900473ffffffffffffffffffffffffffffffffffffffff1673ffffffffffffffffffffffffffffffffffffffff1673ffffffffffffffffffffffffffffffffffffffff1681526020016002820180546107839061402d565b80601f01602080910402602001604051908101604052809291908181526020018280546107af9061402d565b80156107fc5780601f106107d1576101008083540402835291602001916107fc565b820191906000526020600020905b8154815290600101906020018083116107df57829003601f168201915b505050505081526020016003820160009054906101000a900473ffffffffffffffffffffffffffffffffffffffff1673ffffffffffffffffffffffffffffffffffffffff1673ffffffffffffffffffffffffffffffffffffffff1681526020016003820160149054906101000a900460ff1615151515815250508152602001600f82016040518060a0016040529081600082015481526020016001820180546108a49061402d565b80601f01602080910402602001604051908101604052809291908181526020018280546108d09061402d565b801561091d5780601f106108f25761010080835404028352916020019161091d565b820191906000526020600020905b81548152906001019060200180831161090057829003601f168201915b505050505081526020016002820180546109369061402d565b80601f01602080910402602001604051908101604052809291908181526020018280546109629061402d565b80156109af5780601f10610984576101008083540402835291602001916109af565b820191906000526020600020905b81548152906001019060200180831161099257829003601f168201915b505050505081526020016003820160009054906101000a900473ffffffffffffffffffffffffffffffffffffffff1673ffffffffffffffffffffffffffffffffffffffff1673ffffffffffffffffffffffffffffffffffffffff1681526020016003820160149054906101000a900460ff16151515158152505081526020016013820160009054906101000a900460ff161515151581526020016013820160019054906101000a900460ff16151515158152505090506000868015610ad757503373ffffffffffffffffffffffffffffffffffffffff168260c0015173ffffffffffffffffffffffffffffffffffffffff161480610ad6575060006003811115610abc57610abb61361a565b5b8261016001516003811115610ad457610ad361361a565b5b145b5b90506000868015610b1757503373ffffffffffffffffffffffffffffffffffffffff168360a0015173ffffffffffffffffffffffffffffffffffffffff16145b9050600380811115610b2c57610b2b61361a565b5b8361016001516003811115610b4457610b4361361a565b5b14158015610b5757508180610b565750805b5b15610b6b578480610b679061408d565b9550505b5050508080610b799061408d565b9150506102d2565b5060008103610b9357505050506114e4565b8067ffffffffffffffff811115610bad57610bac613b38565b5b604051908082528060200260200182016040528015610be657816020015b610bd3613378565b815260200190600190039081610bcb5790505b5094506000805b838110156114dd576000808281548110610c0a57610c09613fcf565b5b9060005260206000209060140201604051806102000160405290816000820154815260200160018201548152602001600282018054610c489061402d565b80601f0160208091040260200160405190810160405280929190818152602001828054610c749061402d565b8015610cc15780601f10610c9657610100808354040283529160200191610cc1565b820191906000526020600020905b815481529060010190602001808311610ca457829003601f168201915b50505050508152602001600382018054610cda9061402d565b80601f0160208091040260200160405190810160405280929190818152602001828054610d069061402d565b8015610d535780601f10610d2857610100808354040283529160200191610d53565b820191906000526020600020905b815481529060010190602001808311610d3657829003601f168201915b50505050508152602001600482015481526020016005820160009054906101000a900473ffffffffffffffffffffffffffffffffffffffff1673ffffffffffffffffffffffffffffffffffffffff1673ffffffffffffffffffffffffffffffffffffffff1681526020016006820160009054906101000a900473ffffffffffffffffffffffffffffffffffffffff1673ffffffffffffffffffffffffffffffffffffffff1673ffffffffffffffffffffffffffffffffffffffff168152602001600782018054610e229061402d565b80601f0160208091040260200160405190810160405280929190818152602001828054610e4e9061402d565b8015610e9b5780601f10610e7057610100808354040283529160200191610e9b565b820191906000526020600020905b815481529060010190602001808311610e7e57829003601f168201915b50505050508152602001600882018054610eb49061402d565b80601f0160208091040260200160405190810160405280929190818152602001828054610ee09061402d565b8015610f2d5780601f10610f0257610100808354040283529160200191610f2d565b820191906000526020600020905b815481529060010190602001808311610f1057829003601f168201915b50505050508152602001600982018054610f469061402d565b80601f0160208091040260200160405190810160405280929190818152602001828054610f729061402d565b8015610fbf5780601f10610f9457610100808354040283529160200191610fbf565b820191906000526020600020905b815481529060010190602001808311610fa257829003601f168201915b50505050508152602001600a820160009054906101000a900460ff16151515158152602001600a820160019054906101000a900460ff1660038111156110085761100761361a565b5b600381111561101a5761101961361a565b5b8152602001600b82016040518060a0016040529081600082015481526020016001820160009054906101000a900473ffffffffffffffffffffffffffffffffffffffff1673ffffffffffffffffffffffffffffffffffffffff1673ffffffffffffffffffffffffffffffffffffffff16815260200160028201805461109e9061402d565b80601f01602080910402602001604051908101604052809291908181526020018280546110ca9061402d565b80156111175780601f106110ec57610100808354040283529160200191611117565b820191906000526020600020905b8154815290600101906020018083116110fa57829003601f168201915b505050505081526020016003820160009054906101000a900473ffffffffffffffffffffffffffffffffffffffff1673ffffffffffffffffffffffffffffffffffffffff1673ffffffffffffffffffffffffffffffffffffffff1681526020016003820160149054906101000a900460ff1615151515815250508152602001600f82016040518060a0016040529081600082015481526020016001820180546111bf9061402d565b80601f01602080910402602001604051908101604052809291908181526020018280546111eb9061402d565b80156112385780601f1061120d57610100808354040283529160200191611238565b820191906000526020600020905b81548152906001019060200180831161121b57829003601f168201915b505050505081526020016002820180546112519061402d565b80601f016020809104026020016040519081016040528092919081815260200182805461127d9061402d565b80156112ca5780601f1061129f576101008083540402835291602001916112ca565b820191906000526020600020905b8154815290600101906020018083116112ad57829003601f168201915b505050505081526020016003820160009054906101000a900473ffffffffffffffffffffffffffffffffffffffff1673ffffffffffffffffffffffffffffffffffffffff1673ffffffffffffffffffffffffffffffffffffffff1681526020016003820160149054906101000a900460ff16151515158152505081526020016013820160009054906101000a900460ff161515151581526020016013820160019054906101000a900460ff161515151581525050905060008780156113f257503373ffffffffffffffffffffffffffffffffffffffff168260c0015173ffffffffffffffffffffffffffffffffffffffff1614806113f15750600060038111156113d7576113d661361a565b5b82610160015160038111156113ef576113ee61361a565b5b145b5b9050600087801561143257503373ffffffffffffffffffffffffffffffffffffffff168360a0015173ffffffffffffffffffffffffffffffffffffffff16145b90506003808111156114475761144661361a565b5b836101600151600381111561145f5761145e61361a565b5b14158015611472575081806114715750805b5b156114c75781836101c001901515908115158152505080836101e0019015159081151581525050828a86815181106114ad576114ac613fcf565b5b602002602001018190525084806114c39061408d565b9550505b50505080806114d59061408d565b915050610bed565b5050505050505b90565b60606000805480602002602001604051908101604052809291908181526020016000905b82821015611c9857838290600052602060002090601402016040518061020001604052908160008201548152602001600182015481526020016002820180546115539061402d565b80601f016020809104026020016040519081016040528092919081815260200182805461157f9061402d565b80156115cc5780601f106115a1576101008083540402835291602001916115cc565b820191906000526020600020905b8154815290600101906020018083116115af57829003601f168201915b505050505081526020016003820180546115e59061402d565b80601f01602080910402602001604051908101604052809291908181526020018280546116119061402d565b801561165e5780601f106116335761010080835404028352916020019161165e565b820191906000526020600020905b81548152906001019060200180831161164157829003601f168201915b50505050508152602001600482015481526020016005820160009054906101000a900473ffffffffffffffffffffffffffffffffffffffff1673ffffffffffffffffffffffffffffffffffffffff1673ffffffffffffffffffffffffffffffffffffffff1681526020016006820160009054906101000a900473ffffffffffffffffffffffffffffffffffffffff1673ffffffffffffffffffffffffffffffffffffffff1673ffffffffffffffffffffffffffffffffffffffff16815260200160078201805461172d9061402d565b80601f01602080910402602001604051908101604052809291908181526020018280546117599061402d565b80156117a65780601f1061177b576101008083540402835291602001916117a6565b820191906000526020600020905b81548152906001019060200180831161178957829003601f168201915b505050505081526020016008820180546117bf9061402d565b80601f01602080910402602001604051908101604052809291908181526020018280546117eb9061402d565b80156118385780601f1061180d57610100808354040283529160200191611838565b820191906000526020600020905b81548152906001019060200180831161181b57829003601f168201915b505050505081526020016009820180546118519061402d565b80601f016020809104026020016040519081016040528092919081815260200182805461187d9061402d565b80156118ca5780601f1061189f576101008083540402835291602001916118ca565b820191906000526020600020905b8154815290600101906020018083116118ad57829003601f168201915b50505050508152602001600a820160009054906101000a900460ff16151515158152602001600a820160019054906101000a900460ff1660038111156119135761191261361a565b5b60038111156119255761192461361a565b5b8152602001600b82016040518060a0016040529081600082015481526020016001820160009054906101000a900473ffffffffffffffffffffffffffffffffffffffff1673ffffffffffffffffffffffffffffffffffffffff1673ffffffffffffffffffffffffffffffffffffffff1681526020016002820180546119a99061402d565b80601f01602080910402602001604051908101604052809291908181526020018280546119d59061402d565b8015611a225780601f106119f757610100808354040283529160200191611a22565b820191906000526020600020905b815481529060010190602001808311611a0557829003601f168201915b505050505081526020016003820160009054906101000a900473ffffffffffffffffffffffffffffffffffffffff1673ffffffffffffffffffffffffffffffffffffffff1673ffffffffffffffffffffffffffffffffffffffff1681526020016003820160149054906101000a900460ff1615151515815250508152602001600f82016040518060a001604052908160008201548152602001600182018054611aca9061402d565b80601f0160208091040260200160405190810160405280929190818152602001828054611af69061402d565b8015611b435780601f10611b1857610100808354040283529160200191611b43565b820191906000526020600020905b815481529060010190602001808311611b2657829003601f168201915b50505050508152602001600282018054611b5c9061402d565b80601f0160208091040260200160405190810160405280929190818152602001828054611b889061402d565b8015611bd55780601f10611baa57610100808354040283529160200191611bd5565b820191906000526020600020905b815481529060010190602001808311611bb857829003601f168201915b505050505081526020016003820160009054906101000a900473ffffffffffffffffffffffffffffffffffffffff1673ffffffffffffffffffffffffffffffffffffffff1673ffffffffffffffffffffffffffffffffffffffff1681526020016003820160149054906101000a900460ff16151515158152505081526020016013820160009054906101000a900460ff161515151581526020016013820160019054906101000a900460ff1615151515815250508152602001906001019061150b565b50505050905090565b600460009054906101000a900473ffffffffffffffffffffffffffffffffffffffff1673ffffffffffffffffffffffffffffffffffffffff166334803e3a336040518263ffffffff1660e01b8152600401611cfc9190613cfd565b600060405180830381865afa158015611d19573d6000803e3d6000fd5b505050506040513d6000823e3d601f19601f82011682018060405250810190611d429190613e95565b60800151611d85576040517f08c379a0000000000000000000000000000000000000000000000000000000008152600401611d7c90614158565b60405180910390fd5b6000611d908261335d565b905060016003811115611da657611da561361a565b5b60008281548110611dba57611db9613fcf565b5b9060005260206000209060140201600a0160019054906101000a900460ff166003811115611deb57611dea61361a565b5b14611e2b576040517f08c379a0000000000000000000000000000000000000000000000000000000008152600401611e2290614210565b60405180910390fd5b6000600460009054906101000a900473ffffffffffffffffffffffffffffffffffffffff1673ffffffffffffffffffffffffffffffffffffffff166334803e3a336040518263ffffffff1660e01b8152600401611e889190613cfd565b600060405180830381865afa158015611ea5573d6000803e3d6000fd5b505050506040513d6000823e3d601f19601f82011682018060405250810190611ece9190613e95565b905060008281548110611ee457611ee3613fcf565b5b9060005260206000209060140201600f0160030160009054906101000a900473ffffffffffffffffffffffffffffffffffffffff1673ffffffffffffffffffffffffffffffffffffffff16816060015173ffffffffffffffffffffffffffffffffffffffff1614611f8a576040517f08c379a0000000000000000000000000000000000000000000000000000000008152600401611f81906142ee565b60405180910390fd5b600260008381548110611fa057611f9f613fcf565b5b9060005260206000209060140201600a0160016101000a81548160ff02191690836003811115611fd357611fd261361a565b5b0217905550505050565b600260009054906101000a900473ffffffffffffffffffffffffffffffffffffffff1673ffffffffffffffffffffffffffffffffffffffff166308944790336040518263ffffffff1660e01b81526004016120389190613cfd565b600060405180830381865afa158015612055573d6000803e3d6000fd5b505050506040513d6000823e3d601f19601f8201168201806040525081019061207e9190613f86565b608001516120c1576040517f08c379a00000000000000000000000000000000000000000000000000000000081526004016120b890614380565b60405180910390fd5b60006120cc8261335d565b9050600260038111156120e2576120e161361a565b5b600082815481106120f6576120f5613fcf565b5b9060005260206000209060140201600a0160019054906101000a900460ff1660038111156121275761212661361a565b5b14612167576040517f08c379a000000000000000000000000000000000000000000000000000000000815260040161215e90614412565b60405180910390fd5b6000600260009054906101000a900473ffffffffffffffffffffffffffffffffffffffff1673ffffffffffffffffffffffffffffffffffffffff166308944790336040518263ffffffff1660e01b81526004016121c49190613cfd565b600060405180830381865afa1580156121e1573d6000803e3d6000fd5b505050506040513d6000823e3d601f19601f8201168201806040525081019061220a9190613f86565b9050600082815481106122205761221f613fcf565b5b906000526020600020906014020160050160009054906101000a900473ffffffffffffffffffffffffffffffffffffffff1673ffffffffffffffffffffffffffffffffffffffff16816060015173ffffffffffffffffffffffffffffffffffffffff16146122c3576040517f08c379a00000000000000000000000000000000000000000000000000000000081526004016122ba906144a4565b60405180910390fd5b6003600083815481106122d9576122d8613fcf565b5b9060005260206000209060140201600a0160016101000a81548160ff0219169083600381111561230c5761230b61361a565b5b0217905550600660009054906101000a900473ffffffffffffffffffffffffffffffffffffffff1673ffffffffffffffffffffffffffffffffffffffff1663095ea7b3600360009054906101000a900473ffffffffffffffffffffffffffffffffffffffff166000858154811061238657612385613fcf565b5b9060005260206000209060140201600401546040518363ffffffff1660e01b81526004016123b59291906144d3565b6020604051808303816000875af11580156123d4573d6000803e3d6000fd5b505050506040513d601f19601f820116820180604052508101906123f891906144fc565b50600360009054906101000a900473ffffffffffffffffffffffffffffffffffffffff1673ffffffffffffffffffffffffffffffffffffffff16630de586c16000848154811061244b5761244a613fcf565b5b906000526020600020906014020160060160009054906101000a900473ffffffffffffffffffffffffffffffffffffffff166000858154811061249157612490613fcf565b5b906000526020600020906014020160000154600086815481106124b7576124b6613fcf565b5b9060005260206000209060140201600401546040518463ffffffff1660e01b81526004016124e793929190614529565b600060405180830381600087803b15801561250157600080fd5b505af1158015612515573d6000803e3d6000fd5b50505050505050565b5050565b600073ffffffffffffffffffffffffffffffffffffffff16600360009054906101000a900473ffffffffffffffffffffffffffffffffffffffff1673ffffffffffffffffffffffffffffffffffffffff16146125b3576040517f08c379a00000000000000000000000000000000000000000000000000000000081526004016125aa906145ac565b60405180910390fd5b80600360006101000a81548173ffffffffffffffffffffffffffffffffffffffff021916908373ffffffffffffffffffffffffffffffffffffffff16021790555050565b6000600260009054906101000a900473ffffffffffffffffffffffffffffffffffffffff1673ffffffffffffffffffffffffffffffffffffffff166308944790336040518263ffffffff1660e01b81526004016126549190613cfd565b600060405180830381865afa158015612671573d6000803e3d6000fd5b505050506040513d6000823e3d601f19601f8201168201806040525081019061269a9190613f86565b905080608001516126e0576040517f08c379a00000000000000000000000000000000000000000000000000000000081526004016126d79061463e565b60405180910390fd5b6126e8613378565b6001600081546126f79061408d565b919050819055816000018181525050848160400181905250838160600181905250828160800181815250506001816101400190151590811515815250506000816101600190600381111561274e5761274d61361a565b5b908160038111156127625761276161361a565b5b81525050338160a0019073ffffffffffffffffffffffffffffffffffffffff16908173ffffffffffffffffffffffffffffffffffffffff168152505060008160c0019073ffffffffffffffffffffffffffffffffffffffff16908173ffffffffffffffffffffffffffffffffffffffff16815250506103e8426127e5919061465e565b81602001818152505081816101800181905250600660009054906101000a900473ffffffffffffffffffffffffffffffffffffffff1673ffffffffffffffffffffffffffffffffffffffff166306fdde036040518163ffffffff1660e01b8152600401600060405180830381865afa158015612865573d6000803e3d6000fd5b505050506040513d6000823e3d601f19601f8201168201806040525081019061288e91906146a0565b816101000181905250600660009054906101000a900473ffffffffffffffffffffffffffffffffffffffff1673ffffffffffffffffffffffffffffffffffffffff166395d89b416040518163ffffffff1660e01b8152600401600060405180830381865afa158015612904573d6000803e3d6000fd5b505050506040513d6000823e3d601f19601f8201168201806040525081019061292d91906146a0565b81610120018190525060008190806001815401808255809150506001900390600052602060002090601402016000909190919091506000820151816000015560208201518160010155604082015181600201908161298b9190614895565b5060608201518160030190816129a19190614895565b506080820151816004015560a08201518160050160006101000a81548173ffffffffffffffffffffffffffffffffffffffff021916908373ffffffffffffffffffffffffffffffffffffffff16021790555060c08201518160060160006101000a81548173ffffffffffffffffffffffffffffffffffffffff021916908373ffffffffffffffffffffffffffffffffffffffff16021790555060e0820151816007019081612a4f9190614895565b50610100820151816008019081612a669190614895565b50610120820151816009019081612a7d9190614895565b5061014082015181600a0160006101000a81548160ff02191690831515021790555061016082015181600a0160016101000a81548160ff02191690836003811115612acb57612aca61361a565b5b021790555061018082015181600b016000820151816000015560208201518160010160006101000a81548173ffffffffffffffffffffffffffffffffffffffff021916908373ffffffffffffffffffffffffffffffffffffffff1602179055506040820151816002019081612b409190614895565b5060608201518160030160006101000a81548173ffffffffffffffffffffffffffffffffffffffff021916908373ffffffffffffffffffffffffffffffffffffffff16021790555060808201518160030160146101000a81548160ff02191690831515021790555050506101a082015181600f01600082015181600001556020820151816001019081612bd39190614895565b506040820151816002019081612be99190614895565b5060608201518160030160006101000a81548173ffffffffffffffffffffffffffffffffffffffff021916908373ffffffffffffffffffffffffffffffffffffffff16021790555060808201518160030160146101000a81548160ff02191690831515021790555050506101c08201518160130160006101000a81548160ff0219169083151502179055506101e08201518160130160016101000a81548160ff0219169083151502179055505050600660009054906101000a900473ffffffffffffffffffffffffffffffffffffffff1673ffffffffffffffffffffffffffffffffffffffff166323b872dd836060015130866040518463ffffffff1660e01b8152600401612cfa93929190614967565b6020604051808303816000875af1158015612d19573d6000803e3d6000fd5b505050506040513d601f19601f82011682018060405250810190612d3d91906144fc565b50600260009054906101000a900473ffffffffffffffffffffffffffffffffffffffff1673ffffffffffffffffffffffffffffffffffffffff166378905bc283606001516040518060e00160405280856020015181526020016040518060400160405280601381526020017f52657365727661206465205365727669c3a76f0000000000000000000000000081525081526020018781526020016040518060400160405280600181526020017f440000000000000000000000000000000000000000000000000000000000000081525081526020013073ffffffffffffffffffffffffffffffffffffffff168152602001866060015173ffffffffffffffffffffffffffffffffffffffff168152602001600660009054906101000a900473ffffffffffffffffffffffffffffffffffffffff1673ffffffffffffffffffffffffffffffffffffffff166395d89b416040518163ffffffff1660e01b8152600401600060405180830381865afa158015612ebb573d6000803e3d6000fd5b505050506040513d6000823e3d601f19601f82011682018060405250810190612ee491906146a0565b8152506040518363ffffffff1660e01b8152600401612f04929190614a48565b600060405180830381600087803b158015612f1e57600080fd5b505af1158015612f32573d6000803e3d6000fd5b505050507f77ae3823dd5f83bb6ff05d1f2077560c1bd437eed7540f4fbbde6bc70ba1b79381604051612f659190614bfa565b60405180910390a15050505050565b600460009054906101000a900473ffffffffffffffffffffffffffffffffffffffff1673ffffffffffffffffffffffffffffffffffffffff166334803e3a336040518263ffffffff1660e01b8152600401612fcf9190613cfd565b600060405180830381865afa158015612fec573d6000803e3d6000fd5b505050506040513d6000823e3d601f19601f820116820180604052508101906130159190613e95565b60800151613058576040517f08c379a000000000000000000000000000000000000000000000000000000000815260040161304f90614158565b60405180910390fd5b60006130638261335d565b9050600060038111156130795761307861361a565b5b6000828154811061308d5761308c613fcf565b5b9060005260206000209060140201600a0160019054906101000a900460ff1660038111156130be576130bd61361a565b5b146130fe576040517f08c379a00000000000000000000000000000000000000000000000000000000081526004016130f590614c8e565b60405180910390fd5b6000600460009054906101000a900473ffffffffffffffffffffffffffffffffffffffff1673ffffffffffffffffffffffffffffffffffffffff166334803e3a336040518263ffffffff1660e01b815260040161315b9190613cfd565b600060405180830381865afa158015613178573d6000803e3d6000fd5b505050506040513d6000823e3d601f19601f820116820180604052508101906131a19190613e95565b905080600083815481106131b8576131b7613fcf565b5b9060005260206000209060140201600f016000820151816000015560208201518160010190816131e89190614895565b5060408201518160020190816131fe9190614895565b5060608201518160030160006101000a81548173ffffffffffffffffffffffffffffffffffffffff021916908373ffffffffffffffffffffffffffffffffffffffff16021790555060808201518160030160146101000a81548160ff021916908315150217905550905050336000838154811061327e5761327d613fcf565b5b906000526020600020906014020160060160006101000a81548173ffffffffffffffffffffffffffffffffffffffff021916908373ffffffffffffffffffffffffffffffffffffffff16021790555060008083815481106132e2576132e1613fcf565b5b9060005260206000209060140201600a0160006101000a81548160ff0219169083151502179055506001600083815481106133205761331f613fcf565b5b9060005260206000209060140201600a0160016101000a81548160ff021916908360038111156133535761335261361a565b5b0217905550505050565b60008060018361336d9190614cae565b905080915050919050565b6040518061020001604052806000815260200160008152602001606081526020016060815260200160008152602001600073ffffffffffffffffffffffffffffffffffffffff168152602001600073ffffffffffffffffffffffffffffffffffffffff168152602001606081526020016060815260200160608152602001600015158152602001600060038111156134135761341261361a565b5b8152602001613420613445565b815260200161342d6134a2565b81526020016000151581526020016000151581525090565b6040518060a0016040528060008152602001600073ffffffffffffffffffffffffffffffffffffffff16815260200160608152602001600073ffffffffffffffffffffffffffffffffffffffff1681526020016000151581525090565b6040518060a00160405280600081526020016060815260200160608152602001600073ffffffffffffffffffffffffffffffffffffffff1681526020016000151581525090565b600081519050919050565b600082825260208201905092915050565b6000819050602082019050919050565b6000819050919050565b61352881613515565b82525050565b600081519050919050565b600082825260208201905092915050565b60005b8381101561356857808201518184015260208101905061354d565b60008484015250505050565b6000601f19601f8301169050919050565b60006135908261352e565b61359a8185613539565b93506135aa81856020860161354a565b6135b381613574565b840191505092915050565b600073ffffffffffffffffffffffffffffffffffffffff82169050919050565b60006135e9826135be565b9050919050565b6135f9816135de565b82525050565b60008115159050919050565b613614816135ff565b82525050565b7f4e487b7100000000000000000000000000000000000000000000000000000000600052602160045260246000fd5b6004811061365a5761365961361a565b5b50565b600081905061366b82613649565b919050565b600061367b8261365d565b9050919050565b61368b81613670565b82525050565b600060a0830160008301516136a9600086018261351f565b5060208301516136bc60208601826135f0565b50604083015184820360408601526136d48282613585565b91505060608301516136e960608601826135f0565b5060808301516136fc608086018261360b565b508091505092915050565b600060a08301600083015161371f600086018261351f565b50602083015184820360208601526137378282613585565b915050604083015184820360408601526137518282613585565b915050606083015161376660608601826135f0565b506080830151613779608086018261360b565b508091505092915050565b60006102008301600083015161379d600086018261351f565b5060208301516137b0602086018261351f565b50604083015184820360408601526137c88282613585565b915050606083015184820360608601526137e28282613585565b91505060808301516137f7608086018261351f565b5060a083015161380a60a08601826135f0565b5060c083015161381d60c08601826135f0565b5060e083015184820360e08601526138358282613585565b9150506101008301518482036101008601526138518282613585565b91505061012083015184820361012086015261386d8282613585565b91505061014083015161388461014086018261360b565b50610160830151613899610160860182613682565b506101808301518482036101808601526138b38282613691565b9150506101a08301518482036101a08601526138cf8282613707565b9150506101c08301516138e66101c086018261360b565b506101e08301516138fb6101e086018261360b565b508091505092915050565b60006139128383613784565b905092915050565b6000602082019050919050565b6000613932826134e9565b61393c81856134f4565b93508360208202850161394e85613505565b8060005b8581101561398a578484038952815161396b8582613906565b94506139768361391a565b925060208a01995050600181019050613952565b50829750879550505050505092915050565b600060208201905081810360008301526139b68184613927565b905092915050565b6000604051905090565b600080fd5b600080fd5b6139db81613515565b81146139e657600080fd5b50565b6000813590506139f8816139d2565b92915050565b600060208284031215613a1457613a136139c8565b5b6000613a22848285016139e9565b91505092915050565b613a34816135de565b8114613a3f57600080fd5b50565b600081359050613a5181613a2b565b92915050565b613a60816135ff565b8114613a6b57600080fd5b50565b600081359050613a7d81613a57565b92915050565b60008060408385031215613a9a57613a996139c8565b5b6000613aa885828601613a42565b9250506020613ab985828601613a6e565b9150509250929050565b6000613ace826135de565b9050919050565b613ade81613ac3565b8114613ae957600080fd5b50565b600081359050613afb81613ad5565b92915050565b600060208284031215613b1757613b166139c8565b5b6000613b2584828501613aec565b91505092915050565b600080fd5b600080fd5b7f4e487b7100000000000000000000000000000000000000000000000000000000600052604160045260246000fd5b613b7082613574565b810181811067ffffffffffffffff82111715613b8f57613b8e613b38565b5b80604052505050565b6000613ba26139be565b9050613bae8282613b67565b919050565b600067ffffffffffffffff821115613bce57613bcd613b38565b5b613bd782613574565b9050602081019050919050565b82818337600083830152505050565b6000613c06613c0184613bb3565b613b98565b905082815260208101848484011115613c2257613c21613b33565b5b613c2d848285613be4565b509392505050565b600082601f830112613c4a57613c49613b2e565b5b8135613c5a848260208601613bf3565b91505092915050565b600080600060608486031215613c7c57613c7b6139c8565b5b600084013567ffffffffffffffff811115613c9a57613c996139cd565b5b613ca686828701613c35565b935050602084013567ffffffffffffffff811115613cc757613cc66139cd565b5b613cd386828701613c35565b9250506040613ce4868287016139e9565b9150509250925092565b613cf7816135de565b82525050565b6000602082019050613d126000830184613cee565b92915050565b600080fd5b600080fd5b600081519050613d31816139d2565b92915050565b6000613d4a613d4584613bb3565b613b98565b905082815260208101848484011115613d6657613d65613b33565b5b613d7184828561354a565b509392505050565b600082601f830112613d8e57613d8d613b2e565b5b8151613d9e848260208601613d37565b91505092915050565b600081519050613db681613a2b565b92915050565b600081519050613dcb81613a57565b92915050565b600060a08284031215613de757613de6613d18565b5b613df160a0613b98565b90506000613e0184828501613d22565b600083015250602082015167ffffffffffffffff811115613e2557613e24613d1d565b5b613e3184828501613d79565b602083015250604082015167ffffffffffffffff811115613e5557613e54613d1d565b5b613e6184828501613d79565b6040830152506060613e7584828501613da7565b6060830152506080613e8984828501613dbc565b60808301525092915050565b600060208284031215613eab57613eaa6139c8565b5b600082015167ffffffffffffffff811115613ec957613ec86139cd565b5b613ed584828501613dd1565b91505092915050565b600060a08284031215613ef457613ef3613d18565b5b613efe60a0613b98565b90506000613f0e84828501613d22565b6000830152506020613f2284828501613da7565b602083015250604082015167ffffffffffffffff811115613f4657613f45613d1d565b5b613f5284828501613d79565b6040830152506060613f6684828501613da7565b6060830152506080613f7a84828501613dbc565b60808301525092915050565b600060208284031215613f9c57613f9b6139c8565b5b600082015167ffffffffffffffff811115613fba57613fb96139cd565b5b613fc684828501613ede565b91505092915050565b7f4e487b7100000000000000000000000000000000000000000000000000000000600052603260045260246000fd5b7f4e487b7100000000000000000000000000000000000000000000000000000000600052602260045260246000fd5b6000600282049050600182168061404557607f821691505b60208210810361405857614057613ffe565b5b50919050565b7f4e487b7100000000000000000000000000000000000000000000000000000000600052601160045260246000fd5b600061409882613515565b91507fffffffffffffffffffffffffffffffffffffffffffffffffffffffffffffffff82036140ca576140c961405e565b5b600182019050919050565b600082825260208201905092915050565b7f4f70657261c3a7c3a36f207065726d6974696461206170656e6173207061726160008201527f20466f726e656365646f7265732e000000000000000000000000000000000000602082015250565b6000614142602e836140d5565b915061414d826140e6565b604082019050919050565b6000602082019050818103600083015261417181614135565b9050919050565b7f45737465207365727669c3a76f206ec3a36f20657374c3a120656d206578656360008201527f75c3a7c3a36f20652073657520706167616d656e746f206ec3a36f20706f646560208201527f2073657220736f6c6963697461646f2e00000000000000000000000000000000604082015250565b60006141fa6050836140d5565b915061420582614178565b606082019050919050565b60006020820190508181036000830152614229816141ed565b9050919050565b7f4120436f6e636c7573c3a36f20646f205365727669c3a76f2065206120536f6c60008201527f6963697461c3a7c3a36f20646520506167616d656e746f2073c3b320706f646560208201527f6d20736572207265616c697a6164612070656c6f206578656375746f7220646f60408201527f207365727669c3a76f2e00000000000000000000000000000000000000000000606082015250565b60006142d8606a836140d5565b91506142e382614230565b608082019050919050565b60006020820190508181036000830152614307816142cb565b9050919050565b7f4f70657261c3a7c3a36f207065726d6974696461206170656e6173207061726160008201527f20756d6120536563726574617269612e00000000000000000000000000000000602082015250565b600061436a6030836140d5565b91506143758261430e565b604082019050919050565b600060208201905081810360008301526143998161435d565b9050919050565b7f45737465207365727669c3a76f206ec3a36f20657374c3a1206167756172646160008201527f6e646f20706167616d656e746f2e000000000000000000000000000000000000602082015250565b60006143fc602e836140d5565b9150614407826143a0565b604082019050919050565b6000602082019050818103600083015261442b816143ef565b9050919050565b7f536f6d656e7465206f20736f6c69636974616e746520646f207365727669c3a760008201527f6f20706f6465206c696265726172206f20706167616d656e746f2e0000000000602082015250565b600061448e603b836140d5565b915061449982614432565b604082019050919050565b600060208201905081810360008301526144bd81614481565b9050919050565b6144cd81613515565b82525050565b60006040820190506144e86000830185613cee565b6144f560208301846144c4565b9392505050565b600060208284031215614512576145116139c8565b5b600061452084828501613dbc565b91505092915050565b600060608201905061453e6000830186613cee565b61454b60208301856144c4565b61455860408301846144c4565b949350505050565b7f4120636f6e7461206c617374726f206ac3a120666f69207365746164612e0000600082015250565b6000614596601e836140d5565b91506145a182614560565b602082019050919050565b600060208201905081810360008301526145c581614589565b9050919050565b7f536f6d656e746520756d61207365637265746172696120706f646520736f6c6960008201527f636974617220756d207365727669c3a76f2e0000000000000000000000000000602082015250565b60006146286032836140d5565b9150614633826145cc565b604082019050919050565b600060208201905081810360008301526146578161461b565b9050919050565b600061466982613515565b915061467483613515565b925082820261468281613515565b915082820484148315176146995761469861405e565b5b5092915050565b6000602082840312156146b6576146b56139c8565b5b600082015167ffffffffffffffff8111156146d4576146d36139cd565b5b6146e084828501613d79565b91505092915050565b60008190508160005260206000209050919050565b60006020601f8301049050919050565b600082821b905092915050565b60006008830261474b7fffffffffffffffffffffffffffffffffffffffffffffffffffffffffffffffff8261470e565b614755868361470e565b95508019841693508086168417925050509392505050565b6000819050919050565b600061479261478d61478884613515565b61476d565b613515565b9050919050565b6000819050919050565b6147ac83614777565b6147c06147b882614799565b84845461471b565b825550505050565b600090565b6147d56147c8565b6147e08184846147a3565b505050565b5b81811015614804576147f96000826147cd565b6001810190506147e6565b5050565b601f8211156148495761481a816146e9565b614823846146fe565b81016020851015614832578190505b61484661483e856146fe565b8301826147e5565b50505b505050565b600082821c905092915050565b600061486c6000198460080261484e565b1980831691505092915050565b6000614885838361485b565b9150826002028217905092915050565b61489e8261352e565b67ffffffffffffffff8111156148b7576148b6613b38565b5b6148c1825461402d565b6148cc828285614808565b600060209050601f8311600181146148ff57600084156148ed578287015190505b6148f78582614879565b86555061495f565b601f19841661490d866146e9565b60005b8281101561493557848901518255600182019150602085019450602081019050614910565b86831015614952578489015161494e601f89168261485b565b8355505b6001600288020188555050505b505050505050565b600060608201905061497c6000830186613cee565b6149896020830185613cee565b61499660408301846144c4565b949350505050565b600060e0830160008301516149b6600086018261351f565b50602083015184820360208601526149ce8282613585565b91505060408301516149e3604086018261351f565b50606083015184820360608601526149fb8282613585565b9150506080830151614a1060808601826135f0565b5060a0830151614a2360a08601826135f0565b5060c083015184820360c0860152614a3b8282613585565b9150508091505092915050565b6000604082019050614a5d6000830185613cee565b8181036020830152614a6f818461499e565b90509392505050565b600061020083016000830151614a91600086018261351f565b506020830151614aa4602086018261351f565b5060408301518482036040860152614abc8282613585565b91505060608301518482036060860152614ad68282613585565b9150506080830151614aeb608086018261351f565b5060a0830151614afe60a08601826135f0565b5060c0830151614b1160c08601826135f0565b5060e083015184820360e0860152614b298282613585565b915050610100830151848203610100860152614b458282613585565b915050610120830151848203610120860152614b618282613585565b915050610140830151614b7861014086018261360b565b50610160830151614b8d610160860182613682565b50610180830151848203610180860152614ba78282613691565b9150506101a08301518482036101a0860152614bc38282613707565b9150506101c0830151614bda6101c086018261360b565b506101e0830151614bef6101e086018261360b565b508091505092915050565b60006020820190508181036000830152614c148184614a78565b905092915050565b7f45737465207365727669c3a76f206ec3a36f20657374c3a1206d61697320646960008201527f73706f6ec3ad76656c2070617261206578656375c3a7c3a36f2e000000000000602082015250565b6000614c78603a836140d5565b9150614c8382614c1c565b604082019050919050565b60006020820190508181036000830152614ca781614c6b565b9050919050565b6000614cb982613515565b9150614cc483613515565b9250828203905081811115614cdc57614cdb61405e565b5b9291505056fea264697066735822122004b65980d5ee491cdfac16f2e8555ff99fa604abcae7e14db36beb47b8cd933064736f6c63430008130033608060405234801561001057600080fd5b50610392806100206000396000f3fe608060405234801561001057600080fd5b506004361061002b5760003560e01c80633a96fdd714610030575b600080fd5b61004a60048036038101906100459190610226565b610060565b60405161005791906102b9565b60405180910390f35b6000815183511461007457600090506100c6565b816040516020016100859190610345565b60405160208183030381529060405280519060200120836040516020016100ac9190610345565b604051602081830303815290604052805190602001201490505b92915050565b6000604051905090565b600080fd5b600080fd5b600080fd5b600080fd5b6000601f19601f8301169050919050565b7f4e487b7100000000000000000000000000000000000000000000000000000000600052604160045260246000fd5b610133826100ea565b810181811067ffffffffffffffff82111715610152576101516100fb565b5b80604052505050565b60006101656100cc565b9050610171828261012a565b919050565b600067ffffffffffffffff821115610191576101906100fb565b5b61019a826100ea565b9050602081019050919050565b82818337600083830152505050565b60006101c96101c484610176565b61015b565b9050828152602081018484840111156101e5576101e46100e5565b5b6101f08482856101a7565b509392505050565b600082601f83011261020d5761020c6100e0565b5b813561021d8482602086016101b6565b91505092915050565b6000806040838503121561023d5761023c6100d6565b5b600083013567ffffffffffffffff81111561025b5761025a6100db565b5b610267858286016101f8565b925050602083013567ffffffffffffffff811115610288576102876100db565b5b610294858286016101f8565b9150509250929050565b60008115159050919050565b6102b38161029e565b82525050565b60006020820190506102ce60008301846102aa565b92915050565b600081519050919050565b600081905092915050565b60005b838110156103085780820151818401526020810190506102ed565b60008484015250505050565b600061031f826102d4565b61032981856102df565b93506103398185602086016102ea565b80840191505092915050565b60006103518284610314565b91508190509291505056fea2646970667358221220f1989d939bb154137cf9b79530cbd8e08d1e921453cb6c23b8a9ef75992f66ab64736f6c63430008130033",
  "immutableReferences": {},
  "source": "// SPDX-License-Identifier: MIT\r\npragma solidity ^0.8.0;\r\n\r\nimport \"./TiposComuns.sol\";\r\nimport \"./AgenteFederado.sol\";\r\nimport \"./Fornecedor.sol\";\r\nimport \"./ContaLastro.sol\";\r\nimport \"./GovToken.sol\";\r\nimport \"./StringUtils.sol\";\r\n\r\ncontract PainelServico {\r\n    //Propriedades\r\n    ServicoInfo[] private _listaServicos;\r\n    uint256 private _id = 0;\r\n\r\n    AgenteFederado private _agenteFederado;\r\n    ContaLastro private _contaLastro;\r\n    Fornecedor private _fornecedor;\r\n    StringUtils private _string;\r\n    GovToken private _govToken;\r\n\r\n    //Construtores\r\n    constructor(\r\n        AgenteFederado agenteFederado,\r\n        Fornecedor fornecedor,\r\n        GovToken govToken\r\n    ) {\r\n        _agenteFederado = agenteFederado;\r\n        _fornecedor = fornecedor;\r\n        _govToken = govToken;\r\n        _string = new StringUtils();\r\n    }\r\n\r\n    //Modificadores\r\n    modifier onlyOwner() {\r\n        //require(_owners[msg.sender] == true);\r\n        _;\r\n    }\r\n\r\n    modifier onlySupplier() {\r\n        require(\r\n            _fornecedor.obterFornecedor(msg.sender).cadastrado,\r\n            unicode\"Operao permitida apenas para Fornecedores.\"\r\n        );\r\n        _;\r\n    }\r\n\r\n    modifier onlySecretary() {\r\n        require(\r\n            _agenteFederado.obterSecretaria(msg.sender).cadastrado,\r\n            unicode\"Operao permitida apenas para uma Secretaria.\"\r\n        );\r\n        _;\r\n    }\r\n\r\n    //Eventos\r\n    event servicoAdicionado(ServicoInfo servico);\r\n\r\n    //Funes\r\n    function setContaLastro(ContaLastro contaLastro) public onlyOwner {\r\n        require(\r\n            address(_contaLastro) == address(0),\r\n            unicode\"A conta lastro j foi setada.\"\r\n        );\r\n        _contaLastro = contaLastro;\r\n    }\r\n\r\n    function setOwner(address owner, bool isOwner) public onlyOwner {\r\n        //_owners[owner] = isOwner;\r\n    }\r\n\r\n    function listarServicos2() public view returns (ServicoInfo[] memory) {\r\n        return _listaServicos;\r\n    }\r\n\r\n    function listarServicos()\r\n        public\r\n        view\r\n        returns (ServicoInfo[] memory listaServicos)\r\n    {\r\n        bool isFornecedor = _fornecedor.obterFornecedor(msg.sender).cadastrado;\r\n        bool isAgenteFederado = _agenteFederado\r\n            .obterSecretaria(msg.sender)\r\n            .cadastrado;\r\n\r\n        uint256 qtdServicos = _listaServicos.length;\r\n        uint256 qtdeServicosFiltrados = 0;\r\n\r\n        for (uint256 i = 0; i < qtdServicos; i++) {\r\n            ServicoInfo memory servico = _listaServicos[i];\r\n\r\n            bool exibirFornecedor = isFornecedor &&\r\n                (servico.executor == msg.sender ||\r\n                    servico.status == StatusServicoEnum.Disponivel);\r\n\r\n            bool exibirAgenteFederado = isAgenteFederado &&\r\n                servico.solicitante == msg.sender;\r\n\r\n            if (\r\n                servico.status != StatusServicoEnum.Finalizado &&\r\n                (exibirFornecedor || exibirAgenteFederado)\r\n            ) {\r\n                qtdeServicosFiltrados++;\r\n            }\r\n        }\r\n\r\n        if (qtdeServicosFiltrados == 0) return listaServicos;\r\n\r\n        listaServicos = new ServicoInfo[](qtdeServicosFiltrados);\r\n        uint256 j = 0;\r\n        for (uint256 i = 0; i < qtdServicos; i++) {\r\n            ServicoInfo memory servico = _listaServicos[i];\r\n\r\n            bool exibirFornecedor = isFornecedor &&\r\n                (servico.executor == msg.sender ||\r\n                    servico.status == StatusServicoEnum.Disponivel);\r\n\r\n            bool exibirAgenteFederado = isAgenteFederado &&\r\n                servico.solicitante == msg.sender;\r\n\r\n            if (\r\n                servico.status != StatusServicoEnum.Finalizado &&\r\n                (exibirFornecedor || exibirAgenteFederado)\r\n            ) {\r\n                servico.visaoFornecedor = exibirFornecedor;\r\n                servico.visaoAgenteFederado = exibirAgenteFederado;\r\n                listaServicos[j] = servico;\r\n                j++;\r\n            }\r\n        }\r\n\r\n        return listaServicos;\r\n    }\r\n\r\n    function adicionarServico(\r\n        string memory descricaoResumida,\r\n        string memory descricao,\r\n        uint256 valor\r\n    ) public {\r\n        SecretariaInfo memory secretaria = _agenteFederado.obterSecretaria(\r\n            msg.sender\r\n        );\r\n\r\n        require(\r\n            secretaria.cadastrado,\r\n            unicode\"Somente uma secretaria pode solicitar um servio.\"\r\n        );\r\n\r\n        ServicoInfo memory servico;\r\n\r\n        servico.id = ++_id;\r\n        servico.descricaoResumida = descricaoResumida;\r\n        servico.descricao = descricao;\r\n        servico.valor = valor;\r\n        servico.disponivel = true;\r\n        servico.status = StatusServicoEnum.Disponivel;\r\n        servico.solicitante = msg.sender;\r\n        servico.executor = address(0);\r\n        servico.data = block.timestamp * 1000;\r\n        servico.secretaria = secretaria;\r\n        servico.nomeToken = _govToken.name();\r\n        servico.simboloToken = _govToken.symbol();\r\n\r\n        _listaServicos.push(servico);\r\n\r\n        _govToken.transferFrom(\r\n            secretaria.enderecoCarteira,\r\n            address(this),\r\n            valor\r\n        );\r\n\r\n        _agenteFederado.incluirLinhaExtrato(\r\n            secretaria.enderecoCarteira,\r\n            ExtratoInfo(\r\n                servico.data,\r\n                unicode\"Reserva de Servio\",\r\n                valor,\r\n                \"D\",\r\n                address(this),\r\n                secretaria.enderecoCarteira,\r\n                _govToken.symbol()\r\n            )\r\n        );\r\n\r\n        emit servicoAdicionado(servico);\r\n    }\r\n\r\n    function executarServico(uint256 id) public onlySupplier {\r\n        uint256 indice = obterIndiceServico(id);\r\n\r\n        require(\r\n            _listaServicos[indice].status == StatusServicoEnum.Disponivel,\r\n            unicode\"Este servio no est mais disponvel para execuo.\"\r\n        );\r\n\r\n        FornecedorInfo memory fornecedor = _fornecedor.obterFornecedor(\r\n            msg.sender\r\n        );\r\n\r\n        _listaServicos[indice].fornecedor = fornecedor;\r\n        _listaServicos[indice].executor = msg.sender;\r\n        _listaServicos[indice].disponivel = false;\r\n        _listaServicos[indice].status = StatusServicoEnum.EmExecucao;\r\n    }\r\n\r\n    function concluirSolicitarPagamentoServico(uint256 id) public onlySupplier {\r\n        uint256 indice = obterIndiceServico(id);\r\n\r\n        require(\r\n            _listaServicos[indice].status == StatusServicoEnum.EmExecucao,\r\n            unicode\"Este servio no est em execuo e seu pagamento no pode ser solicitado.\"\r\n        );\r\n\r\n        FornecedorInfo memory fornecedor = _fornecedor.obterFornecedor(\r\n            msg.sender\r\n        );\r\n\r\n        require(\r\n            fornecedor.enderecoCarteira ==\r\n                _listaServicos[indice].fornecedor.enderecoCarteira,\r\n            unicode\"A Concluso do Servio e a Solicitao de Pagamento s podem ser realizada pelo executor do servio.\"\r\n        );\r\n\r\n        _listaServicos[indice].status = StatusServicoEnum.AguardandoPagamento;\r\n    }\r\n\r\n    function liberarPagamentoServico(uint256 id) public onlySecretary {\r\n        uint256 indice = obterIndiceServico(id);\r\n\r\n        require(\r\n            _listaServicos[indice].status ==\r\n                StatusServicoEnum.AguardandoPagamento,\r\n            unicode\"Este servio no est aguardando pagamento.\"\r\n        );\r\n\r\n        SecretariaInfo memory secretaria = _agenteFederado.obterSecretaria(\r\n            msg.sender\r\n        );\r\n\r\n        require(\r\n            secretaria.enderecoCarteira == _listaServicos[indice].solicitante,\r\n            unicode\"Somente o solicitante do servio pode liberar o pagamento.\"\r\n        );\r\n\r\n        _listaServicos[indice].status = StatusServicoEnum.Finalizado;\r\n\r\n        _govToken.approve(address(_contaLastro), _listaServicos[indice].valor);\r\n\r\n        _contaLastro.solicitarRepasse(\r\n            _listaServicos[indice].executor,\r\n            _listaServicos[indice].id,\r\n            _listaServicos[indice].valor\r\n        );\r\n    }\r\n\r\n    function obterIndiceServico(uint256 id) private pure returns (uint256) {\r\n        uint256 indice = id - 1;\r\n        return indice;\r\n    }\r\n\r\n    function obterServico(\r\n        uint256 id\r\n    ) private view returns (ServicoInfo memory) {\r\n        return _listaServicos[obterIndiceServico(id)];\r\n    }\r\n}\r\n",
  "sourcePath": "/govtoken/Contratos/PainelServico.sol",
  "compiler": {
    "name": "solc",
    "version": "0.8.19+commit.7dd6d404.Emscripten.clang"
  },
  "schemaVersion": "3.4.8",
  "updatedAt": "2023-03-17T19:29:26.187Z",
  "networkType": "ethereum",
  "devdoc": {
    "kind": "dev",
    "methods": {},
    "version": 1
  },
  "userdoc": {
    "kind": "user",
    "methods": {},
    "version": 1
  }
}