{
  "contractName": "PainelServico",
  "abi": [
    {
      "inputs": [
        {
          "internalType": "contract AgenteFederado",
          "name": "agenteFederado",
          "type": "address"
        },
        {
          "internalType": "contract Fornecedor",
          "name": "fornecedor",
          "type": "address"
        },
        {
          "internalType": "contract GovToken",
          "name": "govToken",
          "type": "address"
        }
      ],
      "stateMutability": "nonpayable",
      "type": "constructor"
    },
    {
      "anonymous": false,
      "inputs": [
        {
          "components": [
            {
              "internalType": "uint256",
              "name": "id",
              "type": "uint256"
            },
            {
              "internalType": "uint256",
              "name": "data",
              "type": "uint256"
            },
            {
              "internalType": "string",
              "name": "descricaoResumida",
              "type": "string"
            },
            {
              "internalType": "string",
              "name": "descricao",
              "type": "string"
            },
            {
              "internalType": "uint256",
              "name": "valor",
              "type": "uint256"
            },
            {
              "internalType": "address",
              "name": "solicitante",
              "type": "address"
            },
            {
              "internalType": "address",
              "name": "executor",
              "type": "address"
            },
            {
              "internalType": "string",
              "name": "uf",
              "type": "string"
            },
            {
              "internalType": "string",
              "name": "nomeToken",
              "type": "string"
            },
            {
              "internalType": "string",
              "name": "simboloToken",
              "type": "string"
            },
            {
              "internalType": "bool",
              "name": "disponivel",
              "type": "bool"
            },
            {
              "internalType": "enum StatusServicoEnum",
              "name": "status",
              "type": "uint8"
            },
            {
              "components": [
                {
                  "internalType": "uint256",
                  "name": "dataCadastro",
                  "type": "uint256"
                },
                {
                  "internalType": "address",
                  "name": "enderecoAgenteFederado",
                  "type": "address"
                },
                {
                  "internalType": "string",
                  "name": "descricao",
                  "type": "string"
                },
                {
                  "internalType": "address",
                  "name": "enderecoCarteira",
                  "type": "address"
                },
                {
                  "internalType": "bool",
                  "name": "cadastrado",
                  "type": "bool"
                }
              ],
              "internalType": "struct SecretariaInfo",
              "name": "secretaria",
              "type": "tuple"
            },
            {
              "components": [
                {
                  "internalType": "uint256",
                  "name": "dataCadastro",
                  "type": "uint256"
                },
                {
                  "internalType": "string",
                  "name": "uf",
                  "type": "string"
                },
                {
                  "internalType": "string",
                  "name": "nome",
                  "type": "string"
                },
                {
                  "internalType": "address",
                  "name": "enderecoCarteira",
                  "type": "address"
                },
                {
                  "internalType": "bool",
                  "name": "cadastrado",
                  "type": "bool"
                },
                {
                  "internalType": "bool",
                  "name": "aprovado",
                  "type": "bool"
                },
                {
                  "internalType": "uint256",
                  "name": "dataAprovacao",
                  "type": "uint256"
                }
              ],
              "internalType": "struct FornecedorInfo",
              "name": "fornecedor",
              "type": "tuple"
            },
            {
              "internalType": "bool",
              "name": "visaoFornecedor",
              "type": "bool"
            },
            {
              "internalType": "bool",
              "name": "visaoAgenteFederado",
              "type": "bool"
            }
          ],
          "indexed": false,
          "internalType": "struct ServicoInfo",
          "name": "servico",
          "type": "tuple"
        }
      ],
      "name": "servicoAdicionado",
      "type": "event"
    },
    {
      "inputs": [
        {
          "internalType": "contract ContaLastro",
          "name": "contaLastro",
          "type": "address"
        }
      ],
      "name": "setContaLastro",
      "outputs": [],
      "stateMutability": "nonpayable",
      "type": "function"
    },
    {
      "inputs": [
        {
          "internalType": "address",
          "name": "owner",
          "type": "address"
        },
        {
          "internalType": "bool",
          "name": "isOwner",
          "type": "bool"
        }
      ],
      "name": "setOwner",
      "outputs": [],
      "stateMutability": "nonpayable",
      "type": "function"
    },
    {
      "inputs": [],
      "name": "listarServicos2",
      "outputs": [
        {
          "components": [
            {
              "internalType": "uint256",
              "name": "id",
              "type": "uint256"
            },
            {
              "internalType": "uint256",
              "name": "data",
              "type": "uint256"
            },
            {
              "internalType": "string",
              "name": "descricaoResumida",
              "type": "string"
            },
            {
              "internalType": "string",
              "name": "descricao",
              "type": "string"
            },
            {
              "internalType": "uint256",
              "name": "valor",
              "type": "uint256"
            },
            {
              "internalType": "address",
              "name": "solicitante",
              "type": "address"
            },
            {
              "internalType": "address",
              "name": "executor",
              "type": "address"
            },
            {
              "internalType": "string",
              "name": "uf",
              "type": "string"
            },
            {
              "internalType": "string",
              "name": "nomeToken",
              "type": "string"
            },
            {
              "internalType": "string",
              "name": "simboloToken",
              "type": "string"
            },
            {
              "internalType": "bool",
              "name": "disponivel",
              "type": "bool"
            },
            {
              "internalType": "enum StatusServicoEnum",
              "name": "status",
              "type": "uint8"
            },
            {
              "components": [
                {
                  "internalType": "uint256",
                  "name": "dataCadastro",
                  "type": "uint256"
                },
                {
                  "internalType": "address",
                  "name": "enderecoAgenteFederado",
                  "type": "address"
                },
                {
                  "internalType": "string",
                  "name": "descricao",
                  "type": "string"
                },
                {
                  "internalType": "address",
                  "name": "enderecoCarteira",
                  "type": "address"
                },
                {
                  "internalType": "bool",
                  "name": "cadastrado",
                  "type": "bool"
                }
              ],
              "internalType": "struct SecretariaInfo",
              "name": "secretaria",
              "type": "tuple"
            },
            {
              "components": [
                {
                  "internalType": "uint256",
                  "name": "dataCadastro",
                  "type": "uint256"
                },
                {
                  "internalType": "string",
                  "name": "uf",
                  "type": "string"
                },
                {
                  "internalType": "string",
                  "name": "nome",
                  "type": "string"
                },
                {
                  "internalType": "address",
                  "name": "enderecoCarteira",
                  "type": "address"
                },
                {
                  "internalType": "bool",
                  "name": "cadastrado",
                  "type": "bool"
                },
                {
                  "internalType": "bool",
                  "name": "aprovado",
                  "type": "bool"
                },
                {
                  "internalType": "uint256",
                  "name": "dataAprovacao",
                  "type": "uint256"
                }
              ],
              "internalType": "struct FornecedorInfo",
              "name": "fornecedor",
              "type": "tuple"
            },
            {
              "internalType": "bool",
              "name": "visaoFornecedor",
              "type": "bool"
            },
            {
              "internalType": "bool",
              "name": "visaoAgenteFederado",
              "type": "bool"
            }
          ],
          "internalType": "struct ServicoInfo[]",
          "name": "",
          "type": "tuple[]"
        }
      ],
      "stateMutability": "view",
      "type": "function",
      "constant": true
    },
    {
      "inputs": [],
      "name": "listarServicos",
      "outputs": [
        {
          "components": [
            {
              "internalType": "uint256",
              "name": "id",
              "type": "uint256"
            },
            {
              "internalType": "uint256",
              "name": "data",
              "type": "uint256"
            },
            {
              "internalType": "string",
              "name": "descricaoResumida",
              "type": "string"
            },
            {
              "internalType": "string",
              "name": "descricao",
              "type": "string"
            },
            {
              "internalType": "uint256",
              "name": "valor",
              "type": "uint256"
            },
            {
              "internalType": "address",
              "name": "solicitante",
              "type": "address"
            },
            {
              "internalType": "address",
              "name": "executor",
              "type": "address"
            },
            {
              "internalType": "string",
              "name": "uf",
              "type": "string"
            },
            {
              "internalType": "string",
              "name": "nomeToken",
              "type": "string"
            },
            {
              "internalType": "string",
              "name": "simboloToken",
              "type": "string"
            },
            {
              "internalType": "bool",
              "name": "disponivel",
              "type": "bool"
            },
            {
              "internalType": "enum StatusServicoEnum",
              "name": "status",
              "type": "uint8"
            },
            {
              "components": [
                {
                  "internalType": "uint256",
                  "name": "dataCadastro",
                  "type": "uint256"
                },
                {
                  "internalType": "address",
                  "name": "enderecoAgenteFederado",
                  "type": "address"
                },
                {
                  "internalType": "string",
                  "name": "descricao",
                  "type": "string"
                },
                {
                  "internalType": "address",
                  "name": "enderecoCarteira",
                  "type": "address"
                },
                {
                  "internalType": "bool",
                  "name": "cadastrado",
                  "type": "bool"
                }
              ],
              "internalType": "struct SecretariaInfo",
              "name": "secretaria",
              "type": "tuple"
            },
            {
              "components": [
                {
                  "internalType": "uint256",
                  "name": "dataCadastro",
                  "type": "uint256"
                },
                {
                  "internalType": "string",
                  "name": "uf",
                  "type": "string"
                },
                {
                  "internalType": "string",
                  "name": "nome",
                  "type": "string"
                },
                {
                  "internalType": "address",
                  "name": "enderecoCarteira",
                  "type": "address"
                },
                {
                  "internalType": "bool",
                  "name": "cadastrado",
                  "type": "bool"
                },
                {
                  "internalType": "bool",
                  "name": "aprovado",
                  "type": "bool"
                },
                {
                  "internalType": "uint256",
                  "name": "dataAprovacao",
                  "type": "uint256"
                }
              ],
              "internalType": "struct FornecedorInfo",
              "name": "fornecedor",
              "type": "tuple"
            },
            {
              "internalType": "bool",
              "name": "visaoFornecedor",
              "type": "bool"
            },
            {
              "internalType": "bool",
              "name": "visaoAgenteFederado",
              "type": "bool"
            }
          ],
          "internalType": "struct ServicoInfo[]",
          "name": "listaServicos",
          "type": "tuple[]"
        }
      ],
      "stateMutability": "view",
      "type": "function",
      "constant": true
    },
    {
      "inputs": [
        {
          "internalType": "string",
          "name": "descricaoResumida",
          "type": "string"
        },
        {
          "internalType": "string",
          "name": "descricao",
          "type": "string"
        },
        {
          "internalType": "uint256",
          "name": "valor",
          "type": "uint256"
        }
      ],
      "name": "adicionarServico",
      "outputs": [],
      "stateMutability": "nonpayable",
      "type": "function"
    },
    {
      "inputs": [
        {
          "internalType": "uint256",
          "name": "id",
          "type": "uint256"
        }
      ],
      "name": "executarServico",
      "outputs": [],
      "stateMutability": "nonpayable",
      "type": "function"
    },
    {
      "inputs": [
        {
          "internalType": "uint256",
          "name": "id",
          "type": "uint256"
        }
      ],
      "name": "concluirSolicitarPagamentoServico",
      "outputs": [],
      "stateMutability": "nonpayable",
      "type": "function"
    },
    {
      "inputs": [
        {
          "internalType": "uint256",
          "name": "id",
          "type": "uint256"
        }
      ],
      "name": "liberarPagamentoServico",
      "outputs": [],
      "stateMutability": "nonpayable",
      "type": "function"
    },
    {
      "inputs": [
        {
          "internalType": "uint256",
          "name": "id",
          "type": "uint256"
        }
      ],
      "name": "obterServico",
      "outputs": [
        {
          "components": [
            {
              "internalType": "uint256",
              "name": "id",
              "type": "uint256"
            },
            {
              "internalType": "uint256",
              "name": "data",
              "type": "uint256"
            },
            {
              "internalType": "string",
              "name": "descricaoResumida",
              "type": "string"
            },
            {
              "internalType": "string",
              "name": "descricao",
              "type": "string"
            },
            {
              "internalType": "uint256",
              "name": "valor",
              "type": "uint256"
            },
            {
              "internalType": "address",
              "name": "solicitante",
              "type": "address"
            },
            {
              "internalType": "address",
              "name": "executor",
              "type": "address"
            },
            {
              "internalType": "string",
              "name": "uf",
              "type": "string"
            },
            {
              "internalType": "string",
              "name": "nomeToken",
              "type": "string"
            },
            {
              "internalType": "string",
              "name": "simboloToken",
              "type": "string"
            },
            {
              "internalType": "bool",
              "name": "disponivel",
              "type": "bool"
            },
            {
              "internalType": "enum StatusServicoEnum",
              "name": "status",
              "type": "uint8"
            },
            {
              "components": [
                {
                  "internalType": "uint256",
                  "name": "dataCadastro",
                  "type": "uint256"
                },
                {
                  "internalType": "address",
                  "name": "enderecoAgenteFederado",
                  "type": "address"
                },
                {
                  "internalType": "string",
                  "name": "descricao",
                  "type": "string"
                },
                {
                  "internalType": "address",
                  "name": "enderecoCarteira",
                  "type": "address"
                },
                {
                  "internalType": "bool",
                  "name": "cadastrado",
                  "type": "bool"
                }
              ],
              "internalType": "struct SecretariaInfo",
              "name": "secretaria",
              "type": "tuple"
            },
            {
              "components": [
                {
                  "internalType": "uint256",
                  "name": "dataCadastro",
                  "type": "uint256"
                },
                {
                  "internalType": "string",
                  "name": "uf",
                  "type": "string"
                },
                {
                  "internalType": "string",
                  "name": "nome",
                  "type": "string"
                },
                {
                  "internalType": "address",
                  "name": "enderecoCarteira",
                  "type": "address"
                },
                {
                  "internalType": "bool",
                  "name": "cadastrado",
                  "type": "bool"
                },
                {
                  "internalType": "bool",
                  "name": "aprovado",
                  "type": "bool"
                },
                {
                  "internalType": "uint256",
                  "name": "dataAprovacao",
                  "type": "uint256"
                }
              ],
              "internalType": "struct FornecedorInfo",
              "name": "fornecedor",
              "type": "tuple"
            },
            {
              "internalType": "bool",
              "name": "visaoFornecedor",
              "type": "bool"
            },
            {
              "internalType": "bool",
              "name": "visaoAgenteFederado",
              "type": "bool"
            }
          ],
          "internalType": "struct ServicoInfo",
          "name": "",
          "type": "tuple"
        }
      ],
      "stateMutability": "view",
      "type": "function",
      "constant": true
    }
  ],
  "bytecode": "0x608060405260006001553480156200001657600080fd5b5060405162005e6638038062005e6683398181016040528101906200003c91906200028a565b82600260006101000a81548173ffffffffffffffffffffffffffffffffffffffff021916908373ffffffffffffffffffffffffffffffffffffffff16021790555081600460006101000a81548173ffffffffffffffffffffffffffffffffffffffff021916908373ffffffffffffffffffffffffffffffffffffffff16021790555080600660006101000a81548173ffffffffffffffffffffffffffffffffffffffff021916908373ffffffffffffffffffffffffffffffffffffffff1602179055506040516200010d9062000174565b604051809103906000f0801580156200012a573d6000803e3d6000fd5b50600560006101000a81548173ffffffffffffffffffffffffffffffffffffffff021916908373ffffffffffffffffffffffffffffffffffffffff160217905550505050620002e6565b6103b28062005ab483390190565b600080fd5b600073ffffffffffffffffffffffffffffffffffffffff82169050919050565b6000620001b48262000187565b9050919050565b6000620001c882620001a7565b9050919050565b620001da81620001bb565b8114620001e657600080fd5b50565b600081519050620001fa81620001cf565b92915050565b60006200020d82620001a7565b9050919050565b6200021f8162000200565b81146200022b57600080fd5b50565b6000815190506200023f8162000214565b92915050565b60006200025282620001a7565b9050919050565b620002648162000245565b81146200027057600080fd5b50565b600081519050620002848162000259565b92915050565b600080600060608486031215620002a657620002a562000182565b5b6000620002b686828701620001e9565b9350506020620002c9868287016200022e565b9250506040620002dc8682870162000273565b9150509250925092565b6157be80620002f66000396000f3fe608060405234801561001057600080fd5b50600436106100935760003560e01c8063516c731c11610066578063516c731c1461010c57806364b633e0146101285780636d29974f146101445780639d92b1e314610160578063d6f8aa3c1461017c57610093565b806314fcf06214610098578063273f6b23146100b657806331b1ef4a146100d45780634b12b609146100f0575b600080fd5b6100a06101ac565b6040516100ad91906142da565b60405180910390f35b6100be611580565b6040516100cb91906142da565b60405180910390f35b6100ee60048036038101906100e9919061433c565b611d5f565b005b61010a6004803603810190610105919061433c565b61209b565b005b610126600480360381019061012191906143c1565b6125dc565b005b610142600480360381019061013d919061443f565b6125e0565b005b61015e600480360381019061015991906145a1565b6126b5565b005b61017a6004803603810190610175919061433c565b61304a565b005b6101966004803603810190610191919061433c565b6134a1565b6040516101a391906147ae565b60405180910390f35b60606000600460009054906101000a900473ffffffffffffffffffffffffffffffffffffffff1673ffffffffffffffffffffffffffffffffffffffff166334803e3a336040518263ffffffff1660e01b815260040161020b91906147df565b600060405180830381865afa158015610228573d6000803e3d6000fd5b505050506040513d6000823e3d601f19601f82011682018060405250810190610251919061499f565b905060008160800151801561026757508160a001515b90506000600260009054906101000a900473ffffffffffffffffffffffffffffffffffffffff1673ffffffffffffffffffffffffffffffffffffffff166308944790336040518263ffffffff1660e01b81526004016102c691906147df565b600060405180830381865afa1580156102e3573d6000803e3d6000fd5b505050506040513d6000823e3d601f19601f8201168201806040525081019061030c9190614a90565b6080015190506000808054905090506000805b82811015610bf357600080828154811061033c5761033b614ad9565b5b906000526020600020906015020160405180610200016040529081600082015481526020016001820154815260200160028201805461037a90614b37565b80601f01602080910402602001604051908101604052809291908181526020018280546103a690614b37565b80156103f35780601f106103c8576101008083540402835291602001916103f3565b820191906000526020600020905b8154815290600101906020018083116103d657829003601f168201915b5050505050815260200160038201805461040c90614b37565b80601f016020809104026020016040519081016040528092919081815260200182805461043890614b37565b80156104855780601f1061045a57610100808354040283529160200191610485565b820191906000526020600020905b81548152906001019060200180831161046857829003601f168201915b50505050508152602001600482015481526020016005820160009054906101000a900473ffffffffffffffffffffffffffffffffffffffff1673ffffffffffffffffffffffffffffffffffffffff1673ffffffffffffffffffffffffffffffffffffffff1681526020016006820160009054906101000a900473ffffffffffffffffffffffffffffffffffffffff1673ffffffffffffffffffffffffffffffffffffffff1673ffffffffffffffffffffffffffffffffffffffff16815260200160078201805461055490614b37565b80601f016020809104026020016040519081016040528092919081815260200182805461058090614b37565b80156105cd5780601f106105a2576101008083540402835291602001916105cd565b820191906000526020600020905b8154815290600101906020018083116105b057829003601f168201915b505050505081526020016008820180546105e690614b37565b80601f016020809104026020016040519081016040528092919081815260200182805461061290614b37565b801561065f5780601f106106345761010080835404028352916020019161065f565b820191906000526020600020905b81548152906001019060200180831161064257829003601f168201915b5050505050815260200160098201805461067890614b37565b80601f01602080910402602001604051908101604052809291908181526020018280546106a490614b37565b80156106f15780601f106106c6576101008083540402835291602001916106f1565b820191906000526020600020905b8154815290600101906020018083116106d457829003601f168201915b50505050508152602001600a820160009054906101000a900460ff16151515158152602001600a820160019054906101000a900460ff16600381111561073a57610739613f32565b5b600381111561074c5761074b613f32565b5b8152602001600b82016040518060a0016040529081600082015481526020016001820160009054906101000a900473ffffffffffffffffffffffffffffffffffffffff1673ffffffffffffffffffffffffffffffffffffffff1673ffffffffffffffffffffffffffffffffffffffff1681526020016002820180546107d090614b37565b80601f01602080910402602001604051908101604052809291908181526020018280546107fc90614b37565b80156108495780601f1061081e57610100808354040283529160200191610849565b820191906000526020600020905b81548152906001019060200180831161082c57829003601f168201915b505050505081526020016003820160009054906101000a900473ffffffffffffffffffffffffffffffffffffffff1673ffffffffffffffffffffffffffffffffffffffff1673ffffffffffffffffffffffffffffffffffffffff1681526020016003820160149054906101000a900460ff1615151515815250508152602001600f82016040518060e0016040529081600082015481526020016001820180546108f190614b37565b80601f016020809104026020016040519081016040528092919081815260200182805461091d90614b37565b801561096a5780601f1061093f5761010080835404028352916020019161096a565b820191906000526020600020905b81548152906001019060200180831161094d57829003601f168201915b5050505050815260200160028201805461098390614b37565b80601f01602080910402602001604051908101604052809291908181526020018280546109af90614b37565b80156109fc5780601f106109d1576101008083540402835291602001916109fc565b820191906000526020600020905b8154815290600101906020018083116109df57829003601f168201915b505050505081526020016003820160009054906101000a900473ffffffffffffffffffffffffffffffffffffffff1673ffffffffffffffffffffffffffffffffffffffff1673ffffffffffffffffffffffffffffffffffffffff1681526020016003820160149054906101000a900460ff161515151581526020016003820160159054906101000a900460ff1615151515815260200160048201548152505081526020016014820160009054906101000a900460ff161515151581526020016014820160019054906101000a900460ff16151515158152505090506000868015610b4957503373ffffffffffffffffffffffffffffffffffffffff168260c0015173ffffffffffffffffffffffffffffffffffffffff161480610b48575060006003811115610b2e57610b2d613f32565b5b8261016001516003811115610b4657610b45613f32565b5b145b5b90506000868015610b8957503373ffffffffffffffffffffffffffffffffffffffff168360a0015173ffffffffffffffffffffffffffffffffffffffff16145b9050600380811115610b9e57610b9d613f32565b5b8361016001516003811115610bb657610bb5613f32565b5b14158015610bc957508180610bc85750805b5b15610bdd578480610bd990614b97565b9550505b5050508080610beb90614b97565b91505061031f565b5060008103610c0657505050505061157d565b8067ffffffffffffffff811115610c2057610c1f614476565b5b604051908082528060200260200182016040528015610c5957816020015b610c46613c80565b815260200190600190039081610c3e5790505b5095506000805b83811015611575576000808281548110610c7d57610c7c614ad9565b5b9060005260206000209060150201604051806102000160405290816000820154815260200160018201548152602001600282018054610cbb90614b37565b80601f0160208091040260200160405190810160405280929190818152602001828054610ce790614b37565b8015610d345780601f10610d0957610100808354040283529160200191610d34565b820191906000526020600020905b815481529060010190602001808311610d1757829003601f168201915b50505050508152602001600382018054610d4d90614b37565b80601f0160208091040260200160405190810160405280929190818152602001828054610d7990614b37565b8015610dc65780601f10610d9b57610100808354040283529160200191610dc6565b820191906000526020600020905b815481529060010190602001808311610da957829003601f168201915b50505050508152602001600482015481526020016005820160009054906101000a900473ffffffffffffffffffffffffffffffffffffffff1673ffffffffffffffffffffffffffffffffffffffff1673ffffffffffffffffffffffffffffffffffffffff1681526020016006820160009054906101000a900473ffffffffffffffffffffffffffffffffffffffff1673ffffffffffffffffffffffffffffffffffffffff1673ffffffffffffffffffffffffffffffffffffffff168152602001600782018054610e9590614b37565b80601f0160208091040260200160405190810160405280929190818152602001828054610ec190614b37565b8015610f0e5780601f10610ee357610100808354040283529160200191610f0e565b820191906000526020600020905b815481529060010190602001808311610ef157829003601f168201915b50505050508152602001600882018054610f2790614b37565b80601f0160208091040260200160405190810160405280929190818152602001828054610f5390614b37565b8015610fa05780601f10610f7557610100808354040283529160200191610fa0565b820191906000526020600020905b815481529060010190602001808311610f8357829003601f168201915b50505050508152602001600982018054610fb990614b37565b80601f0160208091040260200160405190810160405280929190818152602001828054610fe590614b37565b80156110325780601f1061100757610100808354040283529160200191611032565b820191906000526020600020905b81548152906001019060200180831161101557829003601f168201915b50505050508152602001600a820160009054906101000a900460ff16151515158152602001600a820160019054906101000a900460ff16600381111561107b5761107a613f32565b5b600381111561108d5761108c613f32565b5b8152602001600b82016040518060a0016040529081600082015481526020016001820160009054906101000a900473ffffffffffffffffffffffffffffffffffffffff1673ffffffffffffffffffffffffffffffffffffffff1673ffffffffffffffffffffffffffffffffffffffff16815260200160028201805461111190614b37565b80601f016020809104026020016040519081016040528092919081815260200182805461113d90614b37565b801561118a5780601f1061115f5761010080835404028352916020019161118a565b820191906000526020600020905b81548152906001019060200180831161116d57829003601f168201915b505050505081526020016003820160009054906101000a900473ffffffffffffffffffffffffffffffffffffffff1673ffffffffffffffffffffffffffffffffffffffff1673ffffffffffffffffffffffffffffffffffffffff1681526020016003820160149054906101000a900460ff1615151515815250508152602001600f82016040518060e00160405290816000820154815260200160018201805461123290614b37565b80601f016020809104026020016040519081016040528092919081815260200182805461125e90614b37565b80156112ab5780601f10611280576101008083540402835291602001916112ab565b820191906000526020600020905b81548152906001019060200180831161128e57829003601f168201915b505050505081526020016002820180546112c490614b37565b80601f01602080910402602001604051908101604052809291908181526020018280546112f090614b37565b801561133d5780601f106113125761010080835404028352916020019161133d565b820191906000526020600020905b81548152906001019060200180831161132057829003601f168201915b505050505081526020016003820160009054906101000a900473ffffffffffffffffffffffffffffffffffffffff1673ffffffffffffffffffffffffffffffffffffffff1673ffffffffffffffffffffffffffffffffffffffff1681526020016003820160149054906101000a900460ff161515151581526020016003820160159054906101000a900460ff1615151515815260200160048201548152505081526020016014820160009054906101000a900460ff161515151581526020016014820160019054906101000a900460ff1615151515815250509050600087801561148a57503373ffffffffffffffffffffffffffffffffffffffff168260c0015173ffffffffffffffffffffffffffffffffffffffff16148061148957506000600381111561146f5761146e613f32565b5b826101600151600381111561148757611486613f32565b5b145b5b905060008780156114ca57503373ffffffffffffffffffffffffffffffffffffffff168360a0015173ffffffffffffffffffffffffffffffffffffffff16145b90506003808111156114df576114de613f32565b5b83610160015160038111156114f7576114f6613f32565b5b1415801561150a575081806115095750805b5b1561155f5781836101c001901515908115158152505080836101e0019015159081151581525050828b868151811061154557611544614ad9565b5b6020026020010181905250848061155b90614b97565b9550505b505050808061156d90614b97565b915050610c60565b505050505050505b90565b60606000805480602002602001604051908101604052809291908181526020016000905b82821015611d5657838290600052602060002090601502016040518061020001604052908160008201548152602001600182015481526020016002820180546115ec90614b37565b80601f016020809104026020016040519081016040528092919081815260200182805461161890614b37565b80156116655780601f1061163a57610100808354040283529160200191611665565b820191906000526020600020905b81548152906001019060200180831161164857829003601f168201915b5050505050815260200160038201805461167e90614b37565b80601f01602080910402602001604051908101604052809291908181526020018280546116aa90614b37565b80156116f75780601f106116cc576101008083540402835291602001916116f7565b820191906000526020600020905b8154815290600101906020018083116116da57829003601f168201915b50505050508152602001600482015481526020016005820160009054906101000a900473ffffffffffffffffffffffffffffffffffffffff1673ffffffffffffffffffffffffffffffffffffffff1673ffffffffffffffffffffffffffffffffffffffff1681526020016006820160009054906101000a900473ffffffffffffffffffffffffffffffffffffffff1673ffffffffffffffffffffffffffffffffffffffff1673ffffffffffffffffffffffffffffffffffffffff1681526020016007820180546117c690614b37565b80601f01602080910402602001604051908101604052809291908181526020018280546117f290614b37565b801561183f5780601f106118145761010080835404028352916020019161183f565b820191906000526020600020905b81548152906001019060200180831161182257829003601f168201915b5050505050815260200160088201805461185890614b37565b80601f016020809104026020016040519081016040528092919081815260200182805461188490614b37565b80156118d15780601f106118a6576101008083540402835291602001916118d1565b820191906000526020600020905b8154815290600101906020018083116118b457829003601f168201915b505050505081526020016009820180546118ea90614b37565b80601f016020809104026020016040519081016040528092919081815260200182805461191690614b37565b80156119635780601f1061193857610100808354040283529160200191611963565b820191906000526020600020905b81548152906001019060200180831161194657829003601f168201915b50505050508152602001600a820160009054906101000a900460ff16151515158152602001600a820160019054906101000a900460ff1660038111156119ac576119ab613f32565b5b60038111156119be576119bd613f32565b5b8152602001600b82016040518060a0016040529081600082015481526020016001820160009054906101000a900473ffffffffffffffffffffffffffffffffffffffff1673ffffffffffffffffffffffffffffffffffffffff1673ffffffffffffffffffffffffffffffffffffffff168152602001600282018054611a4290614b37565b80601f0160208091040260200160405190810160405280929190818152602001828054611a6e90614b37565b8015611abb5780601f10611a9057610100808354040283529160200191611abb565b820191906000526020600020905b815481529060010190602001808311611a9e57829003601f168201915b505050505081526020016003820160009054906101000a900473ffffffffffffffffffffffffffffffffffffffff1673ffffffffffffffffffffffffffffffffffffffff1673ffffffffffffffffffffffffffffffffffffffff1681526020016003820160149054906101000a900460ff1615151515815250508152602001600f82016040518060e001604052908160008201548152602001600182018054611b6390614b37565b80601f0160208091040260200160405190810160405280929190818152602001828054611b8f90614b37565b8015611bdc5780601f10611bb157610100808354040283529160200191611bdc565b820191906000526020600020905b815481529060010190602001808311611bbf57829003601f168201915b50505050508152602001600282018054611bf590614b37565b80601f0160208091040260200160405190810160405280929190818152602001828054611c2190614b37565b8015611c6e5780601f10611c4357610100808354040283529160200191611c6e565b820191906000526020600020905b815481529060010190602001808311611c5157829003601f168201915b505050505081526020016003820160009054906101000a900473ffffffffffffffffffffffffffffffffffffffff1673ffffffffffffffffffffffffffffffffffffffff1673ffffffffffffffffffffffffffffffffffffffff1681526020016003820160149054906101000a900460ff161515151581526020016003820160159054906101000a900460ff1615151515815260200160048201548152505081526020016014820160009054906101000a900460ff161515151581526020016014820160019054906101000a900460ff161515151581525050815260200190600101906115a4565b50505050905090565b600460009054906101000a900473ffffffffffffffffffffffffffffffffffffffff1673ffffffffffffffffffffffffffffffffffffffff166334803e3a336040518263ffffffff1660e01b8152600401611dba91906147df565b600060405180830381865afa158015611dd7573d6000803e3d6000fd5b505050506040513d6000823e3d601f19601f82011682018060405250810190611e00919061499f565b60800151611e43576040517f08c379a0000000000000000000000000000000000000000000000000000000008152600401611e3a90614c62565b60405180910390fd5b6000611e4e82613c65565b905060016003811115611e6457611e63613f32565b5b60008281548110611e7857611e77614ad9565b5b9060005260206000209060150201600a0160019054906101000a900460ff166003811115611ea957611ea8613f32565b5b14611ee9576040517f08c379a0000000000000000000000000000000000000000000000000000000008152600401611ee090614d1a565b60405180910390fd5b6000600460009054906101000a900473ffffffffffffffffffffffffffffffffffffffff1673ffffffffffffffffffffffffffffffffffffffff166334803e3a336040518263ffffffff1660e01b8152600401611f4691906147df565b600060405180830381865afa158015611f63573d6000803e3d6000fd5b505050506040513d6000823e3d601f19601f82011682018060405250810190611f8c919061499f565b905060008281548110611fa257611fa1614ad9565b5b9060005260206000209060150201600f0160030160009054906101000a900473ffffffffffffffffffffffffffffffffffffffff1673ffffffffffffffffffffffffffffffffffffffff16816060015173ffffffffffffffffffffffffffffffffffffffff1614612048576040517f08c379a000000000000000000000000000000000000000000000000000000000815260040161203f90614df8565b60405180910390fd5b60026000838154811061205e5761205d614ad9565b5b9060005260206000209060150201600a0160016101000a81548160ff0219169083600381111561209157612090613f32565b5b0217905550505050565b600260009054906101000a900473ffffffffffffffffffffffffffffffffffffffff1673ffffffffffffffffffffffffffffffffffffffff166308944790336040518263ffffffff1660e01b81526004016120f691906147df565b600060405180830381865afa158015612113573d6000803e3d6000fd5b505050506040513d6000823e3d601f19601f8201168201806040525081019061213c9190614a90565b6080015161217f576040517f08c379a000000000000000000000000000000000000000000000000000000000815260040161217690614e8a565b60405180910390fd5b600061218a82613c65565b9050600260038111156121a05761219f613f32565b5b600082815481106121b4576121b3614ad9565b5b9060005260206000209060150201600a0160019054906101000a900460ff1660038111156121e5576121e4613f32565b5b14612225576040517f08c379a000000000000000000000000000000000000000000000000000000000815260040161221c90614f1c565b60405180910390fd5b6000600260009054906101000a900473ffffffffffffffffffffffffffffffffffffffff1673ffffffffffffffffffffffffffffffffffffffff166308944790336040518263ffffffff1660e01b815260040161228291906147df565b600060405180830381865afa15801561229f573d6000803e3d6000fd5b505050506040513d6000823e3d601f19601f820116820180604052508101906122c89190614a90565b9050600082815481106122de576122dd614ad9565b5b906000526020600020906015020160050160009054906101000a900473ffffffffffffffffffffffffffffffffffffffff1673ffffffffffffffffffffffffffffffffffffffff16816060015173ffffffffffffffffffffffffffffffffffffffff1614612381576040517f08c379a000000000000000000000000000000000000000000000000000000000815260040161237890614fae565b60405180910390fd5b60036000838154811061239757612396614ad9565b5b9060005260206000209060150201600a0160016101000a81548160ff021916908360038111156123ca576123c9613f32565b5b0217905550600660009054906101000a900473ffffffffffffffffffffffffffffffffffffffff1673ffffffffffffffffffffffffffffffffffffffff1663095ea7b3600360009054906101000a900473ffffffffffffffffffffffffffffffffffffffff166000858154811061244457612443614ad9565b5b9060005260206000209060150201600401546040518363ffffffff1660e01b8152600401612473929190614fdd565b6020604051808303816000875af1158015612492573d6000803e3d6000fd5b505050506040513d601f19601f820116820180604052508101906124b69190615006565b50600360009054906101000a900473ffffffffffffffffffffffffffffffffffffffff1673ffffffffffffffffffffffffffffffffffffffff16630de586c16000848154811061250957612508614ad9565b5b906000526020600020906015020160060160009054906101000a900473ffffffffffffffffffffffffffffffffffffffff166000858154811061254f5761254e614ad9565b5b9060005260206000209060150201600001546000868154811061257557612574614ad9565b5b9060005260206000209060150201600401546040518463ffffffff1660e01b81526004016125a593929190615033565b600060405180830381600087803b1580156125bf57600080fd5b505af11580156125d3573d6000803e3d6000fd5b50505050505050565b5050565b600073ffffffffffffffffffffffffffffffffffffffff16600360009054906101000a900473ffffffffffffffffffffffffffffffffffffffff1673ffffffffffffffffffffffffffffffffffffffff1614612671576040517f08c379a0000000000000000000000000000000000000000000000000000000008152600401612668906150b6565b60405180910390fd5b80600360006101000a81548173ffffffffffffffffffffffffffffffffffffffff021916908373ffffffffffffffffffffffffffffffffffffffff16021790555050565b6000600260009054906101000a900473ffffffffffffffffffffffffffffffffffffffff1673ffffffffffffffffffffffffffffffffffffffff166308944790336040518263ffffffff1660e01b815260040161271291906147df565b600060405180830381865afa15801561272f573d6000803e3d6000fd5b505050506040513d6000823e3d601f19601f820116820180604052508101906127589190614a90565b9050806080015161279e576040517f08c379a000000000000000000000000000000000000000000000000000000000815260040161279590615148565b60405180910390fd5b6127a6613c80565b6001600081546127b590614b97565b919050819055816000018181525050848160400181905250838160600181905250828160800181815250506001816101400190151590811515815250506000816101600190600381111561280c5761280b613f32565b5b908160038111156128205761281f613f32565b5b81525050338160a0019073ffffffffffffffffffffffffffffffffffffffff16908173ffffffffffffffffffffffffffffffffffffffff168152505060008160c0019073ffffffffffffffffffffffffffffffffffffffff16908173ffffffffffffffffffffffffffffffffffffffff16815250506103e8426128a39190615168565b81602001818152505081816101800181905250600660009054906101000a900473ffffffffffffffffffffffffffffffffffffffff1673ffffffffffffffffffffffffffffffffffffffff166306fdde036040518163ffffffff1660e01b8152600401600060405180830381865afa158015612923573d6000803e3d6000fd5b505050506040513d6000823e3d601f19601f8201168201806040525081019061294c91906151aa565b816101000181905250600660009054906101000a900473ffffffffffffffffffffffffffffffffffffffff1673ffffffffffffffffffffffffffffffffffffffff166395d89b416040518163ffffffff1660e01b8152600401600060405180830381865afa1580156129c2573d6000803e3d6000fd5b505050506040513d6000823e3d601f19601f820116820180604052508101906129eb91906151aa565b816101200181905250600081908060018154018082558091505060019003906000526020600020906015020160009091909190915060008201518160000155602082015181600101556040820151816002019081612a49919061539f565b506060820151816003019081612a5f919061539f565b506080820151816004015560a08201518160050160006101000a81548173ffffffffffffffffffffffffffffffffffffffff021916908373ffffffffffffffffffffffffffffffffffffffff16021790555060c08201518160060160006101000a81548173ffffffffffffffffffffffffffffffffffffffff021916908373ffffffffffffffffffffffffffffffffffffffff16021790555060e0820151816007019081612b0d919061539f565b50610100820151816008019081612b24919061539f565b50610120820151816009019081612b3b919061539f565b5061014082015181600a0160006101000a81548160ff02191690831515021790555061016082015181600a0160016101000a81548160ff02191690836003811115612b8957612b88613f32565b5b021790555061018082015181600b016000820151816000015560208201518160010160006101000a81548173ffffffffffffffffffffffffffffffffffffffff021916908373ffffffffffffffffffffffffffffffffffffffff1602179055506040820151816002019081612bfe919061539f565b5060608201518160030160006101000a81548173ffffffffffffffffffffffffffffffffffffffff021916908373ffffffffffffffffffffffffffffffffffffffff16021790555060808201518160030160146101000a81548160ff02191690831515021790555050506101a082015181600f01600082015181600001556020820151816001019081612c91919061539f565b506040820151816002019081612ca7919061539f565b5060608201518160030160006101000a81548173ffffffffffffffffffffffffffffffffffffffff021916908373ffffffffffffffffffffffffffffffffffffffff16021790555060808201518160030160146101000a81548160ff02191690831515021790555060a08201518160030160156101000a81548160ff02191690831515021790555060c0820151816004015550506101c08201518160140160006101000a81548160ff0219169083151502179055506101e08201518160140160016101000a81548160ff0219169083151502179055505050600660009054906101000a900473ffffffffffffffffffffffffffffffffffffffff1673ffffffffffffffffffffffffffffffffffffffff166323b872dd836060015130866040518463ffffffff1660e01b8152600401612de293929190615471565b6020604051808303816000875af1158015612e01573d6000803e3d6000fd5b505050506040513d601f19601f82011682018060405250810190612e259190615006565b50600260009054906101000a900473ffffffffffffffffffffffffffffffffffffffff1673ffffffffffffffffffffffffffffffffffffffff166378905bc283606001516040518060e00160405280856020015181526020018560400151604051602001612e93919061550a565b60405160208183030381529060405281526020018781526020016040518060400160405280600181526020017f440000000000000000000000000000000000000000000000000000000000000081525081526020013073ffffffffffffffffffffffffffffffffffffffff168152602001866060015173ffffffffffffffffffffffffffffffffffffffff168152602001600660009054906101000a900473ffffffffffffffffffffffffffffffffffffffff1673ffffffffffffffffffffffffffffffffffffffff166395d89b416040518163ffffffff1660e01b8152600401600060405180830381865afa158015612f91573d6000803e3d6000fd5b505050506040513d6000823e3d601f19601f82011682018060405250810190612fba91906151aa565b8152506040518363ffffffff1660e01b8152600401612fda9291906155da565b600060405180830381600087803b158015612ff457600080fd5b505af1158015613008573d6000803e3d6000fd5b505050507ff8134b00e257b1d9ca255818af3b091d768249fa1d016ace0f7b9e2fc0235f428160405161303b91906147ae565b60405180910390a15050505050565b600460009054906101000a900473ffffffffffffffffffffffffffffffffffffffff1673ffffffffffffffffffffffffffffffffffffffff166334803e3a336040518263ffffffff1660e01b81526004016130a591906147df565b600060405180830381865afa1580156130c2573d6000803e3d6000fd5b505050506040513d6000823e3d601f19601f820116820180604052508101906130eb919061499f565b6080015161312e576040517f08c379a000000000000000000000000000000000000000000000000000000000815260040161312590614c62565b60405180910390fd5b600061313982613c65565b90506000600381111561314f5761314e613f32565b5b6000828154811061316357613162614ad9565b5b9060005260206000209060150201600a0160019054906101000a900460ff16600381111561319457613193613f32565b5b146131d4576040517f08c379a00000000000000000000000000000000000000000000000000000000081526004016131cb9061567c565b60405180910390fd5b6000600460009054906101000a900473ffffffffffffffffffffffffffffffffffffffff1673ffffffffffffffffffffffffffffffffffffffff166334803e3a336040518263ffffffff1660e01b815260040161323191906147df565b600060405180830381865afa15801561324e573d6000803e3d6000fd5b505050506040513d6000823e3d601f19601f82011682018060405250810190613277919061499f565b90508060a001516132bd576040517f08c379a00000000000000000000000000000000000000000000000000000000081526004016132b490615734565b60405180910390fd5b80600083815481106132d2576132d1614ad9565b5b9060005260206000209060150201600f01600082015181600001556020820151816001019081613302919061539f565b506040820151816002019081613318919061539f565b5060608201518160030160006101000a81548173ffffffffffffffffffffffffffffffffffffffff021916908373ffffffffffffffffffffffffffffffffffffffff16021790555060808201518160030160146101000a81548160ff02191690831515021790555060a08201518160030160156101000a81548160ff02191690831515021790555060c0820151816004015590505033600083815481106133c2576133c1614ad9565b5b906000526020600020906015020160060160006101000a81548173ffffffffffffffffffffffffffffffffffffffff021916908373ffffffffffffffffffffffffffffffffffffffff160217905550600080838154811061342657613425614ad9565b5b9060005260206000209060150201600a0160006101000a81548160ff02191690831515021790555060016000838154811061346457613463614ad9565b5b9060005260206000209060150201600a0160016101000a81548160ff0219169083600381111561349757613496613f32565b5b0217905550505050565b6134a9613c80565b60006134b483613c65565b815481106134c5576134c4614ad9565b5b906000526020600020906015020160405180610200016040529081600082015481526020016001820154815260200160028201805461350390614b37565b80601f016020809104026020016040519081016040528092919081815260200182805461352f90614b37565b801561357c5780601f106135515761010080835404028352916020019161357c565b820191906000526020600020905b81548152906001019060200180831161355f57829003601f168201915b5050505050815260200160038201805461359590614b37565b80601f01602080910402602001604051908101604052809291908181526020018280546135c190614b37565b801561360e5780601f106135e35761010080835404028352916020019161360e565b820191906000526020600020905b8154815290600101906020018083116135f157829003601f168201915b50505050508152602001600482015481526020016005820160009054906101000a900473ffffffffffffffffffffffffffffffffffffffff1673ffffffffffffffffffffffffffffffffffffffff1673ffffffffffffffffffffffffffffffffffffffff1681526020016006820160009054906101000a900473ffffffffffffffffffffffffffffffffffffffff1673ffffffffffffffffffffffffffffffffffffffff1673ffffffffffffffffffffffffffffffffffffffff1681526020016007820180546136dd90614b37565b80601f016020809104026020016040519081016040528092919081815260200182805461370990614b37565b80156137565780601f1061372b57610100808354040283529160200191613756565b820191906000526020600020905b81548152906001019060200180831161373957829003601f168201915b5050505050815260200160088201805461376f90614b37565b80601f016020809104026020016040519081016040528092919081815260200182805461379b90614b37565b80156137e85780601f106137bd576101008083540402835291602001916137e8565b820191906000526020600020905b8154815290600101906020018083116137cb57829003601f168201915b5050505050815260200160098201805461380190614b37565b80601f016020809104026020016040519081016040528092919081815260200182805461382d90614b37565b801561387a5780601f1061384f5761010080835404028352916020019161387a565b820191906000526020600020905b81548152906001019060200180831161385d57829003601f168201915b50505050508152602001600a820160009054906101000a900460ff16151515158152602001600a820160019054906101000a900460ff1660038111156138c3576138c2613f32565b5b60038111156138d5576138d4613f32565b5b8152602001600b82016040518060a0016040529081600082015481526020016001820160009054906101000a900473ffffffffffffffffffffffffffffffffffffffff1673ffffffffffffffffffffffffffffffffffffffff1673ffffffffffffffffffffffffffffffffffffffff16815260200160028201805461395990614b37565b80601f016020809104026020016040519081016040528092919081815260200182805461398590614b37565b80156139d25780601f106139a7576101008083540402835291602001916139d2565b820191906000526020600020905b8154815290600101906020018083116139b557829003601f168201915b505050505081526020016003820160009054906101000a900473ffffffffffffffffffffffffffffffffffffffff1673ffffffffffffffffffffffffffffffffffffffff1673ffffffffffffffffffffffffffffffffffffffff1681526020016003820160149054906101000a900460ff1615151515815250508152602001600f82016040518060e001604052908160008201548152602001600182018054613a7a90614b37565b80601f0160208091040260200160405190810160405280929190818152602001828054613aa690614b37565b8015613af35780601f10613ac857610100808354040283529160200191613af3565b820191906000526020600020905b815481529060010190602001808311613ad657829003601f168201915b50505050508152602001600282018054613b0c90614b37565b80601f0160208091040260200160405190810160405280929190818152602001828054613b3890614b37565b8015613b855780601f10613b5a57610100808354040283529160200191613b85565b820191906000526020600020905b815481529060010190602001808311613b6857829003601f168201915b505050505081526020016003820160009054906101000a900473ffffffffffffffffffffffffffffffffffffffff1673ffffffffffffffffffffffffffffffffffffffff1673ffffffffffffffffffffffffffffffffffffffff1681526020016003820160149054906101000a900460ff161515151581526020016003820160159054906101000a900460ff1615151515815260200160048201548152505081526020016014820160009054906101000a900460ff161515151581526020016014820160019054906101000a900460ff1615151515815250509050919050565b600080600183613c759190615754565b905080915050919050565b6040518061020001604052806000815260200160008152602001606081526020016060815260200160008152602001600073ffffffffffffffffffffffffffffffffffffffff168152602001600073ffffffffffffffffffffffffffffffffffffffff16815260200160608152602001606081526020016060815260200160001515815260200160006003811115613d1b57613d1a613f32565b5b8152602001613d28613d4d565b8152602001613d35613daa565b81526020016000151581526020016000151581525090565b6040518060a0016040528060008152602001600073ffffffffffffffffffffffffffffffffffffffff16815260200160608152602001600073ffffffffffffffffffffffffffffffffffffffff1681526020016000151581525090565b6040518060e00160405280600081526020016060815260200160608152602001600073ffffffffffffffffffffffffffffffffffffffff168152602001600015158152602001600015158152602001600081525090565b600081519050919050565b600082825260208201905092915050565b6000819050602082019050919050565b6000819050919050565b613e4081613e2d565b82525050565b600081519050919050565b600082825260208201905092915050565b60005b83811015613e80578082015181840152602081019050613e65565b60008484015250505050565b6000601f19601f8301169050919050565b6000613ea882613e46565b613eb28185613e51565b9350613ec2818560208601613e62565b613ecb81613e8c565b840191505092915050565b600073ffffffffffffffffffffffffffffffffffffffff82169050919050565b6000613f0182613ed6565b9050919050565b613f1181613ef6565b82525050565b60008115159050919050565b613f2c81613f17565b82525050565b7f4e487b7100000000000000000000000000000000000000000000000000000000600052602160045260246000fd5b60048110613f7257613f71613f32565b5b50565b6000819050613f8382613f61565b919050565b6000613f9382613f75565b9050919050565b613fa381613f88565b82525050565b600060a083016000830151613fc16000860182613e37565b506020830151613fd46020860182613f08565b5060408301518482036040860152613fec8282613e9d565b91505060608301516140016060860182613f08565b5060808301516140146080860182613f23565b508091505092915050565b600060e0830160008301516140376000860182613e37565b506020830151848203602086015261404f8282613e9d565b915050604083015184820360408601526140698282613e9d565b915050606083015161407e6060860182613f08565b5060808301516140916080860182613f23565b5060a08301516140a460a0860182613f23565b5060c08301516140b760c0860182613e37565b508091505092915050565b6000610200830160008301516140db6000860182613e37565b5060208301516140ee6020860182613e37565b50604083015184820360408601526141068282613e9d565b915050606083015184820360608601526141208282613e9d565b91505060808301516141356080860182613e37565b5060a083015161414860a0860182613f08565b5060c083015161415b60c0860182613f08565b5060e083015184820360e08601526141738282613e9d565b91505061010083015184820361010086015261418f8282613e9d565b9150506101208301518482036101208601526141ab8282613e9d565b9150506101408301516141c2610140860182613f23565b506101608301516141d7610160860182613f9a565b506101808301518482036101808601526141f18282613fa9565b9150506101a08301518482036101a086015261420d828261401f565b9150506101c08301516142246101c0860182613f23565b506101e08301516142396101e0860182613f23565b508091505092915050565b600061425083836140c2565b905092915050565b6000602082019050919050565b600061427082613e01565b61427a8185613e0c565b93508360208202850161428c85613e1d565b8060005b858110156142c857848403895281516142a98582614244565b94506142b483614258565b925060208a01995050600181019050614290565b50829750879550505050505092915050565b600060208201905081810360008301526142f48184614265565b905092915050565b6000604051905090565b600080fd5b600080fd5b61431981613e2d565b811461432457600080fd5b50565b60008135905061433681614310565b92915050565b60006020828403121561435257614351614306565b5b600061436084828501614327565b91505092915050565b61437281613ef6565b811461437d57600080fd5b50565b60008135905061438f81614369565b92915050565b61439e81613f17565b81146143a957600080fd5b50565b6000813590506143bb81614395565b92915050565b600080604083850312156143d8576143d7614306565b5b60006143e685828601614380565b92505060206143f7858286016143ac565b9150509250929050565b600061440c82613ef6565b9050919050565b61441c81614401565b811461442757600080fd5b50565b60008135905061443981614413565b92915050565b60006020828403121561445557614454614306565b5b60006144638482850161442a565b91505092915050565b600080fd5b600080fd5b7f4e487b7100000000000000000000000000000000000000000000000000000000600052604160045260246000fd5b6144ae82613e8c565b810181811067ffffffffffffffff821117156144cd576144cc614476565b5b80604052505050565b60006144e06142fc565b90506144ec82826144a5565b919050565b600067ffffffffffffffff82111561450c5761450b614476565b5b61451582613e8c565b9050602081019050919050565b82818337600083830152505050565b600061454461453f846144f1565b6144d6565b9050828152602081018484840111156145605761455f614471565b5b61456b848285614522565b509392505050565b600082601f8301126145885761458761446c565b5b8135614598848260208601614531565b91505092915050565b6000806000606084860312156145ba576145b9614306565b5b600084013567ffffffffffffffff8111156145d8576145d761430b565b5b6145e486828701614573565b935050602084013567ffffffffffffffff8111156146055761460461430b565b5b61461186828701614573565b925050604061462286828701614327565b9150509250925092565b6000610200830160008301516146456000860182613e37565b5060208301516146586020860182613e37565b50604083015184820360408601526146708282613e9d565b9150506060830151848203606086015261468a8282613e9d565b915050608083015161469f6080860182613e37565b5060a08301516146b260a0860182613f08565b5060c08301516146c560c0860182613f08565b5060e083015184820360e08601526146dd8282613e9d565b9150506101008301518482036101008601526146f98282613e9d565b9150506101208301518482036101208601526147158282613e9d565b91505061014083015161472c610140860182613f23565b50610160830151614741610160860182613f9a565b5061018083015184820361018086015261475b8282613fa9565b9150506101a08301518482036101a0860152614777828261401f565b9150506101c083015161478e6101c0860182613f23565b506101e08301516147a36101e0860182613f23565b508091505092915050565b600060208201905081810360008301526147c8818461462c565b905092915050565b6147d981613ef6565b82525050565b60006020820190506147f460008301846147d0565b92915050565b600080fd5b600080fd5b60008151905061481381614310565b92915050565b600061482c614827846144f1565b6144d6565b90508281526020810184848401111561484857614847614471565b5b614853848285613e62565b509392505050565b600082601f8301126148705761486f61446c565b5b8151614880848260208601614819565b91505092915050565b60008151905061489881614369565b92915050565b6000815190506148ad81614395565b92915050565b600060e082840312156148c9576148c86147fa565b5b6148d360e06144d6565b905060006148e384828501614804565b600083015250602082015167ffffffffffffffff811115614907576149066147ff565b5b6149138482850161485b565b602083015250604082015167ffffffffffffffff811115614937576149366147ff565b5b6149438482850161485b565b604083015250606061495784828501614889565b606083015250608061496b8482850161489e565b60808301525060a061497f8482850161489e565b60a08301525060c061499384828501614804565b60c08301525092915050565b6000602082840312156149b5576149b4614306565b5b600082015167ffffffffffffffff8111156149d3576149d261430b565b5b6149df848285016148b3565b91505092915050565b600060a082840312156149fe576149fd6147fa565b5b614a0860a06144d6565b90506000614a1884828501614804565b6000830152506020614a2c84828501614889565b602083015250604082015167ffffffffffffffff811115614a5057614a4f6147ff565b5b614a5c8482850161485b565b6040830152506060614a7084828501614889565b6060830152506080614a848482850161489e565b60808301525092915050565b600060208284031215614aa657614aa5614306565b5b600082015167ffffffffffffffff811115614ac457614ac361430b565b5b614ad0848285016149e8565b91505092915050565b7f4e487b7100000000000000000000000000000000000000000000000000000000600052603260045260246000fd5b7f4e487b7100000000000000000000000000000000000000000000000000000000600052602260045260246000fd5b60006002820490506001821680614b4f57607f821691505b602082108103614b6257614b61614b08565b5b50919050565b7f4e487b7100000000000000000000000000000000000000000000000000000000600052601160045260246000fd5b6000614ba282613e2d565b91507fffffffffffffffffffffffffffffffffffffffffffffffffffffffffffffffff8203614bd457614bd3614b68565b5b600182019050919050565b600082825260208201905092915050565b7f4f70657261c3a7c3a36f207065726d6974696461206170656e6173207061726160008201527f20466f726e656365646f7265732e000000000000000000000000000000000000602082015250565b6000614c4c602e83614bdf565b9150614c5782614bf0565b604082019050919050565b60006020820190508181036000830152614c7b81614c3f565b9050919050565b7f45737465207365727669c3a76f206ec3a36f20657374c3a120656d206578656360008201527f75c3a7c3a36f20652073657520706167616d656e746f206ec3a36f20706f646560208201527f2073657220736f6c6963697461646f2e00000000000000000000000000000000604082015250565b6000614d04605083614bdf565b9150614d0f82614c82565b606082019050919050565b60006020820190508181036000830152614d3381614cf7565b9050919050565b7f4120436f6e636c7573c3a36f20646f205365727669c3a76f2065206120536f6c60008201527f6963697461c3a7c3a36f20646520506167616d656e746f2073c3b320706f646560208201527f6d20736572207265616c697a6164612070656c6f206578656375746f7220646f60408201527f207365727669c3a76f2e00000000000000000000000000000000000000000000606082015250565b6000614de2606a83614bdf565b9150614ded82614d3a565b608082019050919050565b60006020820190508181036000830152614e1181614dd5565b9050919050565b7f4f70657261c3a7c3a36f207065726d6974696461206170656e6173207061726160008201527f20756d6120536563726574617269612e00000000000000000000000000000000602082015250565b6000614e74603083614bdf565b9150614e7f82614e18565b604082019050919050565b60006020820190508181036000830152614ea381614e67565b9050919050565b7f45737465207365727669c3a76f206ec3a36f20657374c3a1206167756172646160008201527f6e646f20706167616d656e746f2e000000000000000000000000000000000000602082015250565b6000614f06602e83614bdf565b9150614f1182614eaa565b604082019050919050565b60006020820190508181036000830152614f3581614ef9565b9050919050565b7f536f6d656e7465206f20736f6c69636974616e746520646f207365727669c3a760008201527f6f20706f6465206c696265726172206f20706167616d656e746f2e0000000000602082015250565b6000614f98603b83614bdf565b9150614fa382614f3c565b604082019050919050565b60006020820190508181036000830152614fc781614f8b565b9050919050565b614fd781613e2d565b82525050565b6000604082019050614ff260008301856147d0565b614fff6020830184614fce565b9392505050565b60006020828403121561501c5761501b614306565b5b600061502a8482850161489e565b91505092915050565b600060608201905061504860008301866147d0565b6150556020830185614fce565b6150626040830184614fce565b949350505050565b7f4120636f6e7461206c617374726f206ac3a120666f69207365746164612e0000600082015250565b60006150a0601e83614bdf565b91506150ab8261506a565b602082019050919050565b600060208201905081810360008301526150cf81615093565b9050919050565b7f536f6d656e746520756d61207365637265746172696120706f646520736f6c6960008201527f636974617220756d207365727669c3a76f2e0000000000000000000000000000602082015250565b6000615132603283614bdf565b915061513d826150d6565b604082019050919050565b6000602082019050818103600083015261516181615125565b9050919050565b600061517382613e2d565b915061517e83613e2d565b925082820261518c81613e2d565b915082820484148315176151a3576151a2614b68565b5b5092915050565b6000602082840312156151c0576151bf614306565b5b600082015167ffffffffffffffff8111156151de576151dd61430b565b5b6151ea8482850161485b565b91505092915050565b60008190508160005260206000209050919050565b60006020601f8301049050919050565b600082821b905092915050565b6000600883026152557fffffffffffffffffffffffffffffffffffffffffffffffffffffffffffffffff82615218565b61525f8683615218565b95508019841693508086168417925050509392505050565b6000819050919050565b600061529c61529761529284613e2d565b615277565b613e2d565b9050919050565b6000819050919050565b6152b683615281565b6152ca6152c2826152a3565b848454615225565b825550505050565b600090565b6152df6152d2565b6152ea8184846152ad565b505050565b5b8181101561530e576153036000826152d7565b6001810190506152f0565b5050565b601f82111561535357615324816151f3565b61532d84615208565b8101602085101561533c578190505b61535061534885615208565b8301826152ef565b50505b505050565b600082821c905092915050565b600061537660001984600802615358565b1980831691505092915050565b600061538f8383615365565b9150826002028217905092915050565b6153a882613e46565b67ffffffffffffffff8111156153c1576153c0614476565b5b6153cb8254614b37565b6153d6828285615312565b600060209050601f83116001811461540957600084156153f7578287015190505b6154018582615383565b865550615469565b601f198416615417866151f3565b60005b8281101561543f5784890151825560018201915060208501945060208101905061541a565b8683101561545c5784890151615458601f891682615365565b8355505b6001600288020188555050505b505050505050565b600060608201905061548660008301866147d0565b61549360208301856147d0565b6154a06040830184614fce565b949350505050565b7f52657365727661206465205365727669c3a76f202d2000000000000000000000815250565b600081905092915050565b60006154e482613e46565b6154ee81856154ce565b93506154fe818560208601613e62565b80840191505092915050565b6000615515826154a8565b60168201915061552582846154d9565b915081905092915050565b600060e0830160008301516155486000860182613e37565b50602083015184820360208601526155608282613e9d565b91505060408301516155756040860182613e37565b506060830151848203606086015261558d8282613e9d565b91505060808301516155a26080860182613f08565b5060a08301516155b560a0860182613f08565b5060c083015184820360c08601526155cd8282613e9d565b9150508091505092915050565b60006040820190506155ef60008301856147d0565b81810360208301526156018184615530565b90509392505050565b7f45737465207365727669c3a76f206ec3a36f20657374c3a1206d61697320646960008201527f73706f6ec3ad76656c2070617261206578656375c3a7c3a36f2e000000000000602082015250565b6000615666603a83614bdf565b91506156718261560a565b604082019050919050565b6000602082019050818103600083015261569581615659565b9050919050565b7f4170656e617320466f726e656365646f72657320636f6d20636164617374726f60008201527f206170726f7661646f20706f64656d20657865637574617220756d207365727660208201527f69c3a76f2e000000000000000000000000000000000000000000000000000000604082015250565b600061571e604583614bdf565b91506157298261569c565b606082019050919050565b6000602082019050818103600083015261574d81615711565b9050919050565b600061575f82613e2d565b915061576a83613e2d565b925082820390508181111561578257615781614b68565b5b9291505056fea2646970667358221220102dd20be8faecbf5c9427b749ccdb7681ff81cec8fbdcaa900dcbca5b8595b964736f6c63430008130033608060405234801561001057600080fd5b50610392806100206000396000f3fe608060405234801561001057600080fd5b506004361061002b5760003560e01c80633a96fdd714610030575b600080fd5b61004a60048036038101906100459190610226565b610060565b60405161005791906102b9565b60405180910390f35b6000815183511461007457600090506100c6565b816040516020016100859190610345565b60405160208183030381529060405280519060200120836040516020016100ac9190610345565b604051602081830303815290604052805190602001201490505b92915050565b6000604051905090565b600080fd5b600080fd5b600080fd5b600080fd5b6000601f19601f8301169050919050565b7f4e487b7100000000000000000000000000000000000000000000000000000000600052604160045260246000fd5b610133826100ea565b810181811067ffffffffffffffff82111715610152576101516100fb565b5b80604052505050565b60006101656100cc565b9050610171828261012a565b919050565b600067ffffffffffffffff821115610191576101906100fb565b5b61019a826100ea565b9050602081019050919050565b82818337600083830152505050565b60006101c96101c484610176565b61015b565b9050828152602081018484840111156101e5576101e46100e5565b5b6101f08482856101a7565b509392505050565b600082601f83011261020d5761020c6100e0565b5b813561021d8482602086016101b6565b91505092915050565b6000806040838503121561023d5761023c6100d6565b5b600083013567ffffffffffffffff81111561025b5761025a6100db565b5b610267858286016101f8565b925050602083013567ffffffffffffffff811115610288576102876100db565b5b610294858286016101f8565b9150509250929050565b60008115159050919050565b6102b38161029e565b82525050565b60006020820190506102ce60008301846102aa565b92915050565b600081519050919050565b600081905092915050565b60005b838110156103085780820151818401526020810190506102ed565b60008484015250505050565b600061031f826102d4565b61032981856102df565b93506103398185602086016102ea565b80840191505092915050565b60006103518284610314565b91508190509291505056fea2646970667358221220f1989d939bb154137cf9b79530cbd8e08d1e921453cb6c23b8a9ef75992f66ab64736f6c63430008130033",
  "immutableReferences": {},
  "source": "// SPDX-License-Identifier: MIT\r\npragma solidity ^0.8.0;\r\n\r\nimport \"./TiposComuns.sol\";\r\nimport \"./AgenteFederado.sol\";\r\nimport \"./Fornecedor.sol\";\r\nimport \"./ContaLastro.sol\";\r\nimport \"./GovToken.sol\";\r\nimport \"./StringUtils.sol\";\r\n\r\ncontract PainelServico {\r\n    //Propriedades\r\n    ServicoInfo[] private _listaServicos;\r\n    uint256 private _id = 0;\r\n\r\n    AgenteFederado private _agenteFederado;\r\n    ContaLastro private _contaLastro;\r\n    Fornecedor private _fornecedor;\r\n    StringUtils private _string;\r\n    GovToken private _govToken;\r\n\r\n    //Construtores\r\n    constructor(\r\n        AgenteFederado agenteFederado,\r\n        Fornecedor fornecedor,\r\n        GovToken govToken\r\n    ) {\r\n        _agenteFederado = agenteFederado;\r\n        _fornecedor = fornecedor;\r\n        _govToken = govToken;\r\n        _string = new StringUtils();\r\n    }\r\n\r\n    //Modificadores\r\n    modifier onlyOwner() {\r\n        //require(_owners[msg.sender] == true);\r\n        _;\r\n    }\r\n\r\n    modifier onlySupplier() {\r\n        require(\r\n            _fornecedor.obterFornecedor(msg.sender).cadastrado,\r\n            unicode\"Operao permitida apenas para Fornecedores.\"\r\n        );\r\n        _;\r\n    }\r\n\r\n    modifier onlySecretary() {\r\n        require(\r\n            _agenteFederado.obterSecretaria(msg.sender).cadastrado,\r\n            unicode\"Operao permitida apenas para uma Secretaria.\"\r\n        );\r\n        _;\r\n    }\r\n\r\n    //Eventos\r\n    event servicoAdicionado(ServicoInfo servico);\r\n\r\n    //Funes\r\n    function setContaLastro(ContaLastro contaLastro) public onlyOwner {\r\n        require(\r\n            address(_contaLastro) == address(0),\r\n            unicode\"A conta lastro j foi setada.\"\r\n        );\r\n        _contaLastro = contaLastro;\r\n    }\r\n\r\n    function setOwner(address owner, bool isOwner) public onlyOwner {\r\n        //_owners[owner] = isOwner;\r\n    }\r\n\r\n    function listarServicos2() public view returns (ServicoInfo[] memory) {\r\n        return _listaServicos;\r\n    }\r\n\r\n    function listarServicos()\r\n        public\r\n        view\r\n        returns (ServicoInfo[] memory listaServicos)\r\n    {\r\n        FornecedorInfo memory fornecedor = _fornecedor.obterFornecedor(\r\n            msg.sender\r\n        );\r\n\r\n        bool isFornecedor = fornecedor.cadastrado && fornecedor.aprovado;\r\n        bool isAgenteFederado = _agenteFederado\r\n            .obterSecretaria(msg.sender)\r\n            .cadastrado;\r\n\r\n        uint256 qtdServicos = _listaServicos.length;\r\n        uint256 qtdeServicosFiltrados = 0;\r\n\r\n        for (uint256 i = 0; i < qtdServicos; i++) {\r\n            ServicoInfo memory servico = _listaServicos[i];\r\n\r\n            bool exibirFornecedor = isFornecedor &&\r\n                (servico.executor == msg.sender ||\r\n                    servico.status == StatusServicoEnum.Disponivel);\r\n\r\n            bool exibirAgenteFederado = isAgenteFederado &&\r\n                servico.solicitante == msg.sender;\r\n\r\n            if (\r\n                servico.status != StatusServicoEnum.Finalizado &&\r\n                (exibirFornecedor || exibirAgenteFederado)\r\n            ) {\r\n                qtdeServicosFiltrados++;\r\n            }\r\n        }\r\n\r\n        if (qtdeServicosFiltrados == 0) return listaServicos;\r\n\r\n        listaServicos = new ServicoInfo[](qtdeServicosFiltrados);\r\n        uint256 j = 0;\r\n        for (uint256 i = 0; i < qtdServicos; i++) {\r\n            ServicoInfo memory servico = _listaServicos[i];\r\n\r\n            bool exibirFornecedor = isFornecedor &&\r\n                (servico.executor == msg.sender ||\r\n                    servico.status == StatusServicoEnum.Disponivel);\r\n\r\n            bool exibirAgenteFederado = isAgenteFederado &&\r\n                servico.solicitante == msg.sender;\r\n\r\n            if (\r\n                servico.status != StatusServicoEnum.Finalizado &&\r\n                (exibirFornecedor || exibirAgenteFederado)\r\n            ) {\r\n                servico.visaoFornecedor = exibirFornecedor;\r\n                servico.visaoAgenteFederado = exibirAgenteFederado;\r\n                listaServicos[j] = servico;\r\n                j++;\r\n            }\r\n        }\r\n\r\n        return listaServicos;\r\n    }\r\n\r\n    function adicionarServico(\r\n        string memory descricaoResumida,\r\n        string memory descricao,\r\n        uint256 valor\r\n    ) public {\r\n        SecretariaInfo memory secretaria = _agenteFederado.obterSecretaria(\r\n            msg.sender\r\n        );\r\n\r\n        require(\r\n            secretaria.cadastrado,\r\n            unicode\"Somente uma secretaria pode solicitar um servio.\"\r\n        );\r\n\r\n        ServicoInfo memory servico;\r\n\r\n        servico.id = ++_id;\r\n        servico.descricaoResumida = descricaoResumida;\r\n        servico.descricao = descricao;\r\n        servico.valor = valor;\r\n        servico.disponivel = true;\r\n        servico.status = StatusServicoEnum.Disponivel;\r\n        servico.solicitante = msg.sender;\r\n        servico.executor = address(0);\r\n        servico.data = block.timestamp * 1000;\r\n        servico.secretaria = secretaria;\r\n        servico.nomeToken = _govToken.name();\r\n        servico.simboloToken = _govToken.symbol();\r\n\r\n        _listaServicos.push(servico);\r\n\r\n        _govToken.transferFrom(\r\n            secretaria.enderecoCarteira,\r\n            address(this),\r\n            valor\r\n        );\r\n\r\n        _agenteFederado.incluirLinhaExtrato(\r\n            secretaria.enderecoCarteira,\r\n            ExtratoInfo(\r\n                servico.data,\r\n                string.concat(\r\n                    unicode\"Reserva de Servio - \",\r\n                    servico.descricaoResumida\r\n                ),\r\n                valor,\r\n                \"D\",\r\n                address(this),\r\n                secretaria.enderecoCarteira,\r\n                _govToken.symbol()\r\n            )\r\n        );\r\n\r\n        emit servicoAdicionado(servico);\r\n    }\r\n\r\n    function executarServico(uint256 id) public onlySupplier {\r\n        uint256 indice = obterIndiceServico(id);\r\n\r\n        require(\r\n            _listaServicos[indice].status == StatusServicoEnum.Disponivel,\r\n            unicode\"Este servio no est mais disponvel para execuo.\"\r\n        );\r\n\r\n        FornecedorInfo memory fornecedor = _fornecedor.obterFornecedor(\r\n            msg.sender\r\n        );\r\n\r\n        require(\r\n            fornecedor.aprovado,\r\n            unicode\"Apenas Fornecedores com cadastro aprovado podem executar um servio.\"\r\n        );\r\n\r\n        _listaServicos[indice].fornecedor = fornecedor;\r\n        _listaServicos[indice].executor = msg.sender;\r\n        _listaServicos[indice].disponivel = false;\r\n        _listaServicos[indice].status = StatusServicoEnum.EmExecucao;\r\n    }\r\n\r\n    function concluirSolicitarPagamentoServico(uint256 id) public onlySupplier {\r\n        uint256 indice = obterIndiceServico(id);\r\n\r\n        require(\r\n            _listaServicos[indice].status == StatusServicoEnum.EmExecucao,\r\n            unicode\"Este servio no est em execuo e seu pagamento no pode ser solicitado.\"\r\n        );\r\n\r\n        FornecedorInfo memory fornecedor = _fornecedor.obterFornecedor(\r\n            msg.sender\r\n        );\r\n\r\n        require(\r\n            fornecedor.enderecoCarteira ==\r\n                _listaServicos[indice].fornecedor.enderecoCarteira,\r\n            unicode\"A Concluso do Servio e a Solicitao de Pagamento s podem ser realizada pelo executor do servio.\"\r\n        );\r\n\r\n        _listaServicos[indice].status = StatusServicoEnum.AguardandoPagamento;\r\n    }\r\n\r\n    function liberarPagamentoServico(uint256 id) public onlySecretary {\r\n        uint256 indice = obterIndiceServico(id);\r\n\r\n        require(\r\n            _listaServicos[indice].status ==\r\n                StatusServicoEnum.AguardandoPagamento,\r\n            unicode\"Este servio no est aguardando pagamento.\"\r\n        );\r\n\r\n        SecretariaInfo memory secretaria = _agenteFederado.obterSecretaria(\r\n            msg.sender\r\n        );\r\n\r\n        require(\r\n            secretaria.enderecoCarteira == _listaServicos[indice].solicitante,\r\n            unicode\"Somente o solicitante do servio pode liberar o pagamento.\"\r\n        );\r\n\r\n        _listaServicos[indice].status = StatusServicoEnum.Finalizado;\r\n\r\n        _govToken.approve(address(_contaLastro), _listaServicos[indice].valor);\r\n\r\n        _contaLastro.solicitarRepasse(\r\n            _listaServicos[indice].executor,\r\n            _listaServicos[indice].id,\r\n            _listaServicos[indice].valor\r\n        );\r\n    }\r\n\r\n    function obterIndiceServico(uint256 id) private pure returns (uint256) {\r\n        uint256 indice = id - 1;\r\n        return indice;\r\n    }\r\n\r\n    function obterServico(uint256 id) public view returns (ServicoInfo memory) {\r\n        return _listaServicos[obterIndiceServico(id)];\r\n    }\r\n}\r\n",
  "sourcePath": "/govtoken/Contratos/PainelServico.sol",
  "compiler": {
    "name": "solc",
    "version": "0.8.19+commit.7dd6d404.Emscripten.clang"
  },
  "schemaVersion": "3.4.8",
  "updatedAt": "2023-03-21T01:49:00.759Z",
  "networkType": "ethereum",
  "devdoc": {
    "kind": "dev",
    "methods": {},
    "version": 1
  },
  "userdoc": {
    "kind": "user",
    "methods": {},
    "version": 1
  }
}