{
  "contractName": "PainelServico",
  "abi": [
    {
      "inputs": [
        {
          "internalType": "contract AgenteFederado",
          "name": "agenteFederado",
          "type": "address"
        },
        {
          "internalType": "contract Fornecedor",
          "name": "fornecedor",
          "type": "address"
        },
        {
          "internalType": "contract GovToken",
          "name": "govToken",
          "type": "address"
        }
      ],
      "stateMutability": "nonpayable",
      "type": "constructor"
    },
    {
      "anonymous": false,
      "inputs": [
        {
          "components": [
            {
              "internalType": "uint256",
              "name": "id",
              "type": "uint256"
            },
            {
              "internalType": "uint256",
              "name": "data",
              "type": "uint256"
            },
            {
              "internalType": "string",
              "name": "descricaoResumida",
              "type": "string"
            },
            {
              "internalType": "string",
              "name": "descricao",
              "type": "string"
            },
            {
              "internalType": "uint256",
              "name": "valor",
              "type": "uint256"
            },
            {
              "internalType": "address",
              "name": "solicitante",
              "type": "address"
            },
            {
              "internalType": "address",
              "name": "executor",
              "type": "address"
            },
            {
              "internalType": "string",
              "name": "uf",
              "type": "string"
            },
            {
              "internalType": "string",
              "name": "nomeToken",
              "type": "string"
            },
            {
              "internalType": "string",
              "name": "simboloToken",
              "type": "string"
            },
            {
              "internalType": "bool",
              "name": "disponivel",
              "type": "bool"
            },
            {
              "internalType": "enum StatusServicoEnum",
              "name": "status",
              "type": "uint8"
            },
            {
              "components": [
                {
                  "internalType": "uint256",
                  "name": "dataCadastro",
                  "type": "uint256"
                },
                {
                  "internalType": "address",
                  "name": "agenteFederado",
                  "type": "address"
                },
                {
                  "internalType": "string",
                  "name": "descricao",
                  "type": "string"
                },
                {
                  "internalType": "address",
                  "name": "enderecoCarteira",
                  "type": "address"
                },
                {
                  "internalType": "bool",
                  "name": "cadastrado",
                  "type": "bool"
                }
              ],
              "internalType": "struct SecretariaInfo",
              "name": "secretaria",
              "type": "tuple"
            },
            {
              "components": [
                {
                  "internalType": "uint256",
                  "name": "dataCadastro",
                  "type": "uint256"
                },
                {
                  "internalType": "string",
                  "name": "uf",
                  "type": "string"
                },
                {
                  "internalType": "string",
                  "name": "nome",
                  "type": "string"
                },
                {
                  "internalType": "address",
                  "name": "enderecoCarteira",
                  "type": "address"
                },
                {
                  "internalType": "bool",
                  "name": "cadastrado",
                  "type": "bool"
                }
              ],
              "internalType": "struct FornecedorInfo",
              "name": "fornecedor",
              "type": "tuple"
            },
            {
              "internalType": "bool",
              "name": "visaoFornecedor",
              "type": "bool"
            },
            {
              "internalType": "bool",
              "name": "visaoAgenteFederado",
              "type": "bool"
            }
          ],
          "indexed": false,
          "internalType": "struct ServicoInfo",
          "name": "servico",
          "type": "tuple"
        }
      ],
      "name": "servicoAdicionado",
      "type": "event"
    },
    {
      "inputs": [
        {
          "internalType": "contract ContaLastro",
          "name": "contaLastro",
          "type": "address"
        }
      ],
      "name": "setContaLastro",
      "outputs": [],
      "stateMutability": "nonpayable",
      "type": "function"
    },
    {
      "inputs": [
        {
          "internalType": "address",
          "name": "owner",
          "type": "address"
        },
        {
          "internalType": "bool",
          "name": "isOwner",
          "type": "bool"
        }
      ],
      "name": "setOwner",
      "outputs": [],
      "stateMutability": "nonpayable",
      "type": "function"
    },
    {
      "inputs": [],
      "name": "listarServicos2",
      "outputs": [
        {
          "components": [
            {
              "internalType": "uint256",
              "name": "id",
              "type": "uint256"
            },
            {
              "internalType": "uint256",
              "name": "data",
              "type": "uint256"
            },
            {
              "internalType": "string",
              "name": "descricaoResumida",
              "type": "string"
            },
            {
              "internalType": "string",
              "name": "descricao",
              "type": "string"
            },
            {
              "internalType": "uint256",
              "name": "valor",
              "type": "uint256"
            },
            {
              "internalType": "address",
              "name": "solicitante",
              "type": "address"
            },
            {
              "internalType": "address",
              "name": "executor",
              "type": "address"
            },
            {
              "internalType": "string",
              "name": "uf",
              "type": "string"
            },
            {
              "internalType": "string",
              "name": "nomeToken",
              "type": "string"
            },
            {
              "internalType": "string",
              "name": "simboloToken",
              "type": "string"
            },
            {
              "internalType": "bool",
              "name": "disponivel",
              "type": "bool"
            },
            {
              "internalType": "enum StatusServicoEnum",
              "name": "status",
              "type": "uint8"
            },
            {
              "components": [
                {
                  "internalType": "uint256",
                  "name": "dataCadastro",
                  "type": "uint256"
                },
                {
                  "internalType": "address",
                  "name": "agenteFederado",
                  "type": "address"
                },
                {
                  "internalType": "string",
                  "name": "descricao",
                  "type": "string"
                },
                {
                  "internalType": "address",
                  "name": "enderecoCarteira",
                  "type": "address"
                },
                {
                  "internalType": "bool",
                  "name": "cadastrado",
                  "type": "bool"
                }
              ],
              "internalType": "struct SecretariaInfo",
              "name": "secretaria",
              "type": "tuple"
            },
            {
              "components": [
                {
                  "internalType": "uint256",
                  "name": "dataCadastro",
                  "type": "uint256"
                },
                {
                  "internalType": "string",
                  "name": "uf",
                  "type": "string"
                },
                {
                  "internalType": "string",
                  "name": "nome",
                  "type": "string"
                },
                {
                  "internalType": "address",
                  "name": "enderecoCarteira",
                  "type": "address"
                },
                {
                  "internalType": "bool",
                  "name": "cadastrado",
                  "type": "bool"
                }
              ],
              "internalType": "struct FornecedorInfo",
              "name": "fornecedor",
              "type": "tuple"
            },
            {
              "internalType": "bool",
              "name": "visaoFornecedor",
              "type": "bool"
            },
            {
              "internalType": "bool",
              "name": "visaoAgenteFederado",
              "type": "bool"
            }
          ],
          "internalType": "struct ServicoInfo[]",
          "name": "",
          "type": "tuple[]"
        }
      ],
      "stateMutability": "view",
      "type": "function",
      "constant": true
    },
    {
      "inputs": [],
      "name": "listarServicos",
      "outputs": [
        {
          "components": [
            {
              "internalType": "uint256",
              "name": "id",
              "type": "uint256"
            },
            {
              "internalType": "uint256",
              "name": "data",
              "type": "uint256"
            },
            {
              "internalType": "string",
              "name": "descricaoResumida",
              "type": "string"
            },
            {
              "internalType": "string",
              "name": "descricao",
              "type": "string"
            },
            {
              "internalType": "uint256",
              "name": "valor",
              "type": "uint256"
            },
            {
              "internalType": "address",
              "name": "solicitante",
              "type": "address"
            },
            {
              "internalType": "address",
              "name": "executor",
              "type": "address"
            },
            {
              "internalType": "string",
              "name": "uf",
              "type": "string"
            },
            {
              "internalType": "string",
              "name": "nomeToken",
              "type": "string"
            },
            {
              "internalType": "string",
              "name": "simboloToken",
              "type": "string"
            },
            {
              "internalType": "bool",
              "name": "disponivel",
              "type": "bool"
            },
            {
              "internalType": "enum StatusServicoEnum",
              "name": "status",
              "type": "uint8"
            },
            {
              "components": [
                {
                  "internalType": "uint256",
                  "name": "dataCadastro",
                  "type": "uint256"
                },
                {
                  "internalType": "address",
                  "name": "agenteFederado",
                  "type": "address"
                },
                {
                  "internalType": "string",
                  "name": "descricao",
                  "type": "string"
                },
                {
                  "internalType": "address",
                  "name": "enderecoCarteira",
                  "type": "address"
                },
                {
                  "internalType": "bool",
                  "name": "cadastrado",
                  "type": "bool"
                }
              ],
              "internalType": "struct SecretariaInfo",
              "name": "secretaria",
              "type": "tuple"
            },
            {
              "components": [
                {
                  "internalType": "uint256",
                  "name": "dataCadastro",
                  "type": "uint256"
                },
                {
                  "internalType": "string",
                  "name": "uf",
                  "type": "string"
                },
                {
                  "internalType": "string",
                  "name": "nome",
                  "type": "string"
                },
                {
                  "internalType": "address",
                  "name": "enderecoCarteira",
                  "type": "address"
                },
                {
                  "internalType": "bool",
                  "name": "cadastrado",
                  "type": "bool"
                }
              ],
              "internalType": "struct FornecedorInfo",
              "name": "fornecedor",
              "type": "tuple"
            },
            {
              "internalType": "bool",
              "name": "visaoFornecedor",
              "type": "bool"
            },
            {
              "internalType": "bool",
              "name": "visaoAgenteFederado",
              "type": "bool"
            }
          ],
          "internalType": "struct ServicoInfo[]",
          "name": "listaServicos",
          "type": "tuple[]"
        }
      ],
      "stateMutability": "view",
      "type": "function",
      "constant": true
    },
    {
      "inputs": [
        {
          "internalType": "string",
          "name": "descricaoResumida",
          "type": "string"
        },
        {
          "internalType": "string",
          "name": "descricao",
          "type": "string"
        },
        {
          "internalType": "uint256",
          "name": "valor",
          "type": "uint256"
        }
      ],
      "name": "adicionarServico",
      "outputs": [],
      "stateMutability": "nonpayable",
      "type": "function"
    },
    {
      "inputs": [
        {
          "internalType": "uint256",
          "name": "id",
          "type": "uint256"
        }
      ],
      "name": "executarServico",
      "outputs": [],
      "stateMutability": "nonpayable",
      "type": "function"
    },
    {
      "inputs": [
        {
          "internalType": "uint256",
          "name": "id",
          "type": "uint256"
        }
      ],
      "name": "concluirSolicitarPagamentoServico",
      "outputs": [],
      "stateMutability": "nonpayable",
      "type": "function"
    },
    {
      "inputs": [
        {
          "internalType": "uint256",
          "name": "id",
          "type": "uint256"
        }
      ],
      "name": "liberarPagamentoServico",
      "outputs": [],
      "stateMutability": "nonpayable",
      "type": "function"
    }
  ],
  "bytecode": "0x608060405260006001553480156200001657600080fd5b50604051620053f5380380620053f583398181016040528101906200003c91906200028a565b82600260006101000a81548173ffffffffffffffffffffffffffffffffffffffff021916908373ffffffffffffffffffffffffffffffffffffffff16021790555081600460006101000a81548173ffffffffffffffffffffffffffffffffffffffff021916908373ffffffffffffffffffffffffffffffffffffffff16021790555080600660006101000a81548173ffffffffffffffffffffffffffffffffffffffff021916908373ffffffffffffffffffffffffffffffffffffffff1602179055506040516200010d9062000174565b604051809103906000f0801580156200012a573d6000803e3d6000fd5b50600560006101000a81548173ffffffffffffffffffffffffffffffffffffffff021916908373ffffffffffffffffffffffffffffffffffffffff160217905550505050620002e6565b6103b2806200504383390190565b600080fd5b600073ffffffffffffffffffffffffffffffffffffffff82169050919050565b6000620001b48262000187565b9050919050565b6000620001c882620001a7565b9050919050565b620001da81620001bb565b8114620001e657600080fd5b50565b600081519050620001fa81620001cf565b92915050565b60006200020d82620001a7565b9050919050565b6200021f8162000200565b81146200022b57600080fd5b50565b6000815190506200023f8162000214565b92915050565b60006200025282620001a7565b9050919050565b620002648162000245565b81146200027057600080fd5b50565b600081519050620002848162000259565b92915050565b600080600060608486031215620002a657620002a562000182565b5b6000620002b686828701620001e9565b9350506020620002c9868287016200022e565b9250506040620002dc8682870162000273565b9150509250925092565b614d4d80620002f66000396000f3fe608060405234801561001057600080fd5b50600436106100885760003560e01c8063516c731c1161005b578063516c731c1461010157806364b633e01461011d5780636d29974f146101395780639d92b1e31461015557610088565b806314fcf0621461008d578063273f6b23146100ab57806331b1ef4a146100c95780634b12b609146100e5575b600080fd5b610095610171565b6040516100a291906139c3565b60405180910390f35b6100b36114e7565b6040516100c091906139c3565b60405180910390f35b6100e360048036038101906100de9190613a25565b611ca1565b005b6100ff60048036038101906100fa9190613a25565b611fdd565b005b61011b60048036038101906101169190613aaa565b612545565b005b61013760048036038101906101329190613b28565b612549565b005b610153600480360381019061014e9190613c8a565b61261e565b005b61016f600480360381019061016a9190613a25565b612f9b565b005b60606000600460009054906101000a900473ffffffffffffffffffffffffffffffffffffffff1673ffffffffffffffffffffffffffffffffffffffff166334803e3a336040518263ffffffff1660e01b81526004016101d09190613d24565b600060405180830381865afa1580156101ed573d6000803e3d6000fd5b505050506040513d6000823e3d601f19601f820116820180604052508101906102169190613ebc565b6080015190506000600260009054906101000a900473ffffffffffffffffffffffffffffffffffffffff1673ffffffffffffffffffffffffffffffffffffffff166308944790336040518263ffffffff1660e01b81526004016102799190613d24565b600060405180830381865afa158015610296573d6000803e3d6000fd5b505050506040513d6000823e3d601f19601f820116820180604052508101906102bf9190613fad565b6080015190506000808054905090506000805b82811015610b815760008082815481106102ef576102ee613ff6565b5b906000526020600020906014020160405180610200016040529081600082015481526020016001820154815260200160028201805461032d90614054565b80601f016020809104026020016040519081016040528092919081815260200182805461035990614054565b80156103a65780601f1061037b576101008083540402835291602001916103a6565b820191906000526020600020905b81548152906001019060200180831161038957829003601f168201915b505050505081526020016003820180546103bf90614054565b80601f01602080910402602001604051908101604052809291908181526020018280546103eb90614054565b80156104385780601f1061040d57610100808354040283529160200191610438565b820191906000526020600020905b81548152906001019060200180831161041b57829003601f168201915b50505050508152602001600482015481526020016005820160009054906101000a900473ffffffffffffffffffffffffffffffffffffffff1673ffffffffffffffffffffffffffffffffffffffff1673ffffffffffffffffffffffffffffffffffffffff1681526020016006820160009054906101000a900473ffffffffffffffffffffffffffffffffffffffff1673ffffffffffffffffffffffffffffffffffffffff1673ffffffffffffffffffffffffffffffffffffffff16815260200160078201805461050790614054565b80601f016020809104026020016040519081016040528092919081815260200182805461053390614054565b80156105805780601f1061055557610100808354040283529160200191610580565b820191906000526020600020905b81548152906001019060200180831161056357829003601f168201915b5050505050815260200160088201805461059990614054565b80601f01602080910402602001604051908101604052809291908181526020018280546105c590614054565b80156106125780601f106105e757610100808354040283529160200191610612565b820191906000526020600020905b8154815290600101906020018083116105f557829003601f168201915b5050505050815260200160098201805461062b90614054565b80601f016020809104026020016040519081016040528092919081815260200182805461065790614054565b80156106a45780601f10610679576101008083540402835291602001916106a4565b820191906000526020600020905b81548152906001019060200180831161068757829003601f168201915b50505050508152602001600a820160009054906101000a900460ff16151515158152602001600a820160019054906101000a900460ff1660038111156106ed576106ec613641565b5b60038111156106ff576106fe613641565b5b8152602001600b82016040518060a0016040529081600082015481526020016001820160009054906101000a900473ffffffffffffffffffffffffffffffffffffffff1673ffffffffffffffffffffffffffffffffffffffff1673ffffffffffffffffffffffffffffffffffffffff16815260200160028201805461078390614054565b80601f01602080910402602001604051908101604052809291908181526020018280546107af90614054565b80156107fc5780601f106107d1576101008083540402835291602001916107fc565b820191906000526020600020905b8154815290600101906020018083116107df57829003601f168201915b505050505081526020016003820160009054906101000a900473ffffffffffffffffffffffffffffffffffffffff1673ffffffffffffffffffffffffffffffffffffffff1673ffffffffffffffffffffffffffffffffffffffff1681526020016003820160149054906101000a900460ff1615151515815250508152602001600f82016040518060a0016040529081600082015481526020016001820180546108a490614054565b80601f01602080910402602001604051908101604052809291908181526020018280546108d090614054565b801561091d5780601f106108f25761010080835404028352916020019161091d565b820191906000526020600020905b81548152906001019060200180831161090057829003601f168201915b5050505050815260200160028201805461093690614054565b80601f016020809104026020016040519081016040528092919081815260200182805461096290614054565b80156109af5780601f10610984576101008083540402835291602001916109af565b820191906000526020600020905b81548152906001019060200180831161099257829003601f168201915b505050505081526020016003820160009054906101000a900473ffffffffffffffffffffffffffffffffffffffff1673ffffffffffffffffffffffffffffffffffffffff1673ffffffffffffffffffffffffffffffffffffffff1681526020016003820160149054906101000a900460ff16151515158152505081526020016013820160009054906101000a900460ff161515151581526020016013820160019054906101000a900460ff16151515158152505090506000868015610ad757503373ffffffffffffffffffffffffffffffffffffffff168260c0015173ffffffffffffffffffffffffffffffffffffffff161480610ad6575060006003811115610abc57610abb613641565b5b8261016001516003811115610ad457610ad3613641565b5b145b5b90506000868015610b1757503373ffffffffffffffffffffffffffffffffffffffff168360a0015173ffffffffffffffffffffffffffffffffffffffff16145b9050600380811115610b2c57610b2b613641565b5b8361016001516003811115610b4457610b43613641565b5b14158015610b5757508180610b565750805b5b15610b6b578480610b67906140b4565b9550505b5050508080610b79906140b4565b9150506102d2565b5060008103610b9357505050506114e4565b8067ffffffffffffffff811115610bad57610bac613b5f565b5b604051908082528060200260200182016040528015610be657816020015b610bd361339f565b815260200190600190039081610bcb5790505b5094506000805b838110156114dd576000808281548110610c0a57610c09613ff6565b5b9060005260206000209060140201604051806102000160405290816000820154815260200160018201548152602001600282018054610c4890614054565b80601f0160208091040260200160405190810160405280929190818152602001828054610c7490614054565b8015610cc15780601f10610c9657610100808354040283529160200191610cc1565b820191906000526020600020905b815481529060010190602001808311610ca457829003601f168201915b50505050508152602001600382018054610cda90614054565b80601f0160208091040260200160405190810160405280929190818152602001828054610d0690614054565b8015610d535780601f10610d2857610100808354040283529160200191610d53565b820191906000526020600020905b815481529060010190602001808311610d3657829003601f168201915b50505050508152602001600482015481526020016005820160009054906101000a900473ffffffffffffffffffffffffffffffffffffffff1673ffffffffffffffffffffffffffffffffffffffff1673ffffffffffffffffffffffffffffffffffffffff1681526020016006820160009054906101000a900473ffffffffffffffffffffffffffffffffffffffff1673ffffffffffffffffffffffffffffffffffffffff1673ffffffffffffffffffffffffffffffffffffffff168152602001600782018054610e2290614054565b80601f0160208091040260200160405190810160405280929190818152602001828054610e4e90614054565b8015610e9b5780601f10610e7057610100808354040283529160200191610e9b565b820191906000526020600020905b815481529060010190602001808311610e7e57829003601f168201915b50505050508152602001600882018054610eb490614054565b80601f0160208091040260200160405190810160405280929190818152602001828054610ee090614054565b8015610f2d5780601f10610f0257610100808354040283529160200191610f2d565b820191906000526020600020905b815481529060010190602001808311610f1057829003601f168201915b50505050508152602001600982018054610f4690614054565b80601f0160208091040260200160405190810160405280929190818152602001828054610f7290614054565b8015610fbf5780601f10610f9457610100808354040283529160200191610fbf565b820191906000526020600020905b815481529060010190602001808311610fa257829003601f168201915b50505050508152602001600a820160009054906101000a900460ff16151515158152602001600a820160019054906101000a900460ff16600381111561100857611007613641565b5b600381111561101a57611019613641565b5b8152602001600b82016040518060a0016040529081600082015481526020016001820160009054906101000a900473ffffffffffffffffffffffffffffffffffffffff1673ffffffffffffffffffffffffffffffffffffffff1673ffffffffffffffffffffffffffffffffffffffff16815260200160028201805461109e90614054565b80601f01602080910402602001604051908101604052809291908181526020018280546110ca90614054565b80156111175780601f106110ec57610100808354040283529160200191611117565b820191906000526020600020905b8154815290600101906020018083116110fa57829003601f168201915b505050505081526020016003820160009054906101000a900473ffffffffffffffffffffffffffffffffffffffff1673ffffffffffffffffffffffffffffffffffffffff1673ffffffffffffffffffffffffffffffffffffffff1681526020016003820160149054906101000a900460ff1615151515815250508152602001600f82016040518060a0016040529081600082015481526020016001820180546111bf90614054565b80601f01602080910402602001604051908101604052809291908181526020018280546111eb90614054565b80156112385780601f1061120d57610100808354040283529160200191611238565b820191906000526020600020905b81548152906001019060200180831161121b57829003601f168201915b5050505050815260200160028201805461125190614054565b80601f016020809104026020016040519081016040528092919081815260200182805461127d90614054565b80156112ca5780601f1061129f576101008083540402835291602001916112ca565b820191906000526020600020905b8154815290600101906020018083116112ad57829003601f168201915b505050505081526020016003820160009054906101000a900473ffffffffffffffffffffffffffffffffffffffff1673ffffffffffffffffffffffffffffffffffffffff1673ffffffffffffffffffffffffffffffffffffffff1681526020016003820160149054906101000a900460ff16151515158152505081526020016013820160009054906101000a900460ff161515151581526020016013820160019054906101000a900460ff161515151581525050905060008780156113f257503373ffffffffffffffffffffffffffffffffffffffff168260c0015173ffffffffffffffffffffffffffffffffffffffff1614806113f15750600060038111156113d7576113d6613641565b5b82610160015160038111156113ef576113ee613641565b5b145b5b9050600087801561143257503373ffffffffffffffffffffffffffffffffffffffff168360a0015173ffffffffffffffffffffffffffffffffffffffff16145b905060038081111561144757611446613641565b5b836101600151600381111561145f5761145e613641565b5b14158015611472575081806114715750805b5b156114c75781836101c001901515908115158152505080836101e0019015159081151581525050828a86815181106114ad576114ac613ff6565b5b602002602001018190525084806114c3906140b4565b9550505b50505080806114d5906140b4565b915050610bed565b5050505050505b90565b60606000805480602002602001604051908101604052809291908181526020016000905b82821015611c98578382906000526020600020906014020160405180610200016040529081600082015481526020016001820154815260200160028201805461155390614054565b80601f016020809104026020016040519081016040528092919081815260200182805461157f90614054565b80156115cc5780601f106115a1576101008083540402835291602001916115cc565b820191906000526020600020905b8154815290600101906020018083116115af57829003601f168201915b505050505081526020016003820180546115e590614054565b80601f016020809104026020016040519081016040528092919081815260200182805461161190614054565b801561165e5780601f106116335761010080835404028352916020019161165e565b820191906000526020600020905b81548152906001019060200180831161164157829003601f168201915b50505050508152602001600482015481526020016005820160009054906101000a900473ffffffffffffffffffffffffffffffffffffffff1673ffffffffffffffffffffffffffffffffffffffff1673ffffffffffffffffffffffffffffffffffffffff1681526020016006820160009054906101000a900473ffffffffffffffffffffffffffffffffffffffff1673ffffffffffffffffffffffffffffffffffffffff1673ffffffffffffffffffffffffffffffffffffffff16815260200160078201805461172d90614054565b80601f016020809104026020016040519081016040528092919081815260200182805461175990614054565b80156117a65780601f1061177b576101008083540402835291602001916117a6565b820191906000526020600020905b81548152906001019060200180831161178957829003601f168201915b505050505081526020016008820180546117bf90614054565b80601f01602080910402602001604051908101604052809291908181526020018280546117eb90614054565b80156118385780601f1061180d57610100808354040283529160200191611838565b820191906000526020600020905b81548152906001019060200180831161181b57829003601f168201915b5050505050815260200160098201805461185190614054565b80601f016020809104026020016040519081016040528092919081815260200182805461187d90614054565b80156118ca5780601f1061189f576101008083540402835291602001916118ca565b820191906000526020600020905b8154815290600101906020018083116118ad57829003601f168201915b50505050508152602001600a820160009054906101000a900460ff16151515158152602001600a820160019054906101000a900460ff16600381111561191357611912613641565b5b600381111561192557611924613641565b5b8152602001600b82016040518060a0016040529081600082015481526020016001820160009054906101000a900473ffffffffffffffffffffffffffffffffffffffff1673ffffffffffffffffffffffffffffffffffffffff1673ffffffffffffffffffffffffffffffffffffffff1681526020016002820180546119a990614054565b80601f01602080910402602001604051908101604052809291908181526020018280546119d590614054565b8015611a225780601f106119f757610100808354040283529160200191611a22565b820191906000526020600020905b815481529060010190602001808311611a0557829003601f168201915b505050505081526020016003820160009054906101000a900473ffffffffffffffffffffffffffffffffffffffff1673ffffffffffffffffffffffffffffffffffffffff1673ffffffffffffffffffffffffffffffffffffffff1681526020016003820160149054906101000a900460ff1615151515815250508152602001600f82016040518060a001604052908160008201548152602001600182018054611aca90614054565b80601f0160208091040260200160405190810160405280929190818152602001828054611af690614054565b8015611b435780601f10611b1857610100808354040283529160200191611b43565b820191906000526020600020905b815481529060010190602001808311611b2657829003601f168201915b50505050508152602001600282018054611b5c90614054565b80601f0160208091040260200160405190810160405280929190818152602001828054611b8890614054565b8015611bd55780601f10611baa57610100808354040283529160200191611bd5565b820191906000526020600020905b815481529060010190602001808311611bb857829003601f168201915b505050505081526020016003820160009054906101000a900473ffffffffffffffffffffffffffffffffffffffff1673ffffffffffffffffffffffffffffffffffffffff1673ffffffffffffffffffffffffffffffffffffffff1681526020016003820160149054906101000a900460ff16151515158152505081526020016013820160009054906101000a900460ff161515151581526020016013820160019054906101000a900460ff1615151515815250508152602001906001019061150b565b50505050905090565b600460009054906101000a900473ffffffffffffffffffffffffffffffffffffffff1673ffffffffffffffffffffffffffffffffffffffff166334803e3a336040518263ffffffff1660e01b8152600401611cfc9190613d24565b600060405180830381865afa158015611d19573d6000803e3d6000fd5b505050506040513d6000823e3d601f19601f82011682018060405250810190611d429190613ebc565b60800151611d85576040517f08c379a0000000000000000000000000000000000000000000000000000000008152600401611d7c9061417f565b60405180910390fd5b6000611d9082613384565b905060016003811115611da657611da5613641565b5b60008281548110611dba57611db9613ff6565b5b9060005260206000209060140201600a0160019054906101000a900460ff166003811115611deb57611dea613641565b5b14611e2b576040517f08c379a0000000000000000000000000000000000000000000000000000000008152600401611e2290614237565b60405180910390fd5b6000600460009054906101000a900473ffffffffffffffffffffffffffffffffffffffff1673ffffffffffffffffffffffffffffffffffffffff166334803e3a336040518263ffffffff1660e01b8152600401611e889190613d24565b600060405180830381865afa158015611ea5573d6000803e3d6000fd5b505050506040513d6000823e3d601f19601f82011682018060405250810190611ece9190613ebc565b905060008281548110611ee457611ee3613ff6565b5b9060005260206000209060140201600f0160030160009054906101000a900473ffffffffffffffffffffffffffffffffffffffff1673ffffffffffffffffffffffffffffffffffffffff16816060015173ffffffffffffffffffffffffffffffffffffffff1614611f8a576040517f08c379a0000000000000000000000000000000000000000000000000000000008152600401611f8190614315565b60405180910390fd5b600260008381548110611fa057611f9f613ff6565b5b9060005260206000209060140201600a0160016101000a81548160ff02191690836003811115611fd357611fd2613641565b5b0217905550505050565b600260009054906101000a900473ffffffffffffffffffffffffffffffffffffffff1673ffffffffffffffffffffffffffffffffffffffff166308944790336040518263ffffffff1660e01b81526004016120389190613d24565b600060405180830381865afa158015612055573d6000803e3d6000fd5b505050506040513d6000823e3d601f19601f8201168201806040525081019061207e9190613fad565b608001516120c1576040517f08c379a00000000000000000000000000000000000000000000000000000000081526004016120b8906143a7565b60405180910390fd5b60006120cc82613384565b9050600260038111156120e2576120e1613641565b5b600082815481106120f6576120f5613ff6565b5b9060005260206000209060140201600a0160019054906101000a900460ff16600381111561212757612126613641565b5b14612167576040517f08c379a000000000000000000000000000000000000000000000000000000000815260040161215e90614439565b60405180910390fd5b6000600260009054906101000a900473ffffffffffffffffffffffffffffffffffffffff1673ffffffffffffffffffffffffffffffffffffffff166308944790336040518263ffffffff1660e01b81526004016121c49190613d24565b600060405180830381865afa1580156121e1573d6000803e3d6000fd5b505050506040513d6000823e3d601f19601f8201168201806040525081019061220a9190613fad565b9050600082815481106122205761221f613ff6565b5b906000526020600020906014020160050160009054906101000a900473ffffffffffffffffffffffffffffffffffffffff1673ffffffffffffffffffffffffffffffffffffffff16816060015173ffffffffffffffffffffffffffffffffffffffff16146122c3576040517f08c379a00000000000000000000000000000000000000000000000000000000081526004016122ba906144cb565b60405180910390fd5b6003600083815481106122d9576122d8613ff6565b5b9060005260206000209060140201600a0160016101000a81548160ff0219169083600381111561230c5761230b613641565b5b0217905550600660009054906101000a900473ffffffffffffffffffffffffffffffffffffffff1673ffffffffffffffffffffffffffffffffffffffff1663095ea7b3600360009054906101000a900473ffffffffffffffffffffffffffffffffffffffff166000858154811061238657612385613ff6565b5b9060005260206000209060140201600401546040518363ffffffff1660e01b81526004016123b59291906144fa565b6020604051808303816000875af11580156123d4573d6000803e3d6000fd5b505050506040513d601f19601f820116820180604052508101906123f89190614523565b50600360009054906101000a900473ffffffffffffffffffffffffffffffffffffffff1673ffffffffffffffffffffffffffffffffffffffff16639cbd27236000848154811061244b5761244a613ff6565b5b906000526020600020906014020160060160009054906101000a900473ffffffffffffffffffffffffffffffffffffffff166000858154811061249157612490613ff6565b5b906000526020600020906014020160010154600086815481106124b7576124b6613ff6565b5b906000526020600020906014020160000154600087815481106124dd576124dc613ff6565b5b9060005260206000209060140201600401546040518563ffffffff1660e01b815260040161250e9493929190614550565b600060405180830381600087803b15801561252857600080fd5b505af115801561253c573d6000803e3d6000fd5b50505050505050565b5050565b600073ffffffffffffffffffffffffffffffffffffffff16600360009054906101000a900473ffffffffffffffffffffffffffffffffffffffff1673ffffffffffffffffffffffffffffffffffffffff16146125da576040517f08c379a00000000000000000000000000000000000000000000000000000000081526004016125d1906145e1565b60405180910390fd5b80600360006101000a81548173ffffffffffffffffffffffffffffffffffffffff021916908373ffffffffffffffffffffffffffffffffffffffff16021790555050565b6000600260009054906101000a900473ffffffffffffffffffffffffffffffffffffffff1673ffffffffffffffffffffffffffffffffffffffff166308944790336040518263ffffffff1660e01b815260040161267b9190613d24565b600060405180830381865afa158015612698573d6000803e3d6000fd5b505050506040513d6000823e3d601f19601f820116820180604052508101906126c19190613fad565b90508060800151612707576040517f08c379a00000000000000000000000000000000000000000000000000000000081526004016126fe90614673565b60405180910390fd5b61270f61339f565b60016000815461271e906140b4565b919050819055816000018181525050848160400181905250838160600181905250828160800181815250506001816101400190151590811515815250506000816101600190600381111561277557612774613641565b5b9081600381111561278957612788613641565b5b81525050338160a0019073ffffffffffffffffffffffffffffffffffffffff16908173ffffffffffffffffffffffffffffffffffffffff168152505060008160c0019073ffffffffffffffffffffffffffffffffffffffff16908173ffffffffffffffffffffffffffffffffffffffff16815250506103e84261280c9190614693565b81602001818152505081816101800181905250600660009054906101000a900473ffffffffffffffffffffffffffffffffffffffff1673ffffffffffffffffffffffffffffffffffffffff166306fdde036040518163ffffffff1660e01b8152600401600060405180830381865afa15801561288c573d6000803e3d6000fd5b505050506040513d6000823e3d601f19601f820116820180604052508101906128b591906146d5565b816101000181905250600660009054906101000a900473ffffffffffffffffffffffffffffffffffffffff1673ffffffffffffffffffffffffffffffffffffffff166395d89b416040518163ffffffff1660e01b8152600401600060405180830381865afa15801561292b573d6000803e3d6000fd5b505050506040513d6000823e3d601f19601f8201168201806040525081019061295491906146d5565b8161012001819052506000819080600181540180825580915050600190039060005260206000209060140201600090919091909150600082015181600001556020820151816001015560408201518160020190816129b291906148ca565b5060608201518160030190816129c891906148ca565b506080820151816004015560a08201518160050160006101000a81548173ffffffffffffffffffffffffffffffffffffffff021916908373ffffffffffffffffffffffffffffffffffffffff16021790555060c08201518160060160006101000a81548173ffffffffffffffffffffffffffffffffffffffff021916908373ffffffffffffffffffffffffffffffffffffffff16021790555060e0820151816007019081612a7691906148ca565b50610100820151816008019081612a8d91906148ca565b50610120820151816009019081612aa491906148ca565b5061014082015181600a0160006101000a81548160ff02191690831515021790555061016082015181600a0160016101000a81548160ff02191690836003811115612af257612af1613641565b5b021790555061018082015181600b016000820151816000015560208201518160010160006101000a81548173ffffffffffffffffffffffffffffffffffffffff021916908373ffffffffffffffffffffffffffffffffffffffff1602179055506040820151816002019081612b6791906148ca565b5060608201518160030160006101000a81548173ffffffffffffffffffffffffffffffffffffffff021916908373ffffffffffffffffffffffffffffffffffffffff16021790555060808201518160030160146101000a81548160ff02191690831515021790555050506101a082015181600f01600082015181600001556020820151816001019081612bfa91906148ca565b506040820151816002019081612c1091906148ca565b5060608201518160030160006101000a81548173ffffffffffffffffffffffffffffffffffffffff021916908373ffffffffffffffffffffffffffffffffffffffff16021790555060808201518160030160146101000a81548160ff02191690831515021790555050506101c08201518160130160006101000a81548160ff0219169083151502179055506101e08201518160130160016101000a81548160ff0219169083151502179055505050600660009054906101000a900473ffffffffffffffffffffffffffffffffffffffff1673ffffffffffffffffffffffffffffffffffffffff166323b872dd836060015130866040518463ffffffff1660e01b8152600401612d219392919061499c565b6020604051808303816000875af1158015612d40573d6000803e3d6000fd5b505050506040513d601f19601f82011682018060405250810190612d649190614523565b50600260009054906101000a900473ffffffffffffffffffffffffffffffffffffffff1673ffffffffffffffffffffffffffffffffffffffff166378905bc283606001516040518060e00160405280856020015181526020016040518060400160405280601381526020017f52657365727661206465205365727669c3a76f0000000000000000000000000081525081526020018781526020016040518060400160405280600181526020017f440000000000000000000000000000000000000000000000000000000000000081525081526020013073ffffffffffffffffffffffffffffffffffffffff168152602001866060015173ffffffffffffffffffffffffffffffffffffffff168152602001600660009054906101000a900473ffffffffffffffffffffffffffffffffffffffff1673ffffffffffffffffffffffffffffffffffffffff166395d89b416040518163ffffffff1660e01b8152600401600060405180830381865afa158015612ee2573d6000803e3d6000fd5b505050506040513d6000823e3d601f19601f82011682018060405250810190612f0b91906146d5565b8152506040518363ffffffff1660e01b8152600401612f2b929190614a7d565b600060405180830381600087803b158015612f4557600080fd5b505af1158015612f59573d6000803e3d6000fd5b505050507f77ae3823dd5f83bb6ff05d1f2077560c1bd437eed7540f4fbbde6bc70ba1b79381604051612f8c9190614c2f565b60405180910390a15050505050565b600460009054906101000a900473ffffffffffffffffffffffffffffffffffffffff1673ffffffffffffffffffffffffffffffffffffffff166334803e3a336040518263ffffffff1660e01b8152600401612ff69190613d24565b600060405180830381865afa158015613013573d6000803e3d6000fd5b505050506040513d6000823e3d601f19601f8201168201806040525081019061303c9190613ebc565b6080015161307f576040517f08c379a00000000000000000000000000000000000000000000000000000000081526004016130769061417f565b60405180910390fd5b600061308a82613384565b9050600060038111156130a05761309f613641565b5b600082815481106130b4576130b3613ff6565b5b9060005260206000209060140201600a0160019054906101000a900460ff1660038111156130e5576130e4613641565b5b14613125576040517f08c379a000000000000000000000000000000000000000000000000000000000815260040161311c90614cc3565b60405180910390fd5b6000600460009054906101000a900473ffffffffffffffffffffffffffffffffffffffff1673ffffffffffffffffffffffffffffffffffffffff166334803e3a336040518263ffffffff1660e01b81526004016131829190613d24565b600060405180830381865afa15801561319f573d6000803e3d6000fd5b505050506040513d6000823e3d601f19601f820116820180604052508101906131c89190613ebc565b905080600083815481106131df576131de613ff6565b5b9060005260206000209060140201600f0160008201518160000155602082015181600101908161320f91906148ca565b50604082015181600201908161322591906148ca565b5060608201518160030160006101000a81548173ffffffffffffffffffffffffffffffffffffffff021916908373ffffffffffffffffffffffffffffffffffffffff16021790555060808201518160030160146101000a81548160ff02191690831515021790555090505033600083815481106132a5576132a4613ff6565b5b906000526020600020906014020160060160006101000a81548173ffffffffffffffffffffffffffffffffffffffff021916908373ffffffffffffffffffffffffffffffffffffffff160217905550600080838154811061330957613308613ff6565b5b9060005260206000209060140201600a0160006101000a81548160ff02191690831515021790555060016000838154811061334757613346613ff6565b5b9060005260206000209060140201600a0160016101000a81548160ff0219169083600381111561337a57613379613641565b5b0217905550505050565b6000806001836133949190614ce3565b905080915050919050565b6040518061020001604052806000815260200160008152602001606081526020016060815260200160008152602001600073ffffffffffffffffffffffffffffffffffffffff168152602001600073ffffffffffffffffffffffffffffffffffffffff1681526020016060815260200160608152602001606081526020016000151581526020016000600381111561343a57613439613641565b5b815260200161344761346c565b81526020016134546134c9565b81526020016000151581526020016000151581525090565b6040518060a0016040528060008152602001600073ffffffffffffffffffffffffffffffffffffffff16815260200160608152602001600073ffffffffffffffffffffffffffffffffffffffff1681526020016000151581525090565b6040518060a00160405280600081526020016060815260200160608152602001600073ffffffffffffffffffffffffffffffffffffffff1681526020016000151581525090565b600081519050919050565b600082825260208201905092915050565b6000819050602082019050919050565b6000819050919050565b61354f8161353c565b82525050565b600081519050919050565b600082825260208201905092915050565b60005b8381101561358f578082015181840152602081019050613574565b60008484015250505050565b6000601f19601f8301169050919050565b60006135b782613555565b6135c18185613560565b93506135d1818560208601613571565b6135da8161359b565b840191505092915050565b600073ffffffffffffffffffffffffffffffffffffffff82169050919050565b6000613610826135e5565b9050919050565b61362081613605565b82525050565b60008115159050919050565b61363b81613626565b82525050565b7f4e487b7100000000000000000000000000000000000000000000000000000000600052602160045260246000fd5b6004811061368157613680613641565b5b50565b600081905061369282613670565b919050565b60006136a282613684565b9050919050565b6136b281613697565b82525050565b600060a0830160008301516136d06000860182613546565b5060208301516136e36020860182613617565b50604083015184820360408601526136fb82826135ac565b91505060608301516137106060860182613617565b5060808301516137236080860182613632565b508091505092915050565b600060a0830160008301516137466000860182613546565b506020830151848203602086015261375e82826135ac565b9150506040830151848203604086015261377882826135ac565b915050606083015161378d6060860182613617565b5060808301516137a06080860182613632565b508091505092915050565b6000610200830160008301516137c46000860182613546565b5060208301516137d76020860182613546565b50604083015184820360408601526137ef82826135ac565b9150506060830151848203606086015261380982826135ac565b915050608083015161381e6080860182613546565b5060a083015161383160a0860182613617565b5060c083015161384460c0860182613617565b5060e083015184820360e086015261385c82826135ac565b91505061010083015184820361010086015261387882826135ac565b91505061012083015184820361012086015261389482826135ac565b9150506101408301516138ab610140860182613632565b506101608301516138c06101608601826136a9565b506101808301518482036101808601526138da82826136b8565b9150506101a08301518482036101a08601526138f6828261372e565b9150506101c083015161390d6101c0860182613632565b506101e08301516139226101e0860182613632565b508091505092915050565b600061393983836137ab565b905092915050565b6000602082019050919050565b600061395982613510565b613963818561351b565b9350836020820285016139758561352c565b8060005b858110156139b15784840389528151613992858261392d565b945061399d83613941565b925060208a01995050600181019050613979565b50829750879550505050505092915050565b600060208201905081810360008301526139dd818461394e565b905092915050565b6000604051905090565b600080fd5b600080fd5b613a028161353c565b8114613a0d57600080fd5b50565b600081359050613a1f816139f9565b92915050565b600060208284031215613a3b57613a3a6139ef565b5b6000613a4984828501613a10565b91505092915050565b613a5b81613605565b8114613a6657600080fd5b50565b600081359050613a7881613a52565b92915050565b613a8781613626565b8114613a9257600080fd5b50565b600081359050613aa481613a7e565b92915050565b60008060408385031215613ac157613ac06139ef565b5b6000613acf85828601613a69565b9250506020613ae085828601613a95565b9150509250929050565b6000613af582613605565b9050919050565b613b0581613aea565b8114613b1057600080fd5b50565b600081359050613b2281613afc565b92915050565b600060208284031215613b3e57613b3d6139ef565b5b6000613b4c84828501613b13565b91505092915050565b600080fd5b600080fd5b7f4e487b7100000000000000000000000000000000000000000000000000000000600052604160045260246000fd5b613b978261359b565b810181811067ffffffffffffffff82111715613bb657613bb5613b5f565b5b80604052505050565b6000613bc96139e5565b9050613bd58282613b8e565b919050565b600067ffffffffffffffff821115613bf557613bf4613b5f565b5b613bfe8261359b565b9050602081019050919050565b82818337600083830152505050565b6000613c2d613c2884613bda565b613bbf565b905082815260208101848484011115613c4957613c48613b5a565b5b613c54848285613c0b565b509392505050565b600082601f830112613c7157613c70613b55565b5b8135613c81848260208601613c1a565b91505092915050565b600080600060608486031215613ca357613ca26139ef565b5b600084013567ffffffffffffffff811115613cc157613cc06139f4565b5b613ccd86828701613c5c565b935050602084013567ffffffffffffffff811115613cee57613ced6139f4565b5b613cfa86828701613c5c565b9250506040613d0b86828701613a10565b9150509250925092565b613d1e81613605565b82525050565b6000602082019050613d396000830184613d15565b92915050565b600080fd5b600080fd5b600081519050613d58816139f9565b92915050565b6000613d71613d6c84613bda565b613bbf565b905082815260208101848484011115613d8d57613d8c613b5a565b5b613d98848285613571565b509392505050565b600082601f830112613db557613db4613b55565b5b8151613dc5848260208601613d5e565b91505092915050565b600081519050613ddd81613a52565b92915050565b600081519050613df281613a7e565b92915050565b600060a08284031215613e0e57613e0d613d3f565b5b613e1860a0613bbf565b90506000613e2884828501613d49565b600083015250602082015167ffffffffffffffff811115613e4c57613e4b613d44565b5b613e5884828501613da0565b602083015250604082015167ffffffffffffffff811115613e7c57613e7b613d44565b5b613e8884828501613da0565b6040830152506060613e9c84828501613dce565b6060830152506080613eb084828501613de3565b60808301525092915050565b600060208284031215613ed257613ed16139ef565b5b600082015167ffffffffffffffff811115613ef057613eef6139f4565b5b613efc84828501613df8565b91505092915050565b600060a08284031215613f1b57613f1a613d3f565b5b613f2560a0613bbf565b90506000613f3584828501613d49565b6000830152506020613f4984828501613dce565b602083015250604082015167ffffffffffffffff811115613f6d57613f6c613d44565b5b613f7984828501613da0565b6040830152506060613f8d84828501613dce565b6060830152506080613fa184828501613de3565b60808301525092915050565b600060208284031215613fc357613fc26139ef565b5b600082015167ffffffffffffffff811115613fe157613fe06139f4565b5b613fed84828501613f05565b91505092915050565b7f4e487b7100000000000000000000000000000000000000000000000000000000600052603260045260246000fd5b7f4e487b7100000000000000000000000000000000000000000000000000000000600052602260045260246000fd5b6000600282049050600182168061406c57607f821691505b60208210810361407f5761407e614025565b5b50919050565b7f4e487b7100000000000000000000000000000000000000000000000000000000600052601160045260246000fd5b60006140bf8261353c565b91507fffffffffffffffffffffffffffffffffffffffffffffffffffffffffffffffff82036140f1576140f0614085565b5b600182019050919050565b600082825260208201905092915050565b7f4f70657261c3a7c3a36f207065726d6974696461206170656e6173207061726160008201527f20466f726e656365646f7265732e000000000000000000000000000000000000602082015250565b6000614169602e836140fc565b91506141748261410d565b604082019050919050565b600060208201905081810360008301526141988161415c565b9050919050565b7f45737465207365727669c3a76f206ec3a36f20657374c3a120656d206578656360008201527f75c3a7c3a36f20652073657520706167616d656e746f206ec3a36f20706f646560208201527f2073657220736f6c6963697461646f2e00000000000000000000000000000000604082015250565b60006142216050836140fc565b915061422c8261419f565b606082019050919050565b6000602082019050818103600083015261425081614214565b9050919050565b7f4120436f6e636c7573c3a36f20646f205365727669c3a76f2065206120536f6c60008201527f6963697461c3a7c3a36f20646520506167616d656e746f2073c3b320706f646560208201527f6d20736572207265616c697a6164612070656c6f206578656375746f7220646f60408201527f207365727669c3a76f2e00000000000000000000000000000000000000000000606082015250565b60006142ff606a836140fc565b915061430a82614257565b608082019050919050565b6000602082019050818103600083015261432e816142f2565b9050919050565b7f4f70657261c3a7c3a36f207065726d6974696461206170656e6173207061726160008201527f20756d6120536563726574617269612e00000000000000000000000000000000602082015250565b60006143916030836140fc565b915061439c82614335565b604082019050919050565b600060208201905081810360008301526143c081614384565b9050919050565b7f45737465207365727669c3a76f206ec3a36f20657374c3a1206167756172646160008201527f6e646f20706167616d656e746f2e000000000000000000000000000000000000602082015250565b6000614423602e836140fc565b915061442e826143c7565b604082019050919050565b6000602082019050818103600083015261445281614416565b9050919050565b7f536f6d656e7465206f20736f6c69636974616e746520646f207365727669c3a760008201527f6f20706f6465206c696265726172206f20706167616d656e746f2e0000000000602082015250565b60006144b5603b836140fc565b91506144c082614459565b604082019050919050565b600060208201905081810360008301526144e4816144a8565b9050919050565b6144f48161353c565b82525050565b600060408201905061450f6000830185613d15565b61451c60208301846144eb565b9392505050565b600060208284031215614539576145386139ef565b5b600061454784828501613de3565b91505092915050565b60006080820190506145656000830187613d15565b61457260208301866144eb565b61457f60408301856144eb565b61458c60608301846144eb565b95945050505050565b7f4120636f6e7461206c617374726f206ac3a120666f69207365746164612e0000600082015250565b60006145cb601e836140fc565b91506145d682614595565b602082019050919050565b600060208201905081810360008301526145fa816145be565b9050919050565b7f536f6d656e746520756d61207365637265746172696120706f646520736f6c6960008201527f636974617220756d207365727669c3a76f2e0000000000000000000000000000602082015250565b600061465d6032836140fc565b915061466882614601565b604082019050919050565b6000602082019050818103600083015261468c81614650565b9050919050565b600061469e8261353c565b91506146a98361353c565b92508282026146b78161353c565b915082820484148315176146ce576146cd614085565b5b5092915050565b6000602082840312156146eb576146ea6139ef565b5b600082015167ffffffffffffffff811115614709576147086139f4565b5b61471584828501613da0565b91505092915050565b60008190508160005260206000209050919050565b60006020601f8301049050919050565b600082821b905092915050565b6000600883026147807fffffffffffffffffffffffffffffffffffffffffffffffffffffffffffffffff82614743565b61478a8683614743565b95508019841693508086168417925050509392505050565b6000819050919050565b60006147c76147c26147bd8461353c565b6147a2565b61353c565b9050919050565b6000819050919050565b6147e1836147ac565b6147f56147ed826147ce565b848454614750565b825550505050565b600090565b61480a6147fd565b6148158184846147d8565b505050565b5b818110156148395761482e600082614802565b60018101905061481b565b5050565b601f82111561487e5761484f8161471e565b61485884614733565b81016020851015614867578190505b61487b61487385614733565b83018261481a565b50505b505050565b600082821c905092915050565b60006148a160001984600802614883565b1980831691505092915050565b60006148ba8383614890565b9150826002028217905092915050565b6148d382613555565b67ffffffffffffffff8111156148ec576148eb613b5f565b5b6148f68254614054565b61490182828561483d565b600060209050601f8311600181146149345760008415614922578287015190505b61492c85826148ae565b865550614994565b601f1984166149428661471e565b60005b8281101561496a57848901518255600182019150602085019450602081019050614945565b868310156149875784890151614983601f891682614890565b8355505b6001600288020188555050505b505050505050565b60006060820190506149b16000830186613d15565b6149be6020830185613d15565b6149cb60408301846144eb565b949350505050565b600060e0830160008301516149eb6000860182613546565b5060208301518482036020860152614a0382826135ac565b9150506040830151614a186040860182613546565b5060608301518482036060860152614a3082826135ac565b9150506080830151614a456080860182613617565b5060a0830151614a5860a0860182613617565b5060c083015184820360c0860152614a7082826135ac565b9150508091505092915050565b6000604082019050614a926000830185613d15565b8181036020830152614aa481846149d3565b90509392505050565b600061020083016000830151614ac66000860182613546565b506020830151614ad96020860182613546565b5060408301518482036040860152614af182826135ac565b91505060608301518482036060860152614b0b82826135ac565b9150506080830151614b206080860182613546565b5060a0830151614b3360a0860182613617565b5060c0830151614b4660c0860182613617565b5060e083015184820360e0860152614b5e82826135ac565b915050610100830151848203610100860152614b7a82826135ac565b915050610120830151848203610120860152614b9682826135ac565b915050610140830151614bad610140860182613632565b50610160830151614bc26101608601826136a9565b50610180830151848203610180860152614bdc82826136b8565b9150506101a08301518482036101a0860152614bf8828261372e565b9150506101c0830151614c0f6101c0860182613632565b506101e0830151614c246101e0860182613632565b508091505092915050565b60006020820190508181036000830152614c498184614aad565b905092915050565b7f45737465207365727669c3a76f206ec3a36f20657374c3a1206d61697320646960008201527f73706f6ec3ad76656c2070617261206578656375c3a7c3a36f2e000000000000602082015250565b6000614cad603a836140fc565b9150614cb882614c51565b604082019050919050565b60006020820190508181036000830152614cdc81614ca0565b9050919050565b6000614cee8261353c565b9150614cf98361353c565b9250828203905081811115614d1157614d10614085565b5b9291505056fea2646970667358221220d9eec5869e3284443907a1ae88df9f915246affab9dccd4ffce6540fdf5b734764736f6c63430008130033608060405234801561001057600080fd5b50610392806100206000396000f3fe608060405234801561001057600080fd5b506004361061002b5760003560e01c80633a96fdd714610030575b600080fd5b61004a60048036038101906100459190610226565b610060565b60405161005791906102b9565b60405180910390f35b6000815183511461007457600090506100c6565b816040516020016100859190610345565b60405160208183030381529060405280519060200120836040516020016100ac9190610345565b604051602081830303815290604052805190602001201490505b92915050565b6000604051905090565b600080fd5b600080fd5b600080fd5b600080fd5b6000601f19601f8301169050919050565b7f4e487b7100000000000000000000000000000000000000000000000000000000600052604160045260246000fd5b610133826100ea565b810181811067ffffffffffffffff82111715610152576101516100fb565b5b80604052505050565b60006101656100cc565b9050610171828261012a565b919050565b600067ffffffffffffffff821115610191576101906100fb565b5b61019a826100ea565b9050602081019050919050565b82818337600083830152505050565b60006101c96101c484610176565b61015b565b9050828152602081018484840111156101e5576101e46100e5565b5b6101f08482856101a7565b509392505050565b600082601f83011261020d5761020c6100e0565b5b813561021d8482602086016101b6565b91505092915050565b6000806040838503121561023d5761023c6100d6565b5b600083013567ffffffffffffffff81111561025b5761025a6100db565b5b610267858286016101f8565b925050602083013567ffffffffffffffff811115610288576102876100db565b5b610294858286016101f8565b9150509250929050565b60008115159050919050565b6102b38161029e565b82525050565b60006020820190506102ce60008301846102aa565b92915050565b600081519050919050565b600081905092915050565b60005b838110156103085780820151818401526020810190506102ed565b60008484015250505050565b600061031f826102d4565b61032981856102df565b93506103398185602086016102ea565b80840191505092915050565b60006103518284610314565b91508190509291505056fea2646970667358221220f1989d939bb154137cf9b79530cbd8e08d1e921453cb6c23b8a9ef75992f66ab64736f6c63430008130033",
  "immutableReferences": {},
  "source": "// SPDX-License-Identifier: MIT\r\npragma solidity ^0.8.0;\r\n\r\nimport \"./TiposComuns.sol\";\r\nimport \"./AgenteFederado.sol\";\r\nimport \"./Fornecedor.sol\";\r\nimport \"./ContaLastro.sol\";\r\nimport \"./GovToken.sol\";\r\nimport \"./StringUtils.sol\";\r\n\r\ncontract PainelServico {\r\n    //Propriedades\r\n    ServicoInfo[] private _listaServicos;\r\n    uint256 private _id = 0;\r\n\r\n    AgenteFederado private _agenteFederado;\r\n    ContaLastro private _contaLastro;\r\n    Fornecedor private _fornecedor;\r\n    StringUtils private _string;\r\n    GovToken private _govToken;\r\n\r\n    //Construtores\r\n    constructor(\r\n        AgenteFederado agenteFederado,\r\n        Fornecedor fornecedor,\r\n        GovToken govToken\r\n    ) {\r\n        _agenteFederado = agenteFederado;\r\n        _fornecedor = fornecedor;\r\n        _govToken = govToken;\r\n        _string = new StringUtils();\r\n    }\r\n\r\n    //Modificadores\r\n    modifier onlyOwner() {\r\n        //require(_owners[msg.sender] == true);\r\n        _;\r\n    }\r\n\r\n    modifier onlySupplier() {\r\n        require(\r\n            _fornecedor.obterFornecedor(msg.sender).cadastrado,\r\n            unicode\"Operao permitida apenas para Fornecedores.\"\r\n        );\r\n        _;\r\n    }\r\n\r\n    modifier onlySecretary() {\r\n        require(\r\n            _agenteFederado.obterSecretaria(msg.sender).cadastrado,\r\n            unicode\"Operao permitida apenas para uma Secretaria.\"\r\n        );\r\n        _;\r\n    }\r\n\r\n    //Eventos\r\n    event servicoAdicionado(ServicoInfo servico);\r\n\r\n    //Funes\r\n    function setContaLastro(ContaLastro contaLastro) public onlyOwner {\r\n        require(\r\n            address(_contaLastro) == address(0),\r\n            unicode\"A conta lastro j foi setada.\"\r\n        );\r\n        _contaLastro = contaLastro;\r\n    }\r\n\r\n    function setOwner(address owner, bool isOwner) public onlyOwner {\r\n        //_owners[owner] = isOwner;\r\n    }\r\n\r\n    function listarServicos2() public view returns (ServicoInfo[] memory) {\r\n        return _listaServicos;\r\n    }\r\n\r\n    function listarServicos()\r\n        public\r\n        view\r\n        returns (ServicoInfo[] memory listaServicos)\r\n    {\r\n        bool isFornecedor = _fornecedor.obterFornecedor(msg.sender).cadastrado;\r\n        bool isAgenteFederado = _agenteFederado\r\n            .obterSecretaria(msg.sender)\r\n            .cadastrado;\r\n\r\n        uint256 qtdServicos = _listaServicos.length;\r\n        uint256 qtdeServicosFiltrados = 0;\r\n\r\n        for (uint256 i = 0; i < qtdServicos; i++) {\r\n            ServicoInfo memory servico = _listaServicos[i];\r\n\r\n            bool exibirFornecedor = isFornecedor &&\r\n                (servico.executor == msg.sender ||\r\n                    servico.status == StatusServicoEnum.Disponivel);\r\n\r\n            bool exibirAgenteFederado = isAgenteFederado &&\r\n                servico.solicitante == msg.sender;\r\n\r\n            if (\r\n                servico.status != StatusServicoEnum.Finalizado &&\r\n                (exibirFornecedor || exibirAgenteFederado)\r\n            ) {\r\n                qtdeServicosFiltrados++;\r\n            }\r\n        }\r\n\r\n        if (qtdeServicosFiltrados == 0) return listaServicos;\r\n\r\n        listaServicos = new ServicoInfo[](qtdeServicosFiltrados);\r\n        uint256 j = 0;\r\n        for (uint256 i = 0; i < qtdServicos; i++) {\r\n            ServicoInfo memory servico = _listaServicos[i];\r\n\r\n            bool exibirFornecedor = isFornecedor &&\r\n                (servico.executor == msg.sender ||\r\n                    servico.status == StatusServicoEnum.Disponivel);\r\n\r\n            bool exibirAgenteFederado = isAgenteFederado &&\r\n                servico.solicitante == msg.sender;\r\n\r\n            if (\r\n                servico.status != StatusServicoEnum.Finalizado &&\r\n                (exibirFornecedor || exibirAgenteFederado)\r\n            ) {\r\n                servico.visaoFornecedor = exibirFornecedor;\r\n                servico.visaoAgenteFederado = exibirAgenteFederado;\r\n                listaServicos[j] = servico;\r\n                j++;\r\n            }\r\n        }\r\n\r\n        return listaServicos;\r\n    }\r\n\r\n    function adicionarServico(\r\n        string memory descricaoResumida,\r\n        string memory descricao,\r\n        uint256 valor\r\n    ) public {\r\n        SecretariaInfo memory secretaria = _agenteFederado.obterSecretaria(\r\n            msg.sender\r\n        );\r\n\r\n        require(\r\n            secretaria.cadastrado,\r\n            unicode\"Somente uma secretaria pode solicitar um servio.\"\r\n        );\r\n\r\n        ServicoInfo memory servico;\r\n\r\n        servico.id = ++_id;\r\n        servico.descricaoResumida = descricaoResumida;\r\n        servico.descricao = descricao;\r\n        servico.valor = valor;\r\n        servico.disponivel = true;\r\n        servico.status = StatusServicoEnum.Disponivel;\r\n        servico.solicitante = msg.sender;\r\n        servico.executor = address(0);\r\n        servico.data = block.timestamp * 1000;\r\n        servico.secretaria = secretaria;\r\n        servico.nomeToken = _govToken.name();\r\n        servico.simboloToken = _govToken.symbol();\r\n\r\n        _listaServicos.push(servico);\r\n\r\n        _govToken.transferFrom(\r\n            secretaria.enderecoCarteira,\r\n            address(this),\r\n            valor\r\n        );\r\n\r\n        _agenteFederado.incluirLinhaExtrato(\r\n            secretaria.enderecoCarteira,\r\n            ExtratoInfo(\r\n                servico.data,\r\n                unicode\"Reserva de Servio\",\r\n                valor,\r\n                \"D\",\r\n                address(this),\r\n                secretaria.enderecoCarteira,\r\n                _govToken.symbol()\r\n            )\r\n        );\r\n\r\n        emit servicoAdicionado(servico);\r\n    }\r\n\r\n    function executarServico(uint256 id) public onlySupplier {\r\n        uint256 indice = obterIndiceServico(id);\r\n\r\n        require(\r\n            _listaServicos[indice].status == StatusServicoEnum.Disponivel,\r\n            unicode\"Este servio no est mais disponvel para execuo.\"\r\n        );\r\n\r\n        FornecedorInfo memory fornecedor = _fornecedor.obterFornecedor(\r\n            msg.sender\r\n        );\r\n\r\n        _listaServicos[indice].fornecedor = fornecedor;\r\n        _listaServicos[indice].executor = msg.sender;\r\n        _listaServicos[indice].disponivel = false;\r\n        _listaServicos[indice].status = StatusServicoEnum.EmExecucao;\r\n    }\r\n\r\n    function concluirSolicitarPagamentoServico(uint256 id) public onlySupplier {\r\n        uint256 indice = obterIndiceServico(id);\r\n\r\n        require(\r\n            _listaServicos[indice].status == StatusServicoEnum.EmExecucao,\r\n            unicode\"Este servio no est em execuo e seu pagamento no pode ser solicitado.\"\r\n        );\r\n\r\n        FornecedorInfo memory fornecedor = _fornecedor.obterFornecedor(\r\n            msg.sender\r\n        );\r\n\r\n        require(\r\n            fornecedor.enderecoCarteira ==\r\n                _listaServicos[indice].fornecedor.enderecoCarteira,\r\n            unicode\"A Concluso do Servio e a Solicitao de Pagamento s podem ser realizada pelo executor do servio.\"\r\n        );\r\n\r\n        _listaServicos[indice].status = StatusServicoEnum.AguardandoPagamento;\r\n    }\r\n\r\n    function liberarPagamentoServico(uint256 id) public onlySecretary {\r\n        uint256 indice = obterIndiceServico(id);\r\n\r\n        require(\r\n            _listaServicos[indice].status ==\r\n                StatusServicoEnum.AguardandoPagamento,\r\n            unicode\"Este servio no est aguardando pagamento.\"\r\n        );\r\n\r\n        SecretariaInfo memory secretaria = _agenteFederado.obterSecretaria(\r\n            msg.sender\r\n        );\r\n\r\n        require(\r\n            secretaria.enderecoCarteira == _listaServicos[indice].solicitante,\r\n            unicode\"Somente o solicitante do servio pode liberar o pagamento.\"\r\n        );\r\n\r\n        _listaServicos[indice].status = StatusServicoEnum.Finalizado;\r\n\r\n        _govToken.approve(address(_contaLastro), _listaServicos[indice].valor);\r\n\r\n        _contaLastro.solicitarRepasse(\r\n            _listaServicos[indice].executor,\r\n            _listaServicos[indice].data,\r\n            _listaServicos[indice].id,\r\n            _listaServicos[indice].valor\r\n        );\r\n    }\r\n\r\n    function obterIndiceServico(uint256 id) private pure returns (uint256) {\r\n        uint256 indice = id - 1;\r\n        return indice;\r\n    }\r\n\r\n    function obterServico(\r\n        uint256 id\r\n    ) private view returns (ServicoInfo memory) {\r\n        return _listaServicos[obterIndiceServico(id)];\r\n    }\r\n}\r\n",
  "sourcePath": "/govtoken/Contratos/PainelServico.sol",
  "compiler": {
    "name": "solc",
    "version": "0.8.19+commit.7dd6d404.Emscripten.clang"
  },
  "schemaVersion": "3.4.8",
  "updatedAt": "2023-03-16T21:24:16.442Z",
  "networkType": "ethereum",
  "devdoc": {
    "kind": "dev",
    "methods": {},
    "version": 1
  },
  "userdoc": {
    "kind": "user",
    "methods": {},
    "version": 1
  }
}