{
  "contractName": "StringUtils",
  "abi": [
    {
      "inputs": [
        {
          "internalType": "string",
          "name": "str1",
          "type": "string"
        },
        {
          "internalType": "string",
          "name": "str2",
          "type": "string"
        }
      ],
      "name": "compare",
      "outputs": [
        {
          "internalType": "bool",
          "name": "",
          "type": "bool"
        }
      ],
      "stateMutability": "pure",
      "type": "function"
    }
  ],
  "bytecode": "0x608060405234801561001057600080fd5b50610392806100206000396000f3fe608060405234801561001057600080fd5b506004361061002b5760003560e01c80633a96fdd714610030575b600080fd5b61004a60048036038101906100459190610226565b610060565b60405161005791906102b9565b60405180910390f35b6000815183511461007457600090506100c6565b816040516020016100859190610345565b60405160208183030381529060405280519060200120836040516020016100ac9190610345565b604051602081830303815290604052805190602001201490505b92915050565b6000604051905090565b600080fd5b600080fd5b600080fd5b600080fd5b6000601f19601f8301169050919050565b7f4e487b7100000000000000000000000000000000000000000000000000000000600052604160045260246000fd5b610133826100ea565b810181811067ffffffffffffffff82111715610152576101516100fb565b5b80604052505050565b60006101656100cc565b9050610171828261012a565b919050565b600067ffffffffffffffff821115610191576101906100fb565b5b61019a826100ea565b9050602081019050919050565b82818337600083830152505050565b60006101c96101c484610176565b61015b565b9050828152602081018484840111156101e5576101e46100e5565b5b6101f08482856101a7565b509392505050565b600082601f83011261020d5761020c6100e0565b5b813561021d8482602086016101b6565b91505092915050565b6000806040838503121561023d5761023c6100d6565b5b600083013567ffffffffffffffff81111561025b5761025a6100db565b5b610267858286016101f8565b925050602083013567ffffffffffffffff811115610288576102876100db565b5b610294858286016101f8565b9150509250929050565b60008115159050919050565b6102b38161029e565b82525050565b60006020820190506102ce60008301846102aa565b92915050565b600081519050919050565b600081905092915050565b60005b838110156103085780820151818401526020810190506102ed565b60008484015250505050565b600061031f826102d4565b61032981856102df565b93506103398185602086016102ea565b80840191505092915050565b60006103518284610314565b91508190509291505056fea2646970667358221220f1989d939bb154137cf9b79530cbd8e08d1e921453cb6c23b8a9ef75992f66ab64736f6c63430008130033",
  "immutableReferences": {},
  "source": "// SPDX-License-Identifier: MIT\r\npragma solidity ^0.8.0;\r\n\r\ncontract StringUtils {\r\n    function compare(string memory str1, string memory str2) public pure returns (bool) {\r\n        if (bytes(str1).length != bytes(str2).length) {\r\n            return false;\r\n        }\r\n        return keccak256(abi.encodePacked(str1)) == keccak256(abi.encodePacked(str2));\r\n    }\r\n}",
  "sourcePath": "/govtoken/Contratos/StringUtils.sol",
  "compiler": {
    "name": "solc",
    "version": "0.8.19+commit.7dd6d404.Emscripten.clang"
  },
  "schemaVersion": "3.4.8",
  "updatedAt": "2023-03-17T19:07:12.966Z",
  "devdoc": {
    "kind": "dev",
    "methods": {},
    "version": 1
  },
  "userdoc": {
    "kind": "user",
    "methods": {},
    "version": 1
  }
}